{
	"CINFTVickreyAuction.sol": {
		"CINFTVickreyAuction": {
			"abi": [
				{
					"inputs": [
						{
							"internalType": "address",
							"name": "_cinft",
							"type": "address"
						}
					],
					"stateMutability": "nonpayable",
					"type": "constructor"
				},
				{
					"inputs": [
						{
							"internalType": "uint256",
							"name": "minBid",
							"type": "uint256"
						}
					],
					"name": "CINFTVickreyAuction__BidAmountLowerThanMinBid",
					"type": "error"
				},
				{
					"inputs": [],
					"name": "CINFTVickreyAuction__BidAmountNotEqualToValueSent",
					"type": "error"
				},
				{
					"inputs": [],
					"name": "CINFTVickreyAuction__BidTimeExpired",
					"type": "error"
				},
				{
					"inputs": [],
					"name": "CINFTVickreyAuction__BidTimeNotExpired",
					"type": "error"
				},
				{
					"inputs": [],
					"name": "CINFTVickreyAuction__NftAlreadyOnSale",
					"type": "error"
				},
				{
					"inputs": [],
					"name": "CINFTVickreyAuction__NftNotOnSale",
					"type": "error"
				},
				{
					"inputs": [
						{
							"internalType": "uint256",
							"name": "_tokenId",
							"type": "uint256"
						},
						{
							"internalType": "uint256",
							"name": "_bid",
							"type": "uint256"
						}
					],
					"name": "bid",
					"outputs": [],
					"stateMutability": "payable",
					"type": "function"
				},
				{
					"inputs": [
						{
							"internalType": "uint256",
							"name": "_tokenId",
							"type": "uint256"
						}
					],
					"name": "completeAuction",
					"outputs": [],
					"stateMutability": "nonpayable",
					"type": "function"
				},
				{
					"inputs": [
						{
							"internalType": "uint256",
							"name": "_tokenId",
							"type": "uint256"
						}
					],
					"name": "getDescription",
					"outputs": [
						{
							"internalType": "string",
							"name": "",
							"type": "string"
						}
					],
					"stateMutability": "view",
					"type": "function"
				},
				{
					"inputs": [
						{
							"internalType": "address",
							"name": "_seller",
							"type": "address"
						}
					],
					"name": "getListOfNftsBySeller",
					"outputs": [
						{
							"internalType": "uint256[]",
							"name": "",
							"type": "uint256[]"
						}
					],
					"stateMutability": "view",
					"type": "function"
				},
				{
					"inputs": [
						{
							"internalType": "uint256",
							"name": "_tokenId",
							"type": "uint256"
						}
					],
					"name": "getMinBid",
					"outputs": [
						{
							"internalType": "uint256",
							"name": "",
							"type": "uint256"
						}
					],
					"stateMutability": "view",
					"type": "function"
				},
				{
					"inputs": [
						{
							"internalType": "uint256",
							"name": "_tokenId",
							"type": "uint256"
						}
					],
					"name": "getNftsBidEndTime",
					"outputs": [
						{
							"internalType": "uint256",
							"name": "",
							"type": "uint256"
						}
					],
					"stateMutability": "view",
					"type": "function"
				},
				{
					"inputs": [],
					"name": "getNftsOnSale",
					"outputs": [
						{
							"internalType": "uint256[]",
							"name": "",
							"type": "uint256[]"
						}
					],
					"stateMutability": "view",
					"type": "function"
				},
				{
					"inputs": [
						{
							"internalType": "uint256",
							"name": "_tokenId",
							"type": "uint256"
						}
					],
					"name": "isNftOnSale",
					"outputs": [
						{
							"internalType": "bool",
							"name": "",
							"type": "bool"
						}
					],
					"stateMutability": "view",
					"type": "function"
				},
				{
					"inputs": [
						{
							"internalType": "uint256",
							"name": "_tokenId",
							"type": "uint256"
						},
						{
							"internalType": "uint256",
							"name": "_minBid",
							"type": "uint256"
						},
						{
							"internalType": "uint256",
							"name": "_bidTimeInSeconds",
							"type": "uint256"
						},
						{
							"internalType": "string",
							"name": "_description",
							"type": "string"
						}
					],
					"name": "putNftOnSale",
					"outputs": [],
					"stateMutability": "nonpayable",
					"type": "function"
				},
				{
					"stateMutability": "payable",
					"type": "receive"
				}
			],
			"devdoc": {
				"author": "Yug Agarwal",
				"details": "It is a Vickrey auction contract for CINFTs where users can put their CINFTs on sale, bid on them, and complete the auction.It is deployed on TENIt is only possible on TEN since it leverage its FHE capabilities to keep the bids secret until the auction is complete.                                                                          .            .                                   .#                         +#####+---+###+#############+-                  -+###.                        +###+++####+##-+++++##+++##++####+-.         -+###+++                         +#########.-#+--+####++###- -########+---+++#####+++                          +#######+#+++--+####+-..-+-.###+++########+-++###++.                          +######.     +#-#####+-.-------+############+++####-                           +####++...     ########-++-        +##########++++++.                           -#######-+.    .########+++          -++######+++-                                #++########--+-+####++++-- . ..    .-#++--+##+####.                               -+++++++++#####---###---.----###+-+########..-+#++##-                             ++###+++++#####-..---.. .+##++++#++#++-+--.   .-++++#                              .###+.  .+#+-+###+ ..    +##+##+#++----...---.  .-+--+.                             ###+---------+####+   -####+-.......    ...--++.  .---.                            -#++++-----#######+-  .-+###+.... .....      .-+##-.  .                             ##+++###++######++-.   .--+---++---........  ...---.  .                             -####+-+#++###++-.        .--.--...-----.......--..... .                             +######+++###+--..---.....  ...---------------.. .. .  .                             .-#########+#+++--++--------......----++--.--.  .--+---.                              -+++########++--++++----------------------.--+++--+++--                              .######-.-++++###+----------------------..---++--++-+++---..                              -##########-------+-----------------------+-++-++----..----+----+#####++--..              -#############+..  ..--..----------.....-+++++++++++++++++##################+.            --+++++#########+-   . ....  ....... -+++++++++++++++++++############-.----+##-           -----....-+#######+-             .. -+++++++++++++++++++++##+######+.       +++.          --------.....---+#####+--......----.+++++++++++++++++++++##+-+++##+.        -++-          -------...   .--++++++---.....-----.+++++++++++++++++++++++. -+++##-        .---          #################+--.....-------.  .+++++++++++++++++++++-       -+-.       .---          +#########++++-.. .......-+--..--++-++++++++++++++++++++-         .-... ....----          -#####++---..   .--       -+++-.  ..+++++++++++++++++++--        .-+-......-+---          +####+---...    -+#-   .  --++++-. .+++++++++++++++++++---        --        -+--          ++++++++++--....-++.--++--.--+++++-.+++++++++++++++++++---. .......         ----          .--++#########++-.--.+++++--++++###+-++++++++++++++++++++----   .-++-        ----          .-+#############+-.++#+-+-++#######-++++++++++++++++++++----   -++++-      ..---          .---+############+.+###++--++#####++-+++++++++++++++++++++-------++++-........-+-          --+-+##########-+######+++++-++++++-++++++++++++++++++++++-----.----.......---+-          .--+---#######..+#######+++++++--+++-+++++++++++++++++++++++-----------------+++-          .++--..-+##-.-########+++++---++ .+-.+++++++++++++++++++++++++++++++++++---+++++-          -+++. ..-..-+#########++-++--..--....+++++++++++++++++++++++++++++++++++++++++++-          -++-......-+++############++++----- .+++++++++++++++++++++++++++++++++++++++++++-          +##-.....---+#######+####+####+--++-.+++++++++++++++++++++++++++++++++++++++++++-          .#+++-...-++######++-+-----..----++##-+++++++++++++++++++++++++++++++++++++++++++-          .+++--------+##----+------+-..----+++-+++++++++++++++++++++++++++++++++++++++++++-          ----.-----+++-+-...------++-----...--+++++++++++++++++++++++++++++++++++++++++++-          .-..-.--.----..--.... ....++--.  ....-+++++++++++++++++++++++++++++++++++++++++++-          -----------.---..--..   ..+.  . ... .+++++++++++++++++++++++++++++++++++++++++++-          .+#+#+---####+-.    .....--...   .    .+++++++++++++++++++++++++++++++++++++++++++-          -+++++#++++++++.    ..-...--.. ..     .+++++++++++++++++++++++++++++++++++++++++++-          ++++++-------++--   . ....--.. . . .. .+++++++++++++++++++++++++-+----------...              -++++--++++.------......-- ...  ..  . .---------------...                                    -++-+####+++---..-.........                                                                   .....                                                                                      ",
				"kind": "dev",
				"methods": {
					"bid(uint256,uint256)": {
						"details": "to bid on a nft on sale, the bidder must send the bid amount in msg.value",
						"params": {
							"_bid": "The bid amount",
							"_tokenId": "The tokenId of the nft to bid on"
						}
					},
					"completeAuction(uint256)": {
						"details": "This function can be called by anyone after the bid time has expiredIf there are no bids, the nft is returned to the sellerThe highest bidder gets the nft and pays the second highest bid amount to the sellerThe highest bidder is refunded the difference between their bid and the second highest bidAll other bidders are refunded their bidsIf there is only one bid, the highest bidder gets the nft and pays",
						"params": {
							"_tokenId": "The tokenId of the nft to complete the auction for"
						}
					},
					"constructor": {
						"params": {
							"_cinft": "The address of the CINFT contract"
						}
					},
					"getDescription(uint256)": {
						"params": {
							"_tokenId": "The token id of nft"
						},
						"returns": {
							"_0": "The description of the NFT on Sale"
						}
					},
					"getListOfNftsBySeller(address)": {
						"params": {
							"_seller": "The address of the seller"
						},
						"returns": {
							"_0": "The list of tokenIds of nfts put on sale by the seller"
						}
					},
					"getMinBid(uint256)": {
						"params": {
							"_tokenId": "The tokenId of the nft"
						},
						"returns": {
							"_0": "The minimum bid for the nft"
						}
					},
					"getNftsBidEndTime(uint256)": {
						"params": {
							"_tokenId": "The tokenId of the nft"
						},
						"returns": {
							"_0": "The end time of the bid for the nft"
						}
					},
					"getNftsOnSale()": {
						"returns": {
							"_0": "The address of the CINFT contract"
						}
					},
					"isNftOnSale(uint256)": {
						"params": {
							"_tokenId": "The tokenId of the nft"
						},
						"returns": {
							"_0": "The status of NFT, true if ON_SALE, false if NOT_ON_SALE"
						}
					},
					"putNftOnSale(uint256,uint256,uint256,string)": {
						"details": "This function assumes that the owner has already approved the contract to transfer the nft",
						"params": {
							"_bidTimeInSeconds": "The auction time (in secs) for this nft",
							"_description": "The desciption by seller",
							"_minBid": "Min bid for the nft",
							"_tokenId": "The tokenId of the nft to be put on sale"
						}
					}
				},
				"title": "CINFT Vickrey Auction Contract",
				"version": 1
			},
			"evm": {
				"assembly": "    /* \"CINFTVickreyAuction.sol\":5716:14488  contract CINFTVickreyAuction {... */\n  mstore(0x40, 0xa0)\n    /* \"CINFTVickreyAuction.sol\":7069:7139  constructor(address _cinft) {... */\n  callvalue\n  dup1\n  iszero\n  tag_1\n  jumpi\n  revert(0x00, 0x00)\ntag_1:\n  pop\n  mload(0x40)\n  sub(codesize, bytecodeSize)\n  dup1\n  bytecodeSize\n  dup4\n  codecopy\n  dup2\n  dup2\n  add\n  0x40\n  mstore\n  dup2\n  add\n  swap1\n  tag_2\n  swap2\n  swap1\n  tag_3\n  jump\t// in\ntag_2:\n    /* \"CINFTVickreyAuction.sol\":7125:7131  _cinft */\n  dup1\n    /* \"CINFTVickreyAuction.sol\":7107:7132  i_cinft = IERC721(_cinft) */\n  0xffffffffffffffffffffffffffffffffffffffff\n  and\n  0x80\n  dup2\n  0xffffffffffffffffffffffffffffffffffffffff\n  and\n  dup2\n  mstore\n  pop\n  pop\n    /* \"CINFTVickreyAuction.sol\":7069:7139  constructor(address _cinft) {... */\n  pop\n    /* \"CINFTVickreyAuction.sol\":5716:14488  contract CINFTVickreyAuction {... */\n  jump(tag_6)\n    /* \"#utility.yul\":88:205   */\ntag_8:\n    /* \"#utility.yul\":197:198   */\n  0x00\n    /* \"#utility.yul\":194:195   */\n  0x00\n    /* \"#utility.yul\":187:199   */\n  revert\n    /* \"#utility.yul\":334:460   */\ntag_10:\n    /* \"#utility.yul\":371:378   */\n  0x00\n    /* \"#utility.yul\":411:453   */\n  0xffffffffffffffffffffffffffffffffffffffff\n    /* \"#utility.yul\":404:409   */\n  dup3\n    /* \"#utility.yul\":400:454   */\n  and\n    /* \"#utility.yul\":389:454   */\n  swap1\n  pop\n    /* \"#utility.yul\":334:460   */\n  swap2\n  swap1\n  pop\n  jump\t// out\n    /* \"#utility.yul\":466:562   */\ntag_11:\n    /* \"#utility.yul\":503:510   */\n  0x00\n    /* \"#utility.yul\":532:556   */\n  tag_20\n    /* \"#utility.yul\":550:555   */\n  dup3\n    /* \"#utility.yul\":532:556   */\n  tag_10\n  jump\t// in\ntag_20:\n    /* \"#utility.yul\":521:556   */\n  swap1\n  pop\n    /* \"#utility.yul\":466:562   */\n  swap2\n  swap1\n  pop\n  jump\t// out\n    /* \"#utility.yul\":568:690   */\ntag_12:\n    /* \"#utility.yul\":641:665   */\n  tag_22\n    /* \"#utility.yul\":659:664   */\n  dup2\n    /* \"#utility.yul\":641:665   */\n  tag_11\n  jump\t// in\ntag_22:\n    /* \"#utility.yul\":634:639   */\n  dup2\n    /* \"#utility.yul\":631:666   */\n  eq\n    /* \"#utility.yul\":621:684   */\n  tag_23\n  jumpi\n    /* \"#utility.yul\":680:681   */\n  0x00\n    /* \"#utility.yul\":677:678   */\n  0x00\n    /* \"#utility.yul\":670:682   */\n  revert\n    /* \"#utility.yul\":621:684   */\ntag_23:\n    /* \"#utility.yul\":568:690   */\n  pop\n  jump\t// out\n    /* \"#utility.yul\":696:839   */\ntag_13:\n    /* \"#utility.yul\":753:758   */\n  0x00\n    /* \"#utility.yul\":784:790   */\n  dup2\n    /* \"#utility.yul\":778:791   */\n  mload\n    /* \"#utility.yul\":769:791   */\n  swap1\n  pop\n    /* \"#utility.yul\":800:833   */\n  tag_25\n    /* \"#utility.yul\":827:832   */\n  dup2\n    /* \"#utility.yul\":800:833   */\n  tag_12\n  jump\t// in\ntag_25:\n    /* \"#utility.yul\":696:839   */\n  swap3\n  swap2\n  pop\n  pop\n  jump\t// out\n    /* \"#utility.yul\":845:1196   */\ntag_3:\n    /* \"#utility.yul\":915:921   */\n  0x00\n    /* \"#utility.yul\":964:966   */\n  0x20\n    /* \"#utility.yul\":952:961   */\n  dup3\n    /* \"#utility.yul\":943:950   */\n  dup5\n    /* \"#utility.yul\":939:962   */\n  sub\n    /* \"#utility.yul\":935:967   */\n  slt\n    /* \"#utility.yul\":932:1051   */\n  iszero\n  tag_27\n  jumpi\n    /* \"#utility.yul\":970:1049   */\n  tag_28\n  tag_8\n  jump\t// in\ntag_28:\n    /* \"#utility.yul\":932:1051   */\ntag_27:\n    /* \"#utility.yul\":1090:1091   */\n  0x00\n    /* \"#utility.yul\":1115:1179   */\n  tag_29\n    /* \"#utility.yul\":1171:1178   */\n  dup5\n    /* \"#utility.yul\":1162:1168   */\n  dup3\n    /* \"#utility.yul\":1151:1160   */\n  dup6\n    /* \"#utility.yul\":1147:1169   */\n  add\n    /* \"#utility.yul\":1115:1179   */\n  tag_13\n  jump\t// in\ntag_29:\n    /* \"#utility.yul\":1105:1179   */\n  swap2\n  pop\n    /* \"#utility.yul\":1061:1189   */\n  pop\n    /* \"#utility.yul\":845:1196   */\n  swap3\n  swap2\n  pop\n  pop\n  jump\t// out\n    /* \"CINFTVickreyAuction.sol\":5716:14488  contract CINFTVickreyAuction {... */\ntag_6:\n  mload(0x80)\n  codecopy(0x00, dataOffset(sub_0), dataSize(sub_0))\n  0x00\n  assignImmutable(\"0xc5bf1d490d2f4e87cc1d5184cd59114bcef0e857ac09f6d840a1caed5b52d973\")\n  return(0x00, dataSize(sub_0))\nstop\n\nsub_0: assembly {\n        /* \"CINFTVickreyAuction.sol\":5716:14488  contract CINFTVickreyAuction {... */\n      mstore(0x40, 0x80)\n      jumpi(tag_1, lt(calldatasize, 0x04))\n      shr(0xe0, calldataload(0x00))\n      dup1\n      0x4925ec55\n      gt\n      tag_12\n      jumpi\n      dup1\n      0x4925ec55\n      eq\n      tag_7\n      jumpi\n      dup1\n      0x598647f8\n      eq\n      tag_8\n      jumpi\n      dup1\n      0x75d1f140\n      eq\n      tag_9\n      jumpi\n      dup1\n      0x7f21d498\n      eq\n      tag_10\n      jumpi\n      dup1\n      0xaacbc1d9\n      eq\n      tag_11\n      jumpi\n      jump(tag_2)\n    tag_12:\n      dup1\n      0x0faf0ea8\n      eq\n      tag_3\n      jumpi\n      dup1\n      0x21b62886\n      eq\n      tag_4\n      jumpi\n      dup1\n      0x48829126\n      eq\n      tag_5\n      jumpi\n      dup1\n      0x48a51f72\n      eq\n      tag_6\n      jumpi\n      jump(tag_2)\n    tag_1:\n      jumpi(tag_2, calldatasize)\n      stop\n    tag_2:\n      revert(0x00, 0x00)\n        /* \"CINFTVickreyAuction.sol\":13321:13452  function isNftOnSale(uint256 _tokenId) public view returns(bool) {... */\n    tag_3:\n      callvalue\n      dup1\n      iszero\n      tag_15\n      jumpi\n      revert(0x00, 0x00)\n    tag_15:\n      pop\n      tag_16\n      0x04\n      dup1\n      calldatasize\n      sub\n      dup2\n      add\n      swap1\n      tag_17\n      swap2\n      swap1\n      tag_18\n      jump\t// in\n    tag_17:\n      tag_19\n      jump\t// in\n    tag_16:\n      mload(0x40)\n      tag_20\n      swap2\n      swap1\n      tag_21\n      jump\t// in\n    tag_20:\n      mload(0x40)\n      dup1\n      swap2\n      sub\n      swap1\n      return\n        /* \"CINFTVickreyAuction.sol\":9524:12037  function completeAuction(uint256 _tokenId) public {... */\n    tag_4:\n      callvalue\n      dup1\n      iszero\n      tag_22\n      jumpi\n      revert(0x00, 0x00)\n    tag_22:\n      pop\n      tag_23\n      0x04\n      dup1\n      calldatasize\n      sub\n      dup2\n      add\n      swap1\n      tag_24\n      swap2\n      swap1\n      tag_18\n      jump\t// in\n    tag_24:\n      tag_25\n      jump\t// in\n    tag_23:\n      stop\n        /* \"CINFTVickreyAuction.sol\":7502:8210  function putNftOnSale(uint256 _tokenId, uint256 _minBid, uint256 _bidTimeInSeconds, string memory _description) public {... */\n    tag_5:\n      callvalue\n      dup1\n      iszero\n      tag_26\n      jumpi\n      revert(0x00, 0x00)\n    tag_26:\n      pop\n      tag_27\n      0x04\n      dup1\n      calldatasize\n      sub\n      dup2\n      add\n      swap1\n      tag_28\n      swap2\n      swap1\n      tag_29\n      jump\t// in\n    tag_28:\n      tag_30\n      jump\t// in\n    tag_27:\n      stop\n        /* \"CINFTVickreyAuction.sol\":13579:13699  function getNftsBidEndTime(uint256 _tokenId) public view returns(uint256) {... */\n    tag_6:\n      callvalue\n      dup1\n      iszero\n      tag_31\n      jumpi\n      revert(0x00, 0x00)\n    tag_31:\n      pop\n      tag_32\n      0x04\n      dup1\n      calldatasize\n      sub\n      dup2\n      add\n      swap1\n      tag_33\n      swap2\n      swap1\n      tag_18\n      jump\t// in\n    tag_33:\n      tag_34\n      jump\t// in\n    tag_32:\n      mload(0x40)\n      tag_35\n      swap2\n      swap1\n      tag_36\n      jump\t// in\n    tag_35:\n      mload(0x40)\n      dup1\n      swap2\n      sub\n      swap1\n      return\n        /* \"CINFTVickreyAuction.sol\":14326:14450  function getDescription(uint256 _tokenId) public view returns(string memory) {... */\n    tag_7:\n      callvalue\n      dup1\n      iszero\n      tag_37\n      jumpi\n      revert(0x00, 0x00)\n    tag_37:\n      pop\n      tag_38\n      0x04\n      dup1\n      calldatasize\n      sub\n      dup2\n      add\n      swap1\n      tag_39\n      swap2\n      swap1\n      tag_18\n      jump\t// in\n    tag_39:\n      tag_40\n      jump\t// in\n    tag_38:\n      mload(0x40)\n      tag_41\n      swap2\n      swap1\n      tag_42\n      jump\t// in\n    tag_41:\n      mload(0x40)\n      dup1\n      swap2\n      sub\n      swap1\n      return\n        /* \"CINFTVickreyAuction.sol\":8408:8938  function bid(uint256 _tokenId, uint256 _bid) public payable {... */\n    tag_8:\n      tag_43\n      0x04\n      dup1\n      calldatasize\n      sub\n      dup2\n      add\n      swap1\n      tag_44\n      swap2\n      swap1\n      tag_45\n      jump\t// in\n    tag_44:\n      tag_46\n      jump\t// in\n    tag_43:\n      stop\n        /* \"CINFTVickreyAuction.sol\":13083:13181  function getNftsOnSale() public view returns(uint256[] memory) {... */\n    tag_9:\n      callvalue\n      dup1\n      iszero\n      tag_47\n      jumpi\n      revert(0x00, 0x00)\n    tag_47:\n      pop\n      tag_48\n      tag_49\n      jump\t// in\n    tag_48:\n      mload(0x40)\n      tag_50\n      swap2\n      swap1\n      tag_51\n      jump\t// in\n    tag_50:\n      mload(0x40)\n      dup1\n      swap2\n      sub\n      swap1\n      return\n        /* \"CINFTVickreyAuction.sol\":13818:13926  function getMinBid(uint256 _tokenId) public view returns(uint256) {... */\n    tag_10:\n      callvalue\n      dup1\n      iszero\n      tag_52\n      jumpi\n      revert(0x00, 0x00)\n    tag_52:\n      pop\n      tag_53\n      0x04\n      dup1\n      calldatasize\n      sub\n      dup2\n      add\n      swap1\n      tag_54\n      swap2\n      swap1\n      tag_18\n      jump\t// in\n    tag_54:\n      tag_55\n      jump\t// in\n    tag_53:\n      mload(0x40)\n      tag_56\n      swap2\n      swap1\n      tag_36\n      jump\t// in\n    tag_56:\n      mload(0x40)\n      dup1\n      swap2\n      sub\n      swap1\n      return\n        /* \"CINFTVickreyAuction.sol\":14074:14211  function getListOfNftsBySeller(address _seller) public view returns(uint256[] memory) {... */\n    tag_11:\n      callvalue\n      dup1\n      iszero\n      tag_57\n      jumpi\n      revert(0x00, 0x00)\n    tag_57:\n      pop\n      tag_58\n      0x04\n      dup1\n      calldatasize\n      sub\n      dup2\n      add\n      swap1\n      tag_59\n      swap2\n      swap1\n      tag_60\n      jump\t// in\n    tag_59:\n      tag_61\n      jump\t// in\n    tag_58:\n      mload(0x40)\n      tag_62\n      swap2\n      swap1\n      tag_51\n      jump\t// in\n    tag_62:\n      mload(0x40)\n      dup1\n      swap2\n      sub\n      swap1\n      return\n        /* \"CINFTVickreyAuction.sol\":13321:13452  function isNftOnSale(uint256 _tokenId) public view returns(bool) {... */\n    tag_19:\n        /* \"CINFTVickreyAuction.sol\":13380:13384  bool */\n      0x00\n        /* \"CINFTVickreyAuction.sol\":13428:13445  NftStatus.ON_SALE */\n      0x01\n        /* \"CINFTVickreyAuction.sol\":13403:13445  s_nftStatus[_tokenId] == NftStatus.ON_SALE */\n      dup1\n      dup2\n      gt\n      iszero\n      tag_64\n      jumpi\n      tag_65\n      tag_66\n      jump\t// in\n    tag_65:\n    tag_64:\n        /* \"CINFTVickreyAuction.sol\":13403:13414  s_nftStatus */\n      0x04\n        /* \"CINFTVickreyAuction.sol\":13403:13424  s_nftStatus[_tokenId] */\n      0x00\n        /* \"CINFTVickreyAuction.sol\":13415:13423  _tokenId */\n      dup5\n        /* \"CINFTVickreyAuction.sol\":13403:13424  s_nftStatus[_tokenId] */\n      dup2\n      mstore\n      0x20\n      add\n      swap1\n      dup2\n      mstore\n      0x20\n      add\n      0x00\n      keccak256\n      0x00\n      swap1\n      sload\n      swap1\n      0x0100\n      exp\n      swap1\n      div\n      0xff\n      and\n        /* \"CINFTVickreyAuction.sol\":13403:13445  s_nftStatus[_tokenId] == NftStatus.ON_SALE */\n      0x01\n      dup2\n      gt\n      iszero\n      tag_67\n      jumpi\n      tag_68\n      tag_66\n      jump\t// in\n    tag_68:\n    tag_67:\n      eq\n        /* \"CINFTVickreyAuction.sol\":13396:13445  return s_nftStatus[_tokenId] == NftStatus.ON_SALE */\n      swap1\n      pop\n        /* \"CINFTVickreyAuction.sol\":13321:13452  function isNftOnSale(uint256 _tokenId) public view returns(bool) {... */\n      swap2\n      swap1\n      pop\n      jump\t// out\n        /* \"CINFTVickreyAuction.sol\":9524:12037  function completeAuction(uint256 _tokenId) public {... */\n    tag_25:\n        /* \"CINFTVickreyAuction.sol\":9612:9629  NftStatus.ON_SALE */\n      0x01\n        /* \"CINFTVickreyAuction.sol\":9587:9629  s_nftStatus[_tokenId] != NftStatus.ON_SALE */\n      dup1\n      dup2\n      gt\n      iszero\n      tag_70\n      jumpi\n      tag_71\n      tag_66\n      jump\t// in\n    tag_71:\n    tag_70:\n        /* \"CINFTVickreyAuction.sol\":9587:9598  s_nftStatus */\n      0x04\n        /* \"CINFTVickreyAuction.sol\":9587:9608  s_nftStatus[_tokenId] */\n      0x00\n        /* \"CINFTVickreyAuction.sol\":9599:9607  _tokenId */\n      dup4\n        /* \"CINFTVickreyAuction.sol\":9587:9608  s_nftStatus[_tokenId] */\n      dup2\n      mstore\n      0x20\n      add\n      swap1\n      dup2\n      mstore\n      0x20\n      add\n      0x00\n      keccak256\n      0x00\n      swap1\n      sload\n      swap1\n      0x0100\n      exp\n      swap1\n      div\n      0xff\n      and\n        /* \"CINFTVickreyAuction.sol\":9587:9629  s_nftStatus[_tokenId] != NftStatus.ON_SALE */\n      0x01\n      dup2\n      gt\n      iszero\n      tag_72\n      jumpi\n      tag_73\n      tag_66\n      jump\t// in\n    tag_73:\n    tag_72:\n      eq\n        /* \"CINFTVickreyAuction.sol\":9584:9685  if(s_nftStatus[_tokenId] != NftStatus.ON_SALE)... */\n      tag_74\n      jumpi\n        /* \"CINFTVickreyAuction.sol\":9650:9685  CINFTVickreyAuction__NftNotOnSale() */\n      mload(0x40)\n      0x2552b20a00000000000000000000000000000000000000000000000000000000\n      dup2\n      mstore\n      0x04\n      add\n      mload(0x40)\n      dup1\n      swap2\n      sub\n      swap1\n      revert\n        /* \"CINFTVickreyAuction.sol\":9584:9685  if(s_nftStatus[_tokenId] != NftStatus.ON_SALE)... */\n    tag_74:\n        /* \"CINFTVickreyAuction.sol\":9716:9728  s_bidEndTime */\n      0x05\n        /* \"CINFTVickreyAuction.sol\":9716:9738  s_bidEndTime[_tokenId] */\n      0x00\n        /* \"CINFTVickreyAuction.sol\":9729:9737  _tokenId */\n      dup3\n        /* \"CINFTVickreyAuction.sol\":9716:9738  s_bidEndTime[_tokenId] */\n      dup2\n      mstore\n      0x20\n      add\n      swap1\n      dup2\n      mstore\n      0x20\n      add\n      0x00\n      keccak256\n      sload\n        /* \"CINFTVickreyAuction.sol\":9698:9713  block.timestamp */\n      timestamp\n        /* \"CINFTVickreyAuction.sol\":9698:9738  block.timestamp < s_bidEndTime[_tokenId] */\n      lt\n        /* \"CINFTVickreyAuction.sol\":9695:9787  if(block.timestamp < s_bidEndTime[_tokenId]) revert CINFTVickreyAuction__BidTimeNotExpired() */\n      iszero\n      tag_75\n      jumpi\n        /* \"CINFTVickreyAuction.sol\":9747:9787  CINFTVickreyAuction__BidTimeNotExpired() */\n      mload(0x40)\n      0xbcd8d21300000000000000000000000000000000000000000000000000000000\n      dup2\n      mstore\n      0x04\n      add\n      mload(0x40)\n      dup1\n      swap2\n      sub\n      swap1\n      revert\n        /* \"CINFTVickreyAuction.sol\":9695:9787  if(block.timestamp < s_bidEndTime[_tokenId]) revert CINFTVickreyAuction__BidTimeNotExpired() */\n    tag_75:\n        /* \"CINFTVickreyAuction.sol\":9891:9892  0 */\n      0x00\n        /* \"CINFTVickreyAuction.sol\":9862:9870  s_biders */\n      0x01\n        /* \"CINFTVickreyAuction.sol\":9862:9880  s_biders[_tokenId] */\n      0x00\n        /* \"CINFTVickreyAuction.sol\":9871:9879  _tokenId */\n      dup4\n        /* \"CINFTVickreyAuction.sol\":9862:9880  s_biders[_tokenId] */\n      dup2\n      mstore\n      0x20\n      add\n      swap1\n      dup2\n      mstore\n      0x20\n      add\n      0x00\n      keccak256\n        /* \"CINFTVickreyAuction.sol\":9862:9887  s_biders[_tokenId].length */\n      dup1\n      sload\n      swap1\n      pop\n        /* \"CINFTVickreyAuction.sol\":9862:9892  s_biders[_tokenId].length == 0 */\n      sub\n        /* \"CINFTVickreyAuction.sol\":9859:11037  if(s_biders[_tokenId].length == 0) {... */\n      tag_76\n      jumpi\n        /* \"CINFTVickreyAuction.sol\":9908:9915  i_cinft */\n      immutable(\"0xc5bf1d490d2f4e87cc1d5184cd59114bcef0e857ac09f6d840a1caed5b52d973\")\n        /* \"CINFTVickreyAuction.sol\":9908:9928  i_cinft.transferFrom */\n      0xffffffffffffffffffffffffffffffffffffffff\n      and\n      0x23b872dd\n        /* \"CINFTVickreyAuction.sol\":9937:9941  this */\n      address\n        /* \"CINFTVickreyAuction.sol\":9944:9952  s_seller */\n      0x06\n        /* \"CINFTVickreyAuction.sol\":9944:9962  s_seller[_tokenId] */\n      0x00\n        /* \"CINFTVickreyAuction.sol\":9953:9961  _tokenId */\n      dup6\n        /* \"CINFTVickreyAuction.sol\":9944:9962  s_seller[_tokenId] */\n      dup2\n      mstore\n      0x20\n      add\n      swap1\n      dup2\n      mstore\n      0x20\n      add\n      0x00\n      keccak256\n      0x00\n      swap1\n      sload\n      swap1\n      0x0100\n      exp\n      swap1\n      div\n      0xffffffffffffffffffffffffffffffffffffffff\n      and\n        /* \"CINFTVickreyAuction.sol\":9964:9972  _tokenId */\n      dup5\n        /* \"CINFTVickreyAuction.sol\":9908:9973  i_cinft.transferFrom(address(this), s_seller[_tokenId], _tokenId) */\n      mload(0x40)\n      dup5\n      0xffffffff\n      and\n      0xe0\n      shl\n      dup2\n      mstore\n      0x04\n      add\n      tag_77\n      swap4\n      swap3\n      swap2\n      swap1\n      tag_78\n      jump\t// in\n    tag_77:\n      0x00\n      mload(0x40)\n      dup1\n      dup4\n      sub\n      dup2\n      0x00\n      dup8\n      dup1\n      extcodesize\n      iszero\n      dup1\n      iszero\n      tag_79\n      jumpi\n      revert(0x00, 0x00)\n    tag_79:\n      pop\n      gas\n      call\n      iszero\n      dup1\n      iszero\n      tag_81\n      jumpi\n      returndatacopy(0x00, 0x00, returndatasize)\n      revert(0x00, returndatasize)\n    tag_81:\n      pop\n      pop\n      pop\n      pop\n        /* \"CINFTVickreyAuction.sol\":9859:11037  if(s_biders[_tokenId].length == 0) {... */\n      jump(tag_82)\n    tag_76:\n        /* \"CINFTVickreyAuction.sol\":10066:10067  1 */\n      0x01\n        /* \"CINFTVickreyAuction.sol\":10037:10045  s_biders */\n      dup1\n        /* \"CINFTVickreyAuction.sol\":10037:10055  s_biders[_tokenId] */\n      0x00\n        /* \"CINFTVickreyAuction.sol\":10046:10054  _tokenId */\n      dup4\n        /* \"CINFTVickreyAuction.sol\":10037:10055  s_biders[_tokenId] */\n      dup2\n      mstore\n      0x20\n      add\n      swap1\n      dup2\n      mstore\n      0x20\n      add\n      0x00\n      keccak256\n        /* \"CINFTVickreyAuction.sol\":10037:10062  s_biders[_tokenId].length */\n      dup1\n      sload\n      swap1\n      pop\n        /* \"CINFTVickreyAuction.sol\":10037:10067  s_biders[_tokenId].length == 1 */\n      sub\n        /* \"CINFTVickreyAuction.sol\":10034:11037  if(s_biders[_tokenId].length == 1) {... */\n      tag_83\n      jumpi\n        /* \"CINFTVickreyAuction.sol\":10133:10140  i_cinft */\n      immutable(\"0xc5bf1d490d2f4e87cc1d5184cd59114bcef0e857ac09f6d840a1caed5b52d973\")\n        /* \"CINFTVickreyAuction.sol\":10133:10153  i_cinft.transferFrom */\n      0xffffffffffffffffffffffffffffffffffffffff\n      and\n      0x23b872dd\n        /* \"CINFTVickreyAuction.sol\":10162:10166  this */\n      address\n        /* \"CINFTVickreyAuction.sol\":10169:10177  s_biders */\n      0x01\n        /* \"CINFTVickreyAuction.sol\":10169:10187  s_biders[_tokenId] */\n      0x00\n        /* \"CINFTVickreyAuction.sol\":10178:10186  _tokenId */\n      dup6\n        /* \"CINFTVickreyAuction.sol\":10169:10187  s_biders[_tokenId] */\n      dup2\n      mstore\n      0x20\n      add\n      swap1\n      dup2\n      mstore\n      0x20\n      add\n      0x00\n      keccak256\n        /* \"CINFTVickreyAuction.sol\":10188:10189  0 */\n      0x00\n        /* \"CINFTVickreyAuction.sol\":10169:10190  s_biders[_tokenId][0] */\n      dup2\n      sload\n      dup2\n      lt\n      tag_84\n      jumpi\n      tag_85\n      tag_86\n      jump\t// in\n    tag_85:\n    tag_84:\n      swap1\n      0x00\n      mstore\n      keccak256(0x00, 0x20)\n      add\n      0x00\n      swap1\n      sload\n      swap1\n      0x0100\n      exp\n      swap1\n      div\n      0xffffffffffffffffffffffffffffffffffffffff\n      and\n        /* \"CINFTVickreyAuction.sol\":10192:10200  _tokenId */\n      dup5\n        /* \"CINFTVickreyAuction.sol\":10133:10201  i_cinft.transferFrom(address(this), s_biders[_tokenId][0], _tokenId) */\n      mload(0x40)\n      dup5\n      0xffffffff\n      and\n      0xe0\n      shl\n      dup2\n      mstore\n      0x04\n      add\n      tag_88\n      swap4\n      swap3\n      swap2\n      swap1\n      tag_78\n      jump\t// in\n    tag_88:\n      0x00\n      mload(0x40)\n      dup1\n      dup4\n      sub\n      dup2\n      0x00\n      dup8\n      dup1\n      extcodesize\n      iszero\n      dup1\n      iszero\n      tag_89\n      jumpi\n      revert(0x00, 0x00)\n    tag_89:\n      pop\n      gas\n      call\n      iszero\n      dup1\n      iszero\n      tag_91\n      jumpi\n      returndatacopy(0x00, 0x00, returndatasize)\n      revert(0x00, returndatasize)\n    tag_91:\n      pop\n      pop\n      pop\n      pop\n        /* \"CINFTVickreyAuction.sol\":10277:10285  s_seller */\n      0x06\n        /* \"CINFTVickreyAuction.sol\":10277:10295  s_seller[_tokenId] */\n      0x00\n        /* \"CINFTVickreyAuction.sol\":10286:10294  _tokenId */\n      dup3\n        /* \"CINFTVickreyAuction.sol\":10277:10295  s_seller[_tokenId] */\n      dup2\n      mstore\n      0x20\n      add\n      swap1\n      dup2\n      mstore\n      0x20\n      add\n      0x00\n      keccak256\n      0x00\n      swap1\n      sload\n      swap1\n      0x0100\n      exp\n      swap1\n      div\n      0xffffffffffffffffffffffffffffffffffffffff\n      and\n        /* \"CINFTVickreyAuction.sol\":10269:10305  payable(s_seller[_tokenId]).transfer */\n      0xffffffffffffffffffffffffffffffffffffffff\n      and\n        /* \"CINFTVickreyAuction.sol\":10269:10326  payable(s_seller[_tokenId]).transfer(s_bids[_tokenId][0]) */\n      0x08fc\n        /* \"CINFTVickreyAuction.sol\":10306:10312  s_bids */\n      0x02\n        /* \"CINFTVickreyAuction.sol\":10306:10322  s_bids[_tokenId] */\n      0x00\n        /* \"CINFTVickreyAuction.sol\":10313:10321  _tokenId */\n      dup5\n        /* \"CINFTVickreyAuction.sol\":10306:10322  s_bids[_tokenId] */\n      dup2\n      mstore\n      0x20\n      add\n      swap1\n      dup2\n      mstore\n      0x20\n      add\n      0x00\n      keccak256\n        /* \"CINFTVickreyAuction.sol\":10323:10324  0 */\n      0x00\n        /* \"CINFTVickreyAuction.sol\":10306:10325  s_bids[_tokenId][0] */\n      dup2\n      sload\n      dup2\n      lt\n      tag_92\n      jumpi\n      tag_93\n      tag_86\n      jump\t// in\n    tag_93:\n    tag_92:\n      swap1\n      0x00\n      mstore\n      keccak256(0x00, 0x20)\n      add\n      sload\n        /* \"CINFTVickreyAuction.sol\":10269:10326  payable(s_seller[_tokenId]).transfer(s_bids[_tokenId][0]) */\n      swap1\n      dup2\n      iszero\n      mul\n      swap1\n      mload(0x40)\n      0x00\n      mload(0x40)\n      dup1\n      dup4\n      sub\n      dup2\n      dup6\n      dup9\n      dup9\n      call\n      swap4\n      pop\n      pop\n      pop\n      pop\n      iszero\n      dup1\n      iszero\n      tag_96\n      jumpi\n      returndatacopy(0x00, 0x00, returndatasize)\n      revert(0x00, returndatasize)\n    tag_96:\n      pop\n        /* \"CINFTVickreyAuction.sol\":10034:11037  if(s_biders[_tokenId].length == 1) {... */\n      jump(tag_97)\n    tag_83:\n        /* \"CINFTVickreyAuction.sol\":10454:10461  i_cinft */\n      immutable(\"0xc5bf1d490d2f4e87cc1d5184cd59114bcef0e857ac09f6d840a1caed5b52d973\")\n        /* \"CINFTVickreyAuction.sol\":10454:10474  i_cinft.transferFrom */\n      0xffffffffffffffffffffffffffffffffffffffff\n      and\n      0x23b872dd\n        /* \"CINFTVickreyAuction.sol\":10483:10487  this */\n      address\n        /* \"CINFTVickreyAuction.sol\":10490:10498  s_biders */\n      0x01\n        /* \"CINFTVickreyAuction.sol\":10490:10508  s_biders[_tokenId] */\n      0x00\n        /* \"CINFTVickreyAuction.sol\":10499:10507  _tokenId */\n      dup6\n        /* \"CINFTVickreyAuction.sol\":10490:10508  s_biders[_tokenId] */\n      dup2\n      mstore\n      0x20\n      add\n      swap1\n      dup2\n      mstore\n      0x20\n      add\n      0x00\n      keccak256\n        /* \"CINFTVickreyAuction.sol\":10509:10510  0 */\n      0x00\n        /* \"CINFTVickreyAuction.sol\":10490:10511  s_biders[_tokenId][0] */\n      dup2\n      sload\n      dup2\n      lt\n      tag_98\n      jumpi\n      tag_99\n      tag_86\n      jump\t// in\n    tag_99:\n    tag_98:\n      swap1\n      0x00\n      mstore\n      keccak256(0x00, 0x20)\n      add\n      0x00\n      swap1\n      sload\n      swap1\n      0x0100\n      exp\n      swap1\n      div\n      0xffffffffffffffffffffffffffffffffffffffff\n      and\n        /* \"CINFTVickreyAuction.sol\":10513:10521  _tokenId */\n      dup5\n        /* \"CINFTVickreyAuction.sol\":10454:10522  i_cinft.transferFrom(address(this), s_biders[_tokenId][0], _tokenId) */\n      mload(0x40)\n      dup5\n      0xffffffff\n      and\n      0xe0\n      shl\n      dup2\n      mstore\n      0x04\n      add\n      tag_101\n      swap4\n      swap3\n      swap2\n      swap1\n      tag_78\n      jump\t// in\n    tag_101:\n      0x00\n      mload(0x40)\n      dup1\n      dup4\n      sub\n      dup2\n      0x00\n      dup8\n      dup1\n      extcodesize\n      iszero\n      dup1\n      iszero\n      tag_102\n      jumpi\n      revert(0x00, 0x00)\n    tag_102:\n      pop\n      gas\n      call\n      iszero\n      dup1\n      iszero\n      tag_104\n      jumpi\n      returndatacopy(0x00, 0x00, returndatasize)\n      revert(0x00, returndatasize)\n    tag_104:\n      pop\n      pop\n      pop\n      pop\n        /* \"CINFTVickreyAuction.sol\":10605:10613  s_seller */\n      0x06\n        /* \"CINFTVickreyAuction.sol\":10605:10623  s_seller[_tokenId] */\n      0x00\n        /* \"CINFTVickreyAuction.sol\":10614:10622  _tokenId */\n      dup3\n        /* \"CINFTVickreyAuction.sol\":10605:10623  s_seller[_tokenId] */\n      dup2\n      mstore\n      0x20\n      add\n      swap1\n      dup2\n      mstore\n      0x20\n      add\n      0x00\n      keccak256\n      0x00\n      swap1\n      sload\n      swap1\n      0x0100\n      exp\n      swap1\n      div\n      0xffffffffffffffffffffffffffffffffffffffff\n      and\n        /* \"CINFTVickreyAuction.sol\":10597:10633  payable(s_seller[_tokenId]).transfer */\n      0xffffffffffffffffffffffffffffffffffffffff\n      and\n        /* \"CINFTVickreyAuction.sol\":10597:10654  payable(s_seller[_tokenId]).transfer(s_bids[_tokenId][1]) */\n      0x08fc\n        /* \"CINFTVickreyAuction.sol\":10634:10640  s_bids */\n      0x02\n        /* \"CINFTVickreyAuction.sol\":10634:10650  s_bids[_tokenId] */\n      0x00\n        /* \"CINFTVickreyAuction.sol\":10641:10649  _tokenId */\n      dup5\n        /* \"CINFTVickreyAuction.sol\":10634:10650  s_bids[_tokenId] */\n      dup2\n      mstore\n      0x20\n      add\n      swap1\n      dup2\n      mstore\n      0x20\n      add\n      0x00\n      keccak256\n        /* \"CINFTVickreyAuction.sol\":10651:10652  1 */\n      0x01\n        /* \"CINFTVickreyAuction.sol\":10634:10653  s_bids[_tokenId][1] */\n      dup2\n      sload\n      dup2\n      lt\n      tag_105\n      jumpi\n      tag_106\n      tag_86\n      jump\t// in\n    tag_106:\n    tag_105:\n      swap1\n      0x00\n      mstore\n      keccak256(0x00, 0x20)\n      add\n      sload\n        /* \"CINFTVickreyAuction.sol\":10597:10654  payable(s_seller[_tokenId]).transfer(s_bids[_tokenId][1]) */\n      swap1\n      dup2\n      iszero\n      mul\n      swap1\n      mload(0x40)\n      0x00\n      mload(0x40)\n      dup1\n      dup4\n      sub\n      dup2\n      dup6\n      dup9\n      dup9\n      call\n      swap4\n      pop\n      pop\n      pop\n      pop\n      iszero\n      dup1\n      iszero\n      tag_109\n      jumpi\n      returndatacopy(0x00, 0x00, returndatasize)\n      revert(0x00, returndatasize)\n    tag_109:\n      pop\n        /* \"CINFTVickreyAuction.sol\":10736:10744  s_biders */\n      0x01\n        /* \"CINFTVickreyAuction.sol\":10736:10754  s_biders[_tokenId] */\n      0x00\n        /* \"CINFTVickreyAuction.sol\":10745:10753  _tokenId */\n      dup3\n        /* \"CINFTVickreyAuction.sol\":10736:10754  s_biders[_tokenId] */\n      dup2\n      mstore\n      0x20\n      add\n      swap1\n      dup2\n      mstore\n      0x20\n      add\n      0x00\n      keccak256\n        /* \"CINFTVickreyAuction.sol\":10755:10756  0 */\n      0x00\n        /* \"CINFTVickreyAuction.sol\":10736:10757  s_biders[_tokenId][0] */\n      dup2\n      sload\n      dup2\n      lt\n      tag_110\n      jumpi\n      tag_111\n      tag_86\n      jump\t// in\n    tag_111:\n    tag_110:\n      swap1\n      0x00\n      mstore\n      keccak256(0x00, 0x20)\n      add\n      0x00\n      swap1\n      sload\n      swap1\n      0x0100\n      exp\n      swap1\n      div\n      0xffffffffffffffffffffffffffffffffffffffff\n      and\n        /* \"CINFTVickreyAuction.sol\":10728:10767  payable(s_biders[_tokenId][0]).transfer */\n      0xffffffffffffffffffffffffffffffffffffffff\n      and\n        /* \"CINFTVickreyAuction.sol\":10728:10810  payable(s_biders[_tokenId][0]).transfer(s_bids[_tokenId][0] - s_bids[_tokenId][1]) */\n      0x08fc\n        /* \"CINFTVickreyAuction.sol\":10790:10796  s_bids */\n      0x02\n        /* \"CINFTVickreyAuction.sol\":10790:10806  s_bids[_tokenId] */\n      0x00\n        /* \"CINFTVickreyAuction.sol\":10797:10805  _tokenId */\n      dup5\n        /* \"CINFTVickreyAuction.sol\":10790:10806  s_bids[_tokenId] */\n      dup2\n      mstore\n      0x20\n      add\n      swap1\n      dup2\n      mstore\n      0x20\n      add\n      0x00\n      keccak256\n        /* \"CINFTVickreyAuction.sol\":10807:10808  1 */\n      0x01\n        /* \"CINFTVickreyAuction.sol\":10790:10809  s_bids[_tokenId][1] */\n      dup2\n      sload\n      dup2\n      lt\n      tag_113\n      jumpi\n      tag_114\n      tag_86\n      jump\t// in\n    tag_114:\n    tag_113:\n      swap1\n      0x00\n      mstore\n      keccak256(0x00, 0x20)\n      add\n      sload\n        /* \"CINFTVickreyAuction.sol\":10768:10774  s_bids */\n      0x02\n        /* \"CINFTVickreyAuction.sol\":10768:10784  s_bids[_tokenId] */\n      0x00\n        /* \"CINFTVickreyAuction.sol\":10775:10783  _tokenId */\n      dup6\n        /* \"CINFTVickreyAuction.sol\":10768:10784  s_bids[_tokenId] */\n      dup2\n      mstore\n      0x20\n      add\n      swap1\n      dup2\n      mstore\n      0x20\n      add\n      0x00\n      keccak256\n        /* \"CINFTVickreyAuction.sol\":10785:10786  0 */\n      0x00\n        /* \"CINFTVickreyAuction.sol\":10768:10787  s_bids[_tokenId][0] */\n      dup2\n      sload\n      dup2\n      lt\n      tag_116\n      jumpi\n      tag_117\n      tag_86\n      jump\t// in\n    tag_117:\n    tag_116:\n      swap1\n      0x00\n      mstore\n      keccak256(0x00, 0x20)\n      add\n      sload\n        /* \"CINFTVickreyAuction.sol\":10768:10809  s_bids[_tokenId][0] - s_bids[_tokenId][1] */\n      tag_119\n      swap2\n      swap1\n      tag_120\n      jump\t// in\n    tag_119:\n        /* \"CINFTVickreyAuction.sol\":10728:10810  payable(s_biders[_tokenId][0]).transfer(s_bids[_tokenId][0] - s_bids[_tokenId][1]) */\n      swap1\n      dup2\n      iszero\n      mul\n      swap1\n      mload(0x40)\n      0x00\n      mload(0x40)\n      dup1\n      dup4\n      sub\n      dup2\n      dup6\n      dup9\n      dup9\n      call\n      swap4\n      pop\n      pop\n      pop\n      pop\n      iszero\n      dup1\n      iszero\n      tag_122\n      jumpi\n      returndatacopy(0x00, 0x00, returndatasize)\n      revert(0x00, returndatasize)\n    tag_122:\n      pop\n        /* \"CINFTVickreyAuction.sol\":10883:10892  uint256 i */\n      0x00\n        /* \"CINFTVickreyAuction.sol\":10895:10896  2 */\n      0x02\n        /* \"CINFTVickreyAuction.sol\":10883:10896  uint256 i = 2 */\n      swap1\n      pop\n        /* \"CINFTVickreyAuction.sol\":10879:11027  for(uint256 i = 2; i < s_biders[_tokenId].length; i++) {... */\n    tag_123:\n        /* \"CINFTVickreyAuction.sol\":10902:10910  s_biders */\n      0x01\n        /* \"CINFTVickreyAuction.sol\":10902:10920  s_biders[_tokenId] */\n      0x00\n        /* \"CINFTVickreyAuction.sol\":10911:10919  _tokenId */\n      dup4\n        /* \"CINFTVickreyAuction.sol\":10902:10920  s_biders[_tokenId] */\n      dup2\n      mstore\n      0x20\n      add\n      swap1\n      dup2\n      mstore\n      0x20\n      add\n      0x00\n      keccak256\n        /* \"CINFTVickreyAuction.sol\":10902:10927  s_biders[_tokenId].length */\n      dup1\n      sload\n      swap1\n      pop\n        /* \"CINFTVickreyAuction.sol\":10898:10899  i */\n      dup2\n        /* \"CINFTVickreyAuction.sol\":10898:10927  i < s_biders[_tokenId].length */\n      lt\n        /* \"CINFTVickreyAuction.sol\":10879:11027  for(uint256 i = 2; i < s_biders[_tokenId].length; i++) {... */\n      iszero\n      tag_124\n      jumpi\n        /* \"CINFTVickreyAuction.sol\":10960:10968  s_biders */\n      0x01\n        /* \"CINFTVickreyAuction.sol\":10960:10978  s_biders[_tokenId] */\n      0x00\n        /* \"CINFTVickreyAuction.sol\":10969:10977  _tokenId */\n      dup4\n        /* \"CINFTVickreyAuction.sol\":10960:10978  s_biders[_tokenId] */\n      dup2\n      mstore\n      0x20\n      add\n      swap1\n      dup2\n      mstore\n      0x20\n      add\n      0x00\n      keccak256\n        /* \"CINFTVickreyAuction.sol\":10979:10980  i */\n      dup2\n        /* \"CINFTVickreyAuction.sol\":10960:10981  s_biders[_tokenId][i] */\n      dup2\n      sload\n      dup2\n      lt\n      tag_126\n      jumpi\n      tag_127\n      tag_86\n      jump\t// in\n    tag_127:\n    tag_126:\n      swap1\n      0x00\n      mstore\n      keccak256(0x00, 0x20)\n      add\n      0x00\n      swap1\n      sload\n      swap1\n      0x0100\n      exp\n      swap1\n      div\n      0xffffffffffffffffffffffffffffffffffffffff\n      and\n        /* \"CINFTVickreyAuction.sol\":10952:10991  payable(s_biders[_tokenId][i]).transfer */\n      0xffffffffffffffffffffffffffffffffffffffff\n      and\n        /* \"CINFTVickreyAuction.sol\":10952:11012  payable(s_biders[_tokenId][i]).transfer(s_bids[_tokenId][i]) */\n      0x08fc\n        /* \"CINFTVickreyAuction.sol\":10992:10998  s_bids */\n      0x02\n        /* \"CINFTVickreyAuction.sol\":10992:11008  s_bids[_tokenId] */\n      0x00\n        /* \"CINFTVickreyAuction.sol\":10999:11007  _tokenId */\n      dup6\n        /* \"CINFTVickreyAuction.sol\":10992:11008  s_bids[_tokenId] */\n      dup2\n      mstore\n      0x20\n      add\n      swap1\n      dup2\n      mstore\n      0x20\n      add\n      0x00\n      keccak256\n        /* \"CINFTVickreyAuction.sol\":11009:11010  i */\n      dup4\n        /* \"CINFTVickreyAuction.sol\":10992:11011  s_bids[_tokenId][i] */\n      dup2\n      sload\n      dup2\n      lt\n      tag_129\n      jumpi\n      tag_130\n      tag_86\n      jump\t// in\n    tag_130:\n    tag_129:\n      swap1\n      0x00\n      mstore\n      keccak256(0x00, 0x20)\n      add\n      sload\n        /* \"CINFTVickreyAuction.sol\":10952:11012  payable(s_biders[_tokenId][i]).transfer(s_bids[_tokenId][i]) */\n      swap1\n      dup2\n      iszero\n      mul\n      swap1\n      mload(0x40)\n      0x00\n      mload(0x40)\n      dup1\n      dup4\n      sub\n      dup2\n      dup6\n      dup9\n      dup9\n      call\n      swap4\n      pop\n      pop\n      pop\n      pop\n      iszero\n      dup1\n      iszero\n      tag_133\n      jumpi\n      returndatacopy(0x00, 0x00, returndatasize)\n      revert(0x00, returndatasize)\n    tag_133:\n      pop\n        /* \"CINFTVickreyAuction.sol\":10929:10932  i++ */\n      dup1\n      dup1\n      0x01\n      add\n      swap2\n      pop\n      pop\n        /* \"CINFTVickreyAuction.sol\":10879:11027  for(uint256 i = 2; i < s_biders[_tokenId].length; i++) {... */\n      jump(tag_123)\n    tag_124:\n      pop\n        /* \"CINFTVickreyAuction.sol\":10034:11037  if(s_biders[_tokenId].length == 1) {... */\n    tag_97:\n        /* \"CINFTVickreyAuction.sol\":9859:11037  if(s_biders[_tokenId].length == 0) {... */\n    tag_82:\n        /* \"CINFTVickreyAuction.sol\":11096:11105  uint256 i */\n      0x00\n        /* \"CINFTVickreyAuction.sol\":11108:11109  0 */\n      0x00\n        /* \"CINFTVickreyAuction.sol\":11096:11109  uint256 i = 0 */\n      swap1\n      pop\n        /* \"CINFTVickreyAuction.sol\":11092:11336  for(uint256 i = 0; i < s_nftOnSale.length; i++){... */\n    tag_134:\n        /* \"CINFTVickreyAuction.sol\":11115:11126  s_nftOnSale */\n      0x00\n        /* \"CINFTVickreyAuction.sol\":11115:11133  s_nftOnSale.length */\n      dup1\n      sload\n      swap1\n      pop\n        /* \"CINFTVickreyAuction.sol\":11111:11112  i */\n      dup2\n        /* \"CINFTVickreyAuction.sol\":11111:11133  i < s_nftOnSale.length */\n      lt\n        /* \"CINFTVickreyAuction.sol\":11092:11336  for(uint256 i = 0; i < s_nftOnSale.length; i++){... */\n      iszero\n      tag_135\n      jumpi\n        /* \"CINFTVickreyAuction.sol\":11174:11182  _tokenId */\n      dup2\n        /* \"CINFTVickreyAuction.sol\":11156:11167  s_nftOnSale */\n      0x00\n        /* \"CINFTVickreyAuction.sol\":11168:11169  i */\n      dup3\n        /* \"CINFTVickreyAuction.sol\":11156:11170  s_nftOnSale[i] */\n      dup2\n      sload\n      dup2\n      lt\n      tag_137\n      jumpi\n      tag_138\n      tag_86\n      jump\t// in\n    tag_138:\n    tag_137:\n      swap1\n      0x00\n      mstore\n      keccak256(0x00, 0x20)\n      add\n      sload\n        /* \"CINFTVickreyAuction.sol\":11156:11182  s_nftOnSale[i] == _tokenId */\n      sub\n        /* \"CINFTVickreyAuction.sol\":11153:11326  if(s_nftOnSale[i] == _tokenId){... */\n      tag_140\n      jumpi\n        /* \"CINFTVickreyAuction.sol\":11218:11229  s_nftOnSale */\n      0x00\n        /* \"CINFTVickreyAuction.sol\":11251:11252  1 */\n      0x01\n        /* \"CINFTVickreyAuction.sol\":11230:11241  s_nftOnSale */\n      0x00\n        /* \"CINFTVickreyAuction.sol\":11230:11248  s_nftOnSale.length */\n      dup1\n      sload\n      swap1\n      pop\n        /* \"CINFTVickreyAuction.sol\":11230:11252  s_nftOnSale.length - 1 */\n      tag_141\n      swap2\n      swap1\n      tag_120\n      jump\t// in\n    tag_141:\n        /* \"CINFTVickreyAuction.sol\":11218:11253  s_nftOnSale[s_nftOnSale.length - 1] */\n      dup2\n      sload\n      dup2\n      lt\n      tag_142\n      jumpi\n      tag_143\n      tag_86\n      jump\t// in\n    tag_143:\n    tag_142:\n      swap1\n      0x00\n      mstore\n      keccak256(0x00, 0x20)\n      add\n      sload\n        /* \"CINFTVickreyAuction.sol\":11201:11212  s_nftOnSale */\n      0x00\n        /* \"CINFTVickreyAuction.sol\":11213:11214  i */\n      dup3\n        /* \"CINFTVickreyAuction.sol\":11201:11215  s_nftOnSale[i] */\n      dup2\n      sload\n      dup2\n      lt\n      tag_145\n      jumpi\n      tag_146\n      tag_86\n      jump\t// in\n    tag_146:\n    tag_145:\n      swap1\n      0x00\n      mstore\n      keccak256(0x00, 0x20)\n      add\n        /* \"CINFTVickreyAuction.sol\":11201:11253  s_nftOnSale[i] = s_nftOnSale[s_nftOnSale.length - 1] */\n      dup2\n      swap1\n      sstore\n      pop\n        /* \"CINFTVickreyAuction.sol\":11271:11282  s_nftOnSale */\n      0x00\n        /* \"CINFTVickreyAuction.sol\":11271:11288  s_nftOnSale.pop() */\n      dup1\n      sload\n      dup1\n      tag_148\n      jumpi\n      tag_149\n      tag_150\n      jump\t// in\n    tag_149:\n    tag_148:\n      0x01\n      swap1\n      sub\n      dup2\n      dup2\n      swap1\n      0x00\n      mstore\n      keccak256(0x00, 0x20)\n      add\n      0x00\n      swap1\n      sstore\n      swap1\n      sstore\n        /* \"CINFTVickreyAuction.sol\":11306:11311  break */\n      jump(tag_135)\n        /* \"CINFTVickreyAuction.sol\":11153:11326  if(s_nftOnSale[i] == _tokenId){... */\n    tag_140:\n        /* \"CINFTVickreyAuction.sol\":11135:11138  i++ */\n      dup1\n      dup1\n      0x01\n      add\n      swap2\n      pop\n      pop\n        /* \"CINFTVickreyAuction.sol\":11092:11336  for(uint256 i = 0; i < s_nftOnSale.length; i++){... */\n      jump(tag_134)\n    tag_135:\n      pop\n        /* \"CINFTVickreyAuction.sol\":11349:11358  uint256 i */\n      0x00\n        /* \"CINFTVickreyAuction.sol\":11361:11362  0 */\n      0x00\n        /* \"CINFTVickreyAuction.sol\":11349:11362  uint256 i = 0 */\n      swap1\n      pop\n        /* \"CINFTVickreyAuction.sol\":11345:11752  for(uint256 i = 0 ; i < s_sellerToTokenIds[s_seller[_tokenId]].length; i++){... */\n    tag_152:\n        /* \"CINFTVickreyAuction.sol\":11369:11387  s_sellerToTokenIds */\n      0x07\n        /* \"CINFTVickreyAuction.sol\":11369:11407  s_sellerToTokenIds[s_seller[_tokenId]] */\n      0x00\n        /* \"CINFTVickreyAuction.sol\":11388:11396  s_seller */\n      0x06\n        /* \"CINFTVickreyAuction.sol\":11388:11406  s_seller[_tokenId] */\n      0x00\n        /* \"CINFTVickreyAuction.sol\":11397:11405  _tokenId */\n      dup6\n        /* \"CINFTVickreyAuction.sol\":11388:11406  s_seller[_tokenId] */\n      dup2\n      mstore\n      0x20\n      add\n      swap1\n      dup2\n      mstore\n      0x20\n      add\n      0x00\n      keccak256\n      0x00\n      swap1\n      sload\n      swap1\n      0x0100\n      exp\n      swap1\n      div\n      0xffffffffffffffffffffffffffffffffffffffff\n      and\n        /* \"CINFTVickreyAuction.sol\":11369:11407  s_sellerToTokenIds[s_seller[_tokenId]] */\n      0xffffffffffffffffffffffffffffffffffffffff\n      and\n      0xffffffffffffffffffffffffffffffffffffffff\n      and\n      dup2\n      mstore\n      0x20\n      add\n      swap1\n      dup2\n      mstore\n      0x20\n      add\n      0x00\n      keccak256\n        /* \"CINFTVickreyAuction.sol\":11369:11414  s_sellerToTokenIds[s_seller[_tokenId]].length */\n      dup1\n      sload\n      swap1\n      pop\n        /* \"CINFTVickreyAuction.sol\":11365:11366  i */\n      dup2\n        /* \"CINFTVickreyAuction.sol\":11365:11414  i < s_sellerToTokenIds[s_seller[_tokenId]].length */\n      lt\n        /* \"CINFTVickreyAuction.sol\":11345:11752  for(uint256 i = 0 ; i < s_sellerToTokenIds[s_seller[_tokenId]].length; i++){... */\n      iszero\n      tag_153\n      jumpi\n        /* \"CINFTVickreyAuction.sol\":11482:11490  _tokenId */\n      dup2\n        /* \"CINFTVickreyAuction.sol\":11437:11455  s_sellerToTokenIds */\n      0x07\n        /* \"CINFTVickreyAuction.sol\":11437:11475  s_sellerToTokenIds[s_seller[_tokenId]] */\n      0x00\n        /* \"CINFTVickreyAuction.sol\":11456:11464  s_seller */\n      0x06\n        /* \"CINFTVickreyAuction.sol\":11456:11474  s_seller[_tokenId] */\n      0x00\n        /* \"CINFTVickreyAuction.sol\":11465:11473  _tokenId */\n      dup7\n        /* \"CINFTVickreyAuction.sol\":11456:11474  s_seller[_tokenId] */\n      dup2\n      mstore\n      0x20\n      add\n      swap1\n      dup2\n      mstore\n      0x20\n      add\n      0x00\n      keccak256\n      0x00\n      swap1\n      sload\n      swap1\n      0x0100\n      exp\n      swap1\n      div\n      0xffffffffffffffffffffffffffffffffffffffff\n      and\n        /* \"CINFTVickreyAuction.sol\":11437:11475  s_sellerToTokenIds[s_seller[_tokenId]] */\n      0xffffffffffffffffffffffffffffffffffffffff\n      and\n      0xffffffffffffffffffffffffffffffffffffffff\n      and\n      dup2\n      mstore\n      0x20\n      add\n      swap1\n      dup2\n      mstore\n      0x20\n      add\n      0x00\n      keccak256\n        /* \"CINFTVickreyAuction.sol\":11476:11477  i */\n      dup3\n        /* \"CINFTVickreyAuction.sol\":11437:11478  s_sellerToTokenIds[s_seller[_tokenId]][i] */\n      dup2\n      sload\n      dup2\n      lt\n      tag_155\n      jumpi\n      tag_156\n      tag_86\n      jump\t// in\n    tag_156:\n    tag_155:\n      swap1\n      0x00\n      mstore\n      keccak256(0x00, 0x20)\n      add\n      sload\n        /* \"CINFTVickreyAuction.sol\":11437:11490  s_sellerToTokenIds[s_seller[_tokenId]][i] == _tokenId */\n      sub\n        /* \"CINFTVickreyAuction.sol\":11434:11742  if(s_sellerToTokenIds[s_seller[_tokenId]][i] == _tokenId){... */\n      tag_158\n      jumpi\n        /* \"CINFTVickreyAuction.sol\":11553:11571  s_sellerToTokenIds */\n      0x07\n        /* \"CINFTVickreyAuction.sol\":11553:11591  s_sellerToTokenIds[s_seller[_tokenId]] */\n      0x00\n        /* \"CINFTVickreyAuction.sol\":11572:11580  s_seller */\n      0x06\n        /* \"CINFTVickreyAuction.sol\":11572:11590  s_seller[_tokenId] */\n      0x00\n        /* \"CINFTVickreyAuction.sol\":11581:11589  _tokenId */\n      dup6\n        /* \"CINFTVickreyAuction.sol\":11572:11590  s_seller[_tokenId] */\n      dup2\n      mstore\n      0x20\n      add\n      swap1\n      dup2\n      mstore\n      0x20\n      add\n      0x00\n      keccak256\n      0x00\n      swap1\n      sload\n      swap1\n      0x0100\n      exp\n      swap1\n      div\n      0xffffffffffffffffffffffffffffffffffffffff\n      and\n        /* \"CINFTVickreyAuction.sol\":11553:11591  s_sellerToTokenIds[s_seller[_tokenId]] */\n      0xffffffffffffffffffffffffffffffffffffffff\n      and\n      0xffffffffffffffffffffffffffffffffffffffff\n      and\n      dup2\n      mstore\n      0x20\n      add\n      swap1\n      dup2\n      mstore\n      0x20\n      add\n      0x00\n      keccak256\n        /* \"CINFTVickreyAuction.sol\":11640:11641  1 */\n      0x01\n        /* \"CINFTVickreyAuction.sol\":11592:11610  s_sellerToTokenIds */\n      0x07\n        /* \"CINFTVickreyAuction.sol\":11592:11630  s_sellerToTokenIds[s_seller[_tokenId]] */\n      0x00\n        /* \"CINFTVickreyAuction.sol\":11611:11619  s_seller */\n      0x06\n        /* \"CINFTVickreyAuction.sol\":11611:11629  s_seller[_tokenId] */\n      0x00\n        /* \"CINFTVickreyAuction.sol\":11620:11628  _tokenId */\n      dup8\n        /* \"CINFTVickreyAuction.sol\":11611:11629  s_seller[_tokenId] */\n      dup2\n      mstore\n      0x20\n      add\n      swap1\n      dup2\n      mstore\n      0x20\n      add\n      0x00\n      keccak256\n      0x00\n      swap1\n      sload\n      swap1\n      0x0100\n      exp\n      swap1\n      div\n      0xffffffffffffffffffffffffffffffffffffffff\n      and\n        /* \"CINFTVickreyAuction.sol\":11592:11630  s_sellerToTokenIds[s_seller[_tokenId]] */\n      0xffffffffffffffffffffffffffffffffffffffff\n      and\n      0xffffffffffffffffffffffffffffffffffffffff\n      and\n      dup2\n      mstore\n      0x20\n      add\n      swap1\n      dup2\n      mstore\n      0x20\n      add\n      0x00\n      keccak256\n        /* \"CINFTVickreyAuction.sol\":11592:11637  s_sellerToTokenIds[s_seller[_tokenId]].length */\n      dup1\n      sload\n      swap1\n      pop\n        /* \"CINFTVickreyAuction.sol\":11592:11641  s_sellerToTokenIds[s_seller[_tokenId]].length - 1 */\n      tag_159\n      swap2\n      swap1\n      tag_120\n      jump\t// in\n    tag_159:\n        /* \"CINFTVickreyAuction.sol\":11553:11642  s_sellerToTokenIds[s_seller[_tokenId]][s_sellerToTokenIds[s_seller[_tokenId]].length - 1] */\n      dup2\n      sload\n      dup2\n      lt\n      tag_160\n      jumpi\n      tag_161\n      tag_86\n      jump\t// in\n    tag_161:\n    tag_160:\n      swap1\n      0x00\n      mstore\n      keccak256(0x00, 0x20)\n      add\n      sload\n        /* \"CINFTVickreyAuction.sol\":11509:11527  s_sellerToTokenIds */\n      0x07\n        /* \"CINFTVickreyAuction.sol\":11509:11547  s_sellerToTokenIds[s_seller[_tokenId]] */\n      0x00\n        /* \"CINFTVickreyAuction.sol\":11528:11536  s_seller */\n      0x06\n        /* \"CINFTVickreyAuction.sol\":11528:11546  s_seller[_tokenId] */\n      0x00\n        /* \"CINFTVickreyAuction.sol\":11537:11545  _tokenId */\n      dup7\n        /* \"CINFTVickreyAuction.sol\":11528:11546  s_seller[_tokenId] */\n      dup2\n      mstore\n      0x20\n      add\n      swap1\n      dup2\n      mstore\n      0x20\n      add\n      0x00\n      keccak256\n      0x00\n      swap1\n      sload\n      swap1\n      0x0100\n      exp\n      swap1\n      div\n      0xffffffffffffffffffffffffffffffffffffffff\n      and\n        /* \"CINFTVickreyAuction.sol\":11509:11547  s_sellerToTokenIds[s_seller[_tokenId]] */\n      0xffffffffffffffffffffffffffffffffffffffff\n      and\n      0xffffffffffffffffffffffffffffffffffffffff\n      and\n      dup2\n      mstore\n      0x20\n      add\n      swap1\n      dup2\n      mstore\n      0x20\n      add\n      0x00\n      keccak256\n        /* \"CINFTVickreyAuction.sol\":11548:11549  i */\n      dup3\n        /* \"CINFTVickreyAuction.sol\":11509:11550  s_sellerToTokenIds[s_seller[_tokenId]][i] */\n      dup2\n      sload\n      dup2\n      lt\n      tag_163\n      jumpi\n      tag_164\n      tag_86\n      jump\t// in\n    tag_164:\n    tag_163:\n      swap1\n      0x00\n      mstore\n      keccak256(0x00, 0x20)\n      add\n        /* \"CINFTVickreyAuction.sol\":11509:11642  s_sellerToTokenIds[s_seller[_tokenId]][i] = s_sellerToTokenIds[s_seller[_tokenId]][s_sellerToTokenIds[s_seller[_tokenId]].length - 1] */\n      dup2\n      swap1\n      sstore\n      pop\n        /* \"CINFTVickreyAuction.sol\":11660:11678  s_sellerToTokenIds */\n      0x07\n        /* \"CINFTVickreyAuction.sol\":11660:11698  s_sellerToTokenIds[s_seller[_tokenId]] */\n      0x00\n        /* \"CINFTVickreyAuction.sol\":11679:11687  s_seller */\n      0x06\n        /* \"CINFTVickreyAuction.sol\":11679:11697  s_seller[_tokenId] */\n      0x00\n        /* \"CINFTVickreyAuction.sol\":11688:11696  _tokenId */\n      dup6\n        /* \"CINFTVickreyAuction.sol\":11679:11697  s_seller[_tokenId] */\n      dup2\n      mstore\n      0x20\n      add\n      swap1\n      dup2\n      mstore\n      0x20\n      add\n      0x00\n      keccak256\n      0x00\n      swap1\n      sload\n      swap1\n      0x0100\n      exp\n      swap1\n      div\n      0xffffffffffffffffffffffffffffffffffffffff\n      and\n        /* \"CINFTVickreyAuction.sol\":11660:11698  s_sellerToTokenIds[s_seller[_tokenId]] */\n      0xffffffffffffffffffffffffffffffffffffffff\n      and\n      0xffffffffffffffffffffffffffffffffffffffff\n      and\n      dup2\n      mstore\n      0x20\n      add\n      swap1\n      dup2\n      mstore\n      0x20\n      add\n      0x00\n      keccak256\n        /* \"CINFTVickreyAuction.sol\":11660:11704  s_sellerToTokenIds[s_seller[_tokenId]].pop() */\n      dup1\n      sload\n      dup1\n      tag_166\n      jumpi\n      tag_167\n      tag_150\n      jump\t// in\n    tag_167:\n    tag_166:\n      0x01\n      swap1\n      sub\n      dup2\n      dup2\n      swap1\n      0x00\n      mstore\n      keccak256(0x00, 0x20)\n      add\n      0x00\n      swap1\n      sstore\n      swap1\n      sstore\n        /* \"CINFTVickreyAuction.sol\":11722:11727  break */\n      jump(tag_153)\n        /* \"CINFTVickreyAuction.sol\":11434:11742  if(s_sellerToTokenIds[s_seller[_tokenId]][i] == _tokenId){... */\n    tag_158:\n        /* \"CINFTVickreyAuction.sol\":11416:11419  i++ */\n      dup1\n      dup1\n      0x01\n      add\n      swap2\n      pop\n      pop\n        /* \"CINFTVickreyAuction.sol\":11345:11752  for(uint256 i = 0 ; i < s_sellerToTokenIds[s_seller[_tokenId]].length; i++){... */\n      jump(tag_152)\n    tag_153:\n      pop\n        /* \"CINFTVickreyAuction.sol\":11768:11776  s_biders */\n      0x01\n        /* \"CINFTVickreyAuction.sol\":11768:11786  s_biders[_tokenId] */\n      0x00\n        /* \"CINFTVickreyAuction.sol\":11777:11785  _tokenId */\n      dup3\n        /* \"CINFTVickreyAuction.sol\":11768:11786  s_biders[_tokenId] */\n      dup2\n      mstore\n      0x20\n      add\n      swap1\n      dup2\n      mstore\n      0x20\n      add\n      0x00\n      keccak256\n      0x00\n        /* \"CINFTVickreyAuction.sol\":11761:11786  delete s_biders[_tokenId] */\n      tag_169\n      swap2\n      swap1\n      tag_170\n      jump\t// in\n    tag_169:\n        /* \"CINFTVickreyAuction.sol\":11803:11809  s_bids */\n      0x02\n        /* \"CINFTVickreyAuction.sol\":11803:11819  s_bids[_tokenId] */\n      0x00\n        /* \"CINFTVickreyAuction.sol\":11810:11818  _tokenId */\n      dup3\n        /* \"CINFTVickreyAuction.sol\":11803:11819  s_bids[_tokenId] */\n      dup2\n      mstore\n      0x20\n      add\n      swap1\n      dup2\n      mstore\n      0x20\n      add\n      0x00\n      keccak256\n      0x00\n        /* \"CINFTVickreyAuction.sol\":11796:11819  delete s_bids[_tokenId] */\n      tag_171\n      swap2\n      swap1\n      tag_172\n      jump\t// in\n    tag_171:\n        /* \"CINFTVickreyAuction.sol\":11850:11851  0 */\n      0x00\n        /* \"CINFTVickreyAuction.sol\":11829:11837  s_minBid */\n      0x03\n        /* \"CINFTVickreyAuction.sol\":11829:11847  s_minBid[_tokenId] */\n      0x00\n        /* \"CINFTVickreyAuction.sol\":11838:11846  _tokenId */\n      dup4\n        /* \"CINFTVickreyAuction.sol\":11829:11847  s_minBid[_tokenId] */\n      dup2\n      mstore\n      0x20\n      add\n      swap1\n      dup2\n      mstore\n      0x20\n      add\n      0x00\n      keccak256\n        /* \"CINFTVickreyAuction.sol\":11829:11851  s_minBid[_tokenId] = 0 */\n      dup2\n      swap1\n      sstore\n      pop\n        /* \"CINFTVickreyAuction.sol\":11885:11906  NftStatus.NOT_ON_SALE */\n      0x00\n        /* \"CINFTVickreyAuction.sol\":11861:11872  s_nftStatus */\n      0x04\n        /* \"CINFTVickreyAuction.sol\":11861:11882  s_nftStatus[_tokenId] */\n      0x00\n        /* \"CINFTVickreyAuction.sol\":11873:11881  _tokenId */\n      dup4\n        /* \"CINFTVickreyAuction.sol\":11861:11882  s_nftStatus[_tokenId] */\n      dup2\n      mstore\n      0x20\n      add\n      swap1\n      dup2\n      mstore\n      0x20\n      add\n      0x00\n      keccak256\n      0x00\n        /* \"CINFTVickreyAuction.sol\":11861:11906  s_nftStatus[_tokenId] = NftStatus.NOT_ON_SALE */\n      0x0100\n      exp\n      dup2\n      sload\n      dup2\n      0xff\n      mul\n      not\n      and\n      swap1\n      dup4\n      0x01\n      dup2\n      gt\n      iszero\n      tag_173\n      jumpi\n      tag_174\n      tag_66\n      jump\t// in\n    tag_174:\n    tag_173:\n      mul\n      or\n      swap1\n      sstore\n      pop\n        /* \"CINFTVickreyAuction.sol\":11941:11942  0 */\n      0x00\n        /* \"CINFTVickreyAuction.sol\":11916:11928  s_bidEndTime */\n      0x05\n        /* \"CINFTVickreyAuction.sol\":11916:11938  s_bidEndTime[_tokenId] */\n      0x00\n        /* \"CINFTVickreyAuction.sol\":11929:11937  _tokenId */\n      dup4\n        /* \"CINFTVickreyAuction.sol\":11916:11938  s_bidEndTime[_tokenId] */\n      dup2\n      mstore\n      0x20\n      add\n      swap1\n      dup2\n      mstore\n      0x20\n      add\n      0x00\n      keccak256\n        /* \"CINFTVickreyAuction.sol\":11916:11942  s_bidEndTime[_tokenId] = 0 */\n      dup2\n      swap1\n      sstore\n      pop\n        /* \"CINFTVickreyAuction.sol\":11981:11982  0 */\n      0x00\n        /* \"CINFTVickreyAuction.sol\":11952:11960  s_seller */\n      0x06\n        /* \"CINFTVickreyAuction.sol\":11952:11970  s_seller[_tokenId] */\n      0x00\n        /* \"CINFTVickreyAuction.sol\":11961:11969  _tokenId */\n      dup4\n        /* \"CINFTVickreyAuction.sol\":11952:11970  s_seller[_tokenId] */\n      dup2\n      mstore\n      0x20\n      add\n      swap1\n      dup2\n      mstore\n      0x20\n      add\n      0x00\n      keccak256\n      0x00\n        /* \"CINFTVickreyAuction.sol\":11952:11983  s_seller[_tokenId] = address(0) */\n      0x0100\n      exp\n      dup2\n      sload\n      dup2\n      0xffffffffffffffffffffffffffffffffffffffff\n      mul\n      not\n      and\n      swap1\n      dup4\n      0xffffffffffffffffffffffffffffffffffffffff\n      and\n      mul\n      or\n      swap1\n      sstore\n      pop\n        /* \"CINFTVickreyAuction.sol\":11993:12021  s_description[_tokenId] = \"\" */\n      mload(0x40)\n      dup1\n      0x20\n      add\n      0x40\n      mstore\n      dup1\n      0x00\n      dup2\n      mstore\n      pop\n        /* \"CINFTVickreyAuction.sol\":11993:12006  s_description */\n      0x08\n        /* \"CINFTVickreyAuction.sol\":11993:12016  s_description[_tokenId] */\n      0x00\n        /* \"CINFTVickreyAuction.sol\":12007:12015  _tokenId */\n      dup4\n        /* \"CINFTVickreyAuction.sol\":11993:12016  s_description[_tokenId] */\n      dup2\n      mstore\n      0x20\n      add\n      swap1\n      dup2\n      mstore\n      0x20\n      add\n      0x00\n      keccak256\n        /* \"CINFTVickreyAuction.sol\":11993:12021  s_description[_tokenId] = \"\" */\n      swap1\n      dup2\n      tag_175\n      swap2\n      swap1\n      tag_176\n      jump\t// in\n    tag_175:\n      pop\n        /* \"CINFTVickreyAuction.sol\":9524:12037  function completeAuction(uint256 _tokenId) public {... */\n      pop\n      jump\t// out\n        /* \"CINFTVickreyAuction.sol\":7502:8210  function putNftOnSale(uint256 _tokenId, uint256 _minBid, uint256 _bidTimeInSeconds, string memory _description) public {... */\n    tag_30:\n        /* \"CINFTVickreyAuction.sol\":7659:7680  NftStatus.NOT_ON_SALE */\n      0x00\n        /* \"CINFTVickreyAuction.sol\":7634:7680  s_nftStatus[_tokenId] != NftStatus.NOT_ON_SALE */\n      0x01\n      dup2\n      gt\n      iszero\n      tag_178\n      jumpi\n      tag_179\n      tag_66\n      jump\t// in\n    tag_179:\n    tag_178:\n        /* \"CINFTVickreyAuction.sol\":7634:7645  s_nftStatus */\n      0x04\n        /* \"CINFTVickreyAuction.sol\":7634:7655  s_nftStatus[_tokenId] */\n      0x00\n        /* \"CINFTVickreyAuction.sol\":7646:7654  _tokenId */\n      dup7\n        /* \"CINFTVickreyAuction.sol\":7634:7655  s_nftStatus[_tokenId] */\n      dup2\n      mstore\n      0x20\n      add\n      swap1\n      dup2\n      mstore\n      0x20\n      add\n      0x00\n      keccak256\n      0x00\n      swap1\n      sload\n      swap1\n      0x0100\n      exp\n      swap1\n      div\n      0xff\n      and\n        /* \"CINFTVickreyAuction.sol\":7634:7680  s_nftStatus[_tokenId] != NftStatus.NOT_ON_SALE */\n      0x01\n      dup2\n      gt\n      iszero\n      tag_180\n      jumpi\n      tag_181\n      tag_66\n      jump\t// in\n    tag_181:\n    tag_180:\n      eq\n        /* \"CINFTVickreyAuction.sol\":7631:7740  if(s_nftStatus[_tokenId] != NftStatus.NOT_ON_SALE)... */\n      tag_182\n      jumpi\n        /* \"CINFTVickreyAuction.sol\":7701:7740  CINFTVickreyAuction__NftAlreadyOnSale() */\n      mload(0x40)\n      0xadcf092700000000000000000000000000000000000000000000000000000000\n      dup2\n      mstore\n      0x04\n      add\n      mload(0x40)\n      dup1\n      swap2\n      sub\n      swap1\n      revert\n        /* \"CINFTVickreyAuction.sol\":7631:7740  if(s_nftStatus[_tokenId] != NftStatus.NOT_ON_SALE)... */\n    tag_182:\n        /* \"CINFTVickreyAuction.sol\":7751:7758  i_cinft */\n      immutable(\"0xc5bf1d490d2f4e87cc1d5184cd59114bcef0e857ac09f6d840a1caed5b52d973\")\n        /* \"CINFTVickreyAuction.sol\":7751:7771  i_cinft.transferFrom */\n      0xffffffffffffffffffffffffffffffffffffffff\n      and\n      0x23b872dd\n        /* \"CINFTVickreyAuction.sol\":7772:7782  msg.sender */\n      caller\n        /* \"CINFTVickreyAuction.sol\":7792:7796  this */\n      address\n        /* \"CINFTVickreyAuction.sol\":7799:7807  _tokenId */\n      dup8\n        /* \"CINFTVickreyAuction.sol\":7751:7808  i_cinft.transferFrom(msg.sender, address(this), _tokenId) */\n      mload(0x40)\n      dup5\n      0xffffffff\n      and\n      0xe0\n      shl\n      dup2\n      mstore\n      0x04\n      add\n      tag_183\n      swap4\n      swap3\n      swap2\n      swap1\n      tag_78\n      jump\t// in\n    tag_183:\n      0x00\n      mload(0x40)\n      dup1\n      dup4\n      sub\n      dup2\n      0x00\n      dup8\n      dup1\n      extcodesize\n      iszero\n      dup1\n      iszero\n      tag_184\n      jumpi\n      revert(0x00, 0x00)\n    tag_184:\n      pop\n      gas\n      call\n      iszero\n      dup1\n      iszero\n      tag_186\n      jumpi\n      returndatacopy(0x00, 0x00, returndatasize)\n      revert(0x00, returndatasize)\n    tag_186:\n      pop\n      pop\n      pop\n      pop\n        /* \"CINFTVickreyAuction.sol\":7819:7830  s_nftOnSale */\n      0x00\n        /* \"CINFTVickreyAuction.sol\":7836:7844  _tokenId */\n      dup5\n        /* \"CINFTVickreyAuction.sol\":7819:7845  s_nftOnSale.push(_tokenId) */\n      swap1\n      dup1\n      0x01\n      dup2\n      sload\n      add\n      dup1\n      dup3\n      sstore\n      dup1\n      swap2\n      pop\n      pop\n      0x01\n      swap1\n      sub\n      swap1\n      0x00\n      mstore\n      keccak256(0x00, 0x20)\n      add\n      0x00\n      swap1\n      swap2\n      swap1\n      swap2\n      swap1\n      swap2\n      pop\n      sstore\n        /* \"CINFTVickreyAuction.sol\":7953:7970  _bidTimeInSeconds */\n      dup2\n        /* \"CINFTVickreyAuction.sol\":7935:7950  block.timestamp */\n      timestamp\n        /* \"CINFTVickreyAuction.sol\":7935:7970  block.timestamp + _bidTimeInSeconds */\n      tag_188\n      swap2\n      swap1\n      tag_189\n      jump\t// in\n    tag_188:\n        /* \"CINFTVickreyAuction.sol\":7910:7922  s_bidEndTime */\n      0x05\n        /* \"CINFTVickreyAuction.sol\":7910:7932  s_bidEndTime[_tokenId] */\n      0x00\n        /* \"CINFTVickreyAuction.sol\":7923:7931  _tokenId */\n      dup7\n        /* \"CINFTVickreyAuction.sol\":7910:7932  s_bidEndTime[_tokenId] */\n      dup2\n      mstore\n      0x20\n      add\n      swap1\n      dup2\n      mstore\n      0x20\n      add\n      0x00\n      keccak256\n        /* \"CINFTVickreyAuction.sol\":7910:7970  s_bidEndTime[_tokenId] = block.timestamp + _bidTimeInSeconds */\n      dup2\n      swap1\n      sstore\n      pop\n        /* \"CINFTVickreyAuction.sol\":8001:8008  _minBid */\n      dup3\n        /* \"CINFTVickreyAuction.sol\":7980:7988  s_minBid */\n      0x03\n        /* \"CINFTVickreyAuction.sol\":7980:7998  s_minBid[_tokenId] */\n      0x00\n        /* \"CINFTVickreyAuction.sol\":7989:7997  _tokenId */\n      dup7\n        /* \"CINFTVickreyAuction.sol\":7980:7998  s_minBid[_tokenId] */\n      dup2\n      mstore\n      0x20\n      add\n      swap1\n      dup2\n      mstore\n      0x20\n      add\n      0x00\n      keccak256\n        /* \"CINFTVickreyAuction.sol\":7980:8008  s_minBid[_tokenId] = _minBid */\n      dup2\n      swap1\n      sstore\n      pop\n        /* \"CINFTVickreyAuction.sol\":8042:8059  NftStatus.ON_SALE */\n      0x01\n        /* \"CINFTVickreyAuction.sol\":8018:8029  s_nftStatus */\n      0x04\n        /* \"CINFTVickreyAuction.sol\":8018:8039  s_nftStatus[_tokenId] */\n      0x00\n        /* \"CINFTVickreyAuction.sol\":8030:8038  _tokenId */\n      dup7\n        /* \"CINFTVickreyAuction.sol\":8018:8039  s_nftStatus[_tokenId] */\n      dup2\n      mstore\n      0x20\n      add\n      swap1\n      dup2\n      mstore\n      0x20\n      add\n      0x00\n      keccak256\n      0x00\n        /* \"CINFTVickreyAuction.sol\":8018:8059  s_nftStatus[_tokenId] = NftStatus.ON_SALE */\n      0x0100\n      exp\n      dup2\n      sload\n      dup2\n      0xff\n      mul\n      not\n      and\n      swap1\n      dup4\n      0x01\n      dup2\n      gt\n      iszero\n      tag_190\n      jumpi\n      tag_191\n      tag_66\n      jump\t// in\n    tag_191:\n    tag_190:\n      mul\n      or\n      swap1\n      sstore\n      pop\n        /* \"CINFTVickreyAuction.sol\":8090:8100  msg.sender */\n      caller\n        /* \"CINFTVickreyAuction.sol\":8069:8077  s_seller */\n      0x06\n        /* \"CINFTVickreyAuction.sol\":8069:8087  s_seller[_tokenId] */\n      0x00\n        /* \"CINFTVickreyAuction.sol\":8078:8086  _tokenId */\n      dup7\n        /* \"CINFTVickreyAuction.sol\":8069:8087  s_seller[_tokenId] */\n      dup2\n      mstore\n      0x20\n      add\n      swap1\n      dup2\n      mstore\n      0x20\n      add\n      0x00\n      keccak256\n      0x00\n        /* \"CINFTVickreyAuction.sol\":8069:8100  s_seller[_tokenId] = msg.sender */\n      0x0100\n      exp\n      dup2\n      sload\n      dup2\n      0xffffffffffffffffffffffffffffffffffffffff\n      mul\n      not\n      and\n      swap1\n      dup4\n      0xffffffffffffffffffffffffffffffffffffffff\n      and\n      mul\n      or\n      swap1\n      sstore\n      pop\n        /* \"CINFTVickreyAuction.sol\":8136:8148  _description */\n      dup1\n        /* \"CINFTVickreyAuction.sol\":8110:8123  s_description */\n      0x08\n        /* \"CINFTVickreyAuction.sol\":8110:8133  s_description[_tokenId] */\n      0x00\n        /* \"CINFTVickreyAuction.sol\":8124:8132  _tokenId */\n      dup7\n        /* \"CINFTVickreyAuction.sol\":8110:8133  s_description[_tokenId] */\n      dup2\n      mstore\n      0x20\n      add\n      swap1\n      dup2\n      mstore\n      0x20\n      add\n      0x00\n      keccak256\n        /* \"CINFTVickreyAuction.sol\":8110:8148  s_description[_tokenId] = _description */\n      swap1\n      dup2\n      tag_192\n      swap2\n      swap1\n      tag_176\n      jump\t// in\n    tag_192:\n      pop\n        /* \"CINFTVickreyAuction.sol\":8158:8176  s_sellerToTokenIds */\n      0x07\n        /* \"CINFTVickreyAuction.sol\":8158:8188  s_sellerToTokenIds[msg.sender] */\n      0x00\n        /* \"CINFTVickreyAuction.sol\":8177:8187  msg.sender */\n      caller\n        /* \"CINFTVickreyAuction.sol\":8158:8188  s_sellerToTokenIds[msg.sender] */\n      0xffffffffffffffffffffffffffffffffffffffff\n      and\n      0xffffffffffffffffffffffffffffffffffffffff\n      and\n      dup2\n      mstore\n      0x20\n      add\n      swap1\n      dup2\n      mstore\n      0x20\n      add\n      0x00\n      keccak256\n        /* \"CINFTVickreyAuction.sol\":8194:8202  _tokenId */\n      dup5\n        /* \"CINFTVickreyAuction.sol\":8158:8203  s_sellerToTokenIds[msg.sender].push(_tokenId) */\n      swap1\n      dup1\n      0x01\n      dup2\n      sload\n      add\n      dup1\n      dup3\n      sstore\n      dup1\n      swap2\n      pop\n      pop\n      0x01\n      swap1\n      sub\n      swap1\n      0x00\n      mstore\n      keccak256(0x00, 0x20)\n      add\n      0x00\n      swap1\n      swap2\n      swap1\n      swap2\n      swap1\n      swap2\n      pop\n      sstore\n        /* \"CINFTVickreyAuction.sol\":7502:8210  function putNftOnSale(uint256 _tokenId, uint256 _minBid, uint256 _bidTimeInSeconds, string memory _description) public {... */\n      pop\n      pop\n      pop\n      pop\n      jump\t// out\n        /* \"CINFTVickreyAuction.sol\":13579:13699  function getNftsBidEndTime(uint256 _tokenId) public view returns(uint256) {... */\n    tag_34:\n        /* \"CINFTVickreyAuction.sol\":13644:13651  uint256 */\n      0x00\n        /* \"CINFTVickreyAuction.sol\":13670:13682  s_bidEndTime */\n      0x05\n        /* \"CINFTVickreyAuction.sol\":13670:13692  s_bidEndTime[_tokenId] */\n      0x00\n        /* \"CINFTVickreyAuction.sol\":13683:13691  _tokenId */\n      dup4\n        /* \"CINFTVickreyAuction.sol\":13670:13692  s_bidEndTime[_tokenId] */\n      dup2\n      mstore\n      0x20\n      add\n      swap1\n      dup2\n      mstore\n      0x20\n      add\n      0x00\n      keccak256\n      sload\n        /* \"CINFTVickreyAuction.sol\":13663:13692  return s_bidEndTime[_tokenId] */\n      swap1\n      pop\n        /* \"CINFTVickreyAuction.sol\":13579:13699  function getNftsBidEndTime(uint256 _tokenId) public view returns(uint256) {... */\n      swap2\n      swap1\n      pop\n      jump\t// out\n        /* \"CINFTVickreyAuction.sol\":14326:14450  function getDescription(uint256 _tokenId) public view returns(string memory) {... */\n    tag_40:\n        /* \"CINFTVickreyAuction.sol\":14388:14401  string memory */\n      0x60\n        /* \"CINFTVickreyAuction.sol\":14420:14433  s_description */\n      0x08\n        /* \"CINFTVickreyAuction.sol\":14420:14443  s_description[_tokenId] */\n      0x00\n        /* \"CINFTVickreyAuction.sol\":14434:14442  _tokenId */\n      dup4\n        /* \"CINFTVickreyAuction.sol\":14420:14443  s_description[_tokenId] */\n      dup2\n      mstore\n      0x20\n      add\n      swap1\n      dup2\n      mstore\n      0x20\n      add\n      0x00\n      keccak256\n        /* \"CINFTVickreyAuction.sol\":14413:14443  return s_description[_tokenId] */\n      dup1\n      sload\n      tag_196\n      swap1\n      tag_197\n      jump\t// in\n    tag_196:\n      dup1\n      0x1f\n      add\n      0x20\n      dup1\n      swap2\n      div\n      mul\n      0x20\n      add\n      mload(0x40)\n      swap1\n      dup2\n      add\n      0x40\n      mstore\n      dup1\n      swap3\n      swap2\n      swap1\n      dup2\n      dup2\n      mstore\n      0x20\n      add\n      dup3\n      dup1\n      sload\n      tag_198\n      swap1\n      tag_197\n      jump\t// in\n    tag_198:\n      dup1\n      iszero\n      tag_199\n      jumpi\n      dup1\n      0x1f\n      lt\n      tag_200\n      jumpi\n      0x0100\n      dup1\n      dup4\n      sload\n      div\n      mul\n      dup4\n      mstore\n      swap2\n      0x20\n      add\n      swap2\n      jump(tag_199)\n    tag_200:\n      dup3\n      add\n      swap2\n      swap1\n      0x00\n      mstore\n      keccak256(0x00, 0x20)\n      swap1\n    tag_201:\n      dup2\n      sload\n      dup2\n      mstore\n      swap1\n      0x01\n      add\n      swap1\n      0x20\n      add\n      dup1\n      dup4\n      gt\n      tag_201\n      jumpi\n      dup3\n      swap1\n      sub\n      0x1f\n      and\n      dup3\n      add\n      swap2\n    tag_199:\n      pop\n      pop\n      pop\n      pop\n      pop\n      swap1\n      pop\n        /* \"CINFTVickreyAuction.sol\":14326:14450  function getDescription(uint256 _tokenId) public view returns(string memory) {... */\n      swap2\n      swap1\n      pop\n      jump\t// out\n        /* \"CINFTVickreyAuction.sol\":8408:8938  function bid(uint256 _tokenId, uint256 _bid) public payable {... */\n    tag_46:\n        /* \"CINFTVickreyAuction.sol\":8506:8523  NftStatus.ON_SALE */\n      0x01\n        /* \"CINFTVickreyAuction.sol\":8481:8523  s_nftStatus[_tokenId] != NftStatus.ON_SALE */\n      dup1\n      dup2\n      gt\n      iszero\n      tag_203\n      jumpi\n      tag_204\n      tag_66\n      jump\t// in\n    tag_204:\n    tag_203:\n        /* \"CINFTVickreyAuction.sol\":8481:8492  s_nftStatus */\n      0x04\n        /* \"CINFTVickreyAuction.sol\":8481:8502  s_nftStatus[_tokenId] */\n      0x00\n        /* \"CINFTVickreyAuction.sol\":8493:8501  _tokenId */\n      dup5\n        /* \"CINFTVickreyAuction.sol\":8481:8502  s_nftStatus[_tokenId] */\n      dup2\n      mstore\n      0x20\n      add\n      swap1\n      dup2\n      mstore\n      0x20\n      add\n      0x00\n      keccak256\n      0x00\n      swap1\n      sload\n      swap1\n      0x0100\n      exp\n      swap1\n      div\n      0xff\n      and\n        /* \"CINFTVickreyAuction.sol\":8481:8523  s_nftStatus[_tokenId] != NftStatus.ON_SALE */\n      0x01\n      dup2\n      gt\n      iszero\n      tag_205\n      jumpi\n      tag_206\n      tag_66\n      jump\t// in\n    tag_206:\n    tag_205:\n      eq\n        /* \"CINFTVickreyAuction.sol\":8478:8579  if(s_nftStatus[_tokenId] != NftStatus.ON_SALE)... */\n      tag_207\n      jumpi\n        /* \"CINFTVickreyAuction.sol\":8544:8579  CINFTVickreyAuction__NftNotOnSale() */\n      mload(0x40)\n      0x2552b20a00000000000000000000000000000000000000000000000000000000\n      dup2\n      mstore\n      0x04\n      add\n      mload(0x40)\n      dup1\n      swap2\n      sub\n      swap1\n      revert\n        /* \"CINFTVickreyAuction.sol\":8478:8579  if(s_nftStatus[_tokenId] != NftStatus.ON_SALE)... */\n    tag_207:\n        /* \"CINFTVickreyAuction.sol\":8599:8607  s_minBid */\n      0x03\n        /* \"CINFTVickreyAuction.sol\":8599:8617  s_minBid[_tokenId] */\n      0x00\n        /* \"CINFTVickreyAuction.sol\":8608:8616  _tokenId */\n      dup4\n        /* \"CINFTVickreyAuction.sol\":8599:8617  s_minBid[_tokenId] */\n      dup2\n      mstore\n      0x20\n      add\n      swap1\n      dup2\n      mstore\n      0x20\n      add\n      0x00\n      keccak256\n      sload\n        /* \"CINFTVickreyAuction.sol\":8592:8596  _bid */\n      dup2\n        /* \"CINFTVickreyAuction.sol\":8592:8617  _bid < s_minBid[_tokenId] */\n      lt\n        /* \"CINFTVickreyAuction.sol\":8589:8691  if(_bid < s_minBid[_tokenId]) revert CINFTVickreyAuction__BidAmountLowerThanMinBid(s_minBid[_tokenId]) */\n      iszero\n      tag_208\n      jumpi\n        /* \"CINFTVickreyAuction.sol\":8672:8680  s_minBid */\n      0x03\n        /* \"CINFTVickreyAuction.sol\":8672:8690  s_minBid[_tokenId] */\n      0x00\n        /* \"CINFTVickreyAuction.sol\":8681:8689  _tokenId */\n      dup4\n        /* \"CINFTVickreyAuction.sol\":8672:8690  s_minBid[_tokenId] */\n      dup2\n      mstore\n      0x20\n      add\n      swap1\n      dup2\n      mstore\n      0x20\n      add\n      0x00\n      keccak256\n      sload\n        /* \"CINFTVickreyAuction.sol\":8626:8691  CINFTVickreyAuction__BidAmountLowerThanMinBid(s_minBid[_tokenId]) */\n      mload(0x40)\n      0x7f063d7b00000000000000000000000000000000000000000000000000000000\n      dup2\n      mstore\n      0x04\n      add\n      tag_209\n      swap2\n      swap1\n      tag_36\n      jump\t// in\n    tag_209:\n      mload(0x40)\n      dup1\n      swap2\n      sub\n      swap1\n      revert\n        /* \"CINFTVickreyAuction.sol\":8589:8691  if(_bid < s_minBid[_tokenId]) revert CINFTVickreyAuction__BidAmountLowerThanMinBid(s_minBid[_tokenId]) */\n    tag_208:\n        /* \"CINFTVickreyAuction.sol\":8717:8721  _bid */\n      dup1\n        /* \"CINFTVickreyAuction.sol\":8704:8713  msg.value */\n      callvalue\n        /* \"CINFTVickreyAuction.sol\":8704:8721  msg.value != _bid */\n      eq\n        /* \"CINFTVickreyAuction.sol\":8701:8781  if(msg.value != _bid) revert CINFTVickreyAuction__BidAmountNotEqualToValueSent() */\n      tag_210\n      jumpi\n        /* \"CINFTVickreyAuction.sol\":8730:8781  CINFTVickreyAuction__BidAmountNotEqualToValueSent() */\n      mload(0x40)\n      0xbeefcf0300000000000000000000000000000000000000000000000000000000\n      dup2\n      mstore\n      0x04\n      add\n      mload(0x40)\n      dup1\n      swap2\n      sub\n      swap1\n      revert\n        /* \"CINFTVickreyAuction.sol\":8701:8781  if(msg.value != _bid) revert CINFTVickreyAuction__BidAmountNotEqualToValueSent() */\n    tag_210:\n        /* \"CINFTVickreyAuction.sol\":8812:8824  s_bidEndTime */\n      0x05\n        /* \"CINFTVickreyAuction.sol\":8812:8834  s_bidEndTime[_tokenId] */\n      0x00\n        /* \"CINFTVickreyAuction.sol\":8825:8833  _tokenId */\n      dup4\n        /* \"CINFTVickreyAuction.sol\":8812:8834  s_bidEndTime[_tokenId] */\n      dup2\n      mstore\n      0x20\n      add\n      swap1\n      dup2\n      mstore\n      0x20\n      add\n      0x00\n      keccak256\n      sload\n        /* \"CINFTVickreyAuction.sol\":8794:8809  block.timestamp */\n      timestamp\n        /* \"CINFTVickreyAuction.sol\":8794:8834  block.timestamp > s_bidEndTime[_tokenId] */\n      gt\n        /* \"CINFTVickreyAuction.sol\":8791:8880  if(block.timestamp > s_bidEndTime[_tokenId]) revert CINFTVickreyAuction__BidTimeExpired() */\n      iszero\n      tag_211\n      jumpi\n        /* \"CINFTVickreyAuction.sol\":8843:8880  CINFTVickreyAuction__BidTimeExpired() */\n      mload(0x40)\n      0x1efd8c9100000000000000000000000000000000000000000000000000000000\n      dup2\n      mstore\n      0x04\n      add\n      mload(0x40)\n      dup1\n      swap2\n      sub\n      swap1\n      revert\n        /* \"CINFTVickreyAuction.sol\":8791:8880  if(block.timestamp > s_bidEndTime[_tokenId]) revert CINFTVickreyAuction__BidTimeExpired() */\n    tag_211:\n        /* \"CINFTVickreyAuction.sol\":8891:8931  _insertBider(_bid, _tokenId, msg.sender) */\n      tag_212\n        /* \"CINFTVickreyAuction.sol\":8904:8908  _bid */\n      dup2\n        /* \"CINFTVickreyAuction.sol\":8910:8918  _tokenId */\n      dup4\n        /* \"CINFTVickreyAuction.sol\":8920:8930  msg.sender */\n      caller\n        /* \"CINFTVickreyAuction.sol\":8891:8903  _insertBider */\n      tag_213\n        /* \"CINFTVickreyAuction.sol\":8891:8931  _insertBider(_bid, _tokenId, msg.sender) */\n      jump\t// in\n    tag_212:\n        /* \"CINFTVickreyAuction.sol\":8408:8938  function bid(uint256 _tokenId, uint256 _bid) public payable {... */\n      pop\n      pop\n      jump\t// out\n        /* \"CINFTVickreyAuction.sol\":13083:13181  function getNftsOnSale() public view returns(uint256[] memory) {... */\n    tag_49:\n        /* \"CINFTVickreyAuction.sol\":13128:13144  uint256[] memory */\n      0x60\n        /* \"CINFTVickreyAuction.sol\":13163:13174  s_nftOnSale */\n      0x00\n        /* \"CINFTVickreyAuction.sol\":13156:13174  return s_nftOnSale */\n      dup1\n      sload\n      dup1\n      0x20\n      mul\n      0x20\n      add\n      mload(0x40)\n      swap1\n      dup2\n      add\n      0x40\n      mstore\n      dup1\n      swap3\n      swap2\n      swap1\n      dup2\n      dup2\n      mstore\n      0x20\n      add\n      dup3\n      dup1\n      sload\n      dup1\n      iszero\n      tag_215\n      jumpi\n      0x20\n      mul\n      dup3\n      add\n      swap2\n      swap1\n      0x00\n      mstore\n      keccak256(0x00, 0x20)\n      swap1\n    tag_216:\n      dup2\n      sload\n      dup2\n      mstore\n      0x20\n      add\n      swap1\n      0x01\n      add\n      swap1\n      dup1\n      dup4\n      gt\n      tag_216\n      jumpi\n    tag_215:\n      pop\n      pop\n      pop\n      pop\n      pop\n      swap1\n      pop\n        /* \"CINFTVickreyAuction.sol\":13083:13181  function getNftsOnSale() public view returns(uint256[] memory) {... */\n      swap1\n      jump\t// out\n        /* \"CINFTVickreyAuction.sol\":13818:13926  function getMinBid(uint256 _tokenId) public view returns(uint256) {... */\n    tag_55:\n        /* \"CINFTVickreyAuction.sol\":13875:13882  uint256 */\n      0x00\n        /* \"CINFTVickreyAuction.sol\":13901:13909  s_minBid */\n      0x03\n        /* \"CINFTVickreyAuction.sol\":13901:13919  s_minBid[_tokenId] */\n      0x00\n        /* \"CINFTVickreyAuction.sol\":13910:13918  _tokenId */\n      dup4\n        /* \"CINFTVickreyAuction.sol\":13901:13919  s_minBid[_tokenId] */\n      dup2\n      mstore\n      0x20\n      add\n      swap1\n      dup2\n      mstore\n      0x20\n      add\n      0x00\n      keccak256\n      sload\n        /* \"CINFTVickreyAuction.sol\":13894:13919  return s_minBid[_tokenId] */\n      swap1\n      pop\n        /* \"CINFTVickreyAuction.sol\":13818:13926  function getMinBid(uint256 _tokenId) public view returns(uint256) {... */\n      swap2\n      swap1\n      pop\n      jump\t// out\n        /* \"CINFTVickreyAuction.sol\":14074:14211  function getListOfNftsBySeller(address _seller) public view returns(uint256[] memory) {... */\n    tag_61:\n        /* \"CINFTVickreyAuction.sol\":14142:14158  uint256[] memory */\n      0x60\n        /* \"CINFTVickreyAuction.sol\":14177:14195  s_sellerToTokenIds */\n      0x07\n        /* \"CINFTVickreyAuction.sol\":14177:14204  s_sellerToTokenIds[_seller] */\n      0x00\n        /* \"CINFTVickreyAuction.sol\":14196:14203  _seller */\n      dup4\n        /* \"CINFTVickreyAuction.sol\":14177:14204  s_sellerToTokenIds[_seller] */\n      0xffffffffffffffffffffffffffffffffffffffff\n      and\n      0xffffffffffffffffffffffffffffffffffffffff\n      and\n      dup2\n      mstore\n      0x20\n      add\n      swap1\n      dup2\n      mstore\n      0x20\n      add\n      0x00\n      keccak256\n        /* \"CINFTVickreyAuction.sol\":14170:14204  return s_sellerToTokenIds[_seller] */\n      dup1\n      sload\n      dup1\n      0x20\n      mul\n      0x20\n      add\n      mload(0x40)\n      swap1\n      dup2\n      add\n      0x40\n      mstore\n      dup1\n      swap3\n      swap2\n      swap1\n      dup2\n      dup2\n      mstore\n      0x20\n      add\n      dup3\n      dup1\n      sload\n      dup1\n      iszero\n      tag_219\n      jumpi\n      0x20\n      mul\n      dup3\n      add\n      swap2\n      swap1\n      0x00\n      mstore\n      keccak256(0x00, 0x20)\n      swap1\n    tag_220:\n      dup2\n      sload\n      dup2\n      mstore\n      0x20\n      add\n      swap1\n      0x01\n      add\n      swap1\n      dup1\n      dup4\n      gt\n      tag_220\n      jumpi\n    tag_219:\n      pop\n      pop\n      pop\n      pop\n      pop\n      swap1\n      pop\n        /* \"CINFTVickreyAuction.sol\":14074:14211  function getListOfNftsBySeller(address _seller) public view returns(uint256[] memory) {... */\n      swap2\n      swap1\n      pop\n      jump\t// out\n        /* \"CINFTVickreyAuction.sol\":12316:12983  function _insertBider(uint256 value, uint256 _tokenId, address bider) private {... */\n    tag_213:\n        /* \"CINFTVickreyAuction.sol\":12447:12456  uint256 i */\n      0x00\n        /* \"CINFTVickreyAuction.sol\":12459:12460  0 */\n      0x00\n        /* \"CINFTVickreyAuction.sol\":12447:12460  uint256 i = 0 */\n      swap1\n      pop\n        /* \"CINFTVickreyAuction.sol\":12470:12565  while (i < s_bids[_tokenId].length && s_bids[_tokenId][i] > value) {... */\n    tag_222:\n        /* \"CINFTVickreyAuction.sol\":12481:12487  s_bids */\n      0x02\n        /* \"CINFTVickreyAuction.sol\":12481:12497  s_bids[_tokenId] */\n      0x00\n        /* \"CINFTVickreyAuction.sol\":12488:12496  _tokenId */\n      dup5\n        /* \"CINFTVickreyAuction.sol\":12481:12497  s_bids[_tokenId] */\n      dup2\n      mstore\n      0x20\n      add\n      swap1\n      dup2\n      mstore\n      0x20\n      add\n      0x00\n      keccak256\n        /* \"CINFTVickreyAuction.sol\":12481:12504  s_bids[_tokenId].length */\n      dup1\n      sload\n      swap1\n      pop\n        /* \"CINFTVickreyAuction.sol\":12477:12478  i */\n      dup2\n        /* \"CINFTVickreyAuction.sol\":12477:12504  i < s_bids[_tokenId].length */\n      lt\n        /* \"CINFTVickreyAuction.sol\":12477:12535  i < s_bids[_tokenId].length && s_bids[_tokenId][i] > value */\n      dup1\n      iszero\n      tag_224\n      jumpi\n      pop\n        /* \"CINFTVickreyAuction.sol\":12530:12535  value */\n      dup4\n        /* \"CINFTVickreyAuction.sol\":12508:12514  s_bids */\n      0x02\n        /* \"CINFTVickreyAuction.sol\":12508:12524  s_bids[_tokenId] */\n      0x00\n        /* \"CINFTVickreyAuction.sol\":12515:12523  _tokenId */\n      dup6\n        /* \"CINFTVickreyAuction.sol\":12508:12524  s_bids[_tokenId] */\n      dup2\n      mstore\n      0x20\n      add\n      swap1\n      dup2\n      mstore\n      0x20\n      add\n      0x00\n      keccak256\n        /* \"CINFTVickreyAuction.sol\":12525:12526  i */\n      dup3\n        /* \"CINFTVickreyAuction.sol\":12508:12527  s_bids[_tokenId][i] */\n      dup2\n      sload\n      dup2\n      lt\n      tag_225\n      jumpi\n      tag_226\n      tag_86\n      jump\t// in\n    tag_226:\n    tag_225:\n      swap1\n      0x00\n      mstore\n      keccak256(0x00, 0x20)\n      add\n      sload\n        /* \"CINFTVickreyAuction.sol\":12508:12535  s_bids[_tokenId][i] > value */\n      gt\n        /* \"CINFTVickreyAuction.sol\":12477:12535  i < s_bids[_tokenId].length && s_bids[_tokenId][i] > value */\n    tag_224:\n        /* \"CINFTVickreyAuction.sol\":12470:12565  while (i < s_bids[_tokenId].length && s_bids[_tokenId][i] > value) {... */\n      iszero\n      tag_223\n      jumpi\n        /* \"CINFTVickreyAuction.sol\":12551:12554  i++ */\n      dup1\n      dup1\n      tag_228\n      swap1\n      tag_229\n      jump\t// in\n    tag_228:\n      swap2\n      pop\n      pop\n        /* \"CINFTVickreyAuction.sol\":12470:12565  while (i < s_bids[_tokenId].length && s_bids[_tokenId][i] > value) {... */\n      jump(tag_222)\n    tag_223:\n        /* \"CINFTVickreyAuction.sol\":12607:12613  s_bids */\n      0x02\n        /* \"CINFTVickreyAuction.sol\":12607:12623  s_bids[_tokenId] */\n      0x00\n        /* \"CINFTVickreyAuction.sol\":12614:12622  _tokenId */\n      dup5\n        /* \"CINFTVickreyAuction.sol\":12607:12623  s_bids[_tokenId] */\n      dup2\n      mstore\n      0x20\n      add\n      swap1\n      dup2\n      mstore\n      0x20\n      add\n      0x00\n      keccak256\n        /* \"CINFTVickreyAuction.sol\":12629:12634  value */\n      dup5\n        /* \"CINFTVickreyAuction.sol\":12607:12635  s_bids[_tokenId].push(value) */\n      swap1\n      dup1\n      0x01\n      dup2\n      sload\n      add\n      dup1\n      dup3\n      sstore\n      dup1\n      swap2\n      pop\n      pop\n      0x01\n      swap1\n      sub\n      swap1\n      0x00\n      mstore\n      keccak256(0x00, 0x20)\n      add\n      0x00\n      swap1\n      swap2\n      swap1\n      swap2\n      swap1\n      swap2\n      pop\n      sstore\n        /* \"CINFTVickreyAuction.sol\":12668:12676  s_biders */\n      0x01\n        /* \"CINFTVickreyAuction.sol\":12668:12686  s_biders[_tokenId] */\n      0x00\n        /* \"CINFTVickreyAuction.sol\":12677:12685  _tokenId */\n      dup5\n        /* \"CINFTVickreyAuction.sol\":12668:12686  s_biders[_tokenId] */\n      dup2\n      mstore\n      0x20\n      add\n      swap1\n      dup2\n      mstore\n      0x20\n      add\n      0x00\n      keccak256\n        /* \"CINFTVickreyAuction.sol\":12692:12697  bider */\n      dup3\n        /* \"CINFTVickreyAuction.sol\":12668:12698  s_biders[_tokenId].push(bider) */\n      swap1\n      dup1\n      0x01\n      dup2\n      sload\n      add\n      dup1\n      dup3\n      sstore\n      dup1\n      swap2\n      pop\n      pop\n      0x01\n      swap1\n      sub\n      swap1\n      0x00\n      mstore\n      keccak256(0x00, 0x20)\n      add\n      0x00\n      swap1\n      swap2\n      swap1\n      swap2\n      swap1\n      swap2\n      0x0100\n      exp\n      dup2\n      sload\n      dup2\n      0xffffffffffffffffffffffffffffffffffffffff\n      mul\n      not\n      and\n      swap1\n      dup4\n      0xffffffffffffffffffffffffffffffffffffffff\n      and\n      mul\n      or\n      swap1\n      sstore\n      pop\n        /* \"CINFTVickreyAuction.sol\":12713:12722  uint256 j */\n      0x00\n        /* \"CINFTVickreyAuction.sol\":12753:12754  1 */\n      0x01\n        /* \"CINFTVickreyAuction.sol\":12725:12733  s_biders */\n      dup1\n        /* \"CINFTVickreyAuction.sol\":12725:12743  s_biders[_tokenId] */\n      0x00\n        /* \"CINFTVickreyAuction.sol\":12734:12742  _tokenId */\n      dup7\n        /* \"CINFTVickreyAuction.sol\":12725:12743  s_biders[_tokenId] */\n      dup2\n      mstore\n      0x20\n      add\n      swap1\n      dup2\n      mstore\n      0x20\n      add\n      0x00\n      keccak256\n        /* \"CINFTVickreyAuction.sol\":12725:12750  s_biders[_tokenId].length */\n      dup1\n      sload\n      swap1\n      pop\n        /* \"CINFTVickreyAuction.sol\":12725:12754  s_biders[_tokenId].length - 1 */\n      tag_235\n      swap2\n      swap1\n      tag_120\n      jump\t// in\n    tag_235:\n        /* \"CINFTVickreyAuction.sol\":12713:12754  uint256 j = s_biders[_tokenId].length - 1 */\n      swap1\n      pop\n        /* \"CINFTVickreyAuction.sol\":12708:12901  for (uint256 j = s_biders[_tokenId].length - 1; j > i; j--) {... */\n    tag_232:\n        /* \"CINFTVickreyAuction.sol\":12760:12761  i */\n      dup2\n        /* \"CINFTVickreyAuction.sol\":12756:12757  j */\n      dup2\n        /* \"CINFTVickreyAuction.sol\":12756:12761  j > i */\n      gt\n        /* \"CINFTVickreyAuction.sol\":12708:12901  for (uint256 j = s_biders[_tokenId].length - 1; j > i; j--) {... */\n      iszero\n      tag_233\n      jumpi\n        /* \"CINFTVickreyAuction.sol\":12806:12814  s_biders */\n      0x01\n        /* \"CINFTVickreyAuction.sol\":12806:12824  s_biders[_tokenId] */\n      0x00\n        /* \"CINFTVickreyAuction.sol\":12815:12823  _tokenId */\n      dup6\n        /* \"CINFTVickreyAuction.sol\":12806:12824  s_biders[_tokenId] */\n      dup2\n      mstore\n      0x20\n      add\n      swap1\n      dup2\n      mstore\n      0x20\n      add\n      0x00\n      keccak256\n        /* \"CINFTVickreyAuction.sol\":12829:12830  1 */\n      0x01\n        /* \"CINFTVickreyAuction.sol\":12825:12826  j */\n      dup3\n        /* \"CINFTVickreyAuction.sol\":12825:12830  j - 1 */\n      tag_236\n      swap2\n      swap1\n      tag_120\n      jump\t// in\n    tag_236:\n        /* \"CINFTVickreyAuction.sol\":12806:12831  s_biders[_tokenId][j - 1] */\n      dup2\n      sload\n      dup2\n      lt\n      tag_237\n      jumpi\n      tag_238\n      tag_86\n      jump\t// in\n    tag_238:\n    tag_237:\n      swap1\n      0x00\n      mstore\n      keccak256(0x00, 0x20)\n      add\n      0x00\n      swap1\n      sload\n      swap1\n      0x0100\n      exp\n      swap1\n      div\n      0xffffffffffffffffffffffffffffffffffffffff\n      and\n        /* \"CINFTVickreyAuction.sol\":12782:12790  s_biders */\n      0x01\n        /* \"CINFTVickreyAuction.sol\":12782:12800  s_biders[_tokenId] */\n      0x00\n        /* \"CINFTVickreyAuction.sol\":12791:12799  _tokenId */\n      dup7\n        /* \"CINFTVickreyAuction.sol\":12782:12800  s_biders[_tokenId] */\n      dup2\n      mstore\n      0x20\n      add\n      swap1\n      dup2\n      mstore\n      0x20\n      add\n      0x00\n      keccak256\n        /* \"CINFTVickreyAuction.sol\":12801:12802  j */\n      dup3\n        /* \"CINFTVickreyAuction.sol\":12782:12803  s_biders[_tokenId][j] */\n      dup2\n      sload\n      dup2\n      lt\n      tag_240\n      jumpi\n      tag_241\n      tag_86\n      jump\t// in\n    tag_241:\n    tag_240:\n      swap1\n      0x00\n      mstore\n      keccak256(0x00, 0x20)\n      add\n      0x00\n        /* \"CINFTVickreyAuction.sol\":12782:12831  s_biders[_tokenId][j] = s_biders[_tokenId][j - 1] */\n      0x0100\n      exp\n      dup2\n      sload\n      dup2\n      0xffffffffffffffffffffffffffffffffffffffff\n      mul\n      not\n      and\n      swap1\n      dup4\n      0xffffffffffffffffffffffffffffffffffffffff\n      and\n      mul\n      or\n      swap1\n      sstore\n      pop\n        /* \"CINFTVickreyAuction.sol\":12867:12873  s_bids */\n      0x02\n        /* \"CINFTVickreyAuction.sol\":12867:12883  s_bids[_tokenId] */\n      0x00\n        /* \"CINFTVickreyAuction.sol\":12874:12882  _tokenId */\n      dup6\n        /* \"CINFTVickreyAuction.sol\":12867:12883  s_bids[_tokenId] */\n      dup2\n      mstore\n      0x20\n      add\n      swap1\n      dup2\n      mstore\n      0x20\n      add\n      0x00\n      keccak256\n        /* \"CINFTVickreyAuction.sol\":12888:12889  1 */\n      0x01\n        /* \"CINFTVickreyAuction.sol\":12884:12885  j */\n      dup3\n        /* \"CINFTVickreyAuction.sol\":12884:12889  j - 1 */\n      tag_243\n      swap2\n      swap1\n      tag_120\n      jump\t// in\n    tag_243:\n        /* \"CINFTVickreyAuction.sol\":12867:12890  s_bids[_tokenId][j - 1] */\n      dup2\n      sload\n      dup2\n      lt\n      tag_244\n      jumpi\n      tag_245\n      tag_86\n      jump\t// in\n    tag_245:\n    tag_244:\n      swap1\n      0x00\n      mstore\n      keccak256(0x00, 0x20)\n      add\n      sload\n        /* \"CINFTVickreyAuction.sol\":12845:12851  s_bids */\n      0x02\n        /* \"CINFTVickreyAuction.sol\":12845:12861  s_bids[_tokenId] */\n      0x00\n        /* \"CINFTVickreyAuction.sol\":12852:12860  _tokenId */\n      dup7\n        /* \"CINFTVickreyAuction.sol\":12845:12861  s_bids[_tokenId] */\n      dup2\n      mstore\n      0x20\n      add\n      swap1\n      dup2\n      mstore\n      0x20\n      add\n      0x00\n      keccak256\n        /* \"CINFTVickreyAuction.sol\":12862:12863  j */\n      dup3\n        /* \"CINFTVickreyAuction.sol\":12845:12864  s_bids[_tokenId][j] */\n      dup2\n      sload\n      dup2\n      lt\n      tag_247\n      jumpi\n      tag_248\n      tag_86\n      jump\t// in\n    tag_248:\n    tag_247:\n      swap1\n      0x00\n      mstore\n      keccak256(0x00, 0x20)\n      add\n        /* \"CINFTVickreyAuction.sol\":12845:12890  s_bids[_tokenId][j] = s_bids[_tokenId][j - 1] */\n      dup2\n      swap1\n      sstore\n      pop\n        /* \"CINFTVickreyAuction.sol\":12763:12766  j-- */\n      dup1\n      dup1\n      tag_250\n      swap1\n      tag_251\n      jump\t// in\n    tag_250:\n      swap2\n      pop\n      pop\n        /* \"CINFTVickreyAuction.sol\":12708:12901  for (uint256 j = s_biders[_tokenId].length - 1; j > i; j--) {... */\n      jump(tag_232)\n    tag_233:\n      pop\n        /* \"CINFTVickreyAuction.sol\":12934:12939  bider */\n      dup2\n        /* \"CINFTVickreyAuction.sol\":12910:12918  s_biders */\n      0x01\n        /* \"CINFTVickreyAuction.sol\":12910:12928  s_biders[_tokenId] */\n      0x00\n        /* \"CINFTVickreyAuction.sol\":12919:12927  _tokenId */\n      dup6\n        /* \"CINFTVickreyAuction.sol\":12910:12928  s_biders[_tokenId] */\n      dup2\n      mstore\n      0x20\n      add\n      swap1\n      dup2\n      mstore\n      0x20\n      add\n      0x00\n      keccak256\n        /* \"CINFTVickreyAuction.sol\":12929:12930  i */\n      dup3\n        /* \"CINFTVickreyAuction.sol\":12910:12931  s_biders[_tokenId][i] */\n      dup2\n      sload\n      dup2\n      lt\n      tag_252\n      jumpi\n      tag_253\n      tag_86\n      jump\t// in\n    tag_253:\n    tag_252:\n      swap1\n      0x00\n      mstore\n      keccak256(0x00, 0x20)\n      add\n      0x00\n        /* \"CINFTVickreyAuction.sol\":12910:12939  s_biders[_tokenId][i] = bider */\n      0x0100\n      exp\n      dup2\n      sload\n      dup2\n      0xffffffffffffffffffffffffffffffffffffffff\n      mul\n      not\n      and\n      swap1\n      dup4\n      0xffffffffffffffffffffffffffffffffffffffff\n      and\n      mul\n      or\n      swap1\n      sstore\n      pop\n        /* \"CINFTVickreyAuction.sol\":12971:12976  value */\n      dup4\n        /* \"CINFTVickreyAuction.sol\":12949:12955  s_bids */\n      0x02\n        /* \"CINFTVickreyAuction.sol\":12949:12965  s_bids[_tokenId] */\n      0x00\n        /* \"CINFTVickreyAuction.sol\":12956:12964  _tokenId */\n      dup6\n        /* \"CINFTVickreyAuction.sol\":12949:12965  s_bids[_tokenId] */\n      dup2\n      mstore\n      0x20\n      add\n      swap1\n      dup2\n      mstore\n      0x20\n      add\n      0x00\n      keccak256\n        /* \"CINFTVickreyAuction.sol\":12966:12967  i */\n      dup3\n        /* \"CINFTVickreyAuction.sol\":12949:12968  s_bids[_tokenId][i] */\n      dup2\n      sload\n      dup2\n      lt\n      tag_255\n      jumpi\n      tag_256\n      tag_86\n      jump\t// in\n    tag_256:\n    tag_255:\n      swap1\n      0x00\n      mstore\n      keccak256(0x00, 0x20)\n      add\n        /* \"CINFTVickreyAuction.sol\":12949:12976  s_bids[_tokenId][i] = value */\n      dup2\n      swap1\n      sstore\n      pop\n        /* \"CINFTVickreyAuction.sol\":12394:12983  {... */\n      pop\n        /* \"CINFTVickreyAuction.sol\":12316:12983  function _insertBider(uint256 value, uint256 _tokenId, address bider) private {... */\n      pop\n      pop\n      pop\n      jump\t// out\n    tag_170:\n      pop\n      dup1\n      sload\n      0x00\n      dup3\n      sstore\n      swap1\n      0x00\n      mstore\n      keccak256(0x00, 0x20)\n      swap1\n      dup2\n      add\n      swap1\n      tag_259\n      swap2\n      swap1\n      tag_260\n      jump\t// in\n    tag_259:\n      pop\n      jump\t// out\n    tag_172:\n      pop\n      dup1\n      sload\n      0x00\n      dup3\n      sstore\n      swap1\n      0x00\n      mstore\n      keccak256(0x00, 0x20)\n      swap1\n      dup2\n      add\n      swap1\n      tag_262\n      swap2\n      swap1\n      tag_260\n      jump\t// in\n    tag_262:\n      pop\n      jump\t// out\n    tag_260:\n    tag_263:\n      dup1\n      dup3\n      gt\n      iszero\n      tag_264\n      jumpi\n      0x00\n      dup2\n      0x00\n      swap1\n      sstore\n      pop\n      0x01\n      add\n      jump(tag_263)\n    tag_264:\n      pop\n      swap1\n      jump\t// out\n        /* \"#utility.yul\":7:82   */\n    tag_265:\n        /* \"#utility.yul\":40:46   */\n      0x00\n        /* \"#utility.yul\":73:75   */\n      0x40\n        /* \"#utility.yul\":67:76   */\n      mload\n        /* \"#utility.yul\":57:76   */\n      swap1\n      pop\n        /* \"#utility.yul\":7:82   */\n      swap1\n      jump\t// out\n        /* \"#utility.yul\":88:205   */\n    tag_266:\n        /* \"#utility.yul\":197:198   */\n      0x00\n        /* \"#utility.yul\":194:195   */\n      0x00\n        /* \"#utility.yul\":187:199   */\n      revert\n        /* \"#utility.yul\":211:328   */\n    tag_267:\n        /* \"#utility.yul\":320:321   */\n      0x00\n        /* \"#utility.yul\":317:318   */\n      0x00\n        /* \"#utility.yul\":310:322   */\n      revert\n        /* \"#utility.yul\":334:411   */\n    tag_268:\n        /* \"#utility.yul\":371:378   */\n      0x00\n        /* \"#utility.yul\":400:405   */\n      dup2\n        /* \"#utility.yul\":389:405   */\n      swap1\n      pop\n        /* \"#utility.yul\":334:411   */\n      swap2\n      swap1\n      pop\n      jump\t// out\n        /* \"#utility.yul\":417:539   */\n    tag_269:\n        /* \"#utility.yul\":490:514   */\n      tag_323\n        /* \"#utility.yul\":508:513   */\n      dup2\n        /* \"#utility.yul\":490:514   */\n      tag_268\n      jump\t// in\n    tag_323:\n        /* \"#utility.yul\":483:488   */\n      dup2\n        /* \"#utility.yul\":480:515   */\n      eq\n        /* \"#utility.yul\":470:533   */\n      tag_324\n      jumpi\n        /* \"#utility.yul\":529:530   */\n      0x00\n        /* \"#utility.yul\":526:527   */\n      0x00\n        /* \"#utility.yul\":519:531   */\n      revert\n        /* \"#utility.yul\":470:533   */\n    tag_324:\n        /* \"#utility.yul\":417:539   */\n      pop\n      jump\t// out\n        /* \"#utility.yul\":545:684   */\n    tag_270:\n        /* \"#utility.yul\":591:596   */\n      0x00\n        /* \"#utility.yul\":629:635   */\n      dup2\n        /* \"#utility.yul\":616:636   */\n      calldataload\n        /* \"#utility.yul\":607:636   */\n      swap1\n      pop\n        /* \"#utility.yul\":645:678   */\n      tag_326\n        /* \"#utility.yul\":672:677   */\n      dup2\n        /* \"#utility.yul\":645:678   */\n      tag_269\n      jump\t// in\n    tag_326:\n        /* \"#utility.yul\":545:684   */\n      swap3\n      swap2\n      pop\n      pop\n      jump\t// out\n        /* \"#utility.yul\":690:1019   */\n    tag_18:\n        /* \"#utility.yul\":749:755   */\n      0x00\n        /* \"#utility.yul\":798:800   */\n      0x20\n        /* \"#utility.yul\":786:795   */\n      dup3\n        /* \"#utility.yul\":777:784   */\n      dup5\n        /* \"#utility.yul\":773:796   */\n      sub\n        /* \"#utility.yul\":769:801   */\n      slt\n        /* \"#utility.yul\":766:885   */\n      iszero\n      tag_328\n      jumpi\n        /* \"#utility.yul\":804:883   */\n      tag_329\n      tag_266\n      jump\t// in\n    tag_329:\n        /* \"#utility.yul\":766:885   */\n    tag_328:\n        /* \"#utility.yul\":924:925   */\n      0x00\n        /* \"#utility.yul\":949:1002   */\n      tag_330\n        /* \"#utility.yul\":994:1001   */\n      dup5\n        /* \"#utility.yul\":985:991   */\n      dup3\n        /* \"#utility.yul\":974:983   */\n      dup6\n        /* \"#utility.yul\":970:992   */\n      add\n        /* \"#utility.yul\":949:1002   */\n      tag_270\n      jump\t// in\n    tag_330:\n        /* \"#utility.yul\":939:1002   */\n      swap2\n      pop\n        /* \"#utility.yul\":895:1012   */\n      pop\n        /* \"#utility.yul\":690:1019   */\n      swap3\n      swap2\n      pop\n      pop\n      jump\t// out\n        /* \"#utility.yul\":1025:1115   */\n    tag_271:\n        /* \"#utility.yul\":1059:1066   */\n      0x00\n        /* \"#utility.yul\":1102:1107   */\n      dup2\n        /* \"#utility.yul\":1095:1108   */\n      iszero\n        /* \"#utility.yul\":1088:1109   */\n      iszero\n        /* \"#utility.yul\":1077:1109   */\n      swap1\n      pop\n        /* \"#utility.yul\":1025:1115   */\n      swap2\n      swap1\n      pop\n      jump\t// out\n        /* \"#utility.yul\":1121:1230   */\n    tag_272:\n        /* \"#utility.yul\":1202:1223   */\n      tag_333\n        /* \"#utility.yul\":1217:1222   */\n      dup2\n        /* \"#utility.yul\":1202:1223   */\n      tag_271\n      jump\t// in\n    tag_333:\n        /* \"#utility.yul\":1197:1200   */\n      dup3\n        /* \"#utility.yul\":1190:1224   */\n      mstore\n        /* \"#utility.yul\":1121:1230   */\n      pop\n      pop\n      jump\t// out\n        /* \"#utility.yul\":1236:1446   */\n    tag_21:\n        /* \"#utility.yul\":1323:1327   */\n      0x00\n        /* \"#utility.yul\":1361:1363   */\n      0x20\n        /* \"#utility.yul\":1350:1359   */\n      dup3\n        /* \"#utility.yul\":1346:1364   */\n      add\n        /* \"#utility.yul\":1338:1364   */\n      swap1\n      pop\n        /* \"#utility.yul\":1374:1439   */\n      tag_335\n        /* \"#utility.yul\":1436:1437   */\n      0x00\n        /* \"#utility.yul\":1425:1434   */\n      dup4\n        /* \"#utility.yul\":1421:1438   */\n      add\n        /* \"#utility.yul\":1412:1418   */\n      dup5\n        /* \"#utility.yul\":1374:1439   */\n      tag_272\n      jump\t// in\n    tag_335:\n        /* \"#utility.yul\":1236:1446   */\n      swap3\n      swap2\n      pop\n      pop\n      jump\t// out\n        /* \"#utility.yul\":1452:1569   */\n    tag_273:\n        /* \"#utility.yul\":1561:1562   */\n      0x00\n        /* \"#utility.yul\":1558:1559   */\n      0x00\n        /* \"#utility.yul\":1551:1563   */\n      revert\n        /* \"#utility.yul\":1575:1692   */\n    tag_274:\n        /* \"#utility.yul\":1684:1685   */\n      0x00\n        /* \"#utility.yul\":1681:1682   */\n      0x00\n        /* \"#utility.yul\":1674:1686   */\n      revert\n        /* \"#utility.yul\":1698:1800   */\n    tag_275:\n        /* \"#utility.yul\":1739:1745   */\n      0x00\n        /* \"#utility.yul\":1790:1792   */\n      0x1f\n        /* \"#utility.yul\":1786:1793   */\n      not\n        /* \"#utility.yul\":1781:1783   */\n      0x1f\n        /* \"#utility.yul\":1774:1779   */\n      dup4\n        /* \"#utility.yul\":1770:1784   */\n      add\n        /* \"#utility.yul\":1766:1794   */\n      and\n        /* \"#utility.yul\":1756:1794   */\n      swap1\n      pop\n        /* \"#utility.yul\":1698:1800   */\n      swap2\n      swap1\n      pop\n      jump\t// out\n        /* \"#utility.yul\":1806:1986   */\n    tag_276:\n        /* \"#utility.yul\":1854:1931   */\n      0x4e487b7100000000000000000000000000000000000000000000000000000000\n        /* \"#utility.yul\":1851:1852   */\n      0x00\n        /* \"#utility.yul\":1844:1932   */\n      mstore\n        /* \"#utility.yul\":1951:1955   */\n      0x41\n        /* \"#utility.yul\":1948:1949   */\n      0x04\n        /* \"#utility.yul\":1941:1956   */\n      mstore\n        /* \"#utility.yul\":1975:1979   */\n      0x24\n        /* \"#utility.yul\":1972:1973   */\n      0x00\n        /* \"#utility.yul\":1965:1980   */\n      revert\n        /* \"#utility.yul\":1992:2273   */\n    tag_277:\n        /* \"#utility.yul\":2075:2102   */\n      tag_341\n        /* \"#utility.yul\":2097:2101   */\n      dup3\n        /* \"#utility.yul\":2075:2102   */\n      tag_275\n      jump\t// in\n    tag_341:\n        /* \"#utility.yul\":2067:2073   */\n      dup2\n        /* \"#utility.yul\":2063:2103   */\n      add\n        /* \"#utility.yul\":2205:2211   */\n      dup2\n        /* \"#utility.yul\":2193:2203   */\n      dup2\n        /* \"#utility.yul\":2190:2212   */\n      lt\n        /* \"#utility.yul\":2169:2187   */\n      0xffffffffffffffff\n        /* \"#utility.yul\":2157:2167   */\n      dup3\n        /* \"#utility.yul\":2154:2188   */\n      gt\n        /* \"#utility.yul\":2151:2213   */\n      or\n        /* \"#utility.yul\":2148:2236   */\n      iszero\n      tag_342\n      jumpi\n        /* \"#utility.yul\":2216:2234   */\n      tag_343\n      tag_276\n      jump\t// in\n    tag_343:\n        /* \"#utility.yul\":2148:2236   */\n    tag_342:\n        /* \"#utility.yul\":2256:2266   */\n      dup1\n        /* \"#utility.yul\":2252:2254   */\n      0x40\n        /* \"#utility.yul\":2245:2267   */\n      mstore\n        /* \"#utility.yul\":2035:2273   */\n      pop\n        /* \"#utility.yul\":1992:2273   */\n      pop\n      pop\n      jump\t// out\n        /* \"#utility.yul\":2279:2408   */\n    tag_278:\n        /* \"#utility.yul\":2313:2319   */\n      0x00\n        /* \"#utility.yul\":2340:2360   */\n      tag_345\n      tag_265\n      jump\t// in\n    tag_345:\n        /* \"#utility.yul\":2330:2360   */\n      swap1\n      pop\n        /* \"#utility.yul\":2369:2402   */\n      tag_346\n        /* \"#utility.yul\":2397:2401   */\n      dup3\n        /* \"#utility.yul\":2389:2395   */\n      dup3\n        /* \"#utility.yul\":2369:2402   */\n      tag_277\n      jump\t// in\n    tag_346:\n        /* \"#utility.yul\":2279:2408   */\n      swap2\n      swap1\n      pop\n      jump\t// out\n        /* \"#utility.yul\":2414:2722   */\n    tag_279:\n        /* \"#utility.yul\":2476:2480   */\n      0x00\n        /* \"#utility.yul\":2566:2584   */\n      0xffffffffffffffff\n        /* \"#utility.yul\":2558:2564   */\n      dup3\n        /* \"#utility.yul\":2555:2585   */\n      gt\n        /* \"#utility.yul\":2552:2608   */\n      iszero\n      tag_348\n      jumpi\n        /* \"#utility.yul\":2588:2606   */\n      tag_349\n      tag_276\n      jump\t// in\n    tag_349:\n        /* \"#utility.yul\":2552:2608   */\n    tag_348:\n        /* \"#utility.yul\":2626:2655   */\n      tag_350\n        /* \"#utility.yul\":2648:2654   */\n      dup3\n        /* \"#utility.yul\":2626:2655   */\n      tag_275\n      jump\t// in\n    tag_350:\n        /* \"#utility.yul\":2618:2655   */\n      swap1\n      pop\n        /* \"#utility.yul\":2710:2714   */\n      0x20\n        /* \"#utility.yul\":2704:2708   */\n      dup2\n        /* \"#utility.yul\":2700:2715   */\n      add\n        /* \"#utility.yul\":2692:2715   */\n      swap1\n      pop\n        /* \"#utility.yul\":2414:2722   */\n      swap2\n      swap1\n      pop\n      jump\t// out\n        /* \"#utility.yul\":2728:2876   */\n    tag_280:\n        /* \"#utility.yul\":2826:2832   */\n      dup3\n        /* \"#utility.yul\":2821:2824   */\n      dup2\n        /* \"#utility.yul\":2816:2819   */\n      dup4\n        /* \"#utility.yul\":2803:2833   */\n      calldatacopy\n        /* \"#utility.yul\":2867:2868   */\n      0x00\n        /* \"#utility.yul\":2858:2864   */\n      dup4\n        /* \"#utility.yul\":2853:2856   */\n      dup4\n        /* \"#utility.yul\":2849:2865   */\n      add\n        /* \"#utility.yul\":2842:2869   */\n      mstore\n        /* \"#utility.yul\":2728:2876   */\n      pop\n      pop\n      pop\n      jump\t// out\n        /* \"#utility.yul\":2882:3307   */\n    tag_281:\n        /* \"#utility.yul\":2960:2965   */\n      0x00\n        /* \"#utility.yul\":2985:3051   */\n      tag_353\n        /* \"#utility.yul\":3001:3050   */\n      tag_354\n        /* \"#utility.yul\":3043:3049   */\n      dup5\n        /* \"#utility.yul\":3001:3050   */\n      tag_279\n      jump\t// in\n    tag_354:\n        /* \"#utility.yul\":2985:3051   */\n      tag_278\n      jump\t// in\n    tag_353:\n        /* \"#utility.yul\":2976:3051   */\n      swap1\n      pop\n        /* \"#utility.yul\":3074:3080   */\n      dup3\n        /* \"#utility.yul\":3067:3072   */\n      dup2\n        /* \"#utility.yul\":3060:3081   */\n      mstore\n        /* \"#utility.yul\":3112:3116   */\n      0x20\n        /* \"#utility.yul\":3105:3110   */\n      dup2\n        /* \"#utility.yul\":3101:3117   */\n      add\n        /* \"#utility.yul\":3150:3153   */\n      dup5\n        /* \"#utility.yul\":3141:3147   */\n      dup5\n        /* \"#utility.yul\":3136:3139   */\n      dup5\n        /* \"#utility.yul\":3132:3148   */\n      add\n        /* \"#utility.yul\":3129:3154   */\n      gt\n        /* \"#utility.yul\":3126:3238   */\n      iszero\n      tag_355\n      jumpi\n        /* \"#utility.yul\":3157:3236   */\n      tag_356\n      tag_274\n      jump\t// in\n    tag_356:\n        /* \"#utility.yul\":3126:3238   */\n    tag_355:\n        /* \"#utility.yul\":3247:3301   */\n      tag_357\n        /* \"#utility.yul\":3294:3300   */\n      dup5\n        /* \"#utility.yul\":3289:3292   */\n      dup3\n        /* \"#utility.yul\":3284:3287   */\n      dup6\n        /* \"#utility.yul\":3247:3301   */\n      tag_280\n      jump\t// in\n    tag_357:\n        /* \"#utility.yul\":2966:3307   */\n      pop\n        /* \"#utility.yul\":2882:3307   */\n      swap4\n      swap3\n      pop\n      pop\n      pop\n      jump\t// out\n        /* \"#utility.yul\":3327:3667   */\n    tag_282:\n        /* \"#utility.yul\":3383:3388   */\n      0x00\n        /* \"#utility.yul\":3432:3435   */\n      dup3\n        /* \"#utility.yul\":3425:3429   */\n      0x1f\n        /* \"#utility.yul\":3417:3423   */\n      dup4\n        /* \"#utility.yul\":3413:3430   */\n      add\n        /* \"#utility.yul\":3409:3436   */\n      slt\n        /* \"#utility.yul\":3399:3521   */\n      tag_359\n      jumpi\n        /* \"#utility.yul\":3440:3519   */\n      tag_360\n      tag_273\n      jump\t// in\n    tag_360:\n        /* \"#utility.yul\":3399:3521   */\n    tag_359:\n        /* \"#utility.yul\":3557:3563   */\n      dup2\n        /* \"#utility.yul\":3544:3564   */\n      calldataload\n        /* \"#utility.yul\":3582:3661   */\n      tag_361\n        /* \"#utility.yul\":3657:3660   */\n      dup5\n        /* \"#utility.yul\":3649:3655   */\n      dup3\n        /* \"#utility.yul\":3642:3646   */\n      0x20\n        /* \"#utility.yul\":3634:3640   */\n      dup7\n        /* \"#utility.yul\":3630:3647   */\n      add\n        /* \"#utility.yul\":3582:3661   */\n      tag_281\n      jump\t// in\n    tag_361:\n        /* \"#utility.yul\":3573:3661   */\n      swap2\n      pop\n        /* \"#utility.yul\":3389:3667   */\n      pop\n        /* \"#utility.yul\":3327:3667   */\n      swap3\n      swap2\n      pop\n      pop\n      jump\t// out\n        /* \"#utility.yul\":3673:4618   */\n    tag_29:\n        /* \"#utility.yul\":3769:3775   */\n      0x00\n        /* \"#utility.yul\":3777:3783   */\n      0x00\n        /* \"#utility.yul\":3785:3791   */\n      0x00\n        /* \"#utility.yul\":3793:3799   */\n      0x00\n        /* \"#utility.yul\":3842:3845   */\n      0x80\n        /* \"#utility.yul\":3830:3839   */\n      dup6\n        /* \"#utility.yul\":3821:3828   */\n      dup8\n        /* \"#utility.yul\":3817:3840   */\n      sub\n        /* \"#utility.yul\":3813:3846   */\n      slt\n        /* \"#utility.yul\":3810:3930   */\n      iszero\n      tag_363\n      jumpi\n        /* \"#utility.yul\":3849:3928   */\n      tag_364\n      tag_266\n      jump\t// in\n    tag_364:\n        /* \"#utility.yul\":3810:3930   */\n    tag_363:\n        /* \"#utility.yul\":3969:3970   */\n      0x00\n        /* \"#utility.yul\":3994:4047   */\n      tag_365\n        /* \"#utility.yul\":4039:4046   */\n      dup8\n        /* \"#utility.yul\":4030:4036   */\n      dup3\n        /* \"#utility.yul\":4019:4028   */\n      dup9\n        /* \"#utility.yul\":4015:4037   */\n      add\n        /* \"#utility.yul\":3994:4047   */\n      tag_270\n      jump\t// in\n    tag_365:\n        /* \"#utility.yul\":3984:4047   */\n      swap5\n      pop\n        /* \"#utility.yul\":3940:4057   */\n      pop\n        /* \"#utility.yul\":4096:4098   */\n      0x20\n        /* \"#utility.yul\":4122:4175   */\n      tag_366\n        /* \"#utility.yul\":4167:4174   */\n      dup8\n        /* \"#utility.yul\":4158:4164   */\n      dup3\n        /* \"#utility.yul\":4147:4156   */\n      dup9\n        /* \"#utility.yul\":4143:4165   */\n      add\n        /* \"#utility.yul\":4122:4175   */\n      tag_270\n      jump\t// in\n    tag_366:\n        /* \"#utility.yul\":4112:4175   */\n      swap4\n      pop\n        /* \"#utility.yul\":4067:4185   */\n      pop\n        /* \"#utility.yul\":4224:4226   */\n      0x40\n        /* \"#utility.yul\":4250:4303   */\n      tag_367\n        /* \"#utility.yul\":4295:4302   */\n      dup8\n        /* \"#utility.yul\":4286:4292   */\n      dup3\n        /* \"#utility.yul\":4275:4284   */\n      dup9\n        /* \"#utility.yul\":4271:4293   */\n      add\n        /* \"#utility.yul\":4250:4303   */\n      tag_270\n      jump\t// in\n    tag_367:\n        /* \"#utility.yul\":4240:4303   */\n      swap3\n      pop\n        /* \"#utility.yul\":4195:4313   */\n      pop\n        /* \"#utility.yul\":4380:4382   */\n      0x60\n        /* \"#utility.yul\":4369:4378   */\n      dup6\n        /* \"#utility.yul\":4365:4383   */\n      add\n        /* \"#utility.yul\":4352:4384   */\n      calldataload\n        /* \"#utility.yul\":4411:4429   */\n      0xffffffffffffffff\n        /* \"#utility.yul\":4403:4409   */\n      dup2\n        /* \"#utility.yul\":4400:4430   */\n      gt\n        /* \"#utility.yul\":4397:4514   */\n      iszero\n      tag_368\n      jumpi\n        /* \"#utility.yul\":4433:4512   */\n      tag_369\n      tag_267\n      jump\t// in\n    tag_369:\n        /* \"#utility.yul\":4397:4514   */\n    tag_368:\n        /* \"#utility.yul\":4538:4601   */\n      tag_370\n        /* \"#utility.yul\":4593:4600   */\n      dup8\n        /* \"#utility.yul\":4584:4590   */\n      dup3\n        /* \"#utility.yul\":4573:4582   */\n      dup9\n        /* \"#utility.yul\":4569:4591   */\n      add\n        /* \"#utility.yul\":4538:4601   */\n      tag_282\n      jump\t// in\n    tag_370:\n        /* \"#utility.yul\":4528:4601   */\n      swap2\n      pop\n        /* \"#utility.yul\":4323:4611   */\n      pop\n        /* \"#utility.yul\":3673:4618   */\n      swap3\n      swap6\n      swap2\n      swap5\n      pop\n      swap3\n      pop\n      jump\t// out\n        /* \"#utility.yul\":4624:4742   */\n    tag_283:\n        /* \"#utility.yul\":4711:4735   */\n      tag_372\n        /* \"#utility.yul\":4729:4734   */\n      dup2\n        /* \"#utility.yul\":4711:4735   */\n      tag_268\n      jump\t// in\n    tag_372:\n        /* \"#utility.yul\":4706:4709   */\n      dup3\n        /* \"#utility.yul\":4699:4736   */\n      mstore\n        /* \"#utility.yul\":4624:4742   */\n      pop\n      pop\n      jump\t// out\n        /* \"#utility.yul\":4748:4970   */\n    tag_36:\n        /* \"#utility.yul\":4841:4845   */\n      0x00\n        /* \"#utility.yul\":4879:4881   */\n      0x20\n        /* \"#utility.yul\":4868:4877   */\n      dup3\n        /* \"#utility.yul\":4864:4882   */\n      add\n        /* \"#utility.yul\":4856:4882   */\n      swap1\n      pop\n        /* \"#utility.yul\":4892:4963   */\n      tag_374\n        /* \"#utility.yul\":4960:4961   */\n      0x00\n        /* \"#utility.yul\":4949:4958   */\n      dup4\n        /* \"#utility.yul\":4945:4962   */\n      add\n        /* \"#utility.yul\":4936:4942   */\n      dup5\n        /* \"#utility.yul\":4892:4963   */\n      tag_283\n      jump\t// in\n    tag_374:\n        /* \"#utility.yul\":4748:4970   */\n      swap3\n      swap2\n      pop\n      pop\n      jump\t// out\n        /* \"#utility.yul\":4976:5075   */\n    tag_284:\n        /* \"#utility.yul\":5028:5034   */\n      0x00\n        /* \"#utility.yul\":5062:5067   */\n      dup2\n        /* \"#utility.yul\":5056:5068   */\n      mload\n        /* \"#utility.yul\":5046:5068   */\n      swap1\n      pop\n        /* \"#utility.yul\":4976:5075   */\n      swap2\n      swap1\n      pop\n      jump\t// out\n        /* \"#utility.yul\":5081:5250   */\n    tag_285:\n        /* \"#utility.yul\":5165:5176   */\n      0x00\n        /* \"#utility.yul\":5199:5205   */\n      dup3\n        /* \"#utility.yul\":5194:5197   */\n      dup3\n        /* \"#utility.yul\":5187:5206   */\n      mstore\n        /* \"#utility.yul\":5239:5243   */\n      0x20\n        /* \"#utility.yul\":5234:5237   */\n      dup3\n        /* \"#utility.yul\":5230:5244   */\n      add\n        /* \"#utility.yul\":5215:5244   */\n      swap1\n      pop\n        /* \"#utility.yul\":5081:5250   */\n      swap3\n      swap2\n      pop\n      pop\n      jump\t// out\n        /* \"#utility.yul\":5256:5395   */\n    tag_286:\n        /* \"#utility.yul\":5345:5351   */\n      dup3\n        /* \"#utility.yul\":5340:5343   */\n      dup2\n        /* \"#utility.yul\":5335:5338   */\n      dup4\n        /* \"#utility.yul\":5329:5352   */\n      mcopy\n        /* \"#utility.yul\":5386:5387   */\n      0x00\n        /* \"#utility.yul\":5377:5383   */\n      dup4\n        /* \"#utility.yul\":5372:5375   */\n      dup4\n        /* \"#utility.yul\":5368:5384   */\n      add\n        /* \"#utility.yul\":5361:5388   */\n      mstore\n        /* \"#utility.yul\":5256:5395   */\n      pop\n      pop\n      pop\n      jump\t// out\n        /* \"#utility.yul\":5401:5778   */\n    tag_287:\n        /* \"#utility.yul\":5489:5492   */\n      0x00\n        /* \"#utility.yul\":5517:5556   */\n      tag_379\n        /* \"#utility.yul\":5550:5555   */\n      dup3\n        /* \"#utility.yul\":5517:5556   */\n      tag_284\n      jump\t// in\n    tag_379:\n        /* \"#utility.yul\":5572:5643   */\n      tag_380\n        /* \"#utility.yul\":5636:5642   */\n      dup2\n        /* \"#utility.yul\":5631:5634   */\n      dup6\n        /* \"#utility.yul\":5572:5643   */\n      tag_285\n      jump\t// in\n    tag_380:\n        /* \"#utility.yul\":5565:5643   */\n      swap4\n      pop\n        /* \"#utility.yul\":5652:5717   */\n      tag_381\n        /* \"#utility.yul\":5710:5716   */\n      dup2\n        /* \"#utility.yul\":5705:5708   */\n      dup6\n        /* \"#utility.yul\":5698:5702   */\n      0x20\n        /* \"#utility.yul\":5691:5696   */\n      dup7\n        /* \"#utility.yul\":5687:5703   */\n      add\n        /* \"#utility.yul\":5652:5717   */\n      tag_286\n      jump\t// in\n    tag_381:\n        /* \"#utility.yul\":5742:5771   */\n      tag_382\n        /* \"#utility.yul\":5764:5770   */\n      dup2\n        /* \"#utility.yul\":5742:5771   */\n      tag_275\n      jump\t// in\n    tag_382:\n        /* \"#utility.yul\":5737:5740   */\n      dup5\n        /* \"#utility.yul\":5733:5772   */\n      add\n        /* \"#utility.yul\":5726:5772   */\n      swap2\n      pop\n        /* \"#utility.yul\":5493:5778   */\n      pop\n        /* \"#utility.yul\":5401:5778   */\n      swap3\n      swap2\n      pop\n      pop\n      jump\t// out\n        /* \"#utility.yul\":5784:6097   */\n    tag_42:\n        /* \"#utility.yul\":5897:5901   */\n      0x00\n        /* \"#utility.yul\":5935:5937   */\n      0x20\n        /* \"#utility.yul\":5924:5933   */\n      dup3\n        /* \"#utility.yul\":5920:5938   */\n      add\n        /* \"#utility.yul\":5912:5938   */\n      swap1\n      pop\n        /* \"#utility.yul\":5984:5993   */\n      dup2\n        /* \"#utility.yul\":5978:5982   */\n      dup2\n        /* \"#utility.yul\":5974:5994   */\n      sub\n        /* \"#utility.yul\":5970:5971   */\n      0x00\n        /* \"#utility.yul\":5959:5968   */\n      dup4\n        /* \"#utility.yul\":5955:5972   */\n      add\n        /* \"#utility.yul\":5948:5995   */\n      mstore\n        /* \"#utility.yul\":6012:6090   */\n      tag_384\n        /* \"#utility.yul\":6085:6089   */\n      dup2\n        /* \"#utility.yul\":6076:6082   */\n      dup5\n        /* \"#utility.yul\":6012:6090   */\n      tag_287\n      jump\t// in\n    tag_384:\n        /* \"#utility.yul\":6004:6090   */\n      swap1\n      pop\n        /* \"#utility.yul\":5784:6097   */\n      swap3\n      swap2\n      pop\n      pop\n      jump\t// out\n        /* \"#utility.yul\":6103:6577   */\n    tag_45:\n        /* \"#utility.yul\":6171:6177   */\n      0x00\n        /* \"#utility.yul\":6179:6185   */\n      0x00\n        /* \"#utility.yul\":6228:6230   */\n      0x40\n        /* \"#utility.yul\":6216:6225   */\n      dup4\n        /* \"#utility.yul\":6207:6214   */\n      dup6\n        /* \"#utility.yul\":6203:6226   */\n      sub\n        /* \"#utility.yul\":6199:6231   */\n      slt\n        /* \"#utility.yul\":6196:6315   */\n      iszero\n      tag_386\n      jumpi\n        /* \"#utility.yul\":6234:6313   */\n      tag_387\n      tag_266\n      jump\t// in\n    tag_387:\n        /* \"#utility.yul\":6196:6315   */\n    tag_386:\n        /* \"#utility.yul\":6354:6355   */\n      0x00\n        /* \"#utility.yul\":6379:6432   */\n      tag_388\n        /* \"#utility.yul\":6424:6431   */\n      dup6\n        /* \"#utility.yul\":6415:6421   */\n      dup3\n        /* \"#utility.yul\":6404:6413   */\n      dup7\n        /* \"#utility.yul\":6400:6422   */\n      add\n        /* \"#utility.yul\":6379:6432   */\n      tag_270\n      jump\t// in\n    tag_388:\n        /* \"#utility.yul\":6369:6432   */\n      swap3\n      pop\n        /* \"#utility.yul\":6325:6442   */\n      pop\n        /* \"#utility.yul\":6481:6483   */\n      0x20\n        /* \"#utility.yul\":6507:6560   */\n      tag_389\n        /* \"#utility.yul\":6552:6559   */\n      dup6\n        /* \"#utility.yul\":6543:6549   */\n      dup3\n        /* \"#utility.yul\":6532:6541   */\n      dup7\n        /* \"#utility.yul\":6528:6550   */\n      add\n        /* \"#utility.yul\":6507:6560   */\n      tag_270\n      jump\t// in\n    tag_389:\n        /* \"#utility.yul\":6497:6560   */\n      swap2\n      pop\n        /* \"#utility.yul\":6452:6570   */\n      pop\n        /* \"#utility.yul\":6103:6577   */\n      swap3\n      pop\n      swap3\n      swap1\n      pop\n      jump\t// out\n        /* \"#utility.yul\":6583:6697   */\n    tag_288:\n        /* \"#utility.yul\":6650:6656   */\n      0x00\n        /* \"#utility.yul\":6684:6689   */\n      dup2\n        /* \"#utility.yul\":6678:6690   */\n      mload\n        /* \"#utility.yul\":6668:6690   */\n      swap1\n      pop\n        /* \"#utility.yul\":6583:6697   */\n      swap2\n      swap1\n      pop\n      jump\t// out\n        /* \"#utility.yul\":6703:6887   */\n    tag_289:\n        /* \"#utility.yul\":6802:6813   */\n      0x00\n        /* \"#utility.yul\":6836:6842   */\n      dup3\n        /* \"#utility.yul\":6831:6834   */\n      dup3\n        /* \"#utility.yul\":6824:6843   */\n      mstore\n        /* \"#utility.yul\":6876:6880   */\n      0x20\n        /* \"#utility.yul\":6871:6874   */\n      dup3\n        /* \"#utility.yul\":6867:6881   */\n      add\n        /* \"#utility.yul\":6852:6881   */\n      swap1\n      pop\n        /* \"#utility.yul\":6703:6887   */\n      swap3\n      swap2\n      pop\n      pop\n      jump\t// out\n        /* \"#utility.yul\":6893:7025   */\n    tag_290:\n        /* \"#utility.yul\":6960:6964   */\n      0x00\n        /* \"#utility.yul\":6983:6986   */\n      dup2\n        /* \"#utility.yul\":6975:6986   */\n      swap1\n      pop\n        /* \"#utility.yul\":7013:7017   */\n      0x20\n        /* \"#utility.yul\":7008:7011   */\n      dup3\n        /* \"#utility.yul\":7004:7018   */\n      add\n        /* \"#utility.yul\":6996:7018   */\n      swap1\n      pop\n        /* \"#utility.yul\":6893:7025   */\n      swap2\n      swap1\n      pop\n      jump\t// out\n        /* \"#utility.yul\":7031:7139   */\n    tag_291:\n        /* \"#utility.yul\":7108:7132   */\n      tag_394\n        /* \"#utility.yul\":7126:7131   */\n      dup2\n        /* \"#utility.yul\":7108:7132   */\n      tag_268\n      jump\t// in\n    tag_394:\n        /* \"#utility.yul\":7103:7106   */\n      dup3\n        /* \"#utility.yul\":7096:7133   */\n      mstore\n        /* \"#utility.yul\":7031:7139   */\n      pop\n      pop\n      jump\t// out\n        /* \"#utility.yul\":7145:7324   */\n    tag_292:\n        /* \"#utility.yul\":7214:7224   */\n      0x00\n        /* \"#utility.yul\":7235:7281   */\n      tag_396\n        /* \"#utility.yul\":7277:7280   */\n      dup4\n        /* \"#utility.yul\":7269:7275   */\n      dup4\n        /* \"#utility.yul\":7235:7281   */\n      tag_291\n      jump\t// in\n    tag_396:\n        /* \"#utility.yul\":7313:7317   */\n      0x20\n        /* \"#utility.yul\":7308:7311   */\n      dup4\n        /* \"#utility.yul\":7304:7318   */\n      add\n        /* \"#utility.yul\":7290:7318   */\n      swap1\n      pop\n        /* \"#utility.yul\":7145:7324   */\n      swap3\n      swap2\n      pop\n      pop\n      jump\t// out\n        /* \"#utility.yul\":7330:7443   */\n    tag_293:\n        /* \"#utility.yul\":7400:7404   */\n      0x00\n        /* \"#utility.yul\":7432:7436   */\n      0x20\n        /* \"#utility.yul\":7427:7430   */\n      dup3\n        /* \"#utility.yul\":7423:7437   */\n      add\n        /* \"#utility.yul\":7415:7437   */\n      swap1\n      pop\n        /* \"#utility.yul\":7330:7443   */\n      swap2\n      swap1\n      pop\n      jump\t// out\n        /* \"#utility.yul\":7479:8211   */\n    tag_294:\n        /* \"#utility.yul\":7598:7601   */\n      0x00\n        /* \"#utility.yul\":7627:7681   */\n      tag_399\n        /* \"#utility.yul\":7675:7680   */\n      dup3\n        /* \"#utility.yul\":7627:7681   */\n      tag_288\n      jump\t// in\n    tag_399:\n        /* \"#utility.yul\":7697:7783   */\n      tag_400\n        /* \"#utility.yul\":7776:7782   */\n      dup2\n        /* \"#utility.yul\":7771:7774   */\n      dup6\n        /* \"#utility.yul\":7697:7783   */\n      tag_289\n      jump\t// in\n    tag_400:\n        /* \"#utility.yul\":7690:7783   */\n      swap4\n      pop\n        /* \"#utility.yul\":7807:7863   */\n      tag_401\n        /* \"#utility.yul\":7857:7862   */\n      dup4\n        /* \"#utility.yul\":7807:7863   */\n      tag_290\n      jump\t// in\n    tag_401:\n        /* \"#utility.yul\":7886:7893   */\n      dup1\n        /* \"#utility.yul\":7917:7918   */\n      0x00\n        /* \"#utility.yul\":7902:8186   */\n    tag_402:\n        /* \"#utility.yul\":7927:7933   */\n      dup4\n        /* \"#utility.yul\":7924:7925   */\n      dup2\n        /* \"#utility.yul\":7921:7934   */\n      lt\n        /* \"#utility.yul\":7902:8186   */\n      iszero\n      tag_404\n      jumpi\n        /* \"#utility.yul\":8003:8009   */\n      dup2\n        /* \"#utility.yul\":7997:8010   */\n      mload\n        /* \"#utility.yul\":8030:8093   */\n      tag_405\n        /* \"#utility.yul\":8089:8092   */\n      dup9\n        /* \"#utility.yul\":8074:8087   */\n      dup3\n        /* \"#utility.yul\":8030:8093   */\n      tag_292\n      jump\t// in\n    tag_405:\n        /* \"#utility.yul\":8023:8093   */\n      swap8\n      pop\n        /* \"#utility.yul\":8116:8176   */\n      tag_406\n        /* \"#utility.yul\":8169:8175   */\n      dup4\n        /* \"#utility.yul\":8116:8176   */\n      tag_293\n      jump\t// in\n    tag_406:\n        /* \"#utility.yul\":8106:8176   */\n      swap3\n      pop\n        /* \"#utility.yul\":7962:8186   */\n      pop\n        /* \"#utility.yul\":7949:7950   */\n      0x01\n        /* \"#utility.yul\":7946:7947   */\n      dup2\n        /* \"#utility.yul\":7942:7951   */\n      add\n        /* \"#utility.yul\":7937:7951   */\n      swap1\n      pop\n        /* \"#utility.yul\":7902:8186   */\n      jump(tag_402)\n    tag_404:\n        /* \"#utility.yul\":7906:7920   */\n      pop\n        /* \"#utility.yul\":8202:8205   */\n      dup6\n        /* \"#utility.yul\":8195:8205   */\n      swap4\n      pop\n        /* \"#utility.yul\":7603:8211   */\n      pop\n      pop\n      pop\n        /* \"#utility.yul\":7479:8211   */\n      swap3\n      swap2\n      pop\n      pop\n      jump\t// out\n        /* \"#utility.yul\":8217:8590   */\n    tag_51:\n        /* \"#utility.yul\":8360:8364   */\n      0x00\n        /* \"#utility.yul\":8398:8400   */\n      0x20\n        /* \"#utility.yul\":8387:8396   */\n      dup3\n        /* \"#utility.yul\":8383:8401   */\n      add\n        /* \"#utility.yul\":8375:8401   */\n      swap1\n      pop\n        /* \"#utility.yul\":8447:8456   */\n      dup2\n        /* \"#utility.yul\":8441:8445   */\n      dup2\n        /* \"#utility.yul\":8437:8457   */\n      sub\n        /* \"#utility.yul\":8433:8434   */\n      0x00\n        /* \"#utility.yul\":8422:8431   */\n      dup4\n        /* \"#utility.yul\":8418:8435   */\n      add\n        /* \"#utility.yul\":8411:8458   */\n      mstore\n        /* \"#utility.yul\":8475:8583   */\n      tag_408\n        /* \"#utility.yul\":8578:8582   */\n      dup2\n        /* \"#utility.yul\":8569:8575   */\n      dup5\n        /* \"#utility.yul\":8475:8583   */\n      tag_294\n      jump\t// in\n    tag_408:\n        /* \"#utility.yul\":8467:8583   */\n      swap1\n      pop\n        /* \"#utility.yul\":8217:8590   */\n      swap3\n      swap2\n      pop\n      pop\n      jump\t// out\n        /* \"#utility.yul\":8596:8722   */\n    tag_295:\n        /* \"#utility.yul\":8633:8640   */\n      0x00\n        /* \"#utility.yul\":8673:8715   */\n      0xffffffffffffffffffffffffffffffffffffffff\n        /* \"#utility.yul\":8666:8671   */\n      dup3\n        /* \"#utility.yul\":8662:8716   */\n      and\n        /* \"#utility.yul\":8651:8716   */\n      swap1\n      pop\n        /* \"#utility.yul\":8596:8722   */\n      swap2\n      swap1\n      pop\n      jump\t// out\n        /* \"#utility.yul\":8728:8824   */\n    tag_296:\n        /* \"#utility.yul\":8765:8772   */\n      0x00\n        /* \"#utility.yul\":8794:8818   */\n      tag_411\n        /* \"#utility.yul\":8812:8817   */\n      dup3\n        /* \"#utility.yul\":8794:8818   */\n      tag_295\n      jump\t// in\n    tag_411:\n        /* \"#utility.yul\":8783:8818   */\n      swap1\n      pop\n        /* \"#utility.yul\":8728:8824   */\n      swap2\n      swap1\n      pop\n      jump\t// out\n        /* \"#utility.yul\":8830:8952   */\n    tag_297:\n        /* \"#utility.yul\":8903:8927   */\n      tag_413\n        /* \"#utility.yul\":8921:8926   */\n      dup2\n        /* \"#utility.yul\":8903:8927   */\n      tag_296\n      jump\t// in\n    tag_413:\n        /* \"#utility.yul\":8896:8901   */\n      dup2\n        /* \"#utility.yul\":8893:8928   */\n      eq\n        /* \"#utility.yul\":8883:8946   */\n      tag_414\n      jumpi\n        /* \"#utility.yul\":8942:8943   */\n      0x00\n        /* \"#utility.yul\":8939:8940   */\n      0x00\n        /* \"#utility.yul\":8932:8944   */\n      revert\n        /* \"#utility.yul\":8883:8946   */\n    tag_414:\n        /* \"#utility.yul\":8830:8952   */\n      pop\n      jump\t// out\n        /* \"#utility.yul\":8958:9097   */\n    tag_298:\n        /* \"#utility.yul\":9004:9009   */\n      0x00\n        /* \"#utility.yul\":9042:9048   */\n      dup2\n        /* \"#utility.yul\":9029:9049   */\n      calldataload\n        /* \"#utility.yul\":9020:9049   */\n      swap1\n      pop\n        /* \"#utility.yul\":9058:9091   */\n      tag_416\n        /* \"#utility.yul\":9085:9090   */\n      dup2\n        /* \"#utility.yul\":9058:9091   */\n      tag_297\n      jump\t// in\n    tag_416:\n        /* \"#utility.yul\":8958:9097   */\n      swap3\n      swap2\n      pop\n      pop\n      jump\t// out\n        /* \"#utility.yul\":9103:9432   */\n    tag_60:\n        /* \"#utility.yul\":9162:9168   */\n      0x00\n        /* \"#utility.yul\":9211:9213   */\n      0x20\n        /* \"#utility.yul\":9199:9208   */\n      dup3\n        /* \"#utility.yul\":9190:9197   */\n      dup5\n        /* \"#utility.yul\":9186:9209   */\n      sub\n        /* \"#utility.yul\":9182:9214   */\n      slt\n        /* \"#utility.yul\":9179:9298   */\n      iszero\n      tag_418\n      jumpi\n        /* \"#utility.yul\":9217:9296   */\n      tag_419\n      tag_266\n      jump\t// in\n    tag_419:\n        /* \"#utility.yul\":9179:9298   */\n    tag_418:\n        /* \"#utility.yul\":9337:9338   */\n      0x00\n        /* \"#utility.yul\":9362:9415   */\n      tag_420\n        /* \"#utility.yul\":9407:9414   */\n      dup5\n        /* \"#utility.yul\":9398:9404   */\n      dup3\n        /* \"#utility.yul\":9387:9396   */\n      dup6\n        /* \"#utility.yul\":9383:9405   */\n      add\n        /* \"#utility.yul\":9362:9415   */\n      tag_298\n      jump\t// in\n    tag_420:\n        /* \"#utility.yul\":9352:9415   */\n      swap2\n      pop\n        /* \"#utility.yul\":9308:9425   */\n      pop\n        /* \"#utility.yul\":9103:9432   */\n      swap3\n      swap2\n      pop\n      pop\n      jump\t// out\n        /* \"#utility.yul\":9438:9618   */\n    tag_66:\n        /* \"#utility.yul\":9486:9563   */\n      0x4e487b7100000000000000000000000000000000000000000000000000000000\n        /* \"#utility.yul\":9483:9484   */\n      0x00\n        /* \"#utility.yul\":9476:9564   */\n      mstore\n        /* \"#utility.yul\":9583:9587   */\n      0x21\n        /* \"#utility.yul\":9580:9581   */\n      0x04\n        /* \"#utility.yul\":9573:9588   */\n      mstore\n        /* \"#utility.yul\":9607:9611   */\n      0x24\n        /* \"#utility.yul\":9604:9605   */\n      0x00\n        /* \"#utility.yul\":9597:9612   */\n      revert\n        /* \"#utility.yul\":9624:9742   */\n    tag_299:\n        /* \"#utility.yul\":9711:9735   */\n      tag_423\n        /* \"#utility.yul\":9729:9734   */\n      dup2\n        /* \"#utility.yul\":9711:9735   */\n      tag_296\n      jump\t// in\n    tag_423:\n        /* \"#utility.yul\":9706:9709   */\n      dup3\n        /* \"#utility.yul\":9699:9736   */\n      mstore\n        /* \"#utility.yul\":9624:9742   */\n      pop\n      pop\n      jump\t// out\n        /* \"#utility.yul\":9748:10190   */\n    tag_78:\n        /* \"#utility.yul\":9897:9901   */\n      0x00\n        /* \"#utility.yul\":9935:9937   */\n      0x60\n        /* \"#utility.yul\":9924:9933   */\n      dup3\n        /* \"#utility.yul\":9920:9938   */\n      add\n        /* \"#utility.yul\":9912:9938   */\n      swap1\n      pop\n        /* \"#utility.yul\":9948:10019   */\n      tag_425\n        /* \"#utility.yul\":10016:10017   */\n      0x00\n        /* \"#utility.yul\":10005:10014   */\n      dup4\n        /* \"#utility.yul\":10001:10018   */\n      add\n        /* \"#utility.yul\":9992:9998   */\n      dup7\n        /* \"#utility.yul\":9948:10019   */\n      tag_299\n      jump\t// in\n    tag_425:\n        /* \"#utility.yul\":10029:10101   */\n      tag_426\n        /* \"#utility.yul\":10097:10099   */\n      0x20\n        /* \"#utility.yul\":10086:10095   */\n      dup4\n        /* \"#utility.yul\":10082:10100   */\n      add\n        /* \"#utility.yul\":10073:10079   */\n      dup6\n        /* \"#utility.yul\":10029:10101   */\n      tag_299\n      jump\t// in\n    tag_426:\n        /* \"#utility.yul\":10111:10183   */\n      tag_427\n        /* \"#utility.yul\":10179:10181   */\n      0x40\n        /* \"#utility.yul\":10168:10177   */\n      dup4\n        /* \"#utility.yul\":10164:10182   */\n      add\n        /* \"#utility.yul\":10155:10161   */\n      dup5\n        /* \"#utility.yul\":10111:10183   */\n      tag_283\n      jump\t// in\n    tag_427:\n        /* \"#utility.yul\":9748:10190   */\n      swap5\n      swap4\n      pop\n      pop\n      pop\n      pop\n      jump\t// out\n        /* \"#utility.yul\":10196:10376   */\n    tag_86:\n        /* \"#utility.yul\":10244:10321   */\n      0x4e487b7100000000000000000000000000000000000000000000000000000000\n        /* \"#utility.yul\":10241:10242   */\n      0x00\n        /* \"#utility.yul\":10234:10322   */\n      mstore\n        /* \"#utility.yul\":10341:10345   */\n      0x32\n        /* \"#utility.yul\":10338:10339   */\n      0x04\n        /* \"#utility.yul\":10331:10346   */\n      mstore\n        /* \"#utility.yul\":10365:10369   */\n      0x24\n        /* \"#utility.yul\":10362:10363   */\n      0x00\n        /* \"#utility.yul\":10355:10370   */\n      revert\n        /* \"#utility.yul\":10382:10562   */\n    tag_300:\n        /* \"#utility.yul\":10430:10507   */\n      0x4e487b7100000000000000000000000000000000000000000000000000000000\n        /* \"#utility.yul\":10427:10428   */\n      0x00\n        /* \"#utility.yul\":10420:10508   */\n      mstore\n        /* \"#utility.yul\":10527:10531   */\n      0x11\n        /* \"#utility.yul\":10524:10525   */\n      0x04\n        /* \"#utility.yul\":10517:10532   */\n      mstore\n        /* \"#utility.yul\":10551:10555   */\n      0x24\n        /* \"#utility.yul\":10548:10549   */\n      0x00\n        /* \"#utility.yul\":10541:10556   */\n      revert\n        /* \"#utility.yul\":10568:10762   */\n    tag_120:\n        /* \"#utility.yul\":10608:10612   */\n      0x00\n        /* \"#utility.yul\":10628:10648   */\n      tag_431\n        /* \"#utility.yul\":10646:10647   */\n      dup3\n        /* \"#utility.yul\":10628:10648   */\n      tag_268\n      jump\t// in\n    tag_431:\n        /* \"#utility.yul\":10623:10648   */\n      swap2\n      pop\n        /* \"#utility.yul\":10662:10682   */\n      tag_432\n        /* \"#utility.yul\":10680:10681   */\n      dup4\n        /* \"#utility.yul\":10662:10682   */\n      tag_268\n      jump\t// in\n    tag_432:\n        /* \"#utility.yul\":10657:10682   */\n      swap3\n      pop\n        /* \"#utility.yul\":10706:10707   */\n      dup3\n        /* \"#utility.yul\":10703:10704   */\n      dup3\n        /* \"#utility.yul\":10699:10708   */\n      sub\n        /* \"#utility.yul\":10691:10708   */\n      swap1\n      pop\n        /* \"#utility.yul\":10730:10731   */\n      dup2\n        /* \"#utility.yul\":10724:10728   */\n      dup2\n        /* \"#utility.yul\":10721:10732   */\n      gt\n        /* \"#utility.yul\":10718:10755   */\n      iszero\n      tag_433\n      jumpi\n        /* \"#utility.yul\":10735:10753   */\n      tag_434\n      tag_300\n      jump\t// in\n    tag_434:\n        /* \"#utility.yul\":10718:10755   */\n    tag_433:\n        /* \"#utility.yul\":10568:10762   */\n      swap3\n      swap2\n      pop\n      pop\n      jump\t// out\n        /* \"#utility.yul\":10768:10948   */\n    tag_150:\n        /* \"#utility.yul\":10816:10893   */\n      0x4e487b7100000000000000000000000000000000000000000000000000000000\n        /* \"#utility.yul\":10813:10814   */\n      0x00\n        /* \"#utility.yul\":10806:10894   */\n      mstore\n        /* \"#utility.yul\":10913:10917   */\n      0x31\n        /* \"#utility.yul\":10910:10911   */\n      0x04\n        /* \"#utility.yul\":10903:10918   */\n      mstore\n        /* \"#utility.yul\":10937:10941   */\n      0x24\n        /* \"#utility.yul\":10934:10935   */\n      0x00\n        /* \"#utility.yul\":10927:10942   */\n      revert\n        /* \"#utility.yul\":10954:11134   */\n    tag_301:\n        /* \"#utility.yul\":11002:11079   */\n      0x4e487b7100000000000000000000000000000000000000000000000000000000\n        /* \"#utility.yul\":10999:11000   */\n      0x00\n        /* \"#utility.yul\":10992:11080   */\n      mstore\n        /* \"#utility.yul\":11099:11103   */\n      0x22\n        /* \"#utility.yul\":11096:11097   */\n      0x04\n        /* \"#utility.yul\":11089:11104   */\n      mstore\n        /* \"#utility.yul\":11123:11127   */\n      0x24\n        /* \"#utility.yul\":11120:11121   */\n      0x00\n        /* \"#utility.yul\":11113:11128   */\n      revert\n        /* \"#utility.yul\":11140:11460   */\n    tag_197:\n        /* \"#utility.yul\":11184:11190   */\n      0x00\n        /* \"#utility.yul\":11221:11222   */\n      0x02\n        /* \"#utility.yul\":11215:11219   */\n      dup3\n        /* \"#utility.yul\":11211:11223   */\n      div\n        /* \"#utility.yul\":11201:11223   */\n      swap1\n      pop\n        /* \"#utility.yul\":11268:11269   */\n      0x01\n        /* \"#utility.yul\":11262:11266   */\n      dup3\n        /* \"#utility.yul\":11258:11270   */\n      and\n        /* \"#utility.yul\":11289:11307   */\n      dup1\n        /* \"#utility.yul\":11279:11360   */\n      tag_438\n      jumpi\n        /* \"#utility.yul\":11345:11349   */\n      0x7f\n        /* \"#utility.yul\":11337:11343   */\n      dup3\n        /* \"#utility.yul\":11333:11350   */\n      and\n        /* \"#utility.yul\":11323:11350   */\n      swap2\n      pop\n        /* \"#utility.yul\":11279:11360   */\n    tag_438:\n        /* \"#utility.yul\":11407:11409   */\n      0x20\n        /* \"#utility.yul\":11399:11405   */\n      dup3\n        /* \"#utility.yul\":11396:11410   */\n      lt\n        /* \"#utility.yul\":11376:11394   */\n      dup2\n        /* \"#utility.yul\":11373:11411   */\n      sub\n        /* \"#utility.yul\":11370:11454   */\n      tag_439\n      jumpi\n        /* \"#utility.yul\":11426:11444   */\n      tag_440\n      tag_301\n      jump\t// in\n    tag_440:\n        /* \"#utility.yul\":11370:11454   */\n    tag_439:\n        /* \"#utility.yul\":11191:11460   */\n      pop\n        /* \"#utility.yul\":11140:11460   */\n      swap2\n      swap1\n      pop\n      jump\t// out\n        /* \"#utility.yul\":11466:11607   */\n    tag_302:\n        /* \"#utility.yul\":11515:11519   */\n      0x00\n        /* \"#utility.yul\":11538:11541   */\n      dup2\n        /* \"#utility.yul\":11530:11541   */\n      swap1\n      pop\n        /* \"#utility.yul\":11561:11564   */\n      dup2\n        /* \"#utility.yul\":11558:11559   */\n      0x00\n        /* \"#utility.yul\":11551:11565   */\n      mstore\n        /* \"#utility.yul\":11595:11599   */\n      0x20\n        /* \"#utility.yul\":11592:11593   */\n      0x00\n        /* \"#utility.yul\":11582:11600   */\n      keccak256\n        /* \"#utility.yul\":11574:11600   */\n      swap1\n      pop\n        /* \"#utility.yul\":11466:11607   */\n      swap2\n      swap1\n      pop\n      jump\t// out\n        /* \"#utility.yul\":11613:11706   */\n    tag_303:\n        /* \"#utility.yul\":11650:11656   */\n      0x00\n        /* \"#utility.yul\":11697:11699   */\n      0x20\n        /* \"#utility.yul\":11692:11694   */\n      0x1f\n        /* \"#utility.yul\":11685:11690   */\n      dup4\n        /* \"#utility.yul\":11681:11695   */\n      add\n        /* \"#utility.yul\":11677:11700   */\n      div\n        /* \"#utility.yul\":11667:11700   */\n      swap1\n      pop\n        /* \"#utility.yul\":11613:11706   */\n      swap2\n      swap1\n      pop\n      jump\t// out\n        /* \"#utility.yul\":11712:11819   */\n    tag_304:\n        /* \"#utility.yul\":11756:11764   */\n      0x00\n        /* \"#utility.yul\":11806:11811   */\n      dup3\n        /* \"#utility.yul\":11800:11804   */\n      dup3\n        /* \"#utility.yul\":11796:11812   */\n      shl\n        /* \"#utility.yul\":11775:11812   */\n      swap1\n      pop\n        /* \"#utility.yul\":11712:11819   */\n      swap3\n      swap2\n      pop\n      pop\n      jump\t// out\n        /* \"#utility.yul\":11825:12218   */\n    tag_305:\n        /* \"#utility.yul\":11894:11900   */\n      0x00\n        /* \"#utility.yul\":11944:11945   */\n      0x08\n        /* \"#utility.yul\":11932:11942   */\n      dup4\n        /* \"#utility.yul\":11928:11946   */\n      mul\n        /* \"#utility.yul\":11967:12064   */\n      tag_445\n        /* \"#utility.yul\":11997:12063   */\n      0xffffffffffffffffffffffffffffffffffffffffffffffffffffffffffffffff\n        /* \"#utility.yul\":11986:11995   */\n      dup3\n        /* \"#utility.yul\":11967:12064   */\n      tag_304\n      jump\t// in\n    tag_445:\n        /* \"#utility.yul\":12085:12124   */\n      tag_446\n        /* \"#utility.yul\":12115:12123   */\n      dup7\n        /* \"#utility.yul\":12104:12113   */\n      dup4\n        /* \"#utility.yul\":12085:12124   */\n      tag_304\n      jump\t// in\n    tag_446:\n        /* \"#utility.yul\":12073:12124   */\n      swap6\n      pop\n        /* \"#utility.yul\":12157:12161   */\n      dup1\n        /* \"#utility.yul\":12153:12162   */\n      not\n        /* \"#utility.yul\":12146:12151   */\n      dup5\n        /* \"#utility.yul\":12142:12163   */\n      and\n        /* \"#utility.yul\":12133:12163   */\n      swap4\n      pop\n        /* \"#utility.yul\":12206:12210   */\n      dup1\n        /* \"#utility.yul\":12196:12204   */\n      dup7\n        /* \"#utility.yul\":12192:12211   */\n      and\n        /* \"#utility.yul\":12185:12190   */\n      dup5\n        /* \"#utility.yul\":12182:12212   */\n      or\n        /* \"#utility.yul\":12172:12212   */\n      swap3\n      pop\n        /* \"#utility.yul\":11901:12218   */\n      pop\n      pop\n        /* \"#utility.yul\":11825:12218   */\n      swap4\n      swap3\n      pop\n      pop\n      pop\n      jump\t// out\n        /* \"#utility.yul\":12224:12284   */\n    tag_306:\n        /* \"#utility.yul\":12252:12255   */\n      0x00\n        /* \"#utility.yul\":12273:12278   */\n      dup2\n        /* \"#utility.yul\":12266:12278   */\n      swap1\n      pop\n        /* \"#utility.yul\":12224:12284   */\n      swap2\n      swap1\n      pop\n      jump\t// out\n        /* \"#utility.yul\":12290:12432   */\n    tag_307:\n        /* \"#utility.yul\":12340:12349   */\n      0x00\n        /* \"#utility.yul\":12373:12426   */\n      tag_449\n        /* \"#utility.yul\":12391:12425   */\n      tag_450\n        /* \"#utility.yul\":12400:12424   */\n      tag_451\n        /* \"#utility.yul\":12418:12423   */\n      dup5\n        /* \"#utility.yul\":12400:12424   */\n      tag_268\n      jump\t// in\n    tag_451:\n        /* \"#utility.yul\":12391:12425   */\n      tag_306\n      jump\t// in\n    tag_450:\n        /* \"#utility.yul\":12373:12426   */\n      tag_268\n      jump\t// in\n    tag_449:\n        /* \"#utility.yul\":12360:12426   */\n      swap1\n      pop\n        /* \"#utility.yul\":12290:12432   */\n      swap2\n      swap1\n      pop\n      jump\t// out\n        /* \"#utility.yul\":12438:12513   */\n    tag_308:\n        /* \"#utility.yul\":12481:12484   */\n      0x00\n        /* \"#utility.yul\":12502:12507   */\n      dup2\n        /* \"#utility.yul\":12495:12507   */\n      swap1\n      pop\n        /* \"#utility.yul\":12438:12513   */\n      swap2\n      swap1\n      pop\n      jump\t// out\n        /* \"#utility.yul\":12519:12788   */\n    tag_309:\n        /* \"#utility.yul\":12629:12668   */\n      tag_454\n        /* \"#utility.yul\":12660:12667   */\n      dup4\n        /* \"#utility.yul\":12629:12668   */\n      tag_307\n      jump\t// in\n    tag_454:\n        /* \"#utility.yul\":12690:12781   */\n      tag_455\n        /* \"#utility.yul\":12739:12780   */\n      tag_456\n        /* \"#utility.yul\":12763:12779   */\n      dup3\n        /* \"#utility.yul\":12739:12780   */\n      tag_308\n      jump\t// in\n    tag_456:\n        /* \"#utility.yul\":12731:12737   */\n      dup5\n        /* \"#utility.yul\":12724:12728   */\n      dup5\n        /* \"#utility.yul\":12718:12729   */\n      sload\n        /* \"#utility.yul\":12690:12781   */\n      tag_305\n      jump\t// in\n    tag_455:\n        /* \"#utility.yul\":12684:12688   */\n      dup3\n        /* \"#utility.yul\":12677:12782   */\n      sstore\n        /* \"#utility.yul\":12595:12788   */\n      pop\n        /* \"#utility.yul\":12519:12788   */\n      pop\n      pop\n      pop\n      jump\t// out\n        /* \"#utility.yul\":12794:12867   */\n    tag_310:\n        /* \"#utility.yul\":12839:12842   */\n      0x00\n        /* \"#utility.yul\":12860:12861   */\n      0x00\n        /* \"#utility.yul\":12853:12861   */\n      swap1\n      pop\n        /* \"#utility.yul\":12794:12867   */\n      swap1\n      jump\t// out\n        /* \"#utility.yul\":12873:13062   */\n    tag_311:\n        /* \"#utility.yul\":12950:12982   */\n      tag_459\n      tag_310\n      jump\t// in\n    tag_459:\n        /* \"#utility.yul\":12991:13056   */\n      tag_460\n        /* \"#utility.yul\":13049:13055   */\n      dup2\n        /* \"#utility.yul\":13041:13047   */\n      dup5\n        /* \"#utility.yul\":13035:13039   */\n      dup5\n        /* \"#utility.yul\":12991:13056   */\n      tag_309\n      jump\t// in\n    tag_460:\n        /* \"#utility.yul\":12926:13062   */\n      pop\n        /* \"#utility.yul\":12873:13062   */\n      pop\n      pop\n      jump\t// out\n        /* \"#utility.yul\":13068:13254   */\n    tag_312:\n        /* \"#utility.yul\":13128:13248   */\n    tag_462:\n        /* \"#utility.yul\":13145:13148   */\n      dup2\n        /* \"#utility.yul\":13138:13143   */\n      dup2\n        /* \"#utility.yul\":13135:13149   */\n      lt\n        /* \"#utility.yul\":13128:13248   */\n      iszero\n      tag_464\n      jumpi\n        /* \"#utility.yul\":13199:13238   */\n      tag_465\n        /* \"#utility.yul\":13236:13237   */\n      0x00\n        /* \"#utility.yul\":13229:13234   */\n      dup3\n        /* \"#utility.yul\":13199:13238   */\n      tag_311\n      jump\t// in\n    tag_465:\n        /* \"#utility.yul\":13172:13173   */\n      0x01\n        /* \"#utility.yul\":13165:13170   */\n      dup2\n        /* \"#utility.yul\":13161:13174   */\n      add\n        /* \"#utility.yul\":13152:13174   */\n      swap1\n      pop\n        /* \"#utility.yul\":13128:13248   */\n      jump(tag_462)\n    tag_464:\n        /* \"#utility.yul\":13068:13254   */\n      pop\n      pop\n      jump\t// out\n        /* \"#utility.yul\":13260:13803   */\n    tag_313:\n        /* \"#utility.yul\":13361:13363   */\n      0x1f\n        /* \"#utility.yul\":13356:13359   */\n      dup3\n        /* \"#utility.yul\":13353:13364   */\n      gt\n        /* \"#utility.yul\":13350:13796   */\n      iszero\n      tag_467\n      jumpi\n        /* \"#utility.yul\":13395:13433   */\n      tag_468\n        /* \"#utility.yul\":13427:13432   */\n      dup2\n        /* \"#utility.yul\":13395:13433   */\n      tag_302\n      jump\t// in\n    tag_468:\n        /* \"#utility.yul\":13479:13508   */\n      tag_469\n        /* \"#utility.yul\":13497:13507   */\n      dup5\n        /* \"#utility.yul\":13479:13508   */\n      tag_303\n      jump\t// in\n    tag_469:\n        /* \"#utility.yul\":13469:13477   */\n      dup2\n        /* \"#utility.yul\":13465:13509   */\n      add\n        /* \"#utility.yul\":13662:13664   */\n      0x20\n        /* \"#utility.yul\":13650:13660   */\n      dup6\n        /* \"#utility.yul\":13647:13665   */\n      lt\n        /* \"#utility.yul\":13644:13693   */\n      iszero\n      tag_470\n      jumpi\n        /* \"#utility.yul\":13683:13691   */\n      dup2\n        /* \"#utility.yul\":13668:13691   */\n      swap1\n      pop\n        /* \"#utility.yul\":13644:13693   */\n    tag_470:\n        /* \"#utility.yul\":13706:13786   */\n      tag_471\n        /* \"#utility.yul\":13762:13784   */\n      tag_472\n        /* \"#utility.yul\":13780:13783   */\n      dup6\n        /* \"#utility.yul\":13762:13784   */\n      tag_303\n      jump\t// in\n    tag_472:\n        /* \"#utility.yul\":13752:13760   */\n      dup4\n        /* \"#utility.yul\":13748:13785   */\n      add\n        /* \"#utility.yul\":13735:13746   */\n      dup3\n        /* \"#utility.yul\":13706:13786   */\n      tag_312\n      jump\t// in\n    tag_471:\n        /* \"#utility.yul\":13365:13796   */\n      pop\n      pop\n        /* \"#utility.yul\":13350:13796   */\n    tag_467:\n        /* \"#utility.yul\":13260:13803   */\n      pop\n      pop\n      pop\n      jump\t// out\n        /* \"#utility.yul\":13809:13926   */\n    tag_314:\n        /* \"#utility.yul\":13863:13871   */\n      0x00\n        /* \"#utility.yul\":13913:13918   */\n      dup3\n        /* \"#utility.yul\":13907:13911   */\n      dup3\n        /* \"#utility.yul\":13903:13919   */\n      shr\n        /* \"#utility.yul\":13882:13919   */\n      swap1\n      pop\n        /* \"#utility.yul\":13809:13926   */\n      swap3\n      swap2\n      pop\n      pop\n      jump\t// out\n        /* \"#utility.yul\":13932:14101   */\n    tag_315:\n        /* \"#utility.yul\":13976:13982   */\n      0x00\n        /* \"#utility.yul\":14009:14060   */\n      tag_475\n        /* \"#utility.yul\":14057:14058   */\n      0x00\n        /* \"#utility.yul\":14053:14059   */\n      not\n        /* \"#utility.yul\":14045:14050   */\n      dup5\n        /* \"#utility.yul\":14042:14043   */\n      0x08\n        /* \"#utility.yul\":14038:14051   */\n      mul\n        /* \"#utility.yul\":14009:14060   */\n      tag_314\n      jump\t// in\n    tag_475:\n        /* \"#utility.yul\":14005:14061   */\n      not\n        /* \"#utility.yul\":14090:14094   */\n      dup1\n        /* \"#utility.yul\":14084:14088   */\n      dup4\n        /* \"#utility.yul\":14080:14095   */\n      and\n        /* \"#utility.yul\":14070:14095   */\n      swap2\n      pop\n        /* \"#utility.yul\":13983:14101   */\n      pop\n        /* \"#utility.yul\":13932:14101   */\n      swap3\n      swap2\n      pop\n      pop\n      jump\t// out\n        /* \"#utility.yul\":14106:14401   */\n    tag_316:\n        /* \"#utility.yul\":14182:14186   */\n      0x00\n        /* \"#utility.yul\":14328:14357   */\n      tag_477\n        /* \"#utility.yul\":14353:14356   */\n      dup4\n        /* \"#utility.yul\":14347:14351   */\n      dup4\n        /* \"#utility.yul\":14328:14357   */\n      tag_315\n      jump\t// in\n    tag_477:\n        /* \"#utility.yul\":14320:14357   */\n      swap2\n      pop\n        /* \"#utility.yul\":14390:14393   */\n      dup3\n        /* \"#utility.yul\":14387:14388   */\n      0x02\n        /* \"#utility.yul\":14383:14394   */\n      mul\n        /* \"#utility.yul\":14377:14381   */\n      dup3\n        /* \"#utility.yul\":14374:14395   */\n      or\n        /* \"#utility.yul\":14366:14395   */\n      swap1\n      pop\n        /* \"#utility.yul\":14106:14401   */\n      swap3\n      swap2\n      pop\n      pop\n      jump\t// out\n        /* \"#utility.yul\":14406:15801   */\n    tag_176:\n        /* \"#utility.yul\":14523:14560   */\n      tag_479\n        /* \"#utility.yul\":14556:14559   */\n      dup3\n        /* \"#utility.yul\":14523:14560   */\n      tag_284\n      jump\t// in\n    tag_479:\n        /* \"#utility.yul\":14625:14643   */\n      0xffffffffffffffff\n        /* \"#utility.yul\":14617:14623   */\n      dup2\n        /* \"#utility.yul\":14614:14644   */\n      gt\n        /* \"#utility.yul\":14611:14667   */\n      iszero\n      tag_480\n      jumpi\n        /* \"#utility.yul\":14647:14665   */\n      tag_481\n      tag_276\n      jump\t// in\n    tag_481:\n        /* \"#utility.yul\":14611:14667   */\n    tag_480:\n        /* \"#utility.yul\":14691:14729   */\n      tag_482\n        /* \"#utility.yul\":14723:14727   */\n      dup3\n        /* \"#utility.yul\":14717:14728   */\n      sload\n        /* \"#utility.yul\":14691:14729   */\n      tag_197\n      jump\t// in\n    tag_482:\n        /* \"#utility.yul\":14776:14843   */\n      tag_483\n        /* \"#utility.yul\":14836:14842   */\n      dup3\n        /* \"#utility.yul\":14828:14834   */\n      dup3\n        /* \"#utility.yul\":14822:14826   */\n      dup6\n        /* \"#utility.yul\":14776:14843   */\n      tag_313\n      jump\t// in\n    tag_483:\n        /* \"#utility.yul\":14870:14871   */\n      0x00\n        /* \"#utility.yul\":14894:14898   */\n      0x20\n        /* \"#utility.yul\":14881:14898   */\n      swap1\n      pop\n        /* \"#utility.yul\":14926:14928   */\n      0x1f\n        /* \"#utility.yul\":14918:14924   */\n      dup4\n        /* \"#utility.yul\":14915:14929   */\n      gt\n        /* \"#utility.yul\":14943:14944   */\n      0x01\n        /* \"#utility.yul\":14938:15556   */\n      dup2\n      eq\n      tag_485\n      jumpi\n        /* \"#utility.yul\":15600:15601   */\n      0x00\n        /* \"#utility.yul\":15617:15623   */\n      dup5\n        /* \"#utility.yul\":15614:15691   */\n      iszero\n      tag_486\n      jumpi\n        /* \"#utility.yul\":15666:15675   */\n      dup3\n        /* \"#utility.yul\":15661:15664   */\n      dup8\n        /* \"#utility.yul\":15657:15676   */\n      add\n        /* \"#utility.yul\":15651:15677   */\n      mload\n        /* \"#utility.yul\":15642:15677   */\n      swap1\n      pop\n        /* \"#utility.yul\":15614:15691   */\n    tag_486:\n        /* \"#utility.yul\":15717:15784   */\n      tag_487\n        /* \"#utility.yul\":15777:15783   */\n      dup6\n        /* \"#utility.yul\":15770:15775   */\n      dup3\n        /* \"#utility.yul\":15717:15784   */\n      tag_316\n      jump\t// in\n    tag_487:\n        /* \"#utility.yul\":15711:15715   */\n      dup7\n        /* \"#utility.yul\":15704:15785   */\n      sstore\n        /* \"#utility.yul\":15573:15795   */\n      pop\n        /* \"#utility.yul\":14908:15795   */\n      jump(tag_484)\n        /* \"#utility.yul\":14938:15556   */\n    tag_485:\n        /* \"#utility.yul\":14990:14994   */\n      0x1f\n        /* \"#utility.yul\":14986:14995   */\n      not\n        /* \"#utility.yul\":14978:14984   */\n      dup5\n        /* \"#utility.yul\":14974:14996   */\n      and\n        /* \"#utility.yul\":15024:15061   */\n      tag_488\n        /* \"#utility.yul\":15056:15060   */\n      dup7\n        /* \"#utility.yul\":15024:15061   */\n      tag_302\n      jump\t// in\n    tag_488:\n        /* \"#utility.yul\":15083:15084   */\n      0x00\n        /* \"#utility.yul\":15097:15305   */\n    tag_489:\n        /* \"#utility.yul\":15111:15118   */\n      dup3\n        /* \"#utility.yul\":15108:15109   */\n      dup2\n        /* \"#utility.yul\":15105:15119   */\n      lt\n        /* \"#utility.yul\":15097:15305   */\n      iszero\n      tag_491\n      jumpi\n        /* \"#utility.yul\":15190:15199   */\n      dup5\n        /* \"#utility.yul\":15185:15188   */\n      dup10\n        /* \"#utility.yul\":15181:15200   */\n      add\n        /* \"#utility.yul\":15175:15201   */\n      mload\n        /* \"#utility.yul\":15167:15173   */\n      dup3\n        /* \"#utility.yul\":15160:15202   */\n      sstore\n        /* \"#utility.yul\":15241:15242   */\n      0x01\n        /* \"#utility.yul\":15233:15239   */\n      dup3\n        /* \"#utility.yul\":15229:15243   */\n      add\n        /* \"#utility.yul\":15219:15243   */\n      swap2\n      pop\n        /* \"#utility.yul\":15288:15290   */\n      0x20\n        /* \"#utility.yul\":15277:15286   */\n      dup6\n        /* \"#utility.yul\":15273:15291   */\n      add\n        /* \"#utility.yul\":15260:15291   */\n      swap5\n      pop\n        /* \"#utility.yul\":15134:15138   */\n      0x20\n        /* \"#utility.yul\":15131:15132   */\n      dup2\n        /* \"#utility.yul\":15127:15139   */\n      add\n        /* \"#utility.yul\":15122:15139   */\n      swap1\n      pop\n        /* \"#utility.yul\":15097:15305   */\n      jump(tag_489)\n    tag_491:\n        /* \"#utility.yul\":15333:15339   */\n      dup7\n        /* \"#utility.yul\":15324:15331   */\n      dup4\n        /* \"#utility.yul\":15321:15340   */\n      lt\n        /* \"#utility.yul\":15318:15497   */\n      iszero\n      tag_492\n      jumpi\n        /* \"#utility.yul\":15391:15400   */\n      dup5\n        /* \"#utility.yul\":15386:15389   */\n      dup10\n        /* \"#utility.yul\":15382:15401   */\n      add\n        /* \"#utility.yul\":15376:15402   */\n      mload\n        /* \"#utility.yul\":15434:15482   */\n      tag_493\n        /* \"#utility.yul\":15476:15480   */\n      0x1f\n        /* \"#utility.yul\":15468:15474   */\n      dup10\n        /* \"#utility.yul\":15464:15481   */\n      and\n        /* \"#utility.yul\":15453:15462   */\n      dup3\n        /* \"#utility.yul\":15434:15482   */\n      tag_315\n      jump\t// in\n    tag_493:\n        /* \"#utility.yul\":15426:15432   */\n      dup4\n        /* \"#utility.yul\":15419:15483   */\n      sstore\n        /* \"#utility.yul\":15341:15497   */\n      pop\n        /* \"#utility.yul\":15318:15497   */\n    tag_492:\n        /* \"#utility.yul\":15543:15544   */\n      0x01\n        /* \"#utility.yul\":15539:15540   */\n      0x02\n        /* \"#utility.yul\":15531:15537   */\n      dup9\n        /* \"#utility.yul\":15527:15541   */\n      mul\n        /* \"#utility.yul\":15523:15545   */\n      add\n        /* \"#utility.yul\":15517:15521   */\n      dup9\n        /* \"#utility.yul\":15510:15546   */\n      sstore\n        /* \"#utility.yul\":14945:15556   */\n      pop\n      pop\n      pop\n        /* \"#utility.yul\":14908:15795   */\n    tag_484:\n      pop\n        /* \"#utility.yul\":14498:15801   */\n      pop\n      pop\n      pop\n        /* \"#utility.yul\":14406:15801   */\n      pop\n      pop\n      jump\t// out\n        /* \"#utility.yul\":15807:15998   */\n    tag_189:\n        /* \"#utility.yul\":15847:15850   */\n      0x00\n        /* \"#utility.yul\":15866:15886   */\n      tag_495\n        /* \"#utility.yul\":15884:15885   */\n      dup3\n        /* \"#utility.yul\":15866:15886   */\n      tag_268\n      jump\t// in\n    tag_495:\n        /* \"#utility.yul\":15861:15886   */\n      swap2\n      pop\n        /* \"#utility.yul\":15900:15920   */\n      tag_496\n        /* \"#utility.yul\":15918:15919   */\n      dup4\n        /* \"#utility.yul\":15900:15920   */\n      tag_268\n      jump\t// in\n    tag_496:\n        /* \"#utility.yul\":15895:15920   */\n      swap3\n      pop\n        /* \"#utility.yul\":15943:15944   */\n      dup3\n        /* \"#utility.yul\":15940:15941   */\n      dup3\n        /* \"#utility.yul\":15936:15945   */\n      add\n        /* \"#utility.yul\":15929:15945   */\n      swap1\n      pop\n        /* \"#utility.yul\":15964:15967   */\n      dup1\n        /* \"#utility.yul\":15961:15962   */\n      dup3\n        /* \"#utility.yul\":15958:15968   */\n      gt\n        /* \"#utility.yul\":15955:15991   */\n      iszero\n      tag_497\n      jumpi\n        /* \"#utility.yul\":15971:15989   */\n      tag_498\n      tag_300\n      jump\t// in\n    tag_498:\n        /* \"#utility.yul\":15955:15991   */\n    tag_497:\n        /* \"#utility.yul\":15807:15998   */\n      swap3\n      swap2\n      pop\n      pop\n      jump\t// out\n        /* \"#utility.yul\":16004:16237   */\n    tag_229:\n        /* \"#utility.yul\":16043:16046   */\n      0x00\n        /* \"#utility.yul\":16066:16090   */\n      tag_500\n        /* \"#utility.yul\":16084:16089   */\n      dup3\n        /* \"#utility.yul\":16066:16090   */\n      tag_268\n      jump\t// in\n    tag_500:\n        /* \"#utility.yul\":16057:16090   */\n      swap2\n      pop\n        /* \"#utility.yul\":16112:16178   */\n      0xffffffffffffffffffffffffffffffffffffffffffffffffffffffffffffffff\n        /* \"#utility.yul\":16105:16110   */\n      dup3\n        /* \"#utility.yul\":16102:16179   */\n      sub\n        /* \"#utility.yul\":16099:16202   */\n      tag_501\n      jumpi\n        /* \"#utility.yul\":16182:16200   */\n      tag_502\n      tag_300\n      jump\t// in\n    tag_502:\n        /* \"#utility.yul\":16099:16202   */\n    tag_501:\n        /* \"#utility.yul\":16229:16230   */\n      0x01\n        /* \"#utility.yul\":16222:16227   */\n      dup3\n        /* \"#utility.yul\":16218:16231   */\n      add\n        /* \"#utility.yul\":16211:16231   */\n      swap1\n      pop\n        /* \"#utility.yul\":16004:16237   */\n      swap2\n      swap1\n      pop\n      jump\t// out\n        /* \"#utility.yul\":16243:16414   */\n    tag_251:\n        /* \"#utility.yul\":16282:16285   */\n      0x00\n        /* \"#utility.yul\":16305:16329   */\n      tag_504\n        /* \"#utility.yul\":16323:16328   */\n      dup3\n        /* \"#utility.yul\":16305:16329   */\n      tag_268\n      jump\t// in\n    tag_504:\n        /* \"#utility.yul\":16296:16329   */\n      swap2\n      pop\n        /* \"#utility.yul\":16351:16355   */\n      0x00\n        /* \"#utility.yul\":16344:16349   */\n      dup3\n        /* \"#utility.yul\":16341:16356   */\n      sub\n        /* \"#utility.yul\":16338:16379   */\n      tag_505\n      jumpi\n        /* \"#utility.yul\":16359:16377   */\n      tag_506\n      tag_300\n      jump\t// in\n    tag_506:\n        /* \"#utility.yul\":16338:16379   */\n    tag_505:\n        /* \"#utility.yul\":16406:16407   */\n      0x01\n        /* \"#utility.yul\":16399:16404   */\n      dup3\n        /* \"#utility.yul\":16395:16408   */\n      sub\n        /* \"#utility.yul\":16388:16408   */\n      swap1\n      pop\n        /* \"#utility.yul\":16243:16414   */\n      swap2\n      swap1\n      pop\n      jump\t// out\n\n    auxdata: 0xa26469706673582212203c29866d27e21139a7d9cb2a3cd9c93e4b66b6d0c3a8f2a27b88f9f256f530c064736f6c634300081e0033\n}\n",
				"bytecode": {
					"linkReferences": {},
					"object": "60a060405234801561000f575f5ffd5b506040516121c83803806121c8833981810160405281019061003191906100c9565b8073ffffffffffffffffffffffffffffffffffffffff1660808173ffffffffffffffffffffffffffffffffffffffff1681525050506100f4565b5f5ffd5b5f73ffffffffffffffffffffffffffffffffffffffff82169050919050565b5f6100988261006f565b9050919050565b6100a88161008e565b81146100b2575f5ffd5b50565b5f815190506100c38161009f565b92915050565b5f602082840312156100de576100dd61006b565b5b5f6100eb848285016100b5565b91505092915050565b6080516120a76101215f395f81816103840152818161045e015281816105d60152610eac01526120a75ff3fe608060405260043610610089575f3560e01c80634925ec55116100585780634925ec551461015c578063598647f81461019857806375d1f140146101b45780637f21d498146101de578063aacbc1d91461021a57610090565b80630faf0ea81461009457806321b62886146100d057806348829126146100f857806348a51f721461012057610090565b3661009057005b5f5ffd5b34801561009f575f5ffd5b506100ba60048036038101906100b5919061177d565b610256565b6040516100c791906117c2565b60405180910390f35b3480156100db575f5ffd5b506100f660048036038101906100f1919061177d565b6102a2565b005b348015610103575f5ffd5b5061011e60048036038101906101199190611917565b610e30565b005b34801561012b575f5ffd5b506101466004803603810190610141919061177d565b61109e565b60405161015391906119a6565b60405180910390f35b348015610167575f5ffd5b50610182600480360381019061017d919061177d565b6110b8565b60405161018f9190611a1f565b60405180910390f35b6101b260048036038101906101ad9190611a3f565b611159565b005b3480156101bf575f5ffd5b506101c86112cd565b6040516101d59190611b34565b60405180910390f35b3480156101e9575f5ffd5b5061020460048036038101906101ff919061177d565b611322565b60405161021191906119a6565b60405180910390f35b348015610225575f5ffd5b50610240600480360381019061023b9190611bae565b61133c565b60405161024d9190611b34565b60405180910390f35b5f60018081111561026a57610269611bd9565b5b60045f8481526020019081526020015f205f9054906101000a900460ff16600181111561029a57610299611bd9565b5b149050919050565b6001808111156102b5576102b4611bd9565b5b60045f8381526020019081526020015f205f9054906101000a900460ff1660018111156102e5576102e4611bd9565b5b1461031c576040517f2552b20a00000000000000000000000000000000000000000000000000000000815260040160405180910390fd5b60055f8281526020019081526020015f2054421015610367576040517fbcd8d21300000000000000000000000000000000000000000000000000000000815260040160405180910390fd5b5f60015f8381526020019081526020015f208054905003610441577f000000000000000000000000000000000000000000000000000000000000000073ffffffffffffffffffffffffffffffffffffffff166323b872dd3060065f8581526020019081526020015f205f9054906101000a900473ffffffffffffffffffffffffffffffffffffffff16846040518463ffffffff1660e01b815260040161040f93929190611c15565b5f604051808303815f87803b158015610426575f5ffd5b505af1158015610438573d5f5f3e3d5ffd5b50505050610923565b6001805f8381526020019081526020015f2080549050036105d4577f000000000000000000000000000000000000000000000000000000000000000073ffffffffffffffffffffffffffffffffffffffff166323b872dd3060015f8581526020019081526020015f205f815481106104bc576104bb611c4a565b5b905f5260205f20015f9054906101000a900473ffffffffffffffffffffffffffffffffffffffff16846040518463ffffffff1660e01b815260040161050393929190611c15565b5f604051808303815f87803b15801561051a575f5ffd5b505af115801561052c573d5f5f3e3d5ffd5b5050505060065f8281526020019081526020015f205f9054906101000a900473ffffffffffffffffffffffffffffffffffffffff1673ffffffffffffffffffffffffffffffffffffffff166108fc60025f8481526020019081526020015f205f8154811061059d5761059c611c4a565b5b905f5260205f20015490811502906040515f60405180830381858888f193505050501580156105ce573d5f5f3e3d5ffd5b50610922565b7f000000000000000000000000000000000000000000000000000000000000000073ffffffffffffffffffffffffffffffffffffffff166323b872dd3060015f8581526020019081526020015f205f8154811061063457610633611c4a565b5b905f5260205f20015f9054906101000a900473ffffffffffffffffffffffffffffffffffffffff16846040518463ffffffff1660e01b815260040161067b93929190611c15565b5f604051808303815f87803b158015610692575f5ffd5b505af11580156106a4573d5f5f3e3d5ffd5b5050505060065f8281526020019081526020015f205f9054906101000a900473ffffffffffffffffffffffffffffffffffffffff1673ffffffffffffffffffffffffffffffffffffffff166108fc60025f8481526020019081526020015f2060018154811061071657610715611c4a565b5b905f5260205f20015490811502906040515f60405180830381858888f19350505050158015610747573d5f5f3e3d5ffd5b5060015f8281526020019081526020015f205f8154811061076b5761076a611c4a565b5b905f5260205f20015f9054906101000a900473ffffffffffffffffffffffffffffffffffffffff1673ffffffffffffffffffffffffffffffffffffffff166108fc60025f8481526020019081526020015f206001815481106107d0576107cf611c4a565b5b905f5260205f20015460025f8581526020019081526020015f205f815481106107fc576107fb611c4a565b5b905f5260205f20015461080f9190611ca4565b90811502906040515f60405180830381858888f19350505050158015610837573d5f5f3e3d5ffd5b505f600290505b60015f8381526020019081526020015f20805490508110156109205760015f8381526020019081526020015f20818154811061087d5761087c611c4a565b5b905f5260205f20015f9054906101000a900473ffffffffffffffffffffffffffffffffffffffff1673ffffffffffffffffffffffffffffffffffffffff166108fc60025f8581526020019081526020015f2083815481106108e1576108e0611c4a565b5b905f5260205f20015490811502906040515f60405180830381858888f19350505050158015610912573d5f5f3e3d5ffd5b50808060010191505061083e565b505b5b5f5f90505b5f805490508110156109d757815f828154811061094857610947611c4a565b5b905f5260205f200154036109ca575f60015f805490506109689190611ca4565b8154811061097957610978611c4a565b5b905f5260205f2001545f828154811061099557610994611c4a565b5b905f5260205f2001819055505f8054806109b2576109b1611cd7565b5b600190038181905f5260205f20015f905590556109d7565b8080600101915050610928565b505f5f90505b60075f60065f8581526020019081526020015f205f9054906101000a900473ffffffffffffffffffffffffffffffffffffffff1673ffffffffffffffffffffffffffffffffffffffff1673ffffffffffffffffffffffffffffffffffffffff1681526020019081526020015f2080549050811015610d14578160075f60065f8681526020019081526020015f205f9054906101000a900473ffffffffffffffffffffffffffffffffffffffff1673ffffffffffffffffffffffffffffffffffffffff1673ffffffffffffffffffffffffffffffffffffffff1681526020019081526020015f208281548110610ad557610ad4611c4a565b5b905f5260205f20015403610d075760075f60065f8581526020019081526020015f205f9054906101000a900473ffffffffffffffffffffffffffffffffffffffff1673ffffffffffffffffffffffffffffffffffffffff1673ffffffffffffffffffffffffffffffffffffffff1681526020019081526020015f20600160075f60065f8781526020019081526020015f205f9054906101000a900473ffffffffffffffffffffffffffffffffffffffff1673ffffffffffffffffffffffffffffffffffffffff1673ffffffffffffffffffffffffffffffffffffffff1681526020019081526020015f2080549050610bcd9190611ca4565b81548110610bde57610bdd611c4a565b5b905f5260205f20015460075f60065f8681526020019081526020015f205f9054906101000a900473ffffffffffffffffffffffffffffffffffffffff1673ffffffffffffffffffffffffffffffffffffffff1673ffffffffffffffffffffffffffffffffffffffff1681526020019081526020015f208281548110610c6657610c65611c4a565b5b905f5260205f20018190555060075f60065f8581526020019081526020015f205f9054906101000a900473ffffffffffffffffffffffffffffffffffffffff1673ffffffffffffffffffffffffffffffffffffffff1673ffffffffffffffffffffffffffffffffffffffff1681526020019081526020015f20805480610cef57610cee611cd7565b5b600190038181905f5260205f20015f90559055610d14565b80806001019150506109dd565b5060015f8281526020019081526020015f205f610d3191906116e2565b60025f8281526020019081526020015f205f610d4d9190611700565b5f60035f8381526020019081526020015f20819055505f60045f8381526020019081526020015f205f6101000a81548160ff02191690836001811115610d9657610d95611bd9565b5b02179055505f60055f8381526020019081526020015f20819055505f60065f8381526020019081526020015f205f6101000a81548173ffffffffffffffffffffffffffffffffffffffff021916908373ffffffffffffffffffffffffffffffffffffffff16021790555060405180602001604052805f81525060085f8381526020019081526020015f209081610e2c9190611f01565b5050565b5f6001811115610e4357610e42611bd9565b5b60045f8681526020019081526020015f205f9054906101000a900460ff166001811115610e7357610e72611bd9565b5b14610eaa576040517fadcf092700000000000000000000000000000000000000000000000000000000815260040160405180910390fd5b7f000000000000000000000000000000000000000000000000000000000000000073ffffffffffffffffffffffffffffffffffffffff166323b872dd3330876040518463ffffffff1660e01b8152600401610f0793929190611c15565b5f604051808303815f87803b158015610f1e575f5ffd5b505af1158015610f30573d5f5f3e3d5ffd5b505050505f84908060018154018082558091505060019003905f5260205f20015f90919091909150558142610f659190611fd0565b60055f8681526020019081526020015f20819055508260035f8681526020019081526020015f2081905550600160045f8681526020019081526020015f205f6101000a81548160ff02191690836001811115610fc457610fc3611bd9565b5b02179055503360065f8681526020019081526020015f205f6101000a81548173ffffffffffffffffffffffffffffffffffffffff021916908373ffffffffffffffffffffffffffffffffffffffff1602179055508060085f8681526020019081526020015f2090816110369190611f01565b5060075f3373ffffffffffffffffffffffffffffffffffffffff1673ffffffffffffffffffffffffffffffffffffffff1681526020019081526020015f2084908060018154018082558091505060019003905f5260205f20015f909190919091505550505050565b5f60055f8381526020019081526020015f20549050919050565b606060085f8381526020019081526020015f2080546110d690611d31565b80601f016020809104026020016040519081016040528092919081815260200182805461110290611d31565b801561114d5780601f106111245761010080835404028352916020019161114d565b820191905f5260205f20905b81548152906001019060200180831161113057829003601f168201915b50505050509050919050565b60018081111561116c5761116b611bd9565b5b60045f8481526020019081526020015f205f9054906101000a900460ff16600181111561119c5761119b611bd9565b5b146111d3576040517f2552b20a00000000000000000000000000000000000000000000000000000000815260040160405180910390fd5b60035f8381526020019081526020015f205481101561123a5760035f8381526020019081526020015f20546040517f7f063d7b00000000000000000000000000000000000000000000000000000000815260040161123191906119a6565b60405180910390fd5b803414611273576040517fbeefcf0300000000000000000000000000000000000000000000000000000000815260040160405180910390fd5b60055f8381526020019081526020015f20544211156112be576040517f1efd8c9100000000000000000000000000000000000000000000000000000000815260040160405180910390fd5b6112c98183336113cf565b5050565b60605f80548060200260200160405190810160405280929190818152602001828054801561131857602002820191905f5260205f20905b815481526020019060010190808311611304575b5050505050905090565b5f60035f8381526020019081526020015f20549050919050565b606060075f8373ffffffffffffffffffffffffffffffffffffffff1673ffffffffffffffffffffffffffffffffffffffff1681526020019081526020015f208054806020026020016040519081016040528092919081815260200182805480156113c357602002820191905f5260205f20905b8154815260200190600101908083116113af575b50505050509050919050565b5f5f90505b60025f8481526020019081526020015f20805490508110801561142157508360025f8581526020019081526020015f20828154811061141657611415611c4a565b5b905f5260205f200154115b1561143957808061143190612003565b9150506113d4565b60025f8481526020019081526020015f2084908060018154018082558091505060019003905f5260205f20015f909190919091505560015f8481526020019081526020015f2082908060018154018082558091505060019003905f5260205f20015f9091909190916101000a81548173ffffffffffffffffffffffffffffffffffffffff021916908373ffffffffffffffffffffffffffffffffffffffff1602179055505f6001805f8681526020019081526020015f20805490506114fe9190611ca4565b90505b818111156116425760015f8581526020019081526020015f206001826115279190611ca4565b8154811061153857611537611c4a565b5b905f5260205f20015f9054906101000a900473ffffffffffffffffffffffffffffffffffffffff1660015f8681526020019081526020015f20828154811061158357611582611c4a565b5b905f5260205f20015f6101000a81548173ffffffffffffffffffffffffffffffffffffffff021916908373ffffffffffffffffffffffffffffffffffffffff16021790555060025f8581526020019081526020015f206001826115e69190611ca4565b815481106115f7576115f6611c4a565b5b905f5260205f20015460025f8681526020019081526020015f20828154811061162357611622611c4a565b5b905f5260205f200181905550808061163a9061204a565b915050611501565b508160015f8581526020019081526020015f20828154811061166757611666611c4a565b5b905f5260205f20015f6101000a81548173ffffffffffffffffffffffffffffffffffffffff021916908373ffffffffffffffffffffffffffffffffffffffff1602179055508360025f8581526020019081526020015f2082815481106116d0576116cf611c4a565b5b905f5260205f20018190555050505050565b5080545f8255905f5260205f20908101906116fd919061171e565b50565b5080545f8255905f5260205f209081019061171b919061171e565b50565b5b80821115611735575f815f90555060010161171f565b5090565b5f604051905090565b5f5ffd5b5f5ffd5b5f819050919050565b61175c8161174a565b8114611766575f5ffd5b50565b5f8135905061177781611753565b92915050565b5f6020828403121561179257611791611742565b5b5f61179f84828501611769565b91505092915050565b5f8115159050919050565b6117bc816117a8565b82525050565b5f6020820190506117d55f8301846117b3565b92915050565b5f5ffd5b5f5ffd5b5f601f19601f8301169050919050565b7f4e487b71000000000000000000000000000000000000000000000000000000005f52604160045260245ffd5b611829826117e3565b810181811067ffffffffffffffff82111715611848576118476117f3565b5b80604052505050565b5f61185a611739565b90506118668282611820565b919050565b5f67ffffffffffffffff821115611885576118846117f3565b5b61188e826117e3565b9050602081019050919050565b828183375f83830152505050565b5f6118bb6118b68461186b565b611851565b9050828152602081018484840111156118d7576118d66117df565b5b6118e284828561189b565b509392505050565b5f82601f8301126118fe576118fd6117db565b5b813561190e8482602086016118a9565b91505092915050565b5f5f5f5f6080858703121561192f5761192e611742565b5b5f61193c87828801611769565b945050602061194d87828801611769565b935050604061195e87828801611769565b925050606085013567ffffffffffffffff81111561197f5761197e611746565b5b61198b878288016118ea565b91505092959194509250565b6119a08161174a565b82525050565b5f6020820190506119b95f830184611997565b92915050565b5f81519050919050565b5f82825260208201905092915050565b8281835e5f83830152505050565b5f6119f1826119bf565b6119fb81856119c9565b9350611a0b8185602086016119d9565b611a14816117e3565b840191505092915050565b5f6020820190508181035f830152611a3781846119e7565b905092915050565b5f5f60408385031215611a5557611a54611742565b5b5f611a6285828601611769565b9250506020611a7385828601611769565b9150509250929050565b5f81519050919050565b5f82825260208201905092915050565b5f819050602082019050919050565b611aaf8161174a565b82525050565b5f611ac08383611aa6565b60208301905092915050565b5f602082019050919050565b5f611ae282611a7d565b611aec8185611a87565b9350611af783611a97565b805f5b83811015611b27578151611b0e8882611ab5565b9750611b1983611acc565b925050600181019050611afa565b5085935050505092915050565b5f6020820190508181035f830152611b4c8184611ad8565b905092915050565b5f73ffffffffffffffffffffffffffffffffffffffff82169050919050565b5f611b7d82611b54565b9050919050565b611b8d81611b73565b8114611b97575f5ffd5b50565b5f81359050611ba881611b84565b92915050565b5f60208284031215611bc357611bc2611742565b5b5f611bd084828501611b9a565b91505092915050565b7f4e487b71000000000000000000000000000000000000000000000000000000005f52602160045260245ffd5b611c0f81611b73565b82525050565b5f606082019050611c285f830186611c06565b611c356020830185611c06565b611c426040830184611997565b949350505050565b7f4e487b71000000000000000000000000000000000000000000000000000000005f52603260045260245ffd5b7f4e487b71000000000000000000000000000000000000000000000000000000005f52601160045260245ffd5b5f611cae8261174a565b9150611cb98361174a565b9250828203905081811115611cd157611cd0611c77565b5b92915050565b7f4e487b71000000000000000000000000000000000000000000000000000000005f52603160045260245ffd5b7f4e487b71000000000000000000000000000000000000000000000000000000005f52602260045260245ffd5b5f6002820490506001821680611d4857607f821691505b602082108103611d5b57611d5a611d04565b5b50919050565b5f819050815f5260205f209050919050565b5f6020601f8301049050919050565b5f82821b905092915050565b5f60088302611dbd7fffffffffffffffffffffffffffffffffffffffffffffffffffffffffffffffff82611d82565b611dc78683611d82565b95508019841693508086168417925050509392505050565b5f819050919050565b5f611e02611dfd611df88461174a565b611ddf565b61174a565b9050919050565b5f819050919050565b611e1b83611de8565b611e2f611e2782611e09565b848454611d8e565b825550505050565b5f5f905090565b611e46611e37565b611e51818484611e12565b505050565b5b81811015611e7457611e695f82611e3e565b600181019050611e57565b5050565b601f821115611eb957611e8a81611d61565b611e9384611d73565b81016020851015611ea2578190505b611eb6611eae85611d73565b830182611e56565b50505b505050565b5f82821c905092915050565b5f611ed95f1984600802611ebe565b1980831691505092915050565b5f611ef18383611eca565b9150826002028217905092915050565b611f0a826119bf565b67ffffffffffffffff811115611f2357611f226117f3565b5b611f2d8254611d31565b611f38828285611e78565b5f60209050601f831160018114611f69575f8415611f57578287015190505b611f618582611ee6565b865550611fc8565b601f198416611f7786611d61565b5f5b82811015611f9e57848901518255600182019150602085019450602081019050611f79565b86831015611fbb5784890151611fb7601f891682611eca565b8355505b6001600288020188555050505b505050505050565b5f611fda8261174a565b9150611fe58361174a565b9250828201905080821115611ffd57611ffc611c77565b5b92915050565b5f61200d8261174a565b91507fffffffffffffffffffffffffffffffffffffffffffffffffffffffffffffffff820361203f5761203e611c77565b5b600182019050919050565b5f6120548261174a565b91505f820361206657612065611c77565b5b60018203905091905056fea26469706673582212203c29866d27e21139a7d9cb2a3cd9c93e4b66b6d0c3a8f2a27b88f9f256f530c064736f6c634300081e0033",
					"opcodes": "PUSH1 0xA0 PUSH1 0x40 MSTORE CALLVALUE DUP1 ISZERO PUSH2 0xF JUMPI PUSH0 PUSH0 REVERT JUMPDEST POP PUSH1 0x40 MLOAD PUSH2 0x21C8 CODESIZE SUB DUP1 PUSH2 0x21C8 DUP4 CODECOPY DUP2 DUP2 ADD PUSH1 0x40 MSTORE DUP2 ADD SWAP1 PUSH2 0x31 SWAP2 SWAP1 PUSH2 0xC9 JUMP JUMPDEST DUP1 PUSH20 0xFFFFFFFFFFFFFFFFFFFFFFFFFFFFFFFFFFFFFFFF AND PUSH1 0x80 DUP2 PUSH20 0xFFFFFFFFFFFFFFFFFFFFFFFFFFFFFFFFFFFFFFFF AND DUP2 MSTORE POP POP POP PUSH2 0xF4 JUMP JUMPDEST PUSH0 PUSH0 REVERT JUMPDEST PUSH0 PUSH20 0xFFFFFFFFFFFFFFFFFFFFFFFFFFFFFFFFFFFFFFFF DUP3 AND SWAP1 POP SWAP2 SWAP1 POP JUMP JUMPDEST PUSH0 PUSH2 0x98 DUP3 PUSH2 0x6F JUMP JUMPDEST SWAP1 POP SWAP2 SWAP1 POP JUMP JUMPDEST PUSH2 0xA8 DUP2 PUSH2 0x8E JUMP JUMPDEST DUP2 EQ PUSH2 0xB2 JUMPI PUSH0 PUSH0 REVERT JUMPDEST POP JUMP JUMPDEST PUSH0 DUP2 MLOAD SWAP1 POP PUSH2 0xC3 DUP2 PUSH2 0x9F JUMP JUMPDEST SWAP3 SWAP2 POP POP JUMP JUMPDEST PUSH0 PUSH1 0x20 DUP3 DUP5 SUB SLT ISZERO PUSH2 0xDE JUMPI PUSH2 0xDD PUSH2 0x6B JUMP JUMPDEST JUMPDEST PUSH0 PUSH2 0xEB DUP5 DUP3 DUP6 ADD PUSH2 0xB5 JUMP JUMPDEST SWAP2 POP POP SWAP3 SWAP2 POP POP JUMP JUMPDEST PUSH1 0x80 MLOAD PUSH2 0x20A7 PUSH2 0x121 PUSH0 CODECOPY PUSH0 DUP2 DUP2 PUSH2 0x384 ADD MSTORE DUP2 DUP2 PUSH2 0x45E ADD MSTORE DUP2 DUP2 PUSH2 0x5D6 ADD MSTORE PUSH2 0xEAC ADD MSTORE PUSH2 0x20A7 PUSH0 RETURN INVALID PUSH1 0x80 PUSH1 0x40 MSTORE PUSH1 0x4 CALLDATASIZE LT PUSH2 0x89 JUMPI PUSH0 CALLDATALOAD PUSH1 0xE0 SHR DUP1 PUSH4 0x4925EC55 GT PUSH2 0x58 JUMPI DUP1 PUSH4 0x4925EC55 EQ PUSH2 0x15C JUMPI DUP1 PUSH4 0x598647F8 EQ PUSH2 0x198 JUMPI DUP1 PUSH4 0x75D1F140 EQ PUSH2 0x1B4 JUMPI DUP1 PUSH4 0x7F21D498 EQ PUSH2 0x1DE JUMPI DUP1 PUSH4 0xAACBC1D9 EQ PUSH2 0x21A JUMPI PUSH2 0x90 JUMP JUMPDEST DUP1 PUSH4 0xFAF0EA8 EQ PUSH2 0x94 JUMPI DUP1 PUSH4 0x21B62886 EQ PUSH2 0xD0 JUMPI DUP1 PUSH4 0x48829126 EQ PUSH2 0xF8 JUMPI DUP1 PUSH4 0x48A51F72 EQ PUSH2 0x120 JUMPI PUSH2 0x90 JUMP JUMPDEST CALLDATASIZE PUSH2 0x90 JUMPI STOP JUMPDEST PUSH0 PUSH0 REVERT JUMPDEST CALLVALUE DUP1 ISZERO PUSH2 0x9F JUMPI PUSH0 PUSH0 REVERT JUMPDEST POP PUSH2 0xBA PUSH1 0x4 DUP1 CALLDATASIZE SUB DUP2 ADD SWAP1 PUSH2 0xB5 SWAP2 SWAP1 PUSH2 0x177D JUMP JUMPDEST PUSH2 0x256 JUMP JUMPDEST PUSH1 0x40 MLOAD PUSH2 0xC7 SWAP2 SWAP1 PUSH2 0x17C2 JUMP JUMPDEST PUSH1 0x40 MLOAD DUP1 SWAP2 SUB SWAP1 RETURN JUMPDEST CALLVALUE DUP1 ISZERO PUSH2 0xDB JUMPI PUSH0 PUSH0 REVERT JUMPDEST POP PUSH2 0xF6 PUSH1 0x4 DUP1 CALLDATASIZE SUB DUP2 ADD SWAP1 PUSH2 0xF1 SWAP2 SWAP1 PUSH2 0x177D JUMP JUMPDEST PUSH2 0x2A2 JUMP JUMPDEST STOP JUMPDEST CALLVALUE DUP1 ISZERO PUSH2 0x103 JUMPI PUSH0 PUSH0 REVERT JUMPDEST POP PUSH2 0x11E PUSH1 0x4 DUP1 CALLDATASIZE SUB DUP2 ADD SWAP1 PUSH2 0x119 SWAP2 SWAP1 PUSH2 0x1917 JUMP JUMPDEST PUSH2 0xE30 JUMP JUMPDEST STOP JUMPDEST CALLVALUE DUP1 ISZERO PUSH2 0x12B JUMPI PUSH0 PUSH0 REVERT JUMPDEST POP PUSH2 0x146 PUSH1 0x4 DUP1 CALLDATASIZE SUB DUP2 ADD SWAP1 PUSH2 0x141 SWAP2 SWAP1 PUSH2 0x177D JUMP JUMPDEST PUSH2 0x109E JUMP JUMPDEST PUSH1 0x40 MLOAD PUSH2 0x153 SWAP2 SWAP1 PUSH2 0x19A6 JUMP JUMPDEST PUSH1 0x40 MLOAD DUP1 SWAP2 SUB SWAP1 RETURN JUMPDEST CALLVALUE DUP1 ISZERO PUSH2 0x167 JUMPI PUSH0 PUSH0 REVERT JUMPDEST POP PUSH2 0x182 PUSH1 0x4 DUP1 CALLDATASIZE SUB DUP2 ADD SWAP1 PUSH2 0x17D SWAP2 SWAP1 PUSH2 0x177D JUMP JUMPDEST PUSH2 0x10B8 JUMP JUMPDEST PUSH1 0x40 MLOAD PUSH2 0x18F SWAP2 SWAP1 PUSH2 0x1A1F JUMP JUMPDEST PUSH1 0x40 MLOAD DUP1 SWAP2 SUB SWAP1 RETURN JUMPDEST PUSH2 0x1B2 PUSH1 0x4 DUP1 CALLDATASIZE SUB DUP2 ADD SWAP1 PUSH2 0x1AD SWAP2 SWAP1 PUSH2 0x1A3F JUMP JUMPDEST PUSH2 0x1159 JUMP JUMPDEST STOP JUMPDEST CALLVALUE DUP1 ISZERO PUSH2 0x1BF JUMPI PUSH0 PUSH0 REVERT JUMPDEST POP PUSH2 0x1C8 PUSH2 0x12CD JUMP JUMPDEST PUSH1 0x40 MLOAD PUSH2 0x1D5 SWAP2 SWAP1 PUSH2 0x1B34 JUMP JUMPDEST PUSH1 0x40 MLOAD DUP1 SWAP2 SUB SWAP1 RETURN JUMPDEST CALLVALUE DUP1 ISZERO PUSH2 0x1E9 JUMPI PUSH0 PUSH0 REVERT JUMPDEST POP PUSH2 0x204 PUSH1 0x4 DUP1 CALLDATASIZE SUB DUP2 ADD SWAP1 PUSH2 0x1FF SWAP2 SWAP1 PUSH2 0x177D JUMP JUMPDEST PUSH2 0x1322 JUMP JUMPDEST PUSH1 0x40 MLOAD PUSH2 0x211 SWAP2 SWAP1 PUSH2 0x19A6 JUMP JUMPDEST PUSH1 0x40 MLOAD DUP1 SWAP2 SUB SWAP1 RETURN JUMPDEST CALLVALUE DUP1 ISZERO PUSH2 0x225 JUMPI PUSH0 PUSH0 REVERT JUMPDEST POP PUSH2 0x240 PUSH1 0x4 DUP1 CALLDATASIZE SUB DUP2 ADD SWAP1 PUSH2 0x23B SWAP2 SWAP1 PUSH2 0x1BAE JUMP JUMPDEST PUSH2 0x133C JUMP JUMPDEST PUSH1 0x40 MLOAD PUSH2 0x24D SWAP2 SWAP1 PUSH2 0x1B34 JUMP JUMPDEST PUSH1 0x40 MLOAD DUP1 SWAP2 SUB SWAP1 RETURN JUMPDEST PUSH0 PUSH1 0x1 DUP1 DUP2 GT ISZERO PUSH2 0x26A JUMPI PUSH2 0x269 PUSH2 0x1BD9 JUMP JUMPDEST JUMPDEST PUSH1 0x4 PUSH0 DUP5 DUP2 MSTORE PUSH1 0x20 ADD SWAP1 DUP2 MSTORE PUSH1 0x20 ADD PUSH0 KECCAK256 PUSH0 SWAP1 SLOAD SWAP1 PUSH2 0x100 EXP SWAP1 DIV PUSH1 0xFF AND PUSH1 0x1 DUP2 GT ISZERO PUSH2 0x29A JUMPI PUSH2 0x299 PUSH2 0x1BD9 JUMP JUMPDEST JUMPDEST EQ SWAP1 POP SWAP2 SWAP1 POP JUMP JUMPDEST PUSH1 0x1 DUP1 DUP2 GT ISZERO PUSH2 0x2B5 JUMPI PUSH2 0x2B4 PUSH2 0x1BD9 JUMP JUMPDEST JUMPDEST PUSH1 0x4 PUSH0 DUP4 DUP2 MSTORE PUSH1 0x20 ADD SWAP1 DUP2 MSTORE PUSH1 0x20 ADD PUSH0 KECCAK256 PUSH0 SWAP1 SLOAD SWAP1 PUSH2 0x100 EXP SWAP1 DIV PUSH1 0xFF AND PUSH1 0x1 DUP2 GT ISZERO PUSH2 0x2E5 JUMPI PUSH2 0x2E4 PUSH2 0x1BD9 JUMP JUMPDEST JUMPDEST EQ PUSH2 0x31C JUMPI PUSH1 0x40 MLOAD PUSH32 0x2552B20A00000000000000000000000000000000000000000000000000000000 DUP2 MSTORE PUSH1 0x4 ADD PUSH1 0x40 MLOAD DUP1 SWAP2 SUB SWAP1 REVERT JUMPDEST PUSH1 0x5 PUSH0 DUP3 DUP2 MSTORE PUSH1 0x20 ADD SWAP1 DUP2 MSTORE PUSH1 0x20 ADD PUSH0 KECCAK256 SLOAD TIMESTAMP LT ISZERO PUSH2 0x367 JUMPI PUSH1 0x40 MLOAD PUSH32 0xBCD8D21300000000000000000000000000000000000000000000000000000000 DUP2 MSTORE PUSH1 0x4 ADD PUSH1 0x40 MLOAD DUP1 SWAP2 SUB SWAP1 REVERT JUMPDEST PUSH0 PUSH1 0x1 PUSH0 DUP4 DUP2 MSTORE PUSH1 0x20 ADD SWAP1 DUP2 MSTORE PUSH1 0x20 ADD PUSH0 KECCAK256 DUP1 SLOAD SWAP1 POP SUB PUSH2 0x441 JUMPI PUSH32 0x0 PUSH20 0xFFFFFFFFFFFFFFFFFFFFFFFFFFFFFFFFFFFFFFFF AND PUSH4 0x23B872DD ADDRESS PUSH1 0x6 PUSH0 DUP6 DUP2 MSTORE PUSH1 0x20 ADD SWAP1 DUP2 MSTORE PUSH1 0x20 ADD PUSH0 KECCAK256 PUSH0 SWAP1 SLOAD SWAP1 PUSH2 0x100 EXP SWAP1 DIV PUSH20 0xFFFFFFFFFFFFFFFFFFFFFFFFFFFFFFFFFFFFFFFF AND DUP5 PUSH1 0x40 MLOAD DUP5 PUSH4 0xFFFFFFFF AND PUSH1 0xE0 SHL DUP2 MSTORE PUSH1 0x4 ADD PUSH2 0x40F SWAP4 SWAP3 SWAP2 SWAP1 PUSH2 0x1C15 JUMP JUMPDEST PUSH0 PUSH1 0x40 MLOAD DUP1 DUP4 SUB DUP2 PUSH0 DUP8 DUP1 EXTCODESIZE ISZERO DUP1 ISZERO PUSH2 0x426 JUMPI PUSH0 PUSH0 REVERT JUMPDEST POP GAS CALL ISZERO DUP1 ISZERO PUSH2 0x438 JUMPI RETURNDATASIZE PUSH0 PUSH0 RETURNDATACOPY RETURNDATASIZE PUSH0 REVERT JUMPDEST POP POP POP POP PUSH2 0x923 JUMP JUMPDEST PUSH1 0x1 DUP1 PUSH0 DUP4 DUP2 MSTORE PUSH1 0x20 ADD SWAP1 DUP2 MSTORE PUSH1 0x20 ADD PUSH0 KECCAK256 DUP1 SLOAD SWAP1 POP SUB PUSH2 0x5D4 JUMPI PUSH32 0x0 PUSH20 0xFFFFFFFFFFFFFFFFFFFFFFFFFFFFFFFFFFFFFFFF AND PUSH4 0x23B872DD ADDRESS PUSH1 0x1 PUSH0 DUP6 DUP2 MSTORE PUSH1 0x20 ADD SWAP1 DUP2 MSTORE PUSH1 0x20 ADD PUSH0 KECCAK256 PUSH0 DUP2 SLOAD DUP2 LT PUSH2 0x4BC JUMPI PUSH2 0x4BB PUSH2 0x1C4A JUMP JUMPDEST JUMPDEST SWAP1 PUSH0 MSTORE PUSH1 0x20 PUSH0 KECCAK256 ADD PUSH0 SWAP1 SLOAD SWAP1 PUSH2 0x100 EXP SWAP1 DIV PUSH20 0xFFFFFFFFFFFFFFFFFFFFFFFFFFFFFFFFFFFFFFFF AND DUP5 PUSH1 0x40 MLOAD DUP5 PUSH4 0xFFFFFFFF AND PUSH1 0xE0 SHL DUP2 MSTORE PUSH1 0x4 ADD PUSH2 0x503 SWAP4 SWAP3 SWAP2 SWAP1 PUSH2 0x1C15 JUMP JUMPDEST PUSH0 PUSH1 0x40 MLOAD DUP1 DUP4 SUB DUP2 PUSH0 DUP8 DUP1 EXTCODESIZE ISZERO DUP1 ISZERO PUSH2 0x51A JUMPI PUSH0 PUSH0 REVERT JUMPDEST POP GAS CALL ISZERO DUP1 ISZERO PUSH2 0x52C JUMPI RETURNDATASIZE PUSH0 PUSH0 RETURNDATACOPY RETURNDATASIZE PUSH0 REVERT JUMPDEST POP POP POP POP PUSH1 0x6 PUSH0 DUP3 DUP2 MSTORE PUSH1 0x20 ADD SWAP1 DUP2 MSTORE PUSH1 0x20 ADD PUSH0 KECCAK256 PUSH0 SWAP1 SLOAD SWAP1 PUSH2 0x100 EXP SWAP1 DIV PUSH20 0xFFFFFFFFFFFFFFFFFFFFFFFFFFFFFFFFFFFFFFFF AND PUSH20 0xFFFFFFFFFFFFFFFFFFFFFFFFFFFFFFFFFFFFFFFF AND PUSH2 0x8FC PUSH1 0x2 PUSH0 DUP5 DUP2 MSTORE PUSH1 0x20 ADD SWAP1 DUP2 MSTORE PUSH1 0x20 ADD PUSH0 KECCAK256 PUSH0 DUP2 SLOAD DUP2 LT PUSH2 0x59D JUMPI PUSH2 0x59C PUSH2 0x1C4A JUMP JUMPDEST JUMPDEST SWAP1 PUSH0 MSTORE PUSH1 0x20 PUSH0 KECCAK256 ADD SLOAD SWAP1 DUP2 ISZERO MUL SWAP1 PUSH1 0x40 MLOAD PUSH0 PUSH1 0x40 MLOAD DUP1 DUP4 SUB DUP2 DUP6 DUP9 DUP9 CALL SWAP4 POP POP POP POP ISZERO DUP1 ISZERO PUSH2 0x5CE JUMPI RETURNDATASIZE PUSH0 PUSH0 RETURNDATACOPY RETURNDATASIZE PUSH0 REVERT JUMPDEST POP PUSH2 0x922 JUMP JUMPDEST PUSH32 0x0 PUSH20 0xFFFFFFFFFFFFFFFFFFFFFFFFFFFFFFFFFFFFFFFF AND PUSH4 0x23B872DD ADDRESS PUSH1 0x1 PUSH0 DUP6 DUP2 MSTORE PUSH1 0x20 ADD SWAP1 DUP2 MSTORE PUSH1 0x20 ADD PUSH0 KECCAK256 PUSH0 DUP2 SLOAD DUP2 LT PUSH2 0x634 JUMPI PUSH2 0x633 PUSH2 0x1C4A JUMP JUMPDEST JUMPDEST SWAP1 PUSH0 MSTORE PUSH1 0x20 PUSH0 KECCAK256 ADD PUSH0 SWAP1 SLOAD SWAP1 PUSH2 0x100 EXP SWAP1 DIV PUSH20 0xFFFFFFFFFFFFFFFFFFFFFFFFFFFFFFFFFFFFFFFF AND DUP5 PUSH1 0x40 MLOAD DUP5 PUSH4 0xFFFFFFFF AND PUSH1 0xE0 SHL DUP2 MSTORE PUSH1 0x4 ADD PUSH2 0x67B SWAP4 SWAP3 SWAP2 SWAP1 PUSH2 0x1C15 JUMP JUMPDEST PUSH0 PUSH1 0x40 MLOAD DUP1 DUP4 SUB DUP2 PUSH0 DUP8 DUP1 EXTCODESIZE ISZERO DUP1 ISZERO PUSH2 0x692 JUMPI PUSH0 PUSH0 REVERT JUMPDEST POP GAS CALL ISZERO DUP1 ISZERO PUSH2 0x6A4 JUMPI RETURNDATASIZE PUSH0 PUSH0 RETURNDATACOPY RETURNDATASIZE PUSH0 REVERT JUMPDEST POP POP POP POP PUSH1 0x6 PUSH0 DUP3 DUP2 MSTORE PUSH1 0x20 ADD SWAP1 DUP2 MSTORE PUSH1 0x20 ADD PUSH0 KECCAK256 PUSH0 SWAP1 SLOAD SWAP1 PUSH2 0x100 EXP SWAP1 DIV PUSH20 0xFFFFFFFFFFFFFFFFFFFFFFFFFFFFFFFFFFFFFFFF AND PUSH20 0xFFFFFFFFFFFFFFFFFFFFFFFFFFFFFFFFFFFFFFFF AND PUSH2 0x8FC PUSH1 0x2 PUSH0 DUP5 DUP2 MSTORE PUSH1 0x20 ADD SWAP1 DUP2 MSTORE PUSH1 0x20 ADD PUSH0 KECCAK256 PUSH1 0x1 DUP2 SLOAD DUP2 LT PUSH2 0x716 JUMPI PUSH2 0x715 PUSH2 0x1C4A JUMP JUMPDEST JUMPDEST SWAP1 PUSH0 MSTORE PUSH1 0x20 PUSH0 KECCAK256 ADD SLOAD SWAP1 DUP2 ISZERO MUL SWAP1 PUSH1 0x40 MLOAD PUSH0 PUSH1 0x40 MLOAD DUP1 DUP4 SUB DUP2 DUP6 DUP9 DUP9 CALL SWAP4 POP POP POP POP ISZERO DUP1 ISZERO PUSH2 0x747 JUMPI RETURNDATASIZE PUSH0 PUSH0 RETURNDATACOPY RETURNDATASIZE PUSH0 REVERT JUMPDEST POP PUSH1 0x1 PUSH0 DUP3 DUP2 MSTORE PUSH1 0x20 ADD SWAP1 DUP2 MSTORE PUSH1 0x20 ADD PUSH0 KECCAK256 PUSH0 DUP2 SLOAD DUP2 LT PUSH2 0x76B JUMPI PUSH2 0x76A PUSH2 0x1C4A JUMP JUMPDEST JUMPDEST SWAP1 PUSH0 MSTORE PUSH1 0x20 PUSH0 KECCAK256 ADD PUSH0 SWAP1 SLOAD SWAP1 PUSH2 0x100 EXP SWAP1 DIV PUSH20 0xFFFFFFFFFFFFFFFFFFFFFFFFFFFFFFFFFFFFFFFF AND PUSH20 0xFFFFFFFFFFFFFFFFFFFFFFFFFFFFFFFFFFFFFFFF AND PUSH2 0x8FC PUSH1 0x2 PUSH0 DUP5 DUP2 MSTORE PUSH1 0x20 ADD SWAP1 DUP2 MSTORE PUSH1 0x20 ADD PUSH0 KECCAK256 PUSH1 0x1 DUP2 SLOAD DUP2 LT PUSH2 0x7D0 JUMPI PUSH2 0x7CF PUSH2 0x1C4A JUMP JUMPDEST JUMPDEST SWAP1 PUSH0 MSTORE PUSH1 0x20 PUSH0 KECCAK256 ADD SLOAD PUSH1 0x2 PUSH0 DUP6 DUP2 MSTORE PUSH1 0x20 ADD SWAP1 DUP2 MSTORE PUSH1 0x20 ADD PUSH0 KECCAK256 PUSH0 DUP2 SLOAD DUP2 LT PUSH2 0x7FC JUMPI PUSH2 0x7FB PUSH2 0x1C4A JUMP JUMPDEST JUMPDEST SWAP1 PUSH0 MSTORE PUSH1 0x20 PUSH0 KECCAK256 ADD SLOAD PUSH2 0x80F SWAP2 SWAP1 PUSH2 0x1CA4 JUMP JUMPDEST SWAP1 DUP2 ISZERO MUL SWAP1 PUSH1 0x40 MLOAD PUSH0 PUSH1 0x40 MLOAD DUP1 DUP4 SUB DUP2 DUP6 DUP9 DUP9 CALL SWAP4 POP POP POP POP ISZERO DUP1 ISZERO PUSH2 0x837 JUMPI RETURNDATASIZE PUSH0 PUSH0 RETURNDATACOPY RETURNDATASIZE PUSH0 REVERT JUMPDEST POP PUSH0 PUSH1 0x2 SWAP1 POP JUMPDEST PUSH1 0x1 PUSH0 DUP4 DUP2 MSTORE PUSH1 0x20 ADD SWAP1 DUP2 MSTORE PUSH1 0x20 ADD PUSH0 KECCAK256 DUP1 SLOAD SWAP1 POP DUP2 LT ISZERO PUSH2 0x920 JUMPI PUSH1 0x1 PUSH0 DUP4 DUP2 MSTORE PUSH1 0x20 ADD SWAP1 DUP2 MSTORE PUSH1 0x20 ADD PUSH0 KECCAK256 DUP2 DUP2 SLOAD DUP2 LT PUSH2 0x87D JUMPI PUSH2 0x87C PUSH2 0x1C4A JUMP JUMPDEST JUMPDEST SWAP1 PUSH0 MSTORE PUSH1 0x20 PUSH0 KECCAK256 ADD PUSH0 SWAP1 SLOAD SWAP1 PUSH2 0x100 EXP SWAP1 DIV PUSH20 0xFFFFFFFFFFFFFFFFFFFFFFFFFFFFFFFFFFFFFFFF AND PUSH20 0xFFFFFFFFFFFFFFFFFFFFFFFFFFFFFFFFFFFFFFFF AND PUSH2 0x8FC PUSH1 0x2 PUSH0 DUP6 DUP2 MSTORE PUSH1 0x20 ADD SWAP1 DUP2 MSTORE PUSH1 0x20 ADD PUSH0 KECCAK256 DUP4 DUP2 SLOAD DUP2 LT PUSH2 0x8E1 JUMPI PUSH2 0x8E0 PUSH2 0x1C4A JUMP JUMPDEST JUMPDEST SWAP1 PUSH0 MSTORE PUSH1 0x20 PUSH0 KECCAK256 ADD SLOAD SWAP1 DUP2 ISZERO MUL SWAP1 PUSH1 0x40 MLOAD PUSH0 PUSH1 0x40 MLOAD DUP1 DUP4 SUB DUP2 DUP6 DUP9 DUP9 CALL SWAP4 POP POP POP POP ISZERO DUP1 ISZERO PUSH2 0x912 JUMPI RETURNDATASIZE PUSH0 PUSH0 RETURNDATACOPY RETURNDATASIZE PUSH0 REVERT JUMPDEST POP DUP1 DUP1 PUSH1 0x1 ADD SWAP2 POP POP PUSH2 0x83E JUMP JUMPDEST POP JUMPDEST JUMPDEST PUSH0 PUSH0 SWAP1 POP JUMPDEST PUSH0 DUP1 SLOAD SWAP1 POP DUP2 LT ISZERO PUSH2 0x9D7 JUMPI DUP2 PUSH0 DUP3 DUP2 SLOAD DUP2 LT PUSH2 0x948 JUMPI PUSH2 0x947 PUSH2 0x1C4A JUMP JUMPDEST JUMPDEST SWAP1 PUSH0 MSTORE PUSH1 0x20 PUSH0 KECCAK256 ADD SLOAD SUB PUSH2 0x9CA JUMPI PUSH0 PUSH1 0x1 PUSH0 DUP1 SLOAD SWAP1 POP PUSH2 0x968 SWAP2 SWAP1 PUSH2 0x1CA4 JUMP JUMPDEST DUP2 SLOAD DUP2 LT PUSH2 0x979 JUMPI PUSH2 0x978 PUSH2 0x1C4A JUMP JUMPDEST JUMPDEST SWAP1 PUSH0 MSTORE PUSH1 0x20 PUSH0 KECCAK256 ADD SLOAD PUSH0 DUP3 DUP2 SLOAD DUP2 LT PUSH2 0x995 JUMPI PUSH2 0x994 PUSH2 0x1C4A JUMP JUMPDEST JUMPDEST SWAP1 PUSH0 MSTORE PUSH1 0x20 PUSH0 KECCAK256 ADD DUP2 SWAP1 SSTORE POP PUSH0 DUP1 SLOAD DUP1 PUSH2 0x9B2 JUMPI PUSH2 0x9B1 PUSH2 0x1CD7 JUMP JUMPDEST JUMPDEST PUSH1 0x1 SWAP1 SUB DUP2 DUP2 SWAP1 PUSH0 MSTORE PUSH1 0x20 PUSH0 KECCAK256 ADD PUSH0 SWAP1 SSTORE SWAP1 SSTORE PUSH2 0x9D7 JUMP JUMPDEST DUP1 DUP1 PUSH1 0x1 ADD SWAP2 POP POP PUSH2 0x928 JUMP JUMPDEST POP PUSH0 PUSH0 SWAP1 POP JUMPDEST PUSH1 0x7 PUSH0 PUSH1 0x6 PUSH0 DUP6 DUP2 MSTORE PUSH1 0x20 ADD SWAP1 DUP2 MSTORE PUSH1 0x20 ADD PUSH0 KECCAK256 PUSH0 SWAP1 SLOAD SWAP1 PUSH2 0x100 EXP SWAP1 DIV PUSH20 0xFFFFFFFFFFFFFFFFFFFFFFFFFFFFFFFFFFFFFFFF AND PUSH20 0xFFFFFFFFFFFFFFFFFFFFFFFFFFFFFFFFFFFFFFFF AND PUSH20 0xFFFFFFFFFFFFFFFFFFFFFFFFFFFFFFFFFFFFFFFF AND DUP2 MSTORE PUSH1 0x20 ADD SWAP1 DUP2 MSTORE PUSH1 0x20 ADD PUSH0 KECCAK256 DUP1 SLOAD SWAP1 POP DUP2 LT ISZERO PUSH2 0xD14 JUMPI DUP2 PUSH1 0x7 PUSH0 PUSH1 0x6 PUSH0 DUP7 DUP2 MSTORE PUSH1 0x20 ADD SWAP1 DUP2 MSTORE PUSH1 0x20 ADD PUSH0 KECCAK256 PUSH0 SWAP1 SLOAD SWAP1 PUSH2 0x100 EXP SWAP1 DIV PUSH20 0xFFFFFFFFFFFFFFFFFFFFFFFFFFFFFFFFFFFFFFFF AND PUSH20 0xFFFFFFFFFFFFFFFFFFFFFFFFFFFFFFFFFFFFFFFF AND PUSH20 0xFFFFFFFFFFFFFFFFFFFFFFFFFFFFFFFFFFFFFFFF AND DUP2 MSTORE PUSH1 0x20 ADD SWAP1 DUP2 MSTORE PUSH1 0x20 ADD PUSH0 KECCAK256 DUP3 DUP2 SLOAD DUP2 LT PUSH2 0xAD5 JUMPI PUSH2 0xAD4 PUSH2 0x1C4A JUMP JUMPDEST JUMPDEST SWAP1 PUSH0 MSTORE PUSH1 0x20 PUSH0 KECCAK256 ADD SLOAD SUB PUSH2 0xD07 JUMPI PUSH1 0x7 PUSH0 PUSH1 0x6 PUSH0 DUP6 DUP2 MSTORE PUSH1 0x20 ADD SWAP1 DUP2 MSTORE PUSH1 0x20 ADD PUSH0 KECCAK256 PUSH0 SWAP1 SLOAD SWAP1 PUSH2 0x100 EXP SWAP1 DIV PUSH20 0xFFFFFFFFFFFFFFFFFFFFFFFFFFFFFFFFFFFFFFFF AND PUSH20 0xFFFFFFFFFFFFFFFFFFFFFFFFFFFFFFFFFFFFFFFF AND PUSH20 0xFFFFFFFFFFFFFFFFFFFFFFFFFFFFFFFFFFFFFFFF AND DUP2 MSTORE PUSH1 0x20 ADD SWAP1 DUP2 MSTORE PUSH1 0x20 ADD PUSH0 KECCAK256 PUSH1 0x1 PUSH1 0x7 PUSH0 PUSH1 0x6 PUSH0 DUP8 DUP2 MSTORE PUSH1 0x20 ADD SWAP1 DUP2 MSTORE PUSH1 0x20 ADD PUSH0 KECCAK256 PUSH0 SWAP1 SLOAD SWAP1 PUSH2 0x100 EXP SWAP1 DIV PUSH20 0xFFFFFFFFFFFFFFFFFFFFFFFFFFFFFFFFFFFFFFFF AND PUSH20 0xFFFFFFFFFFFFFFFFFFFFFFFFFFFFFFFFFFFFFFFF AND PUSH20 0xFFFFFFFFFFFFFFFFFFFFFFFFFFFFFFFFFFFFFFFF AND DUP2 MSTORE PUSH1 0x20 ADD SWAP1 DUP2 MSTORE PUSH1 0x20 ADD PUSH0 KECCAK256 DUP1 SLOAD SWAP1 POP PUSH2 0xBCD SWAP2 SWAP1 PUSH2 0x1CA4 JUMP JUMPDEST DUP2 SLOAD DUP2 LT PUSH2 0xBDE JUMPI PUSH2 0xBDD PUSH2 0x1C4A JUMP JUMPDEST JUMPDEST SWAP1 PUSH0 MSTORE PUSH1 0x20 PUSH0 KECCAK256 ADD SLOAD PUSH1 0x7 PUSH0 PUSH1 0x6 PUSH0 DUP7 DUP2 MSTORE PUSH1 0x20 ADD SWAP1 DUP2 MSTORE PUSH1 0x20 ADD PUSH0 KECCAK256 PUSH0 SWAP1 SLOAD SWAP1 PUSH2 0x100 EXP SWAP1 DIV PUSH20 0xFFFFFFFFFFFFFFFFFFFFFFFFFFFFFFFFFFFFFFFF AND PUSH20 0xFFFFFFFFFFFFFFFFFFFFFFFFFFFFFFFFFFFFFFFF AND PUSH20 0xFFFFFFFFFFFFFFFFFFFFFFFFFFFFFFFFFFFFFFFF AND DUP2 MSTORE PUSH1 0x20 ADD SWAP1 DUP2 MSTORE PUSH1 0x20 ADD PUSH0 KECCAK256 DUP3 DUP2 SLOAD DUP2 LT PUSH2 0xC66 JUMPI PUSH2 0xC65 PUSH2 0x1C4A JUMP JUMPDEST JUMPDEST SWAP1 PUSH0 MSTORE PUSH1 0x20 PUSH0 KECCAK256 ADD DUP2 SWAP1 SSTORE POP PUSH1 0x7 PUSH0 PUSH1 0x6 PUSH0 DUP6 DUP2 MSTORE PUSH1 0x20 ADD SWAP1 DUP2 MSTORE PUSH1 0x20 ADD PUSH0 KECCAK256 PUSH0 SWAP1 SLOAD SWAP1 PUSH2 0x100 EXP SWAP1 DIV PUSH20 0xFFFFFFFFFFFFFFFFFFFFFFFFFFFFFFFFFFFFFFFF AND PUSH20 0xFFFFFFFFFFFFFFFFFFFFFFFFFFFFFFFFFFFFFFFF AND PUSH20 0xFFFFFFFFFFFFFFFFFFFFFFFFFFFFFFFFFFFFFFFF AND DUP2 MSTORE PUSH1 0x20 ADD SWAP1 DUP2 MSTORE PUSH1 0x20 ADD PUSH0 KECCAK256 DUP1 SLOAD DUP1 PUSH2 0xCEF JUMPI PUSH2 0xCEE PUSH2 0x1CD7 JUMP JUMPDEST JUMPDEST PUSH1 0x1 SWAP1 SUB DUP2 DUP2 SWAP1 PUSH0 MSTORE PUSH1 0x20 PUSH0 KECCAK256 ADD PUSH0 SWAP1 SSTORE SWAP1 SSTORE PUSH2 0xD14 JUMP JUMPDEST DUP1 DUP1 PUSH1 0x1 ADD SWAP2 POP POP PUSH2 0x9DD JUMP JUMPDEST POP PUSH1 0x1 PUSH0 DUP3 DUP2 MSTORE PUSH1 0x20 ADD SWAP1 DUP2 MSTORE PUSH1 0x20 ADD PUSH0 KECCAK256 PUSH0 PUSH2 0xD31 SWAP2 SWAP1 PUSH2 0x16E2 JUMP JUMPDEST PUSH1 0x2 PUSH0 DUP3 DUP2 MSTORE PUSH1 0x20 ADD SWAP1 DUP2 MSTORE PUSH1 0x20 ADD PUSH0 KECCAK256 PUSH0 PUSH2 0xD4D SWAP2 SWAP1 PUSH2 0x1700 JUMP JUMPDEST PUSH0 PUSH1 0x3 PUSH0 DUP4 DUP2 MSTORE PUSH1 0x20 ADD SWAP1 DUP2 MSTORE PUSH1 0x20 ADD PUSH0 KECCAK256 DUP2 SWAP1 SSTORE POP PUSH0 PUSH1 0x4 PUSH0 DUP4 DUP2 MSTORE PUSH1 0x20 ADD SWAP1 DUP2 MSTORE PUSH1 0x20 ADD PUSH0 KECCAK256 PUSH0 PUSH2 0x100 EXP DUP2 SLOAD DUP2 PUSH1 0xFF MUL NOT AND SWAP1 DUP4 PUSH1 0x1 DUP2 GT ISZERO PUSH2 0xD96 JUMPI PUSH2 0xD95 PUSH2 0x1BD9 JUMP JUMPDEST JUMPDEST MUL OR SWAP1 SSTORE POP PUSH0 PUSH1 0x5 PUSH0 DUP4 DUP2 MSTORE PUSH1 0x20 ADD SWAP1 DUP2 MSTORE PUSH1 0x20 ADD PUSH0 KECCAK256 DUP2 SWAP1 SSTORE POP PUSH0 PUSH1 0x6 PUSH0 DUP4 DUP2 MSTORE PUSH1 0x20 ADD SWAP1 DUP2 MSTORE PUSH1 0x20 ADD PUSH0 KECCAK256 PUSH0 PUSH2 0x100 EXP DUP2 SLOAD DUP2 PUSH20 0xFFFFFFFFFFFFFFFFFFFFFFFFFFFFFFFFFFFFFFFF MUL NOT AND SWAP1 DUP4 PUSH20 0xFFFFFFFFFFFFFFFFFFFFFFFFFFFFFFFFFFFFFFFF AND MUL OR SWAP1 SSTORE POP PUSH1 0x40 MLOAD DUP1 PUSH1 0x20 ADD PUSH1 0x40 MSTORE DUP1 PUSH0 DUP2 MSTORE POP PUSH1 0x8 PUSH0 DUP4 DUP2 MSTORE PUSH1 0x20 ADD SWAP1 DUP2 MSTORE PUSH1 0x20 ADD PUSH0 KECCAK256 SWAP1 DUP2 PUSH2 0xE2C SWAP2 SWAP1 PUSH2 0x1F01 JUMP JUMPDEST POP POP JUMP JUMPDEST PUSH0 PUSH1 0x1 DUP2 GT ISZERO PUSH2 0xE43 JUMPI PUSH2 0xE42 PUSH2 0x1BD9 JUMP JUMPDEST JUMPDEST PUSH1 0x4 PUSH0 DUP7 DUP2 MSTORE PUSH1 0x20 ADD SWAP1 DUP2 MSTORE PUSH1 0x20 ADD PUSH0 KECCAK256 PUSH0 SWAP1 SLOAD SWAP1 PUSH2 0x100 EXP SWAP1 DIV PUSH1 0xFF AND PUSH1 0x1 DUP2 GT ISZERO PUSH2 0xE73 JUMPI PUSH2 0xE72 PUSH2 0x1BD9 JUMP JUMPDEST JUMPDEST EQ PUSH2 0xEAA JUMPI PUSH1 0x40 MLOAD PUSH32 0xADCF092700000000000000000000000000000000000000000000000000000000 DUP2 MSTORE PUSH1 0x4 ADD PUSH1 0x40 MLOAD DUP1 SWAP2 SUB SWAP1 REVERT JUMPDEST PUSH32 0x0 PUSH20 0xFFFFFFFFFFFFFFFFFFFFFFFFFFFFFFFFFFFFFFFF AND PUSH4 0x23B872DD CALLER ADDRESS DUP8 PUSH1 0x40 MLOAD DUP5 PUSH4 0xFFFFFFFF AND PUSH1 0xE0 SHL DUP2 MSTORE PUSH1 0x4 ADD PUSH2 0xF07 SWAP4 SWAP3 SWAP2 SWAP1 PUSH2 0x1C15 JUMP JUMPDEST PUSH0 PUSH1 0x40 MLOAD DUP1 DUP4 SUB DUP2 PUSH0 DUP8 DUP1 EXTCODESIZE ISZERO DUP1 ISZERO PUSH2 0xF1E JUMPI PUSH0 PUSH0 REVERT JUMPDEST POP GAS CALL ISZERO DUP1 ISZERO PUSH2 0xF30 JUMPI RETURNDATASIZE PUSH0 PUSH0 RETURNDATACOPY RETURNDATASIZE PUSH0 REVERT JUMPDEST POP POP POP POP PUSH0 DUP5 SWAP1 DUP1 PUSH1 0x1 DUP2 SLOAD ADD DUP1 DUP3 SSTORE DUP1 SWAP2 POP POP PUSH1 0x1 SWAP1 SUB SWAP1 PUSH0 MSTORE PUSH1 0x20 PUSH0 KECCAK256 ADD PUSH0 SWAP1 SWAP2 SWAP1 SWAP2 SWAP1 SWAP2 POP SSTORE DUP2 TIMESTAMP PUSH2 0xF65 SWAP2 SWAP1 PUSH2 0x1FD0 JUMP JUMPDEST PUSH1 0x5 PUSH0 DUP7 DUP2 MSTORE PUSH1 0x20 ADD SWAP1 DUP2 MSTORE PUSH1 0x20 ADD PUSH0 KECCAK256 DUP2 SWAP1 SSTORE POP DUP3 PUSH1 0x3 PUSH0 DUP7 DUP2 MSTORE PUSH1 0x20 ADD SWAP1 DUP2 MSTORE PUSH1 0x20 ADD PUSH0 KECCAK256 DUP2 SWAP1 SSTORE POP PUSH1 0x1 PUSH1 0x4 PUSH0 DUP7 DUP2 MSTORE PUSH1 0x20 ADD SWAP1 DUP2 MSTORE PUSH1 0x20 ADD PUSH0 KECCAK256 PUSH0 PUSH2 0x100 EXP DUP2 SLOAD DUP2 PUSH1 0xFF MUL NOT AND SWAP1 DUP4 PUSH1 0x1 DUP2 GT ISZERO PUSH2 0xFC4 JUMPI PUSH2 0xFC3 PUSH2 0x1BD9 JUMP JUMPDEST JUMPDEST MUL OR SWAP1 SSTORE POP CALLER PUSH1 0x6 PUSH0 DUP7 DUP2 MSTORE PUSH1 0x20 ADD SWAP1 DUP2 MSTORE PUSH1 0x20 ADD PUSH0 KECCAK256 PUSH0 PUSH2 0x100 EXP DUP2 SLOAD DUP2 PUSH20 0xFFFFFFFFFFFFFFFFFFFFFFFFFFFFFFFFFFFFFFFF MUL NOT AND SWAP1 DUP4 PUSH20 0xFFFFFFFFFFFFFFFFFFFFFFFFFFFFFFFFFFFFFFFF AND MUL OR SWAP1 SSTORE POP DUP1 PUSH1 0x8 PUSH0 DUP7 DUP2 MSTORE PUSH1 0x20 ADD SWAP1 DUP2 MSTORE PUSH1 0x20 ADD PUSH0 KECCAK256 SWAP1 DUP2 PUSH2 0x1036 SWAP2 SWAP1 PUSH2 0x1F01 JUMP JUMPDEST POP PUSH1 0x7 PUSH0 CALLER PUSH20 0xFFFFFFFFFFFFFFFFFFFFFFFFFFFFFFFFFFFFFFFF AND PUSH20 0xFFFFFFFFFFFFFFFFFFFFFFFFFFFFFFFFFFFFFFFF AND DUP2 MSTORE PUSH1 0x20 ADD SWAP1 DUP2 MSTORE PUSH1 0x20 ADD PUSH0 KECCAK256 DUP5 SWAP1 DUP1 PUSH1 0x1 DUP2 SLOAD ADD DUP1 DUP3 SSTORE DUP1 SWAP2 POP POP PUSH1 0x1 SWAP1 SUB SWAP1 PUSH0 MSTORE PUSH1 0x20 PUSH0 KECCAK256 ADD PUSH0 SWAP1 SWAP2 SWAP1 SWAP2 SWAP1 SWAP2 POP SSTORE POP POP POP POP JUMP JUMPDEST PUSH0 PUSH1 0x5 PUSH0 DUP4 DUP2 MSTORE PUSH1 0x20 ADD SWAP1 DUP2 MSTORE PUSH1 0x20 ADD PUSH0 KECCAK256 SLOAD SWAP1 POP SWAP2 SWAP1 POP JUMP JUMPDEST PUSH1 0x60 PUSH1 0x8 PUSH0 DUP4 DUP2 MSTORE PUSH1 0x20 ADD SWAP1 DUP2 MSTORE PUSH1 0x20 ADD PUSH0 KECCAK256 DUP1 SLOAD PUSH2 0x10D6 SWAP1 PUSH2 0x1D31 JUMP JUMPDEST DUP1 PUSH1 0x1F ADD PUSH1 0x20 DUP1 SWAP2 DIV MUL PUSH1 0x20 ADD PUSH1 0x40 MLOAD SWAP1 DUP2 ADD PUSH1 0x40 MSTORE DUP1 SWAP3 SWAP2 SWAP1 DUP2 DUP2 MSTORE PUSH1 0x20 ADD DUP3 DUP1 SLOAD PUSH2 0x1102 SWAP1 PUSH2 0x1D31 JUMP JUMPDEST DUP1 ISZERO PUSH2 0x114D JUMPI DUP1 PUSH1 0x1F LT PUSH2 0x1124 JUMPI PUSH2 0x100 DUP1 DUP4 SLOAD DIV MUL DUP4 MSTORE SWAP2 PUSH1 0x20 ADD SWAP2 PUSH2 0x114D JUMP JUMPDEST DUP3 ADD SWAP2 SWAP1 PUSH0 MSTORE PUSH1 0x20 PUSH0 KECCAK256 SWAP1 JUMPDEST DUP2 SLOAD DUP2 MSTORE SWAP1 PUSH1 0x1 ADD SWAP1 PUSH1 0x20 ADD DUP1 DUP4 GT PUSH2 0x1130 JUMPI DUP3 SWAP1 SUB PUSH1 0x1F AND DUP3 ADD SWAP2 JUMPDEST POP POP POP POP POP SWAP1 POP SWAP2 SWAP1 POP JUMP JUMPDEST PUSH1 0x1 DUP1 DUP2 GT ISZERO PUSH2 0x116C JUMPI PUSH2 0x116B PUSH2 0x1BD9 JUMP JUMPDEST JUMPDEST PUSH1 0x4 PUSH0 DUP5 DUP2 MSTORE PUSH1 0x20 ADD SWAP1 DUP2 MSTORE PUSH1 0x20 ADD PUSH0 KECCAK256 PUSH0 SWAP1 SLOAD SWAP1 PUSH2 0x100 EXP SWAP1 DIV PUSH1 0xFF AND PUSH1 0x1 DUP2 GT ISZERO PUSH2 0x119C JUMPI PUSH2 0x119B PUSH2 0x1BD9 JUMP JUMPDEST JUMPDEST EQ PUSH2 0x11D3 JUMPI PUSH1 0x40 MLOAD PUSH32 0x2552B20A00000000000000000000000000000000000000000000000000000000 DUP2 MSTORE PUSH1 0x4 ADD PUSH1 0x40 MLOAD DUP1 SWAP2 SUB SWAP1 REVERT JUMPDEST PUSH1 0x3 PUSH0 DUP4 DUP2 MSTORE PUSH1 0x20 ADD SWAP1 DUP2 MSTORE PUSH1 0x20 ADD PUSH0 KECCAK256 SLOAD DUP2 LT ISZERO PUSH2 0x123A JUMPI PUSH1 0x3 PUSH0 DUP4 DUP2 MSTORE PUSH1 0x20 ADD SWAP1 DUP2 MSTORE PUSH1 0x20 ADD PUSH0 KECCAK256 SLOAD PUSH1 0x40 MLOAD PUSH32 0x7F063D7B00000000000000000000000000000000000000000000000000000000 DUP2 MSTORE PUSH1 0x4 ADD PUSH2 0x1231 SWAP2 SWAP1 PUSH2 0x19A6 JUMP JUMPDEST PUSH1 0x40 MLOAD DUP1 SWAP2 SUB SWAP1 REVERT JUMPDEST DUP1 CALLVALUE EQ PUSH2 0x1273 JUMPI PUSH1 0x40 MLOAD PUSH32 0xBEEFCF0300000000000000000000000000000000000000000000000000000000 DUP2 MSTORE PUSH1 0x4 ADD PUSH1 0x40 MLOAD DUP1 SWAP2 SUB SWAP1 REVERT JUMPDEST PUSH1 0x5 PUSH0 DUP4 DUP2 MSTORE PUSH1 0x20 ADD SWAP1 DUP2 MSTORE PUSH1 0x20 ADD PUSH0 KECCAK256 SLOAD TIMESTAMP GT ISZERO PUSH2 0x12BE JUMPI PUSH1 0x40 MLOAD PUSH32 0x1EFD8C9100000000000000000000000000000000000000000000000000000000 DUP2 MSTORE PUSH1 0x4 ADD PUSH1 0x40 MLOAD DUP1 SWAP2 SUB SWAP1 REVERT JUMPDEST PUSH2 0x12C9 DUP2 DUP4 CALLER PUSH2 0x13CF JUMP JUMPDEST POP POP JUMP JUMPDEST PUSH1 0x60 PUSH0 DUP1 SLOAD DUP1 PUSH1 0x20 MUL PUSH1 0x20 ADD PUSH1 0x40 MLOAD SWAP1 DUP2 ADD PUSH1 0x40 MSTORE DUP1 SWAP3 SWAP2 SWAP1 DUP2 DUP2 MSTORE PUSH1 0x20 ADD DUP3 DUP1 SLOAD DUP1 ISZERO PUSH2 0x1318 JUMPI PUSH1 0x20 MUL DUP3 ADD SWAP2 SWAP1 PUSH0 MSTORE PUSH1 0x20 PUSH0 KECCAK256 SWAP1 JUMPDEST DUP2 SLOAD DUP2 MSTORE PUSH1 0x20 ADD SWAP1 PUSH1 0x1 ADD SWAP1 DUP1 DUP4 GT PUSH2 0x1304 JUMPI JUMPDEST POP POP POP POP POP SWAP1 POP SWAP1 JUMP JUMPDEST PUSH0 PUSH1 0x3 PUSH0 DUP4 DUP2 MSTORE PUSH1 0x20 ADD SWAP1 DUP2 MSTORE PUSH1 0x20 ADD PUSH0 KECCAK256 SLOAD SWAP1 POP SWAP2 SWAP1 POP JUMP JUMPDEST PUSH1 0x60 PUSH1 0x7 PUSH0 DUP4 PUSH20 0xFFFFFFFFFFFFFFFFFFFFFFFFFFFFFFFFFFFFFFFF AND PUSH20 0xFFFFFFFFFFFFFFFFFFFFFFFFFFFFFFFFFFFFFFFF AND DUP2 MSTORE PUSH1 0x20 ADD SWAP1 DUP2 MSTORE PUSH1 0x20 ADD PUSH0 KECCAK256 DUP1 SLOAD DUP1 PUSH1 0x20 MUL PUSH1 0x20 ADD PUSH1 0x40 MLOAD SWAP1 DUP2 ADD PUSH1 0x40 MSTORE DUP1 SWAP3 SWAP2 SWAP1 DUP2 DUP2 MSTORE PUSH1 0x20 ADD DUP3 DUP1 SLOAD DUP1 ISZERO PUSH2 0x13C3 JUMPI PUSH1 0x20 MUL DUP3 ADD SWAP2 SWAP1 PUSH0 MSTORE PUSH1 0x20 PUSH0 KECCAK256 SWAP1 JUMPDEST DUP2 SLOAD DUP2 MSTORE PUSH1 0x20 ADD SWAP1 PUSH1 0x1 ADD SWAP1 DUP1 DUP4 GT PUSH2 0x13AF JUMPI JUMPDEST POP POP POP POP POP SWAP1 POP SWAP2 SWAP1 POP JUMP JUMPDEST PUSH0 PUSH0 SWAP1 POP JUMPDEST PUSH1 0x2 PUSH0 DUP5 DUP2 MSTORE PUSH1 0x20 ADD SWAP1 DUP2 MSTORE PUSH1 0x20 ADD PUSH0 KECCAK256 DUP1 SLOAD SWAP1 POP DUP2 LT DUP1 ISZERO PUSH2 0x1421 JUMPI POP DUP4 PUSH1 0x2 PUSH0 DUP6 DUP2 MSTORE PUSH1 0x20 ADD SWAP1 DUP2 MSTORE PUSH1 0x20 ADD PUSH0 KECCAK256 DUP3 DUP2 SLOAD DUP2 LT PUSH2 0x1416 JUMPI PUSH2 0x1415 PUSH2 0x1C4A JUMP JUMPDEST JUMPDEST SWAP1 PUSH0 MSTORE PUSH1 0x20 PUSH0 KECCAK256 ADD SLOAD GT JUMPDEST ISZERO PUSH2 0x1439 JUMPI DUP1 DUP1 PUSH2 0x1431 SWAP1 PUSH2 0x2003 JUMP JUMPDEST SWAP2 POP POP PUSH2 0x13D4 JUMP JUMPDEST PUSH1 0x2 PUSH0 DUP5 DUP2 MSTORE PUSH1 0x20 ADD SWAP1 DUP2 MSTORE PUSH1 0x20 ADD PUSH0 KECCAK256 DUP5 SWAP1 DUP1 PUSH1 0x1 DUP2 SLOAD ADD DUP1 DUP3 SSTORE DUP1 SWAP2 POP POP PUSH1 0x1 SWAP1 SUB SWAP1 PUSH0 MSTORE PUSH1 0x20 PUSH0 KECCAK256 ADD PUSH0 SWAP1 SWAP2 SWAP1 SWAP2 SWAP1 SWAP2 POP SSTORE PUSH1 0x1 PUSH0 DUP5 DUP2 MSTORE PUSH1 0x20 ADD SWAP1 DUP2 MSTORE PUSH1 0x20 ADD PUSH0 KECCAK256 DUP3 SWAP1 DUP1 PUSH1 0x1 DUP2 SLOAD ADD DUP1 DUP3 SSTORE DUP1 SWAP2 POP POP PUSH1 0x1 SWAP1 SUB SWAP1 PUSH0 MSTORE PUSH1 0x20 PUSH0 KECCAK256 ADD PUSH0 SWAP1 SWAP2 SWAP1 SWAP2 SWAP1 SWAP2 PUSH2 0x100 EXP DUP2 SLOAD DUP2 PUSH20 0xFFFFFFFFFFFFFFFFFFFFFFFFFFFFFFFFFFFFFFFF MUL NOT AND SWAP1 DUP4 PUSH20 0xFFFFFFFFFFFFFFFFFFFFFFFFFFFFFFFFFFFFFFFF AND MUL OR SWAP1 SSTORE POP PUSH0 PUSH1 0x1 DUP1 PUSH0 DUP7 DUP2 MSTORE PUSH1 0x20 ADD SWAP1 DUP2 MSTORE PUSH1 0x20 ADD PUSH0 KECCAK256 DUP1 SLOAD SWAP1 POP PUSH2 0x14FE SWAP2 SWAP1 PUSH2 0x1CA4 JUMP JUMPDEST SWAP1 POP JUMPDEST DUP2 DUP2 GT ISZERO PUSH2 0x1642 JUMPI PUSH1 0x1 PUSH0 DUP6 DUP2 MSTORE PUSH1 0x20 ADD SWAP1 DUP2 MSTORE PUSH1 0x20 ADD PUSH0 KECCAK256 PUSH1 0x1 DUP3 PUSH2 0x1527 SWAP2 SWAP1 PUSH2 0x1CA4 JUMP JUMPDEST DUP2 SLOAD DUP2 LT PUSH2 0x1538 JUMPI PUSH2 0x1537 PUSH2 0x1C4A JUMP JUMPDEST JUMPDEST SWAP1 PUSH0 MSTORE PUSH1 0x20 PUSH0 KECCAK256 ADD PUSH0 SWAP1 SLOAD SWAP1 PUSH2 0x100 EXP SWAP1 DIV PUSH20 0xFFFFFFFFFFFFFFFFFFFFFFFFFFFFFFFFFFFFFFFF AND PUSH1 0x1 PUSH0 DUP7 DUP2 MSTORE PUSH1 0x20 ADD SWAP1 DUP2 MSTORE PUSH1 0x20 ADD PUSH0 KECCAK256 DUP3 DUP2 SLOAD DUP2 LT PUSH2 0x1583 JUMPI PUSH2 0x1582 PUSH2 0x1C4A JUMP JUMPDEST JUMPDEST SWAP1 PUSH0 MSTORE PUSH1 0x20 PUSH0 KECCAK256 ADD PUSH0 PUSH2 0x100 EXP DUP2 SLOAD DUP2 PUSH20 0xFFFFFFFFFFFFFFFFFFFFFFFFFFFFFFFFFFFFFFFF MUL NOT AND SWAP1 DUP4 PUSH20 0xFFFFFFFFFFFFFFFFFFFFFFFFFFFFFFFFFFFFFFFF AND MUL OR SWAP1 SSTORE POP PUSH1 0x2 PUSH0 DUP6 DUP2 MSTORE PUSH1 0x20 ADD SWAP1 DUP2 MSTORE PUSH1 0x20 ADD PUSH0 KECCAK256 PUSH1 0x1 DUP3 PUSH2 0x15E6 SWAP2 SWAP1 PUSH2 0x1CA4 JUMP JUMPDEST DUP2 SLOAD DUP2 LT PUSH2 0x15F7 JUMPI PUSH2 0x15F6 PUSH2 0x1C4A JUMP JUMPDEST JUMPDEST SWAP1 PUSH0 MSTORE PUSH1 0x20 PUSH0 KECCAK256 ADD SLOAD PUSH1 0x2 PUSH0 DUP7 DUP2 MSTORE PUSH1 0x20 ADD SWAP1 DUP2 MSTORE PUSH1 0x20 ADD PUSH0 KECCAK256 DUP3 DUP2 SLOAD DUP2 LT PUSH2 0x1623 JUMPI PUSH2 0x1622 PUSH2 0x1C4A JUMP JUMPDEST JUMPDEST SWAP1 PUSH0 MSTORE PUSH1 0x20 PUSH0 KECCAK256 ADD DUP2 SWAP1 SSTORE POP DUP1 DUP1 PUSH2 0x163A SWAP1 PUSH2 0x204A JUMP JUMPDEST SWAP2 POP POP PUSH2 0x1501 JUMP JUMPDEST POP DUP2 PUSH1 0x1 PUSH0 DUP6 DUP2 MSTORE PUSH1 0x20 ADD SWAP1 DUP2 MSTORE PUSH1 0x20 ADD PUSH0 KECCAK256 DUP3 DUP2 SLOAD DUP2 LT PUSH2 0x1667 JUMPI PUSH2 0x1666 PUSH2 0x1C4A JUMP JUMPDEST JUMPDEST SWAP1 PUSH0 MSTORE PUSH1 0x20 PUSH0 KECCAK256 ADD PUSH0 PUSH2 0x100 EXP DUP2 SLOAD DUP2 PUSH20 0xFFFFFFFFFFFFFFFFFFFFFFFFFFFFFFFFFFFFFFFF MUL NOT AND SWAP1 DUP4 PUSH20 0xFFFFFFFFFFFFFFFFFFFFFFFFFFFFFFFFFFFFFFFF AND MUL OR SWAP1 SSTORE POP DUP4 PUSH1 0x2 PUSH0 DUP6 DUP2 MSTORE PUSH1 0x20 ADD SWAP1 DUP2 MSTORE PUSH1 0x20 ADD PUSH0 KECCAK256 DUP3 DUP2 SLOAD DUP2 LT PUSH2 0x16D0 JUMPI PUSH2 0x16CF PUSH2 0x1C4A JUMP JUMPDEST JUMPDEST SWAP1 PUSH0 MSTORE PUSH1 0x20 PUSH0 KECCAK256 ADD DUP2 SWAP1 SSTORE POP POP POP POP POP JUMP JUMPDEST POP DUP1 SLOAD PUSH0 DUP3 SSTORE SWAP1 PUSH0 MSTORE PUSH1 0x20 PUSH0 KECCAK256 SWAP1 DUP2 ADD SWAP1 PUSH2 0x16FD SWAP2 SWAP1 PUSH2 0x171E JUMP JUMPDEST POP JUMP JUMPDEST POP DUP1 SLOAD PUSH0 DUP3 SSTORE SWAP1 PUSH0 MSTORE PUSH1 0x20 PUSH0 KECCAK256 SWAP1 DUP2 ADD SWAP1 PUSH2 0x171B SWAP2 SWAP1 PUSH2 0x171E JUMP JUMPDEST POP JUMP JUMPDEST JUMPDEST DUP1 DUP3 GT ISZERO PUSH2 0x1735 JUMPI PUSH0 DUP2 PUSH0 SWAP1 SSTORE POP PUSH1 0x1 ADD PUSH2 0x171F JUMP JUMPDEST POP SWAP1 JUMP JUMPDEST PUSH0 PUSH1 0x40 MLOAD SWAP1 POP SWAP1 JUMP JUMPDEST PUSH0 PUSH0 REVERT JUMPDEST PUSH0 PUSH0 REVERT JUMPDEST PUSH0 DUP2 SWAP1 POP SWAP2 SWAP1 POP JUMP JUMPDEST PUSH2 0x175C DUP2 PUSH2 0x174A JUMP JUMPDEST DUP2 EQ PUSH2 0x1766 JUMPI PUSH0 PUSH0 REVERT JUMPDEST POP JUMP JUMPDEST PUSH0 DUP2 CALLDATALOAD SWAP1 POP PUSH2 0x1777 DUP2 PUSH2 0x1753 JUMP JUMPDEST SWAP3 SWAP2 POP POP JUMP JUMPDEST PUSH0 PUSH1 0x20 DUP3 DUP5 SUB SLT ISZERO PUSH2 0x1792 JUMPI PUSH2 0x1791 PUSH2 0x1742 JUMP JUMPDEST JUMPDEST PUSH0 PUSH2 0x179F DUP5 DUP3 DUP6 ADD PUSH2 0x1769 JUMP JUMPDEST SWAP2 POP POP SWAP3 SWAP2 POP POP JUMP JUMPDEST PUSH0 DUP2 ISZERO ISZERO SWAP1 POP SWAP2 SWAP1 POP JUMP JUMPDEST PUSH2 0x17BC DUP2 PUSH2 0x17A8 JUMP JUMPDEST DUP3 MSTORE POP POP JUMP JUMPDEST PUSH0 PUSH1 0x20 DUP3 ADD SWAP1 POP PUSH2 0x17D5 PUSH0 DUP4 ADD DUP5 PUSH2 0x17B3 JUMP JUMPDEST SWAP3 SWAP2 POP POP JUMP JUMPDEST PUSH0 PUSH0 REVERT JUMPDEST PUSH0 PUSH0 REVERT JUMPDEST PUSH0 PUSH1 0x1F NOT PUSH1 0x1F DUP4 ADD AND SWAP1 POP SWAP2 SWAP1 POP JUMP JUMPDEST PUSH32 0x4E487B7100000000000000000000000000000000000000000000000000000000 PUSH0 MSTORE PUSH1 0x41 PUSH1 0x4 MSTORE PUSH1 0x24 PUSH0 REVERT JUMPDEST PUSH2 0x1829 DUP3 PUSH2 0x17E3 JUMP JUMPDEST DUP2 ADD DUP2 DUP2 LT PUSH8 0xFFFFFFFFFFFFFFFF DUP3 GT OR ISZERO PUSH2 0x1848 JUMPI PUSH2 0x1847 PUSH2 0x17F3 JUMP JUMPDEST JUMPDEST DUP1 PUSH1 0x40 MSTORE POP POP POP JUMP JUMPDEST PUSH0 PUSH2 0x185A PUSH2 0x1739 JUMP JUMPDEST SWAP1 POP PUSH2 0x1866 DUP3 DUP3 PUSH2 0x1820 JUMP JUMPDEST SWAP2 SWAP1 POP JUMP JUMPDEST PUSH0 PUSH8 0xFFFFFFFFFFFFFFFF DUP3 GT ISZERO PUSH2 0x1885 JUMPI PUSH2 0x1884 PUSH2 0x17F3 JUMP JUMPDEST JUMPDEST PUSH2 0x188E DUP3 PUSH2 0x17E3 JUMP JUMPDEST SWAP1 POP PUSH1 0x20 DUP2 ADD SWAP1 POP SWAP2 SWAP1 POP JUMP JUMPDEST DUP3 DUP2 DUP4 CALLDATACOPY PUSH0 DUP4 DUP4 ADD MSTORE POP POP POP JUMP JUMPDEST PUSH0 PUSH2 0x18BB PUSH2 0x18B6 DUP5 PUSH2 0x186B JUMP JUMPDEST PUSH2 0x1851 JUMP JUMPDEST SWAP1 POP DUP3 DUP2 MSTORE PUSH1 0x20 DUP2 ADD DUP5 DUP5 DUP5 ADD GT ISZERO PUSH2 0x18D7 JUMPI PUSH2 0x18D6 PUSH2 0x17DF JUMP JUMPDEST JUMPDEST PUSH2 0x18E2 DUP5 DUP3 DUP6 PUSH2 0x189B JUMP JUMPDEST POP SWAP4 SWAP3 POP POP POP JUMP JUMPDEST PUSH0 DUP3 PUSH1 0x1F DUP4 ADD SLT PUSH2 0x18FE JUMPI PUSH2 0x18FD PUSH2 0x17DB JUMP JUMPDEST JUMPDEST DUP2 CALLDATALOAD PUSH2 0x190E DUP5 DUP3 PUSH1 0x20 DUP7 ADD PUSH2 0x18A9 JUMP JUMPDEST SWAP2 POP POP SWAP3 SWAP2 POP POP JUMP JUMPDEST PUSH0 PUSH0 PUSH0 PUSH0 PUSH1 0x80 DUP6 DUP8 SUB SLT ISZERO PUSH2 0x192F JUMPI PUSH2 0x192E PUSH2 0x1742 JUMP JUMPDEST JUMPDEST PUSH0 PUSH2 0x193C DUP8 DUP3 DUP9 ADD PUSH2 0x1769 JUMP JUMPDEST SWAP5 POP POP PUSH1 0x20 PUSH2 0x194D DUP8 DUP3 DUP9 ADD PUSH2 0x1769 JUMP JUMPDEST SWAP4 POP POP PUSH1 0x40 PUSH2 0x195E DUP8 DUP3 DUP9 ADD PUSH2 0x1769 JUMP JUMPDEST SWAP3 POP POP PUSH1 0x60 DUP6 ADD CALLDATALOAD PUSH8 0xFFFFFFFFFFFFFFFF DUP2 GT ISZERO PUSH2 0x197F JUMPI PUSH2 0x197E PUSH2 0x1746 JUMP JUMPDEST JUMPDEST PUSH2 0x198B DUP8 DUP3 DUP9 ADD PUSH2 0x18EA JUMP JUMPDEST SWAP2 POP POP SWAP3 SWAP6 SWAP2 SWAP5 POP SWAP3 POP JUMP JUMPDEST PUSH2 0x19A0 DUP2 PUSH2 0x174A JUMP JUMPDEST DUP3 MSTORE POP POP JUMP JUMPDEST PUSH0 PUSH1 0x20 DUP3 ADD SWAP1 POP PUSH2 0x19B9 PUSH0 DUP4 ADD DUP5 PUSH2 0x1997 JUMP JUMPDEST SWAP3 SWAP2 POP POP JUMP JUMPDEST PUSH0 DUP2 MLOAD SWAP1 POP SWAP2 SWAP1 POP JUMP JUMPDEST PUSH0 DUP3 DUP3 MSTORE PUSH1 0x20 DUP3 ADD SWAP1 POP SWAP3 SWAP2 POP POP JUMP JUMPDEST DUP3 DUP2 DUP4 MCOPY PUSH0 DUP4 DUP4 ADD MSTORE POP POP POP JUMP JUMPDEST PUSH0 PUSH2 0x19F1 DUP3 PUSH2 0x19BF JUMP JUMPDEST PUSH2 0x19FB DUP2 DUP6 PUSH2 0x19C9 JUMP JUMPDEST SWAP4 POP PUSH2 0x1A0B DUP2 DUP6 PUSH1 0x20 DUP7 ADD PUSH2 0x19D9 JUMP JUMPDEST PUSH2 0x1A14 DUP2 PUSH2 0x17E3 JUMP JUMPDEST DUP5 ADD SWAP2 POP POP SWAP3 SWAP2 POP POP JUMP JUMPDEST PUSH0 PUSH1 0x20 DUP3 ADD SWAP1 POP DUP2 DUP2 SUB PUSH0 DUP4 ADD MSTORE PUSH2 0x1A37 DUP2 DUP5 PUSH2 0x19E7 JUMP JUMPDEST SWAP1 POP SWAP3 SWAP2 POP POP JUMP JUMPDEST PUSH0 PUSH0 PUSH1 0x40 DUP4 DUP6 SUB SLT ISZERO PUSH2 0x1A55 JUMPI PUSH2 0x1A54 PUSH2 0x1742 JUMP JUMPDEST JUMPDEST PUSH0 PUSH2 0x1A62 DUP6 DUP3 DUP7 ADD PUSH2 0x1769 JUMP JUMPDEST SWAP3 POP POP PUSH1 0x20 PUSH2 0x1A73 DUP6 DUP3 DUP7 ADD PUSH2 0x1769 JUMP JUMPDEST SWAP2 POP POP SWAP3 POP SWAP3 SWAP1 POP JUMP JUMPDEST PUSH0 DUP2 MLOAD SWAP1 POP SWAP2 SWAP1 POP JUMP JUMPDEST PUSH0 DUP3 DUP3 MSTORE PUSH1 0x20 DUP3 ADD SWAP1 POP SWAP3 SWAP2 POP POP JUMP JUMPDEST PUSH0 DUP2 SWAP1 POP PUSH1 0x20 DUP3 ADD SWAP1 POP SWAP2 SWAP1 POP JUMP JUMPDEST PUSH2 0x1AAF DUP2 PUSH2 0x174A JUMP JUMPDEST DUP3 MSTORE POP POP JUMP JUMPDEST PUSH0 PUSH2 0x1AC0 DUP4 DUP4 PUSH2 0x1AA6 JUMP JUMPDEST PUSH1 0x20 DUP4 ADD SWAP1 POP SWAP3 SWAP2 POP POP JUMP JUMPDEST PUSH0 PUSH1 0x20 DUP3 ADD SWAP1 POP SWAP2 SWAP1 POP JUMP JUMPDEST PUSH0 PUSH2 0x1AE2 DUP3 PUSH2 0x1A7D JUMP JUMPDEST PUSH2 0x1AEC DUP2 DUP6 PUSH2 0x1A87 JUMP JUMPDEST SWAP4 POP PUSH2 0x1AF7 DUP4 PUSH2 0x1A97 JUMP JUMPDEST DUP1 PUSH0 JUMPDEST DUP4 DUP2 LT ISZERO PUSH2 0x1B27 JUMPI DUP2 MLOAD PUSH2 0x1B0E DUP9 DUP3 PUSH2 0x1AB5 JUMP JUMPDEST SWAP8 POP PUSH2 0x1B19 DUP4 PUSH2 0x1ACC JUMP JUMPDEST SWAP3 POP POP PUSH1 0x1 DUP2 ADD SWAP1 POP PUSH2 0x1AFA JUMP JUMPDEST POP DUP6 SWAP4 POP POP POP POP SWAP3 SWAP2 POP POP JUMP JUMPDEST PUSH0 PUSH1 0x20 DUP3 ADD SWAP1 POP DUP2 DUP2 SUB PUSH0 DUP4 ADD MSTORE PUSH2 0x1B4C DUP2 DUP5 PUSH2 0x1AD8 JUMP JUMPDEST SWAP1 POP SWAP3 SWAP2 POP POP JUMP JUMPDEST PUSH0 PUSH20 0xFFFFFFFFFFFFFFFFFFFFFFFFFFFFFFFFFFFFFFFF DUP3 AND SWAP1 POP SWAP2 SWAP1 POP JUMP JUMPDEST PUSH0 PUSH2 0x1B7D DUP3 PUSH2 0x1B54 JUMP JUMPDEST SWAP1 POP SWAP2 SWAP1 POP JUMP JUMPDEST PUSH2 0x1B8D DUP2 PUSH2 0x1B73 JUMP JUMPDEST DUP2 EQ PUSH2 0x1B97 JUMPI PUSH0 PUSH0 REVERT JUMPDEST POP JUMP JUMPDEST PUSH0 DUP2 CALLDATALOAD SWAP1 POP PUSH2 0x1BA8 DUP2 PUSH2 0x1B84 JUMP JUMPDEST SWAP3 SWAP2 POP POP JUMP JUMPDEST PUSH0 PUSH1 0x20 DUP3 DUP5 SUB SLT ISZERO PUSH2 0x1BC3 JUMPI PUSH2 0x1BC2 PUSH2 0x1742 JUMP JUMPDEST JUMPDEST PUSH0 PUSH2 0x1BD0 DUP5 DUP3 DUP6 ADD PUSH2 0x1B9A JUMP JUMPDEST SWAP2 POP POP SWAP3 SWAP2 POP POP JUMP JUMPDEST PUSH32 0x4E487B7100000000000000000000000000000000000000000000000000000000 PUSH0 MSTORE PUSH1 0x21 PUSH1 0x4 MSTORE PUSH1 0x24 PUSH0 REVERT JUMPDEST PUSH2 0x1C0F DUP2 PUSH2 0x1B73 JUMP JUMPDEST DUP3 MSTORE POP POP JUMP JUMPDEST PUSH0 PUSH1 0x60 DUP3 ADD SWAP1 POP PUSH2 0x1C28 PUSH0 DUP4 ADD DUP7 PUSH2 0x1C06 JUMP JUMPDEST PUSH2 0x1C35 PUSH1 0x20 DUP4 ADD DUP6 PUSH2 0x1C06 JUMP JUMPDEST PUSH2 0x1C42 PUSH1 0x40 DUP4 ADD DUP5 PUSH2 0x1997 JUMP JUMPDEST SWAP5 SWAP4 POP POP POP POP JUMP JUMPDEST PUSH32 0x4E487B7100000000000000000000000000000000000000000000000000000000 PUSH0 MSTORE PUSH1 0x32 PUSH1 0x4 MSTORE PUSH1 0x24 PUSH0 REVERT JUMPDEST PUSH32 0x4E487B7100000000000000000000000000000000000000000000000000000000 PUSH0 MSTORE PUSH1 0x11 PUSH1 0x4 MSTORE PUSH1 0x24 PUSH0 REVERT JUMPDEST PUSH0 PUSH2 0x1CAE DUP3 PUSH2 0x174A JUMP JUMPDEST SWAP2 POP PUSH2 0x1CB9 DUP4 PUSH2 0x174A JUMP JUMPDEST SWAP3 POP DUP3 DUP3 SUB SWAP1 POP DUP2 DUP2 GT ISZERO PUSH2 0x1CD1 JUMPI PUSH2 0x1CD0 PUSH2 0x1C77 JUMP JUMPDEST JUMPDEST SWAP3 SWAP2 POP POP JUMP JUMPDEST PUSH32 0x4E487B7100000000000000000000000000000000000000000000000000000000 PUSH0 MSTORE PUSH1 0x31 PUSH1 0x4 MSTORE PUSH1 0x24 PUSH0 REVERT JUMPDEST PUSH32 0x4E487B7100000000000000000000000000000000000000000000000000000000 PUSH0 MSTORE PUSH1 0x22 PUSH1 0x4 MSTORE PUSH1 0x24 PUSH0 REVERT JUMPDEST PUSH0 PUSH1 0x2 DUP3 DIV SWAP1 POP PUSH1 0x1 DUP3 AND DUP1 PUSH2 0x1D48 JUMPI PUSH1 0x7F DUP3 AND SWAP2 POP JUMPDEST PUSH1 0x20 DUP3 LT DUP2 SUB PUSH2 0x1D5B JUMPI PUSH2 0x1D5A PUSH2 0x1D04 JUMP JUMPDEST JUMPDEST POP SWAP2 SWAP1 POP JUMP JUMPDEST PUSH0 DUP2 SWAP1 POP DUP2 PUSH0 MSTORE PUSH1 0x20 PUSH0 KECCAK256 SWAP1 POP SWAP2 SWAP1 POP JUMP JUMPDEST PUSH0 PUSH1 0x20 PUSH1 0x1F DUP4 ADD DIV SWAP1 POP SWAP2 SWAP1 POP JUMP JUMPDEST PUSH0 DUP3 DUP3 SHL SWAP1 POP SWAP3 SWAP2 POP POP JUMP JUMPDEST PUSH0 PUSH1 0x8 DUP4 MUL PUSH2 0x1DBD PUSH32 0xFFFFFFFFFFFFFFFFFFFFFFFFFFFFFFFFFFFFFFFFFFFFFFFFFFFFFFFFFFFFFFFF DUP3 PUSH2 0x1D82 JUMP JUMPDEST PUSH2 0x1DC7 DUP7 DUP4 PUSH2 0x1D82 JUMP JUMPDEST SWAP6 POP DUP1 NOT DUP5 AND SWAP4 POP DUP1 DUP7 AND DUP5 OR SWAP3 POP POP POP SWAP4 SWAP3 POP POP POP JUMP JUMPDEST PUSH0 DUP2 SWAP1 POP SWAP2 SWAP1 POP JUMP JUMPDEST PUSH0 PUSH2 0x1E02 PUSH2 0x1DFD PUSH2 0x1DF8 DUP5 PUSH2 0x174A JUMP JUMPDEST PUSH2 0x1DDF JUMP JUMPDEST PUSH2 0x174A JUMP JUMPDEST SWAP1 POP SWAP2 SWAP1 POP JUMP JUMPDEST PUSH0 DUP2 SWAP1 POP SWAP2 SWAP1 POP JUMP JUMPDEST PUSH2 0x1E1B DUP4 PUSH2 0x1DE8 JUMP JUMPDEST PUSH2 0x1E2F PUSH2 0x1E27 DUP3 PUSH2 0x1E09 JUMP JUMPDEST DUP5 DUP5 SLOAD PUSH2 0x1D8E JUMP JUMPDEST DUP3 SSTORE POP POP POP POP JUMP JUMPDEST PUSH0 PUSH0 SWAP1 POP SWAP1 JUMP JUMPDEST PUSH2 0x1E46 PUSH2 0x1E37 JUMP JUMPDEST PUSH2 0x1E51 DUP2 DUP5 DUP5 PUSH2 0x1E12 JUMP JUMPDEST POP POP POP JUMP JUMPDEST JUMPDEST DUP2 DUP2 LT ISZERO PUSH2 0x1E74 JUMPI PUSH2 0x1E69 PUSH0 DUP3 PUSH2 0x1E3E JUMP JUMPDEST PUSH1 0x1 DUP2 ADD SWAP1 POP PUSH2 0x1E57 JUMP JUMPDEST POP POP JUMP JUMPDEST PUSH1 0x1F DUP3 GT ISZERO PUSH2 0x1EB9 JUMPI PUSH2 0x1E8A DUP2 PUSH2 0x1D61 JUMP JUMPDEST PUSH2 0x1E93 DUP5 PUSH2 0x1D73 JUMP JUMPDEST DUP2 ADD PUSH1 0x20 DUP6 LT ISZERO PUSH2 0x1EA2 JUMPI DUP2 SWAP1 POP JUMPDEST PUSH2 0x1EB6 PUSH2 0x1EAE DUP6 PUSH2 0x1D73 JUMP JUMPDEST DUP4 ADD DUP3 PUSH2 0x1E56 JUMP JUMPDEST POP POP JUMPDEST POP POP POP JUMP JUMPDEST PUSH0 DUP3 DUP3 SHR SWAP1 POP SWAP3 SWAP2 POP POP JUMP JUMPDEST PUSH0 PUSH2 0x1ED9 PUSH0 NOT DUP5 PUSH1 0x8 MUL PUSH2 0x1EBE JUMP JUMPDEST NOT DUP1 DUP4 AND SWAP2 POP POP SWAP3 SWAP2 POP POP JUMP JUMPDEST PUSH0 PUSH2 0x1EF1 DUP4 DUP4 PUSH2 0x1ECA JUMP JUMPDEST SWAP2 POP DUP3 PUSH1 0x2 MUL DUP3 OR SWAP1 POP SWAP3 SWAP2 POP POP JUMP JUMPDEST PUSH2 0x1F0A DUP3 PUSH2 0x19BF JUMP JUMPDEST PUSH8 0xFFFFFFFFFFFFFFFF DUP2 GT ISZERO PUSH2 0x1F23 JUMPI PUSH2 0x1F22 PUSH2 0x17F3 JUMP JUMPDEST JUMPDEST PUSH2 0x1F2D DUP3 SLOAD PUSH2 0x1D31 JUMP JUMPDEST PUSH2 0x1F38 DUP3 DUP3 DUP6 PUSH2 0x1E78 JUMP JUMPDEST PUSH0 PUSH1 0x20 SWAP1 POP PUSH1 0x1F DUP4 GT PUSH1 0x1 DUP2 EQ PUSH2 0x1F69 JUMPI PUSH0 DUP5 ISZERO PUSH2 0x1F57 JUMPI DUP3 DUP8 ADD MLOAD SWAP1 POP JUMPDEST PUSH2 0x1F61 DUP6 DUP3 PUSH2 0x1EE6 JUMP JUMPDEST DUP7 SSTORE POP PUSH2 0x1FC8 JUMP JUMPDEST PUSH1 0x1F NOT DUP5 AND PUSH2 0x1F77 DUP7 PUSH2 0x1D61 JUMP JUMPDEST PUSH0 JUMPDEST DUP3 DUP2 LT ISZERO PUSH2 0x1F9E JUMPI DUP5 DUP10 ADD MLOAD DUP3 SSTORE PUSH1 0x1 DUP3 ADD SWAP2 POP PUSH1 0x20 DUP6 ADD SWAP5 POP PUSH1 0x20 DUP2 ADD SWAP1 POP PUSH2 0x1F79 JUMP JUMPDEST DUP7 DUP4 LT ISZERO PUSH2 0x1FBB JUMPI DUP5 DUP10 ADD MLOAD PUSH2 0x1FB7 PUSH1 0x1F DUP10 AND DUP3 PUSH2 0x1ECA JUMP JUMPDEST DUP4 SSTORE POP JUMPDEST PUSH1 0x1 PUSH1 0x2 DUP9 MUL ADD DUP9 SSTORE POP POP POP JUMPDEST POP POP POP POP POP POP JUMP JUMPDEST PUSH0 PUSH2 0x1FDA DUP3 PUSH2 0x174A JUMP JUMPDEST SWAP2 POP PUSH2 0x1FE5 DUP4 PUSH2 0x174A JUMP JUMPDEST SWAP3 POP DUP3 DUP3 ADD SWAP1 POP DUP1 DUP3 GT ISZERO PUSH2 0x1FFD JUMPI PUSH2 0x1FFC PUSH2 0x1C77 JUMP JUMPDEST JUMPDEST SWAP3 SWAP2 POP POP JUMP JUMPDEST PUSH0 PUSH2 0x200D DUP3 PUSH2 0x174A JUMP JUMPDEST SWAP2 POP PUSH32 0xFFFFFFFFFFFFFFFFFFFFFFFFFFFFFFFFFFFFFFFFFFFFFFFFFFFFFFFFFFFFFFFF DUP3 SUB PUSH2 0x203F JUMPI PUSH2 0x203E PUSH2 0x1C77 JUMP JUMPDEST JUMPDEST PUSH1 0x1 DUP3 ADD SWAP1 POP SWAP2 SWAP1 POP JUMP JUMPDEST PUSH0 PUSH2 0x2054 DUP3 PUSH2 0x174A JUMP JUMPDEST SWAP2 POP PUSH0 DUP3 SUB PUSH2 0x2066 JUMPI PUSH2 0x2065 PUSH2 0x1C77 JUMP JUMPDEST JUMPDEST PUSH1 0x1 DUP3 SUB SWAP1 POP SWAP2 SWAP1 POP JUMP INVALID LOG2 PUSH5 0x6970667358 0x22 SLT KECCAK256 EXTCODECOPY 0x29 DUP7 PUSH14 0x27E21139A7D9CB2A3CD9C93E4B66 0xB6 0xD0 0xC3 0xA8 CALLCODE LOG2 PUSH28 0x88F9F256F530C064736F6C634300081E003300000000000000000000 "
				},
				"gasEstimates": {
					"creation": {
						"codeDepositCost": "1671800",
						"executionCost": "infinite",
						"totalCost": "infinite"
					},
					"external": {
						"bid(uint256,uint256)": "infinite",
						"completeAuction(uint256)": "infinite",
						"getDescription(uint256)": "infinite",
						"getListOfNftsBySeller(address)": "infinite",
						"getMinBid(uint256)": "infinite",
						"getNftsBidEndTime(uint256)": "infinite",
						"getNftsOnSale()": "infinite",
						"isNftOnSale(uint256)": "2869",
						"putNftOnSale(uint256,uint256,uint256,string)": "infinite"
					},
					"internal": {
						"_insertBider(uint256,uint256,address)": "infinite"
					}
				},
				"methodIdentifiers": {
					"bid(uint256,uint256)": "598647f8",
					"completeAuction(uint256)": "21b62886",
					"getDescription(uint256)": "4925ec55",
					"getListOfNftsBySeller(address)": "aacbc1d9",
					"getMinBid(uint256)": "7f21d498",
					"getNftsBidEndTime(uint256)": "48a51f72",
					"getNftsOnSale()": "75d1f140",
					"isNftOnSale(uint256)": "0faf0ea8",
					"putNftOnSale(uint256,uint256,uint256,string)": "48829126"
				}
			},
			"storageLayout": {
				"storage": [
					{
						"astId": 155,
						"contract": "CINFTVickreyAuction.sol:CINFTVickreyAuction",
						"label": "s_nftOnSale",
						"offset": 0,
						"slot": "0",
						"type": "t_array(t_uint256)dyn_storage"
					},
					{
						"astId": 160,
						"contract": "CINFTVickreyAuction.sol:CINFTVickreyAuction",
						"label": "s_biders",
						"offset": 0,
						"slot": "1",
						"type": "t_mapping(t_uint256,t_array(t_address)dyn_storage)"
					},
					{
						"astId": 165,
						"contract": "CINFTVickreyAuction.sol:CINFTVickreyAuction",
						"label": "s_bids",
						"offset": 0,
						"slot": "2",
						"type": "t_mapping(t_uint256,t_array(t_uint256)dyn_storage)"
					},
					{
						"astId": 169,
						"contract": "CINFTVickreyAuction.sol:CINFTVickreyAuction",
						"label": "s_minBid",
						"offset": 0,
						"slot": "3",
						"type": "t_mapping(t_uint256,t_uint256)"
					},
					{
						"astId": 174,
						"contract": "CINFTVickreyAuction.sol:CINFTVickreyAuction",
						"label": "s_nftStatus",
						"offset": 0,
						"slot": "4",
						"type": "t_mapping(t_uint256,t_enum(NftStatus)149)"
					},
					{
						"astId": 178,
						"contract": "CINFTVickreyAuction.sol:CINFTVickreyAuction",
						"label": "s_bidEndTime",
						"offset": 0,
						"slot": "5",
						"type": "t_mapping(t_uint256,t_uint256)"
					},
					{
						"astId": 182,
						"contract": "CINFTVickreyAuction.sol:CINFTVickreyAuction",
						"label": "s_seller",
						"offset": 0,
						"slot": "6",
						"type": "t_mapping(t_uint256,t_address)"
					},
					{
						"astId": 187,
						"contract": "CINFTVickreyAuction.sol:CINFTVickreyAuction",
						"label": "s_sellerToTokenIds",
						"offset": 0,
						"slot": "7",
						"type": "t_mapping(t_address,t_array(t_uint256)dyn_storage)"
					},
					{
						"astId": 191,
						"contract": "CINFTVickreyAuction.sol:CINFTVickreyAuction",
						"label": "s_description",
						"offset": 0,
						"slot": "8",
						"type": "t_mapping(t_uint256,t_string_storage)"
					}
				],
				"types": {
					"t_address": {
						"encoding": "inplace",
						"label": "address",
						"numberOfBytes": "20"
					},
					"t_array(t_address)dyn_storage": {
						"base": "t_address",
						"encoding": "dynamic_array",
						"label": "address[]",
						"numberOfBytes": "32"
					},
					"t_array(t_uint256)dyn_storage": {
						"base": "t_uint256",
						"encoding": "dynamic_array",
						"label": "uint256[]",
						"numberOfBytes": "32"
					},
					"t_enum(NftStatus)149": {
						"encoding": "inplace",
						"label": "enum CINFTVickreyAuction.NftStatus",
						"numberOfBytes": "1"
					},
					"t_mapping(t_address,t_array(t_uint256)dyn_storage)": {
						"encoding": "mapping",
						"key": "t_address",
						"label": "mapping(address => uint256[])",
						"numberOfBytes": "32",
						"value": "t_array(t_uint256)dyn_storage"
					},
					"t_mapping(t_uint256,t_address)": {
						"encoding": "mapping",
						"key": "t_uint256",
						"label": "mapping(uint256 => address)",
						"numberOfBytes": "32",
						"value": "t_address"
					},
					"t_mapping(t_uint256,t_array(t_address)dyn_storage)": {
						"encoding": "mapping",
						"key": "t_uint256",
						"label": "mapping(uint256 => address[])",
						"numberOfBytes": "32",
						"value": "t_array(t_address)dyn_storage"
					},
					"t_mapping(t_uint256,t_array(t_uint256)dyn_storage)": {
						"encoding": "mapping",
						"key": "t_uint256",
						"label": "mapping(uint256 => uint256[])",
						"numberOfBytes": "32",
						"value": "t_array(t_uint256)dyn_storage"
					},
					"t_mapping(t_uint256,t_enum(NftStatus)149)": {
						"encoding": "mapping",
						"key": "t_uint256",
						"label": "mapping(uint256 => enum CINFTVickreyAuction.NftStatus)",
						"numberOfBytes": "32",
						"value": "t_enum(NftStatus)149"
					},
					"t_mapping(t_uint256,t_string_storage)": {
						"encoding": "mapping",
						"key": "t_uint256",
						"label": "mapping(uint256 => string)",
						"numberOfBytes": "32",
						"value": "t_string_storage"
					},
					"t_mapping(t_uint256,t_uint256)": {
						"encoding": "mapping",
						"key": "t_uint256",
						"label": "mapping(uint256 => uint256)",
						"numberOfBytes": "32",
						"value": "t_uint256"
					},
					"t_string_storage": {
						"encoding": "bytes",
						"label": "string",
						"numberOfBytes": "32"
					},
					"t_uint256": {
						"encoding": "inplace",
						"label": "uint256",
						"numberOfBytes": "32"
					}
				}
			},
			"userdoc": {
				"kind": "user",
				"methods": {},
				"version": 1
			}
		}
	}
}