{
	"Legacy.sol": {
		"Legacy": {
			"abi": [
				{
					"inputs": [
						{
							"internalType": "address",
							"name": "_cinftContractAddress",
							"type": "address"
						}
					],
					"stateMutability": "nonpayable",
					"type": "constructor"
				},
				{
					"inputs": [],
					"name": "Legacy__InvalidNominee",
					"type": "error"
				},
				{
					"inputs": [],
					"name": "Legacy__NoNFTsToClaim",
					"type": "error"
				},
				{
					"inputs": [],
					"name": "Legacy__TheNFTReceivedIsNotFromTheDesiredCollection",
					"type": "error"
				},
				{
					"inputs": [],
					"name": "Legacy__TheNFTReceivedIsNotFromTheMinter",
					"type": "error"
				},
				{
					"inputs": [],
					"name": "Legacy__TheRefreshTimeHasNotPassed",
					"type": "error"
				},
				{
					"anonymous": false,
					"inputs": [
						{
							"indexed": true,
							"internalType": "address",
							"name": "subscriber",
							"type": "address"
						},
						{
							"indexed": false,
							"internalType": "address[]",
							"name": "nominees",
							"type": "address[]"
						}
					],
					"name": "Claimed",
					"type": "event"
				},
				{
					"inputs": [],
					"name": "REFRESH_TIME",
					"outputs": [
						{
							"internalType": "uint32",
							"name": "",
							"type": "uint32"
						}
					],
					"stateMutability": "view",
					"type": "function"
				},
				{
					"inputs": [
						{
							"internalType": "address",
							"name": "_subscriber",
							"type": "address"
						}
					],
					"name": "claim",
					"outputs": [],
					"stateMutability": "nonpayable",
					"type": "function"
				},
				{
					"inputs": [],
					"name": "getLastPingedTimeStamp",
					"outputs": [
						{
							"internalType": "uint256",
							"name": "",
							"type": "uint256"
						}
					],
					"stateMutability": "view",
					"type": "function"
				},
				{
					"inputs": [],
					"name": "i_cinft",
					"outputs": [
						{
							"internalType": "contract ICINFT",
							"name": "",
							"type": "address"
						}
					],
					"stateMutability": "view",
					"type": "function"
				},
				{
					"inputs": [
						{
							"internalType": "address",
							"name": "",
							"type": "address"
						},
						{
							"internalType": "address",
							"name": "from",
							"type": "address"
						},
						{
							"internalType": "uint256",
							"name": "tokenId",
							"type": "uint256"
						},
						{
							"internalType": "bytes",
							"name": "data",
							"type": "bytes"
						}
					],
					"name": "onERC721Received",
					"outputs": [
						{
							"internalType": "bytes4",
							"name": "",
							"type": "bytes4"
						}
					],
					"stateMutability": "nonpayable",
					"type": "function"
				},
				{
					"inputs": [],
					"name": "ping",
					"outputs": [],
					"stateMutability": "nonpayable",
					"type": "function"
				}
			],
			"devdoc": {
				"author": "Yug Agarwal",
				"details": "This contract helps NFT minters to will their NFTs to their nominees in case they forget to ping the contract within a year. The minter can send their NFT to this contract along with the nominee's address.                          .            .                                   .#                        +#####+---+###+#############+-                  -+###.                        +###+++####+##-+++++##+++##++####+-.         -+###+++                        +#########.-#+--+####++###- -########+---+++#####+++                        +#######+#+++--+####+-..-+-.###+++########+-++###++.                       +######.     +#-#####+-.-------+############+++####-                      +####++...     ########-++-        +##########++++++.                     -#######-+.    .########+++          -++######+++-                     #++########--+-+####++++-- . ..    .-#++--+##+####.                    -+++++++++#####---###---.----###+-+########..-+#++##-                    ++###+++++#####-..---.. .+##++++#++#++-+--.   .-++++#                   .###+.  .+#+-+###+ ..    +##+##+#++----...---.  .-+--+.                   ###+---------+####+   -####+-.......    ...--++.  .---.                  -#++++-----#######+-  .-+###+.... .....      .-+##-.  .                  ##+++###++######++-.   .--+---++---........  ...---.  .                 -####+-+#++###++-.        .--.--...-----.......--..... .                 +######+++###+--..---.....  ...---------------.. .. .  .                .-#########+#+++--++--------......----++--.--.  .--+---.                 -+++########++--++++----------------------.--+++--+++--            .######-.-++++###+----------------------..---++--++-+++---..            -##########-------+-----------------------+-++-++----..----+----+#####++--..            -#############+..  ..--..----------.....-+++++++++++++++++##################+.            --+++++#########+-   . ....  ....... -+++++++++++++++++++############-.----+##-            -----....-+#######+-             .. -+++++++++++++++++++++##+######+.       +++.            --------.....---+#####+--......----.+++++++++++++++++++++##+-+++##+.        -++-            -------...   .--++++++---.....-----.+++++++++++++++++++++++. -+++##-        .---            #################+--.....-------.  .+++++++++++++++++++++-       -+-.       .---            +#########++++-.. .......-+--..--++-++++++++++++++++++++-         .-... ....----            -#####++---..   .--       -+++-.  ..+++++++++++++++++++--        .-+-......-+---            +####+---...    -+#-   .  --++++-. .+++++++++++++++++++---        --        -+--            ++++++++++--....-++.--++--.--+++++-.+++++++++++++++++++---. .......         ----           .--++#########++-.--.+++++--++++###+-++++++++++++++++++++----   .-++-        ----            .-+#############+-.++#+-+-++#######-++++++++++++++++++++----   -++++-      ..---           .---+############+.+###++--++#####++-+++++++++++++++++++++-------++++-........-+-            --+-+##########-+######+++++-++++++-++++++++++++++++++++++-----.----.......---+-           .--+---#######..+#######+++++++--+++-+++++++++++++++++++++++-----------------+++-           .++--..-+##-.-########+++++---++ .+-.+++++++++++++++++++++++++++++++++++---+++++-           -+++. ..-..-+#########++-++--..--....+++++++++++++++++++++++++++++++++++++++++++-           -++-......-+++############++++----- .+++++++++++++++++++++++++++++++++++++++++++-           +##-.....---+#######+####+####+--++-.+++++++++++++++++++++++++++++++++++++++++++-          .#+++-...-++######++-+-----..----++##-+++++++++++++++++++++++++++++++++++++++++++-          .+++--------+##----+------+-..----+++-+++++++++++++++++++++++++++++++++++++++++++-           ----.-----+++-+-...------++-----...--+++++++++++++++++++++++++++++++++++++++++++-          .-..-.--.----..--.... ....++--.  ....-+++++++++++++++++++++++++++++++++++++++++++-           -----------.---..--..   ..+.  . ... .+++++++++++++++++++++++++++++++++++++++++++-         .+#+#+---####+-.    .....--...   .    .+++++++++++++++++++++++++++++++++++++++++++-         -+++++#++++++++.    ..-...--.. ..     .+++++++++++++++++++++++++++++++++++++++++++-         ++++++-------++--   . ....--.. . . .. .+++++++++++++++++++++++++-+----------...         -++++--++++.------......-- ...  ..  . .---------------...         -++-+####+++---..-.........           .....",
				"kind": "dev",
				"methods": {
					"claim(address)": {
						"params": {
							"_subscriber": "The address of the subscriber whose nominees are claiming the NFTs. Allows anyone to claim the NFTs on behalf of the nominees if the subscriber has not pinged within the REFRESH_TIME. It will be called automatically by the backend service also that will be keeping the note of the time."
						}
					},
					"constructor": {
						"details": "Sets the address of the CINFT contract.",
						"params": {
							"_cinftContractAddress": "The address of the CINFT contract."
						}
					},
					"getLastPingedTimeStamp()": {
						"details": "Returns the last pinged timestamp of the caller.",
						"returns": {
							"_0": "The last pinged timestamp."
						}
					},
					"onERC721Received(address,address,uint256,bytes)": {
						"details": "Handles the receipt of an NFT.",
						"params": {
							"data": "Additional data with no specified format. It constains the nominee's address only.",
							"from": "The address that previously owned the NFT.",
							"tokenId": "The ID of the NFT being transferred."
						},
						"returns": {
							"_0": "bytes4 A selector to confirm the callback execution. The user just have to safeTransferFrom their NFT to this contract with the nominee's address as data. and the nominee will be added here for him in this contract."
						}
					},
					"ping()": {
						"details": "Allows subscribers to update their last pinged time to the current block timestamp."
					}
				},
				"title": "Legacy contract",
				"version": 1
			},
			"evm": {
				"assembly": "    /* \"Legacy.sol\":4799:9265  contract Legacy is IERC721Receiver {... */\n  mstore(0x40, 0xa0)\n    /* \"Legacy.sol\":5797:5896  constructor(address _cinftContractAddress) {... */\n  callvalue\n  dup1\n  iszero\n  tag_1\n  jumpi\n  revert(0x00, 0x00)\ntag_1:\n  pop\n  mload(0x40)\n  sub(codesize, bytecodeSize)\n  dup1\n  bytecodeSize\n  dup4\n  codecopy\n  dup2\n  dup2\n  add\n  0x40\n  mstore\n  dup2\n  add\n  swap1\n  tag_2\n  swap2\n  swap1\n  tag_3\n  jump\t// in\ntag_2:\n    /* \"Legacy.sol\":5867:5888  _cinftContractAddress */\n  dup1\n    /* \"Legacy.sol\":5850:5889  i_cinft = ICINFT(_cinftContractAddress) */\n  0xffffffffffffffffffffffffffffffffffffffff\n  and\n  0x80\n  dup2\n  0xffffffffffffffffffffffffffffffffffffffff\n  and\n  dup2\n  mstore\n  pop\n  pop\n    /* \"Legacy.sol\":5797:5896  constructor(address _cinftContractAddress) {... */\n  pop\n    /* \"Legacy.sol\":4799:9265  contract Legacy is IERC721Receiver {... */\n  jump(tag_6)\n    /* \"#utility.yul\":88:205   */\ntag_8:\n    /* \"#utility.yul\":197:198   */\n  0x00\n    /* \"#utility.yul\":194:195   */\n  0x00\n    /* \"#utility.yul\":187:199   */\n  revert\n    /* \"#utility.yul\":334:460   */\ntag_10:\n    /* \"#utility.yul\":371:378   */\n  0x00\n    /* \"#utility.yul\":411:453   */\n  0xffffffffffffffffffffffffffffffffffffffff\n    /* \"#utility.yul\":404:409   */\n  dup3\n    /* \"#utility.yul\":400:454   */\n  and\n    /* \"#utility.yul\":389:454   */\n  swap1\n  pop\n    /* \"#utility.yul\":334:460   */\n  swap2\n  swap1\n  pop\n  jump\t// out\n    /* \"#utility.yul\":466:562   */\ntag_11:\n    /* \"#utility.yul\":503:510   */\n  0x00\n    /* \"#utility.yul\":532:556   */\n  tag_20\n    /* \"#utility.yul\":550:555   */\n  dup3\n    /* \"#utility.yul\":532:556   */\n  tag_10\n  jump\t// in\ntag_20:\n    /* \"#utility.yul\":521:556   */\n  swap1\n  pop\n    /* \"#utility.yul\":466:562   */\n  swap2\n  swap1\n  pop\n  jump\t// out\n    /* \"#utility.yul\":568:690   */\ntag_12:\n    /* \"#utility.yul\":641:665   */\n  tag_22\n    /* \"#utility.yul\":659:664   */\n  dup2\n    /* \"#utility.yul\":641:665   */\n  tag_11\n  jump\t// in\ntag_22:\n    /* \"#utility.yul\":634:639   */\n  dup2\n    /* \"#utility.yul\":631:666   */\n  eq\n    /* \"#utility.yul\":621:684   */\n  tag_23\n  jumpi\n    /* \"#utility.yul\":680:681   */\n  0x00\n    /* \"#utility.yul\":677:678   */\n  0x00\n    /* \"#utility.yul\":670:682   */\n  revert\n    /* \"#utility.yul\":621:684   */\ntag_23:\n    /* \"#utility.yul\":568:690   */\n  pop\n  jump\t// out\n    /* \"#utility.yul\":696:839   */\ntag_13:\n    /* \"#utility.yul\":753:758   */\n  0x00\n    /* \"#utility.yul\":784:790   */\n  dup2\n    /* \"#utility.yul\":778:791   */\n  mload\n    /* \"#utility.yul\":769:791   */\n  swap1\n  pop\n    /* \"#utility.yul\":800:833   */\n  tag_25\n    /* \"#utility.yul\":827:832   */\n  dup2\n    /* \"#utility.yul\":800:833   */\n  tag_12\n  jump\t// in\ntag_25:\n    /* \"#utility.yul\":696:839   */\n  swap3\n  swap2\n  pop\n  pop\n  jump\t// out\n    /* \"#utility.yul\":845:1196   */\ntag_3:\n    /* \"#utility.yul\":915:921   */\n  0x00\n    /* \"#utility.yul\":964:966   */\n  0x20\n    /* \"#utility.yul\":952:961   */\n  dup3\n    /* \"#utility.yul\":943:950   */\n  dup5\n    /* \"#utility.yul\":939:962   */\n  sub\n    /* \"#utility.yul\":935:967   */\n  slt\n    /* \"#utility.yul\":932:1051   */\n  iszero\n  tag_27\n  jumpi\n    /* \"#utility.yul\":970:1049   */\n  tag_28\n  tag_8\n  jump\t// in\ntag_28:\n    /* \"#utility.yul\":932:1051   */\ntag_27:\n    /* \"#utility.yul\":1090:1091   */\n  0x00\n    /* \"#utility.yul\":1115:1179   */\n  tag_29\n    /* \"#utility.yul\":1171:1178   */\n  dup5\n    /* \"#utility.yul\":1162:1168   */\n  dup3\n    /* \"#utility.yul\":1151:1160   */\n  dup6\n    /* \"#utility.yul\":1147:1169   */\n  add\n    /* \"#utility.yul\":1115:1179   */\n  tag_13\n  jump\t// in\ntag_29:\n    /* \"#utility.yul\":1105:1179   */\n  swap2\n  pop\n    /* \"#utility.yul\":1061:1189   */\n  pop\n    /* \"#utility.yul\":845:1196   */\n  swap3\n  swap2\n  pop\n  pop\n  jump\t// out\n    /* \"Legacy.sol\":4799:9265  contract Legacy is IERC721Receiver {... */\ntag_6:\n  mload(0x80)\n  codecopy(0x00, dataOffset(sub_0), dataSize(sub_0))\n  0x00\n  assignImmutable(\"0x6b5b33fd3ded2cf263edb232310f182d666aca7afaa45921be3c8956e7742d13\")\n  return(0x00, dataSize(sub_0))\nstop\n\nsub_0: assembly {\n        /* \"Legacy.sol\":4799:9265  contract Legacy is IERC721Receiver {... */\n      mstore(0x40, 0x80)\n      callvalue\n      dup1\n      iszero\n      tag_1\n      jumpi\n      revert(0x00, 0x00)\n    tag_1:\n      pop\n      jumpi(tag_2, lt(calldatasize, 0x04))\n      shr(0xe0, calldataload(0x00))\n      dup1\n      0x150b7a02\n      eq\n      tag_3\n      jumpi\n      dup1\n      0x1d88c8be\n      eq\n      tag_4\n      jumpi\n      dup1\n      0x1e83409a\n      eq\n      tag_5\n      jumpi\n      dup1\n      0x5c36b186\n      eq\n      tag_6\n      jumpi\n      dup1\n      0xd41af720\n      eq\n      tag_7\n      jumpi\n      dup1\n      0xe3187b30\n      eq\n      tag_8\n      jumpi\n    tag_2:\n      revert(0x00, 0x00)\n        /* \"Legacy.sol\":6422:7141  function onERC721Received(address, /* operator */ address from, uint256 tokenId, bytes calldata data)... */\n    tag_3:\n      tag_9\n      0x04\n      dup1\n      calldatasize\n      sub\n      dup2\n      add\n      swap1\n      tag_10\n      swap2\n      swap1\n      tag_11\n      jump\t// in\n    tag_10:\n      tag_12\n      jump\t// in\n    tag_9:\n      mload(0x40)\n      tag_13\n      swap2\n      swap1\n      tag_14\n      jump\t// in\n    tag_13:\n      mload(0x40)\n      dup1\n      swap2\n      sub\n      swap1\n      return\n        /* \"Legacy.sol\":9145:9263  function getLastPingedTimeStamp() external view returns (uint256) {... */\n    tag_4:\n      tag_15\n      tag_16\n      jump\t// in\n    tag_15:\n      mload(0x40)\n      tag_17\n      swap2\n      swap1\n      tag_18\n      jump\t// in\n    tag_17:\n      mload(0x40)\n      dup1\n      swap2\n      sub\n      swap1\n      return\n        /* \"Legacy.sol\":7701:8485  function claim(address _subscriber) public {... */\n    tag_5:\n      tag_19\n      0x04\n      dup1\n      calldatasize\n      sub\n      dup2\n      add\n      swap1\n      tag_20\n      swap2\n      swap1\n      tag_21\n      jump\t// in\n    tag_20:\n      tag_22\n      jump\t// in\n    tag_19:\n      stop\n        /* \"Legacy.sol\":7259:7345  function ping() public {... */\n    tag_6:\n      tag_23\n      tag_24\n      jump\t// in\n    tag_23:\n      stop\n        /* \"Legacy.sol\":5355:5411  uint32 public constant REFRESH_TIME = 365 days + 4 hours */\n    tag_7:\n      tag_25\n      tag_26\n      jump\t// in\n    tag_25:\n      mload(0x40)\n      tag_27\n      swap2\n      swap1\n      tag_28\n      jump\t// in\n    tag_27:\n      mload(0x40)\n      dup1\n      swap2\n      sub\n      swap1\n      return\n        /* \"Legacy.sol\":5461:5492  ICINFT public immutable i_cinft */\n    tag_8:\n      tag_29\n      tag_30\n      jump\t// in\n    tag_29:\n      mload(0x40)\n      tag_31\n      swap2\n      swap1\n      tag_32\n      jump\t// in\n    tag_31:\n      mload(0x40)\n      dup1\n      swap2\n      sub\n      swap1\n      return\n        /* \"Legacy.sol\":6422:7141  function onERC721Received(address, /* operator */ address from, uint256 tokenId, bytes calldata data)... */\n    tag_12:\n        /* \"Legacy.sol\":6575:6581  bytes4 */\n      0x00\n        /* \"Legacy.sol\":6623:6630  i_cinft */\n      immutable(\"0x6b5b33fd3ded2cf263edb232310f182d666aca7afaa45921be3c8956e7742d13\")\n        /* \"Legacy.sol\":6601:6631  msg.sender != address(i_cinft) */\n      0xffffffffffffffffffffffffffffffffffffffff\n      and\n        /* \"Legacy.sol\":6601:6611  msg.sender */\n      caller\n        /* \"Legacy.sol\":6601:6631  msg.sender != address(i_cinft) */\n      0xffffffffffffffffffffffffffffffffffffffff\n      and\n      eq\n        /* \"Legacy.sol\":6597:6693  if (msg.sender != address(i_cinft)) revert Legacy__TheNFTReceivedIsNotFromTheDesiredCollection() */\n      tag_34\n      jumpi\n        /* \"Legacy.sol\":6640:6693  Legacy__TheNFTReceivedIsNotFromTheDesiredCollection() */\n      mload(0x40)\n      0xc7ede59d00000000000000000000000000000000000000000000000000000000\n      dup2\n      mstore\n      0x04\n      add\n      mload(0x40)\n      dup1\n      swap2\n      sub\n      swap1\n      revert\n        /* \"Legacy.sol\":6597:6693  if (msg.sender != address(i_cinft)) revert Legacy__TheNFTReceivedIsNotFromTheDesiredCollection() */\n    tag_34:\n        /* \"Legacy.sol\":6737:6741  from */\n      dup5\n        /* \"Legacy.sol\":6707:6741  i_cinft.getMinter(tokenId) != from */\n      0xffffffffffffffffffffffffffffffffffffffff\n      and\n        /* \"Legacy.sol\":6707:6714  i_cinft */\n      immutable(\"0x6b5b33fd3ded2cf263edb232310f182d666aca7afaa45921be3c8956e7742d13\")\n        /* \"Legacy.sol\":6707:6724  i_cinft.getMinter */\n      0xffffffffffffffffffffffffffffffffffffffff\n      and\n      0x5b7121f8\n        /* \"Legacy.sol\":6725:6732  tokenId */\n      dup7\n        /* \"Legacy.sol\":6707:6733  i_cinft.getMinter(tokenId) */\n      mload(0x40)\n      dup3\n      0xffffffff\n      and\n      0xe0\n      shl\n      dup2\n      mstore\n      0x04\n      add\n      tag_35\n      swap2\n      swap1\n      tag_18\n      jump\t// in\n    tag_35:\n      0x20\n      mload(0x40)\n      dup1\n      dup4\n      sub\n      dup2\n      dup7\n      gas\n      staticcall\n      iszero\n      dup1\n      iszero\n      tag_37\n      jumpi\n      returndatacopy(0x00, 0x00, returndatasize)\n      revert(0x00, returndatasize)\n    tag_37:\n      pop\n      pop\n      pop\n      pop\n      mload(0x40)\n      returndatasize\n      not(0x1f)\n      0x1f\n      dup3\n      add\n      and\n      dup3\n      add\n      dup1\n      0x40\n      mstore\n      pop\n      dup2\n      add\n      swap1\n      tag_38\n      swap2\n      swap1\n      tag_39\n      jump\t// in\n    tag_38:\n        /* \"Legacy.sol\":6707:6741  i_cinft.getMinter(tokenId) != from */\n      0xffffffffffffffffffffffffffffffffffffffff\n      and\n      eq\n        /* \"Legacy.sol\":6703:6792  if (i_cinft.getMinter(tokenId) != from) revert Legacy__TheNFTReceivedIsNotFromTheMinter() */\n      tag_40\n      jumpi\n        /* \"Legacy.sol\":6750:6792  Legacy__TheNFTReceivedIsNotFromTheMinter() */\n      mload(0x40)\n      0x3fc4526100000000000000000000000000000000000000000000000000000000\n      dup2\n      mstore\n      0x04\n      add\n      mload(0x40)\n      dup1\n      swap2\n      sub\n      swap1\n      revert\n        /* \"Legacy.sol\":6703:6792  if (i_cinft.getMinter(tokenId) != from) revert Legacy__TheNFTReceivedIsNotFromTheMinter() */\n    tag_40:\n        /* \"Legacy.sol\":6803:6825  address nomineeAddress */\n      0x00\n        /* \"Legacy.sol\":6839:6843  data */\n      dup4\n      dup4\n        /* \"Legacy.sol\":6828:6855  abi.decode(data, (address)) */\n      dup2\n      add\n      swap1\n      tag_41\n      swap2\n      swap1\n      tag_42\n      jump\t// in\n    tag_41:\n        /* \"Legacy.sol\":6803:6855  address nomineeAddress = abi.decode(data, (address)) */\n      swap1\n      pop\n        /* \"Legacy.sol\":6895:6896  0 */\n      0x00\n        /* \"Legacy.sol\":6869:6897  nomineeAddress == address(0) */\n      0xffffffffffffffffffffffffffffffffffffffff\n      and\n        /* \"Legacy.sol\":6869:6883  nomineeAddress */\n      dup2\n        /* \"Legacy.sol\":6869:6897  nomineeAddress == address(0) */\n      0xffffffffffffffffffffffffffffffffffffffff\n      and\n      sub\n        /* \"Legacy.sol\":6865:6930  if (nomineeAddress == address(0)) revert Legacy__InvalidNominee() */\n      tag_43\n      jumpi\n        /* \"Legacy.sol\":6906:6930  Legacy__InvalidNominee() */\n      mload(0x40)\n      0x2b4a826a00000000000000000000000000000000000000000000000000000000\n      dup2\n      mstore\n      0x04\n      add\n      mload(0x40)\n      dup1\n      swap2\n      sub\n      swap1\n      revert\n        /* \"Legacy.sol\":6865:6930  if (nomineeAddress == address(0)) revert Legacy__InvalidNominee() */\n    tag_43:\n        /* \"Legacy.sol\":6959:7001  _addNominee(from, tokenId, nomineeAddress) */\n      tag_44\n        /* \"Legacy.sol\":6971:6975  from */\n      dup7\n        /* \"Legacy.sol\":6977:6984  tokenId */\n      dup7\n        /* \"Legacy.sol\":6986:7000  nomineeAddress */\n      dup4\n        /* \"Legacy.sol\":6959:6970  _addNominee */\n      tag_45\n        /* \"Legacy.sol\":6959:7001  _addNominee(from, tokenId, nomineeAddress) */\n      jump\t// in\n    tag_44:\n        /* \"Legacy.sol\":7093:7134  IERC721Receiver.onERC721Received.selector */\n      shl(0xe0, 0x150b7a02)\n        /* \"Legacy.sol\":7086:7134  return IERC721Receiver.onERC721Received.selector */\n      swap2\n      pop\n      pop\n        /* \"Legacy.sol\":6422:7141  function onERC721Received(address, /* operator */ address from, uint256 tokenId, bytes calldata data)... */\n      swap6\n      swap5\n      pop\n      pop\n      pop\n      pop\n      pop\n      jump\t// out\n        /* \"Legacy.sol\":9145:9263  function getLastPingedTimeStamp() external view returns (uint256) {... */\n    tag_16:\n        /* \"Legacy.sol\":9202:9209  uint256 */\n      0x00\n        /* \"Legacy.sol\":9228:9244  s_lastPingedTime */\n      0x02\n        /* \"Legacy.sol\":9228:9256  s_lastPingedTime[msg.sender] */\n      0x00\n        /* \"Legacy.sol\":9245:9255  msg.sender */\n      caller\n        /* \"Legacy.sol\":9228:9256  s_lastPingedTime[msg.sender] */\n      0xffffffffffffffffffffffffffffffffffffffff\n      and\n      0xffffffffffffffffffffffffffffffffffffffff\n      and\n      dup2\n      mstore\n      0x20\n      add\n      swap1\n      dup2\n      mstore\n      0x20\n      add\n      0x00\n      keccak256\n      sload\n        /* \"Legacy.sol\":9221:9256  return s_lastPingedTime[msg.sender] */\n      swap1\n      pop\n        /* \"Legacy.sol\":9145:9263  function getLastPingedTimeStamp() external view returns (uint256) {... */\n      swap1\n      jump\t// out\n        /* \"Legacy.sol\":7701:8485  function claim(address _subscriber) public {... */\n    tag_22:\n        /* \"Legacy.sol\":5393:5411  365 days + 4 hours */\n      0x01e16bc0\n        /* \"Legacy.sol\":7758:7820  block.timestamp - s_lastPingedTime[_subscriber] < REFRESH_TIME */\n      0xffffffff\n      and\n        /* \"Legacy.sol\":7776:7792  s_lastPingedTime */\n      0x02\n        /* \"Legacy.sol\":7776:7805  s_lastPingedTime[_subscriber] */\n      0x00\n        /* \"Legacy.sol\":7793:7804  _subscriber */\n      dup4\n        /* \"Legacy.sol\":7776:7805  s_lastPingedTime[_subscriber] */\n      0xffffffffffffffffffffffffffffffffffffffff\n      and\n      0xffffffffffffffffffffffffffffffffffffffff\n      and\n      dup2\n      mstore\n      0x20\n      add\n      swap1\n      dup2\n      mstore\n      0x20\n      add\n      0x00\n      keccak256\n      sload\n        /* \"Legacy.sol\":7758:7773  block.timestamp */\n      timestamp\n        /* \"Legacy.sol\":7758:7805  block.timestamp - s_lastPingedTime[_subscriber] */\n      tag_48\n      swap2\n      swap1\n      tag_49\n      jump\t// in\n    tag_48:\n        /* \"Legacy.sol\":7758:7820  block.timestamp - s_lastPingedTime[_subscriber] < REFRESH_TIME */\n      lt\n        /* \"Legacy.sol\":7754:7865  if (block.timestamp - s_lastPingedTime[_subscriber] < REFRESH_TIME) revert Legacy__TheRefreshTimeHasNotPassed() */\n      iszero\n      tag_50\n      jumpi\n        /* \"Legacy.sol\":7829:7865  Legacy__TheRefreshTimeHasNotPassed() */\n      mload(0x40)\n      0x6cd3ceb600000000000000000000000000000000000000000000000000000000\n      dup2\n      mstore\n      0x04\n      add\n      mload(0x40)\n      dup1\n      swap2\n      sub\n      swap1\n      revert\n        /* \"Legacy.sol\":7754:7865  if (block.timestamp - s_lastPingedTime[_subscriber] < REFRESH_TIME) revert Legacy__TheRefreshTimeHasNotPassed() */\n    tag_50:\n        /* \"Legacy.sol\":7876:7901  uint256[] memory tokenIds */\n      0x00\n        /* \"Legacy.sol\":7904:7927  s_subscribersToTokenIds */\n      0x01\n        /* \"Legacy.sol\":7904:7940  s_subscribersToTokenIds[_subscriber] */\n      0x00\n        /* \"Legacy.sol\":7928:7939  _subscriber */\n      dup4\n        /* \"Legacy.sol\":7904:7940  s_subscribersToTokenIds[_subscriber] */\n      0xffffffffffffffffffffffffffffffffffffffff\n      and\n      0xffffffffffffffffffffffffffffffffffffffff\n      and\n      dup2\n      mstore\n      0x20\n      add\n      swap1\n      dup2\n      mstore\n      0x20\n      add\n      0x00\n      keccak256\n        /* \"Legacy.sol\":7876:7940  uint256[] memory tokenIds = s_subscribersToTokenIds[_subscriber] */\n      dup1\n      sload\n      dup1\n      0x20\n      mul\n      0x20\n      add\n      mload(0x40)\n      swap1\n      dup2\n      add\n      0x40\n      mstore\n      dup1\n      swap3\n      swap2\n      swap1\n      dup2\n      dup2\n      mstore\n      0x20\n      add\n      dup3\n      dup1\n      sload\n      dup1\n      iszero\n      tag_51\n      jumpi\n      0x20\n      mul\n      dup3\n      add\n      swap2\n      swap1\n      0x00\n      mstore\n      keccak256(0x00, 0x20)\n      swap1\n    tag_52:\n      dup2\n      sload\n      dup2\n      mstore\n      0x20\n      add\n      swap1\n      0x01\n      add\n      swap1\n      dup1\n      dup4\n      gt\n      tag_52\n      jumpi\n    tag_51:\n      pop\n      pop\n      pop\n      pop\n      pop\n      swap1\n      pop\n        /* \"Legacy.sol\":7974:7975  0 */\n      0x00\n        /* \"Legacy.sol\":7955:7963  tokenIds */\n      dup2\n        /* \"Legacy.sol\":7955:7970  tokenIds.length */\n      mload\n        /* \"Legacy.sol\":7955:7975  tokenIds.length == 0 */\n      sub\n        /* \"Legacy.sol\":7951:8007  if (tokenIds.length == 0) revert Legacy__NoNFTsToClaim() */\n      tag_53\n      jumpi\n        /* \"Legacy.sol\":7984:8007  Legacy__NoNFTsToClaim() */\n      mload(0x40)\n      0x2375694800000000000000000000000000000000000000000000000000000000\n      dup2\n      mstore\n      0x04\n      add\n      mload(0x40)\n      dup1\n      swap2\n      sub\n      swap1\n      revert\n        /* \"Legacy.sol\":7951:8007  if (tokenIds.length == 0) revert Legacy__NoNFTsToClaim() */\n    tag_53:\n        /* \"Legacy.sol\":8018:8043  address[] memory nominees */\n      0x00\n        /* \"Legacy.sol\":8046:8069  s_subscribersToNominees */\n      0x00\n        /* \"Legacy.sol\":8046:8082  s_subscribersToNominees[_subscriber] */\n      0x00\n        /* \"Legacy.sol\":8070:8081  _subscriber */\n      dup5\n        /* \"Legacy.sol\":8046:8082  s_subscribersToNominees[_subscriber] */\n      0xffffffffffffffffffffffffffffffffffffffff\n      and\n      0xffffffffffffffffffffffffffffffffffffffff\n      and\n      dup2\n      mstore\n      0x20\n      add\n      swap1\n      dup2\n      mstore\n      0x20\n      add\n      0x00\n      keccak256\n        /* \"Legacy.sol\":8018:8082  address[] memory nominees = s_subscribersToNominees[_subscriber] */\n      dup1\n      sload\n      dup1\n      0x20\n      mul\n      0x20\n      add\n      mload(0x40)\n      swap1\n      dup2\n      add\n      0x40\n      mstore\n      dup1\n      swap3\n      swap2\n      swap1\n      dup2\n      dup2\n      mstore\n      0x20\n      add\n      dup3\n      dup1\n      sload\n      dup1\n      iszero\n      tag_54\n      jumpi\n      0x20\n      mul\n      dup3\n      add\n      swap2\n      swap1\n      0x00\n      mstore\n      keccak256(0x00, 0x20)\n      swap1\n    tag_55:\n      dup2\n      0x00\n      swap1\n      sload\n      swap1\n      0x0100\n      exp\n      swap1\n      div\n      0xffffffffffffffffffffffffffffffffffffffff\n      and\n      0xffffffffffffffffffffffffffffffffffffffff\n      and\n      dup2\n      mstore\n      0x20\n      add\n      swap1\n      0x01\n      add\n      swap1\n      dup1\n      dup4\n      gt\n      tag_55\n      jumpi\n    tag_54:\n      pop\n      pop\n      pop\n      pop\n      pop\n      swap1\n      pop\n        /* \"Legacy.sol\":8098:8107  uint256 i */\n      0x00\n        /* \"Legacy.sol\":8110:8111  0 */\n      0x00\n        /* \"Legacy.sol\":8098:8111  uint256 i = 0 */\n      swap1\n      pop\n        /* \"Legacy.sol\":8093:8247  for (uint256 i = 0; i < tokenIds.length; i++) {... */\n    tag_56:\n        /* \"Legacy.sol\":8117:8125  tokenIds */\n      dup3\n        /* \"Legacy.sol\":8117:8132  tokenIds.length */\n      mload\n        /* \"Legacy.sol\":8113:8114  i */\n      dup2\n        /* \"Legacy.sol\":8113:8132  i < tokenIds.length */\n      lt\n        /* \"Legacy.sol\":8093:8247  for (uint256 i = 0; i < tokenIds.length; i++) {... */\n      iszero\n      tag_57\n      jumpi\n        /* \"Legacy.sol\":8169:8176  i_cinft */\n      immutable(\"0x6b5b33fd3ded2cf263edb232310f182d666aca7afaa45921be3c8956e7742d13\")\n        /* \"Legacy.sol\":8153:8195  IERC721(address(i_cinft)).safeTransferFrom */\n      0xffffffffffffffffffffffffffffffffffffffff\n      and\n      0x42842e0e\n        /* \"Legacy.sol\":8204:8208  this */\n      address\n        /* \"Legacy.sol\":8211:8219  nominees */\n      dup5\n        /* \"Legacy.sol\":8220:8221  i */\n      dup5\n        /* \"Legacy.sol\":8211:8222  nominees[i] */\n      dup2\n      mload\n      dup2\n      lt\n      tag_59\n      jumpi\n      tag_60\n      tag_61\n      jump\t// in\n    tag_60:\n    tag_59:\n      0x20\n      mul\n      0x20\n      add\n      add\n      mload\n        /* \"Legacy.sol\":8224:8232  tokenIds */\n      dup7\n        /* \"Legacy.sol\":8233:8234  i */\n      dup6\n        /* \"Legacy.sol\":8224:8235  tokenIds[i] */\n      dup2\n      mload\n      dup2\n      lt\n      tag_62\n      jumpi\n      tag_63\n      tag_61\n      jump\t// in\n    tag_63:\n    tag_62:\n      0x20\n      mul\n      0x20\n      add\n      add\n      mload\n        /* \"Legacy.sol\":8153:8236  IERC721(address(i_cinft)).safeTransferFrom(address(this), nominees[i], tokenIds[i]) */\n      mload(0x40)\n      dup5\n      0xffffffff\n      and\n      0xe0\n      shl\n      dup2\n      mstore\n      0x04\n      add\n      tag_64\n      swap4\n      swap3\n      swap2\n      swap1\n      tag_65\n      jump\t// in\n    tag_64:\n      0x00\n      mload(0x40)\n      dup1\n      dup4\n      sub\n      dup2\n      0x00\n      dup8\n      dup1\n      extcodesize\n      iszero\n      dup1\n      iszero\n      tag_66\n      jumpi\n      revert(0x00, 0x00)\n    tag_66:\n      pop\n      gas\n      call\n      iszero\n      dup1\n      iszero\n      tag_68\n      jumpi\n      returndatacopy(0x00, 0x00, returndatasize)\n      revert(0x00, returndatasize)\n    tag_68:\n      pop\n      pop\n      pop\n      pop\n        /* \"Legacy.sol\":8134:8137  i++ */\n      dup1\n      dup1\n      0x01\n      add\n      swap2\n      pop\n      pop\n        /* \"Legacy.sol\":8093:8247  for (uint256 i = 0; i < tokenIds.length; i++) {... */\n      jump(tag_56)\n    tag_57:\n      pop\n        /* \"Legacy.sol\":8297:8320  s_subscribersToNominees */\n      0x00\n        /* \"Legacy.sol\":8297:8333  s_subscribersToNominees[_subscriber] */\n      0x00\n        /* \"Legacy.sol\":8321:8332  _subscriber */\n      dup5\n        /* \"Legacy.sol\":8297:8333  s_subscribersToNominees[_subscriber] */\n      0xffffffffffffffffffffffffffffffffffffffff\n      and\n      0xffffffffffffffffffffffffffffffffffffffff\n      and\n      dup2\n      mstore\n      0x20\n      add\n      swap1\n      dup2\n      mstore\n      0x20\n      add\n      0x00\n      keccak256\n      0x00\n        /* \"Legacy.sol\":8290:8333  delete s_subscribersToNominees[_subscriber] */\n      tag_69\n      swap2\n      swap1\n      tag_70\n      jump\t// in\n    tag_69:\n        /* \"Legacy.sol\":8350:8373  s_subscribersToTokenIds */\n      0x01\n        /* \"Legacy.sol\":8350:8386  s_subscribersToTokenIds[_subscriber] */\n      0x00\n        /* \"Legacy.sol\":8374:8385  _subscriber */\n      dup5\n        /* \"Legacy.sol\":8350:8386  s_subscribersToTokenIds[_subscriber] */\n      0xffffffffffffffffffffffffffffffffffffffff\n      and\n      0xffffffffffffffffffffffffffffffffffffffff\n      and\n      dup2\n      mstore\n      0x20\n      add\n      swap1\n      dup2\n      mstore\n      0x20\n      add\n      0x00\n      keccak256\n      0x00\n        /* \"Legacy.sol\":8343:8386  delete s_subscribersToTokenIds[_subscriber] */\n      tag_71\n      swap2\n      swap1\n      tag_72\n      jump\t// in\n    tag_71:\n        /* \"Legacy.sol\":8403:8419  s_lastPingedTime */\n      0x02\n        /* \"Legacy.sol\":8403:8432  s_lastPingedTime[_subscriber] */\n      0x00\n        /* \"Legacy.sol\":8420:8431  _subscriber */\n      dup5\n        /* \"Legacy.sol\":8403:8432  s_lastPingedTime[_subscriber] */\n      0xffffffffffffffffffffffffffffffffffffffff\n      and\n      0xffffffffffffffffffffffffffffffffffffffff\n      and\n      dup2\n      mstore\n      0x20\n      add\n      swap1\n      dup2\n      mstore\n      0x20\n      add\n      0x00\n      keccak256\n        /* \"Legacy.sol\":8396:8432  delete s_lastPingedTime[_subscriber] */\n      0x00\n      swap1\n      sstore\n        /* \"Legacy.sol\":8456:8467  _subscriber */\n      dup3\n        /* \"Legacy.sol\":8448:8478  Claimed(_subscriber, nominees) */\n      0xffffffffffffffffffffffffffffffffffffffff\n      and\n      0x1c3938175cae854e0d6cf1063f86f274e6c61e013bb38a9e73268defa5d0b34b\n        /* \"Legacy.sol\":8469:8477  nominees */\n      dup3\n        /* \"Legacy.sol\":8448:8478  Claimed(_subscriber, nominees) */\n      mload(0x40)\n      tag_73\n      swap2\n      swap1\n      tag_74\n      jump\t// in\n    tag_73:\n      mload(0x40)\n      dup1\n      swap2\n      sub\n      swap1\n      log2\n        /* \"Legacy.sol\":7744:8485  {... */\n      pop\n      pop\n        /* \"Legacy.sol\":7701:8485  function claim(address _subscriber) public {... */\n      pop\n      jump\t// out\n        /* \"Legacy.sol\":7259:7345  function ping() public {... */\n    tag_24:\n        /* \"Legacy.sol\":7323:7338  block.timestamp */\n      timestamp\n        /* \"Legacy.sol\":7292:7308  s_lastPingedTime */\n      0x02\n        /* \"Legacy.sol\":7292:7320  s_lastPingedTime[msg.sender] */\n      0x00\n        /* \"Legacy.sol\":7309:7319  msg.sender */\n      caller\n        /* \"Legacy.sol\":7292:7320  s_lastPingedTime[msg.sender] */\n      0xffffffffffffffffffffffffffffffffffffffff\n      and\n      0xffffffffffffffffffffffffffffffffffffffff\n      and\n      dup2\n      mstore\n      0x20\n      add\n      swap1\n      dup2\n      mstore\n      0x20\n      add\n      0x00\n      keccak256\n        /* \"Legacy.sol\":7292:7338  s_lastPingedTime[msg.sender] = block.timestamp */\n      dup2\n      swap1\n      sstore\n      pop\n        /* \"Legacy.sol\":7259:7345  function ping() public {... */\n      jump\t// out\n        /* \"Legacy.sol\":5355:5411  uint32 public constant REFRESH_TIME = 365 days + 4 hours */\n    tag_26:\n        /* \"Legacy.sol\":5393:5411  365 days + 4 hours */\n      0x01e16bc0\n        /* \"Legacy.sol\":5355:5411  uint32 public constant REFRESH_TIME = 365 days + 4 hours */\n      dup2\n      jump\t// out\n        /* \"Legacy.sol\":5461:5492  ICINFT public immutable i_cinft */\n    tag_30:\n      immutable(\"0x6b5b33fd3ded2cf263edb232310f182d666aca7afaa45921be3c8956e7742d13\")\n      dup2\n      jump\t// out\n        /* \"Legacy.sol\":8749:9020  function _addNominee(address _minter, uint256 _tokenId, address _nomineeAddress) internal {... */\n    tag_45:\n        /* \"Legacy.sol\":8849:8872  s_subscribersToTokenIds */\n      0x01\n        /* \"Legacy.sol\":8849:8881  s_subscribersToTokenIds[_minter] */\n      0x00\n        /* \"Legacy.sol\":8873:8880  _minter */\n      dup5\n        /* \"Legacy.sol\":8849:8881  s_subscribersToTokenIds[_minter] */\n      0xffffffffffffffffffffffffffffffffffffffff\n      and\n      0xffffffffffffffffffffffffffffffffffffffff\n      and\n      dup2\n      mstore\n      0x20\n      add\n      swap1\n      dup2\n      mstore\n      0x20\n      add\n      0x00\n      keccak256\n        /* \"Legacy.sol\":8887:8895  _tokenId */\n      dup3\n        /* \"Legacy.sol\":8849:8896  s_subscribersToTokenIds[_minter].push(_tokenId) */\n      swap1\n      dup1\n      0x01\n      dup2\n      sload\n      add\n      dup1\n      dup3\n      sstore\n      dup1\n      swap2\n      pop\n      pop\n      0x01\n      swap1\n      sub\n      swap1\n      0x00\n      mstore\n      keccak256(0x00, 0x20)\n      add\n      0x00\n      swap1\n      swap2\n      swap1\n      swap2\n      swap1\n      swap2\n      pop\n      sstore\n        /* \"Legacy.sol\":8906:8929  s_subscribersToNominees */\n      0x00\n        /* \"Legacy.sol\":8906:8938  s_subscribersToNominees[_minter] */\n      0x00\n        /* \"Legacy.sol\":8930:8937  _minter */\n      dup5\n        /* \"Legacy.sol\":8906:8938  s_subscribersToNominees[_minter] */\n      0xffffffffffffffffffffffffffffffffffffffff\n      and\n      0xffffffffffffffffffffffffffffffffffffffff\n      and\n      dup2\n      mstore\n      0x20\n      add\n      swap1\n      dup2\n      mstore\n      0x20\n      add\n      0x00\n      keccak256\n        /* \"Legacy.sol\":8944:8959  _nomineeAddress */\n      dup2\n        /* \"Legacy.sol\":8906:8960  s_subscribersToNominees[_minter].push(_nomineeAddress) */\n      swap1\n      dup1\n      0x01\n      dup2\n      sload\n      add\n      dup1\n      dup3\n      sstore\n      dup1\n      swap2\n      pop\n      pop\n      0x01\n      swap1\n      sub\n      swap1\n      0x00\n      mstore\n      keccak256(0x00, 0x20)\n      add\n      0x00\n      swap1\n      swap2\n      swap1\n      swap2\n      swap1\n      swap2\n      0x0100\n      exp\n      dup2\n      sload\n      dup2\n      0xffffffffffffffffffffffffffffffffffffffff\n      mul\n      not\n      and\n      swap1\n      dup4\n      0xffffffffffffffffffffffffffffffffffffffff\n      and\n      mul\n      or\n      swap1\n      sstore\n      pop\n        /* \"Legacy.sol\":8998:9013  block.timestamp */\n      timestamp\n        /* \"Legacy.sol\":8970:8986  s_lastPingedTime */\n      0x02\n        /* \"Legacy.sol\":8970:8995  s_lastPingedTime[_minter] */\n      0x00\n        /* \"Legacy.sol\":8987:8994  _minter */\n      dup6\n        /* \"Legacy.sol\":8970:8995  s_lastPingedTime[_minter] */\n      0xffffffffffffffffffffffffffffffffffffffff\n      and\n      0xffffffffffffffffffffffffffffffffffffffff\n      and\n      dup2\n      mstore\n      0x20\n      add\n      swap1\n      dup2\n      mstore\n      0x20\n      add\n      0x00\n      keccak256\n        /* \"Legacy.sol\":8970:9013  s_lastPingedTime[_minter] = block.timestamp */\n      dup2\n      swap1\n      sstore\n      pop\n        /* \"Legacy.sol\":8749:9020  function _addNominee(address _minter, uint256 _tokenId, address _nomineeAddress) internal {... */\n      pop\n      pop\n      pop\n      jump\t// out\n    tag_70:\n      pop\n      dup1\n      sload\n      0x00\n      dup3\n      sstore\n      swap1\n      0x00\n      mstore\n      keccak256(0x00, 0x20)\n      swap1\n      dup2\n      add\n      swap1\n      tag_80\n      swap2\n      swap1\n      tag_81\n      jump\t// in\n    tag_80:\n      pop\n      jump\t// out\n    tag_72:\n      pop\n      dup1\n      sload\n      0x00\n      dup3\n      sstore\n      swap1\n      0x00\n      mstore\n      keccak256(0x00, 0x20)\n      swap1\n      dup2\n      add\n      swap1\n      tag_83\n      swap2\n      swap1\n      tag_81\n      jump\t// in\n    tag_83:\n      pop\n      jump\t// out\n    tag_81:\n    tag_84:\n      dup1\n      dup3\n      gt\n      iszero\n      tag_85\n      jumpi\n      0x00\n      dup2\n      0x00\n      swap1\n      sstore\n      pop\n      0x01\n      add\n      jump(tag_84)\n    tag_85:\n      pop\n      swap1\n      jump\t// out\n        /* \"#utility.yul\":88:205   */\n    tag_87:\n        /* \"#utility.yul\":197:198   */\n      0x00\n        /* \"#utility.yul\":194:195   */\n      0x00\n        /* \"#utility.yul\":187:199   */\n      revert\n        /* \"#utility.yul\":211:328   */\n    tag_88:\n        /* \"#utility.yul\":320:321   */\n      0x00\n        /* \"#utility.yul\":317:318   */\n      0x00\n        /* \"#utility.yul\":310:322   */\n      revert\n        /* \"#utility.yul\":334:460   */\n    tag_89:\n        /* \"#utility.yul\":371:378   */\n      0x00\n        /* \"#utility.yul\":411:453   */\n      0xffffffffffffffffffffffffffffffffffffffff\n        /* \"#utility.yul\":404:409   */\n      dup3\n        /* \"#utility.yul\":400:454   */\n      and\n        /* \"#utility.yul\":389:454   */\n      swap1\n      pop\n        /* \"#utility.yul\":334:460   */\n      swap2\n      swap1\n      pop\n      jump\t// out\n        /* \"#utility.yul\":466:562   */\n    tag_90:\n        /* \"#utility.yul\":503:510   */\n      0x00\n        /* \"#utility.yul\":532:556   */\n      tag_129\n        /* \"#utility.yul\":550:555   */\n      dup3\n        /* \"#utility.yul\":532:556   */\n      tag_89\n      jump\t// in\n    tag_129:\n        /* \"#utility.yul\":521:556   */\n      swap1\n      pop\n        /* \"#utility.yul\":466:562   */\n      swap2\n      swap1\n      pop\n      jump\t// out\n        /* \"#utility.yul\":568:690   */\n    tag_91:\n        /* \"#utility.yul\":641:665   */\n      tag_131\n        /* \"#utility.yul\":659:664   */\n      dup2\n        /* \"#utility.yul\":641:665   */\n      tag_90\n      jump\t// in\n    tag_131:\n        /* \"#utility.yul\":634:639   */\n      dup2\n        /* \"#utility.yul\":631:666   */\n      eq\n        /* \"#utility.yul\":621:684   */\n      tag_132\n      jumpi\n        /* \"#utility.yul\":680:681   */\n      0x00\n        /* \"#utility.yul\":677:678   */\n      0x00\n        /* \"#utility.yul\":670:682   */\n      revert\n        /* \"#utility.yul\":621:684   */\n    tag_132:\n        /* \"#utility.yul\":568:690   */\n      pop\n      jump\t// out\n        /* \"#utility.yul\":696:835   */\n    tag_92:\n        /* \"#utility.yul\":742:747   */\n      0x00\n        /* \"#utility.yul\":780:786   */\n      dup2\n        /* \"#utility.yul\":767:787   */\n      calldataload\n        /* \"#utility.yul\":758:787   */\n      swap1\n      pop\n        /* \"#utility.yul\":796:829   */\n      tag_134\n        /* \"#utility.yul\":823:828   */\n      dup2\n        /* \"#utility.yul\":796:829   */\n      tag_91\n      jump\t// in\n    tag_134:\n        /* \"#utility.yul\":696:835   */\n      swap3\n      swap2\n      pop\n      pop\n      jump\t// out\n        /* \"#utility.yul\":841:918   */\n    tag_93:\n        /* \"#utility.yul\":878:885   */\n      0x00\n        /* \"#utility.yul\":907:912   */\n      dup2\n        /* \"#utility.yul\":896:912   */\n      swap1\n      pop\n        /* \"#utility.yul\":841:918   */\n      swap2\n      swap1\n      pop\n      jump\t// out\n        /* \"#utility.yul\":924:1046   */\n    tag_94:\n        /* \"#utility.yul\":997:1021   */\n      tag_137\n        /* \"#utility.yul\":1015:1020   */\n      dup2\n        /* \"#utility.yul\":997:1021   */\n      tag_93\n      jump\t// in\n    tag_137:\n        /* \"#utility.yul\":990:995   */\n      dup2\n        /* \"#utility.yul\":987:1022   */\n      eq\n        /* \"#utility.yul\":977:1040   */\n      tag_138\n      jumpi\n        /* \"#utility.yul\":1036:1037   */\n      0x00\n        /* \"#utility.yul\":1033:1034   */\n      0x00\n        /* \"#utility.yul\":1026:1038   */\n      revert\n        /* \"#utility.yul\":977:1040   */\n    tag_138:\n        /* \"#utility.yul\":924:1046   */\n      pop\n      jump\t// out\n        /* \"#utility.yul\":1052:1191   */\n    tag_95:\n        /* \"#utility.yul\":1098:1103   */\n      0x00\n        /* \"#utility.yul\":1136:1142   */\n      dup2\n        /* \"#utility.yul\":1123:1143   */\n      calldataload\n        /* \"#utility.yul\":1114:1143   */\n      swap1\n      pop\n        /* \"#utility.yul\":1152:1185   */\n      tag_140\n        /* \"#utility.yul\":1179:1184   */\n      dup2\n        /* \"#utility.yul\":1152:1185   */\n      tag_94\n      jump\t// in\n    tag_140:\n        /* \"#utility.yul\":1052:1191   */\n      swap3\n      swap2\n      pop\n      pop\n      jump\t// out\n        /* \"#utility.yul\":1197:1314   */\n    tag_96:\n        /* \"#utility.yul\":1306:1307   */\n      0x00\n        /* \"#utility.yul\":1303:1304   */\n      0x00\n        /* \"#utility.yul\":1296:1308   */\n      revert\n        /* \"#utility.yul\":1320:1437   */\n    tag_97:\n        /* \"#utility.yul\":1429:1430   */\n      0x00\n        /* \"#utility.yul\":1426:1427   */\n      0x00\n        /* \"#utility.yul\":1419:1431   */\n      revert\n        /* \"#utility.yul\":1443:1560   */\n    tag_98:\n        /* \"#utility.yul\":1552:1553   */\n      0x00\n        /* \"#utility.yul\":1549:1550   */\n      0x00\n        /* \"#utility.yul\":1542:1554   */\n      revert\n        /* \"#utility.yul\":1579:2131   */\n    tag_99:\n        /* \"#utility.yul\":1636:1644   */\n      0x00\n        /* \"#utility.yul\":1646:1652   */\n      0x00\n        /* \"#utility.yul\":1696:1699   */\n      dup4\n        /* \"#utility.yul\":1689:1693   */\n      0x1f\n        /* \"#utility.yul\":1681:1687   */\n      dup5\n        /* \"#utility.yul\":1677:1694   */\n      add\n        /* \"#utility.yul\":1673:1700   */\n      slt\n        /* \"#utility.yul\":1663:1785   */\n      tag_145\n      jumpi\n        /* \"#utility.yul\":1704:1783   */\n      tag_146\n      tag_96\n      jump\t// in\n    tag_146:\n        /* \"#utility.yul\":1663:1785   */\n    tag_145:\n        /* \"#utility.yul\":1817:1823   */\n      dup3\n        /* \"#utility.yul\":1804:1824   */\n      calldataload\n        /* \"#utility.yul\":1794:1824   */\n      swap1\n      pop\n        /* \"#utility.yul\":1847:1865   */\n      0xffffffffffffffff\n        /* \"#utility.yul\":1839:1845   */\n      dup2\n        /* \"#utility.yul\":1836:1866   */\n      gt\n        /* \"#utility.yul\":1833:1950   */\n      iszero\n      tag_147\n      jumpi\n        /* \"#utility.yul\":1869:1948   */\n      tag_148\n      tag_97\n      jump\t// in\n    tag_148:\n        /* \"#utility.yul\":1833:1950   */\n    tag_147:\n        /* \"#utility.yul\":1983:1987   */\n      0x20\n        /* \"#utility.yul\":1975:1981   */\n      dup4\n        /* \"#utility.yul\":1971:1988   */\n      add\n        /* \"#utility.yul\":1959:1988   */\n      swap2\n      pop\n        /* \"#utility.yul\":2037:2040   */\n      dup4\n        /* \"#utility.yul\":2029:2033   */\n      0x01\n        /* \"#utility.yul\":2021:2027   */\n      dup3\n        /* \"#utility.yul\":2017:2034   */\n      mul\n        /* \"#utility.yul\":2007:2015   */\n      dup4\n        /* \"#utility.yul\":2003:2035   */\n      add\n        /* \"#utility.yul\":2000:2041   */\n      gt\n        /* \"#utility.yul\":1997:2125   */\n      iszero\n      tag_149\n      jumpi\n        /* \"#utility.yul\":2044:2123   */\n      tag_150\n      tag_98\n      jump\t// in\n    tag_150:\n        /* \"#utility.yul\":1997:2125   */\n    tag_149:\n        /* \"#utility.yul\":1579:2131   */\n      swap3\n      pop\n      swap3\n      swap1\n      pop\n      jump\t// out\n        /* \"#utility.yul\":2137:3100   */\n    tag_11:\n        /* \"#utility.yul\":2234:2240   */\n      0x00\n        /* \"#utility.yul\":2242:2248   */\n      0x00\n        /* \"#utility.yul\":2250:2256   */\n      0x00\n        /* \"#utility.yul\":2258:2264   */\n      0x00\n        /* \"#utility.yul\":2266:2272   */\n      0x00\n        /* \"#utility.yul\":2315:2318   */\n      0x80\n        /* \"#utility.yul\":2303:2312   */\n      dup7\n        /* \"#utility.yul\":2294:2301   */\n      dup9\n        /* \"#utility.yul\":2290:2313   */\n      sub\n        /* \"#utility.yul\":2286:2319   */\n      slt\n        /* \"#utility.yul\":2283:2403   */\n      iszero\n      tag_152\n      jumpi\n        /* \"#utility.yul\":2322:2401   */\n      tag_153\n      tag_87\n      jump\t// in\n    tag_153:\n        /* \"#utility.yul\":2283:2403   */\n    tag_152:\n        /* \"#utility.yul\":2442:2443   */\n      0x00\n        /* \"#utility.yul\":2467:2520   */\n      tag_154\n        /* \"#utility.yul\":2512:2519   */\n      dup9\n        /* \"#utility.yul\":2503:2509   */\n      dup3\n        /* \"#utility.yul\":2492:2501   */\n      dup10\n        /* \"#utility.yul\":2488:2510   */\n      add\n        /* \"#utility.yul\":2467:2520   */\n      tag_92\n      jump\t// in\n    tag_154:\n        /* \"#utility.yul\":2457:2520   */\n      swap6\n      pop\n        /* \"#utility.yul\":2413:2530   */\n      pop\n        /* \"#utility.yul\":2569:2571   */\n      0x20\n        /* \"#utility.yul\":2595:2648   */\n      tag_155\n        /* \"#utility.yul\":2640:2647   */\n      dup9\n        /* \"#utility.yul\":2631:2637   */\n      dup3\n        /* \"#utility.yul\":2620:2629   */\n      dup10\n        /* \"#utility.yul\":2616:2638   */\n      add\n        /* \"#utility.yul\":2595:2648   */\n      tag_92\n      jump\t// in\n    tag_155:\n        /* \"#utility.yul\":2585:2648   */\n      swap5\n      pop\n        /* \"#utility.yul\":2540:2658   */\n      pop\n        /* \"#utility.yul\":2697:2699   */\n      0x40\n        /* \"#utility.yul\":2723:2776   */\n      tag_156\n        /* \"#utility.yul\":2768:2775   */\n      dup9\n        /* \"#utility.yul\":2759:2765   */\n      dup3\n        /* \"#utility.yul\":2748:2757   */\n      dup10\n        /* \"#utility.yul\":2744:2766   */\n      add\n        /* \"#utility.yul\":2723:2776   */\n      tag_95\n      jump\t// in\n    tag_156:\n        /* \"#utility.yul\":2713:2776   */\n      swap4\n      pop\n        /* \"#utility.yul\":2668:2786   */\n      pop\n        /* \"#utility.yul\":2853:2855   */\n      0x60\n        /* \"#utility.yul\":2842:2851   */\n      dup7\n        /* \"#utility.yul\":2838:2856   */\n      add\n        /* \"#utility.yul\":2825:2857   */\n      calldataload\n        /* \"#utility.yul\":2884:2902   */\n      0xffffffffffffffff\n        /* \"#utility.yul\":2876:2882   */\n      dup2\n        /* \"#utility.yul\":2873:2903   */\n      gt\n        /* \"#utility.yul\":2870:2987   */\n      iszero\n      tag_157\n      jumpi\n        /* \"#utility.yul\":2906:2985   */\n      tag_158\n      tag_88\n      jump\t// in\n    tag_158:\n        /* \"#utility.yul\":2870:2987   */\n    tag_157:\n        /* \"#utility.yul\":3019:3083   */\n      tag_159\n        /* \"#utility.yul\":3075:3082   */\n      dup9\n        /* \"#utility.yul\":3066:3072   */\n      dup3\n        /* \"#utility.yul\":3055:3064   */\n      dup10\n        /* \"#utility.yul\":3051:3073   */\n      add\n        /* \"#utility.yul\":3019:3083   */\n      tag_99\n      jump\t// in\n    tag_159:\n        /* \"#utility.yul\":3001:3083   */\n      swap3\n      pop\n      swap3\n      pop\n        /* \"#utility.yul\":2796:3093   */\n      pop\n        /* \"#utility.yul\":2137:3100   */\n      swap3\n      swap6\n      pop\n      swap3\n      swap6\n      swap1\n      swap4\n      pop\n      jump\t// out\n        /* \"#utility.yul\":3106:3255   */\n    tag_100:\n        /* \"#utility.yul\":3142:3149   */\n      0x00\n        /* \"#utility.yul\":3182:3248   */\n      0xffffffff00000000000000000000000000000000000000000000000000000000\n        /* \"#utility.yul\":3175:3180   */\n      dup3\n        /* \"#utility.yul\":3171:3249   */\n      and\n        /* \"#utility.yul\":3160:3249   */\n      swap1\n      pop\n        /* \"#utility.yul\":3106:3255   */\n      swap2\n      swap1\n      pop\n      jump\t// out\n        /* \"#utility.yul\":3261:3376   */\n    tag_101:\n        /* \"#utility.yul\":3346:3369   */\n      tag_162\n        /* \"#utility.yul\":3363:3368   */\n      dup2\n        /* \"#utility.yul\":3346:3369   */\n      tag_100\n      jump\t// in\n    tag_162:\n        /* \"#utility.yul\":3341:3344   */\n      dup3\n        /* \"#utility.yul\":3334:3370   */\n      mstore\n        /* \"#utility.yul\":3261:3376   */\n      pop\n      pop\n      jump\t// out\n        /* \"#utility.yul\":3382:3600   */\n    tag_14:\n        /* \"#utility.yul\":3473:3477   */\n      0x00\n        /* \"#utility.yul\":3511:3513   */\n      0x20\n        /* \"#utility.yul\":3500:3509   */\n      dup3\n        /* \"#utility.yul\":3496:3514   */\n      add\n        /* \"#utility.yul\":3488:3514   */\n      swap1\n      pop\n        /* \"#utility.yul\":3524:3593   */\n      tag_164\n        /* \"#utility.yul\":3590:3591   */\n      0x00\n        /* \"#utility.yul\":3579:3588   */\n      dup4\n        /* \"#utility.yul\":3575:3592   */\n      add\n        /* \"#utility.yul\":3566:3572   */\n      dup5\n        /* \"#utility.yul\":3524:3593   */\n      tag_101\n      jump\t// in\n    tag_164:\n        /* \"#utility.yul\":3382:3600   */\n      swap3\n      swap2\n      pop\n      pop\n      jump\t// out\n        /* \"#utility.yul\":3606:3724   */\n    tag_102:\n        /* \"#utility.yul\":3693:3717   */\n      tag_166\n        /* \"#utility.yul\":3711:3716   */\n      dup2\n        /* \"#utility.yul\":3693:3717   */\n      tag_93\n      jump\t// in\n    tag_166:\n        /* \"#utility.yul\":3688:3691   */\n      dup3\n        /* \"#utility.yul\":3681:3718   */\n      mstore\n        /* \"#utility.yul\":3606:3724   */\n      pop\n      pop\n      jump\t// out\n        /* \"#utility.yul\":3730:3952   */\n    tag_18:\n        /* \"#utility.yul\":3823:3827   */\n      0x00\n        /* \"#utility.yul\":3861:3863   */\n      0x20\n        /* \"#utility.yul\":3850:3859   */\n      dup3\n        /* \"#utility.yul\":3846:3864   */\n      add\n        /* \"#utility.yul\":3838:3864   */\n      swap1\n      pop\n        /* \"#utility.yul\":3874:3945   */\n      tag_168\n        /* \"#utility.yul\":3942:3943   */\n      0x00\n        /* \"#utility.yul\":3931:3940   */\n      dup4\n        /* \"#utility.yul\":3927:3944   */\n      add\n        /* \"#utility.yul\":3918:3924   */\n      dup5\n        /* \"#utility.yul\":3874:3945   */\n      tag_102\n      jump\t// in\n    tag_168:\n        /* \"#utility.yul\":3730:3952   */\n      swap3\n      swap2\n      pop\n      pop\n      jump\t// out\n        /* \"#utility.yul\":3958:4287   */\n    tag_21:\n        /* \"#utility.yul\":4017:4023   */\n      0x00\n        /* \"#utility.yul\":4066:4068   */\n      0x20\n        /* \"#utility.yul\":4054:4063   */\n      dup3\n        /* \"#utility.yul\":4045:4052   */\n      dup5\n        /* \"#utility.yul\":4041:4064   */\n      sub\n        /* \"#utility.yul\":4037:4069   */\n      slt\n        /* \"#utility.yul\":4034:4153   */\n      iszero\n      tag_170\n      jumpi\n        /* \"#utility.yul\":4072:4151   */\n      tag_171\n      tag_87\n      jump\t// in\n    tag_171:\n        /* \"#utility.yul\":4034:4153   */\n    tag_170:\n        /* \"#utility.yul\":4192:4193   */\n      0x00\n        /* \"#utility.yul\":4217:4270   */\n      tag_172\n        /* \"#utility.yul\":4262:4269   */\n      dup5\n        /* \"#utility.yul\":4253:4259   */\n      dup3\n        /* \"#utility.yul\":4242:4251   */\n      dup6\n        /* \"#utility.yul\":4238:4260   */\n      add\n        /* \"#utility.yul\":4217:4270   */\n      tag_92\n      jump\t// in\n    tag_172:\n        /* \"#utility.yul\":4207:4270   */\n      swap2\n      pop\n        /* \"#utility.yul\":4163:4280   */\n      pop\n        /* \"#utility.yul\":3958:4287   */\n      swap3\n      swap2\n      pop\n      pop\n      jump\t// out\n        /* \"#utility.yul\":4293:4386   */\n    tag_103:\n        /* \"#utility.yul\":4329:4336   */\n      0x00\n        /* \"#utility.yul\":4369:4379   */\n      0xffffffff\n        /* \"#utility.yul\":4362:4367   */\n      dup3\n        /* \"#utility.yul\":4358:4380   */\n      and\n        /* \"#utility.yul\":4347:4380   */\n      swap1\n      pop\n        /* \"#utility.yul\":4293:4386   */\n      swap2\n      swap1\n      pop\n      jump\t// out\n        /* \"#utility.yul\":4392:4507   */\n    tag_104:\n        /* \"#utility.yul\":4477:4500   */\n      tag_175\n        /* \"#utility.yul\":4494:4499   */\n      dup2\n        /* \"#utility.yul\":4477:4500   */\n      tag_103\n      jump\t// in\n    tag_175:\n        /* \"#utility.yul\":4472:4475   */\n      dup3\n        /* \"#utility.yul\":4465:4501   */\n      mstore\n        /* \"#utility.yul\":4392:4507   */\n      pop\n      pop\n      jump\t// out\n        /* \"#utility.yul\":4513:4731   */\n    tag_28:\n        /* \"#utility.yul\":4604:4608   */\n      0x00\n        /* \"#utility.yul\":4642:4644   */\n      0x20\n        /* \"#utility.yul\":4631:4640   */\n      dup3\n        /* \"#utility.yul\":4627:4645   */\n      add\n        /* \"#utility.yul\":4619:4645   */\n      swap1\n      pop\n        /* \"#utility.yul\":4655:4724   */\n      tag_177\n        /* \"#utility.yul\":4721:4722   */\n      0x00\n        /* \"#utility.yul\":4710:4719   */\n      dup4\n        /* \"#utility.yul\":4706:4723   */\n      add\n        /* \"#utility.yul\":4697:4703   */\n      dup5\n        /* \"#utility.yul\":4655:4724   */\n      tag_104\n      jump\t// in\n    tag_177:\n        /* \"#utility.yul\":4513:4731   */\n      swap3\n      swap2\n      pop\n      pop\n      jump\t// out\n        /* \"#utility.yul\":4737:4797   */\n    tag_105:\n        /* \"#utility.yul\":4765:4768   */\n      0x00\n        /* \"#utility.yul\":4786:4791   */\n      dup2\n        /* \"#utility.yul\":4779:4791   */\n      swap1\n      pop\n        /* \"#utility.yul\":4737:4797   */\n      swap2\n      swap1\n      pop\n      jump\t// out\n        /* \"#utility.yul\":4803:4945   */\n    tag_106:\n        /* \"#utility.yul\":4853:4862   */\n      0x00\n        /* \"#utility.yul\":4886:4939   */\n      tag_180\n        /* \"#utility.yul\":4904:4938   */\n      tag_181\n        /* \"#utility.yul\":4913:4937   */\n      tag_182\n        /* \"#utility.yul\":4931:4936   */\n      dup5\n        /* \"#utility.yul\":4913:4937   */\n      tag_89\n      jump\t// in\n    tag_182:\n        /* \"#utility.yul\":4904:4938   */\n      tag_105\n      jump\t// in\n    tag_181:\n        /* \"#utility.yul\":4886:4939   */\n      tag_89\n      jump\t// in\n    tag_180:\n        /* \"#utility.yul\":4873:4939   */\n      swap1\n      pop\n        /* \"#utility.yul\":4803:4945   */\n      swap2\n      swap1\n      pop\n      jump\t// out\n        /* \"#utility.yul\":4951:5077   */\n    tag_107:\n        /* \"#utility.yul\":5001:5010   */\n      0x00\n        /* \"#utility.yul\":5034:5071   */\n      tag_184\n        /* \"#utility.yul\":5065:5070   */\n      dup3\n        /* \"#utility.yul\":5034:5071   */\n      tag_106\n      jump\t// in\n    tag_184:\n        /* \"#utility.yul\":5021:5071   */\n      swap1\n      pop\n        /* \"#utility.yul\":4951:5077   */\n      swap2\n      swap1\n      pop\n      jump\t// out\n        /* \"#utility.yul\":5083:5223   */\n    tag_108:\n        /* \"#utility.yul\":5147:5156   */\n      0x00\n        /* \"#utility.yul\":5180:5217   */\n      tag_186\n        /* \"#utility.yul\":5211:5216   */\n      dup3\n        /* \"#utility.yul\":5180:5217   */\n      tag_107\n      jump\t// in\n    tag_186:\n        /* \"#utility.yul\":5167:5217   */\n      swap1\n      pop\n        /* \"#utility.yul\":5083:5223   */\n      swap2\n      swap1\n      pop\n      jump\t// out\n        /* \"#utility.yul\":5229:5388   */\n    tag_109:\n        /* \"#utility.yul\":5330:5381   */\n      tag_188\n        /* \"#utility.yul\":5375:5380   */\n      dup2\n        /* \"#utility.yul\":5330:5381   */\n      tag_108\n      jump\t// in\n    tag_188:\n        /* \"#utility.yul\":5325:5328   */\n      dup3\n        /* \"#utility.yul\":5318:5382   */\n      mstore\n        /* \"#utility.yul\":5229:5388   */\n      pop\n      pop\n      jump\t// out\n        /* \"#utility.yul\":5394:5644   */\n    tag_32:\n        /* \"#utility.yul\":5501:5505   */\n      0x00\n        /* \"#utility.yul\":5539:5541   */\n      0x20\n        /* \"#utility.yul\":5528:5537   */\n      dup3\n        /* \"#utility.yul\":5524:5542   */\n      add\n        /* \"#utility.yul\":5516:5542   */\n      swap1\n      pop\n        /* \"#utility.yul\":5552:5637   */\n      tag_190\n        /* \"#utility.yul\":5634:5635   */\n      0x00\n        /* \"#utility.yul\":5623:5632   */\n      dup4\n        /* \"#utility.yul\":5619:5636   */\n      add\n        /* \"#utility.yul\":5610:5616   */\n      dup5\n        /* \"#utility.yul\":5552:5637   */\n      tag_109\n      jump\t// in\n    tag_190:\n        /* \"#utility.yul\":5394:5644   */\n      swap3\n      swap2\n      pop\n      pop\n      jump\t// out\n        /* \"#utility.yul\":5650:5793   */\n    tag_110:\n        /* \"#utility.yul\":5707:5712   */\n      0x00\n        /* \"#utility.yul\":5738:5744   */\n      dup2\n        /* \"#utility.yul\":5732:5745   */\n      mload\n        /* \"#utility.yul\":5723:5745   */\n      swap1\n      pop\n        /* \"#utility.yul\":5754:5787   */\n      tag_192\n        /* \"#utility.yul\":5781:5786   */\n      dup2\n        /* \"#utility.yul\":5754:5787   */\n      tag_91\n      jump\t// in\n    tag_192:\n        /* \"#utility.yul\":5650:5793   */\n      swap3\n      swap2\n      pop\n      pop\n      jump\t// out\n        /* \"#utility.yul\":5799:6150   */\n    tag_39:\n        /* \"#utility.yul\":5869:5875   */\n      0x00\n        /* \"#utility.yul\":5918:5920   */\n      0x20\n        /* \"#utility.yul\":5906:5915   */\n      dup3\n        /* \"#utility.yul\":5897:5904   */\n      dup5\n        /* \"#utility.yul\":5893:5916   */\n      sub\n        /* \"#utility.yul\":5889:5921   */\n      slt\n        /* \"#utility.yul\":5886:6005   */\n      iszero\n      tag_194\n      jumpi\n        /* \"#utility.yul\":5924:6003   */\n      tag_195\n      tag_87\n      jump\t// in\n    tag_195:\n        /* \"#utility.yul\":5886:6005   */\n    tag_194:\n        /* \"#utility.yul\":6044:6045   */\n      0x00\n        /* \"#utility.yul\":6069:6133   */\n      tag_196\n        /* \"#utility.yul\":6125:6132   */\n      dup5\n        /* \"#utility.yul\":6116:6122   */\n      dup3\n        /* \"#utility.yul\":6105:6114   */\n      dup6\n        /* \"#utility.yul\":6101:6123   */\n      add\n        /* \"#utility.yul\":6069:6133   */\n      tag_110\n      jump\t// in\n    tag_196:\n        /* \"#utility.yul\":6059:6133   */\n      swap2\n      pop\n        /* \"#utility.yul\":6015:6143   */\n      pop\n        /* \"#utility.yul\":5799:6150   */\n      swap3\n      swap2\n      pop\n      pop\n      jump\t// out\n        /* \"#utility.yul\":6156:6260   */\n    tag_111:\n        /* \"#utility.yul\":6201:6208   */\n      0x00\n        /* \"#utility.yul\":6230:6254   */\n      tag_198\n        /* \"#utility.yul\":6248:6253   */\n      dup3\n        /* \"#utility.yul\":6230:6254   */\n      tag_89\n      jump\t// in\n    tag_198:\n        /* \"#utility.yul\":6219:6254   */\n      swap1\n      pop\n        /* \"#utility.yul\":6156:6260   */\n      swap2\n      swap1\n      pop\n      jump\t// out\n        /* \"#utility.yul\":6266:6404   */\n    tag_112:\n        /* \"#utility.yul\":6347:6379   */\n      tag_200\n        /* \"#utility.yul\":6373:6378   */\n      dup2\n        /* \"#utility.yul\":6347:6379   */\n      tag_111\n      jump\t// in\n    tag_200:\n        /* \"#utility.yul\":6340:6345   */\n      dup2\n        /* \"#utility.yul\":6337:6380   */\n      eq\n        /* \"#utility.yul\":6327:6398   */\n      tag_201\n      jumpi\n        /* \"#utility.yul\":6394:6395   */\n      0x00\n        /* \"#utility.yul\":6391:6392   */\n      0x00\n        /* \"#utility.yul\":6384:6396   */\n      revert\n        /* \"#utility.yul\":6327:6398   */\n    tag_201:\n        /* \"#utility.yul\":6266:6404   */\n      pop\n      jump\t// out\n        /* \"#utility.yul\":6410:6565   */\n    tag_113:\n        /* \"#utility.yul\":6464:6469   */\n      0x00\n        /* \"#utility.yul\":6502:6508   */\n      dup2\n        /* \"#utility.yul\":6489:6509   */\n      calldataload\n        /* \"#utility.yul\":6480:6509   */\n      swap1\n      pop\n        /* \"#utility.yul\":6518:6559   */\n      tag_203\n        /* \"#utility.yul\":6553:6558   */\n      dup2\n        /* \"#utility.yul\":6518:6559   */\n      tag_112\n      jump\t// in\n    tag_203:\n        /* \"#utility.yul\":6410:6565   */\n      swap3\n      swap2\n      pop\n      pop\n      jump\t// out\n        /* \"#utility.yul\":6571:6916   */\n    tag_42:\n        /* \"#utility.yul\":6638:6644   */\n      0x00\n        /* \"#utility.yul\":6687:6689   */\n      0x20\n        /* \"#utility.yul\":6675:6684   */\n      dup3\n        /* \"#utility.yul\":6666:6673   */\n      dup5\n        /* \"#utility.yul\":6662:6685   */\n      sub\n        /* \"#utility.yul\":6658:6690   */\n      slt\n        /* \"#utility.yul\":6655:6774   */\n      iszero\n      tag_205\n      jumpi\n        /* \"#utility.yul\":6693:6772   */\n      tag_206\n      tag_87\n      jump\t// in\n    tag_206:\n        /* \"#utility.yul\":6655:6774   */\n    tag_205:\n        /* \"#utility.yul\":6813:6814   */\n      0x00\n        /* \"#utility.yul\":6838:6899   */\n      tag_207\n        /* \"#utility.yul\":6891:6898   */\n      dup5\n        /* \"#utility.yul\":6882:6888   */\n      dup3\n        /* \"#utility.yul\":6871:6880   */\n      dup6\n        /* \"#utility.yul\":6867:6889   */\n      add\n        /* \"#utility.yul\":6838:6899   */\n      tag_113\n      jump\t// in\n    tag_207:\n        /* \"#utility.yul\":6828:6899   */\n      swap2\n      pop\n        /* \"#utility.yul\":6784:6909   */\n      pop\n        /* \"#utility.yul\":6571:6916   */\n      swap3\n      swap2\n      pop\n      pop\n      jump\t// out\n        /* \"#utility.yul\":6922:7102   */\n    tag_114:\n        /* \"#utility.yul\":6970:7047   */\n      0x4e487b7100000000000000000000000000000000000000000000000000000000\n        /* \"#utility.yul\":6967:6968   */\n      0x00\n        /* \"#utility.yul\":6960:7048   */\n      mstore\n        /* \"#utility.yul\":7067:7071   */\n      0x11\n        /* \"#utility.yul\":7064:7065   */\n      0x04\n        /* \"#utility.yul\":7057:7072   */\n      mstore\n        /* \"#utility.yul\":7091:7095   */\n      0x24\n        /* \"#utility.yul\":7088:7089   */\n      0x00\n        /* \"#utility.yul\":7081:7096   */\n      revert\n        /* \"#utility.yul\":7108:7302   */\n    tag_49:\n        /* \"#utility.yul\":7148:7152   */\n      0x00\n        /* \"#utility.yul\":7168:7188   */\n      tag_210\n        /* \"#utility.yul\":7186:7187   */\n      dup3\n        /* \"#utility.yul\":7168:7188   */\n      tag_93\n      jump\t// in\n    tag_210:\n        /* \"#utility.yul\":7163:7188   */\n      swap2\n      pop\n        /* \"#utility.yul\":7202:7222   */\n      tag_211\n        /* \"#utility.yul\":7220:7221   */\n      dup4\n        /* \"#utility.yul\":7202:7222   */\n      tag_93\n      jump\t// in\n    tag_211:\n        /* \"#utility.yul\":7197:7222   */\n      swap3\n      pop\n        /* \"#utility.yul\":7246:7247   */\n      dup3\n        /* \"#utility.yul\":7243:7244   */\n      dup3\n        /* \"#utility.yul\":7239:7248   */\n      sub\n        /* \"#utility.yul\":7231:7248   */\n      swap1\n      pop\n        /* \"#utility.yul\":7270:7271   */\n      dup2\n        /* \"#utility.yul\":7264:7268   */\n      dup2\n        /* \"#utility.yul\":7261:7272   */\n      gt\n        /* \"#utility.yul\":7258:7295   */\n      iszero\n      tag_212\n      jumpi\n        /* \"#utility.yul\":7275:7293   */\n      tag_213\n      tag_114\n      jump\t// in\n    tag_213:\n        /* \"#utility.yul\":7258:7295   */\n    tag_212:\n        /* \"#utility.yul\":7108:7302   */\n      swap3\n      swap2\n      pop\n      pop\n      jump\t// out\n        /* \"#utility.yul\":7308:7488   */\n    tag_61:\n        /* \"#utility.yul\":7356:7433   */\n      0x4e487b7100000000000000000000000000000000000000000000000000000000\n        /* \"#utility.yul\":7353:7354   */\n      0x00\n        /* \"#utility.yul\":7346:7434   */\n      mstore\n        /* \"#utility.yul\":7453:7457   */\n      0x32\n        /* \"#utility.yul\":7450:7451   */\n      0x04\n        /* \"#utility.yul\":7443:7458   */\n      mstore\n        /* \"#utility.yul\":7477:7481   */\n      0x24\n        /* \"#utility.yul\":7474:7475   */\n      0x00\n        /* \"#utility.yul\":7467:7482   */\n      revert\n        /* \"#utility.yul\":7494:7612   */\n    tag_115:\n        /* \"#utility.yul\":7581:7605   */\n      tag_216\n        /* \"#utility.yul\":7599:7604   */\n      dup2\n        /* \"#utility.yul\":7581:7605   */\n      tag_90\n      jump\t// in\n    tag_216:\n        /* \"#utility.yul\":7576:7579   */\n      dup3\n        /* \"#utility.yul\":7569:7606   */\n      mstore\n        /* \"#utility.yul\":7494:7612   */\n      pop\n      pop\n      jump\t// out\n        /* \"#utility.yul\":7618:8060   */\n    tag_65:\n        /* \"#utility.yul\":7767:7771   */\n      0x00\n        /* \"#utility.yul\":7805:7807   */\n      0x60\n        /* \"#utility.yul\":7794:7803   */\n      dup3\n        /* \"#utility.yul\":7790:7808   */\n      add\n        /* \"#utility.yul\":7782:7808   */\n      swap1\n      pop\n        /* \"#utility.yul\":7818:7889   */\n      tag_218\n        /* \"#utility.yul\":7886:7887   */\n      0x00\n        /* \"#utility.yul\":7875:7884   */\n      dup4\n        /* \"#utility.yul\":7871:7888   */\n      add\n        /* \"#utility.yul\":7862:7868   */\n      dup7\n        /* \"#utility.yul\":7818:7889   */\n      tag_115\n      jump\t// in\n    tag_218:\n        /* \"#utility.yul\":7899:7971   */\n      tag_219\n        /* \"#utility.yul\":7967:7969   */\n      0x20\n        /* \"#utility.yul\":7956:7965   */\n      dup4\n        /* \"#utility.yul\":7952:7970   */\n      add\n        /* \"#utility.yul\":7943:7949   */\n      dup6\n        /* \"#utility.yul\":7899:7971   */\n      tag_115\n      jump\t// in\n    tag_219:\n        /* \"#utility.yul\":7981:8053   */\n      tag_220\n        /* \"#utility.yul\":8049:8051   */\n      0x40\n        /* \"#utility.yul\":8038:8047   */\n      dup4\n        /* \"#utility.yul\":8034:8052   */\n      add\n        /* \"#utility.yul\":8025:8031   */\n      dup5\n        /* \"#utility.yul\":7981:8053   */\n      tag_102\n      jump\t// in\n    tag_220:\n        /* \"#utility.yul\":7618:8060   */\n      swap5\n      swap4\n      pop\n      pop\n      pop\n      pop\n      jump\t// out\n        /* \"#utility.yul\":8066:8180   */\n    tag_116:\n        /* \"#utility.yul\":8133:8139   */\n      0x00\n        /* \"#utility.yul\":8167:8172   */\n      dup2\n        /* \"#utility.yul\":8161:8173   */\n      mload\n        /* \"#utility.yul\":8151:8173   */\n      swap1\n      pop\n        /* \"#utility.yul\":8066:8180   */\n      swap2\n      swap1\n      pop\n      jump\t// out\n        /* \"#utility.yul\":8186:8370   */\n    tag_117:\n        /* \"#utility.yul\":8285:8296   */\n      0x00\n        /* \"#utility.yul\":8319:8325   */\n      dup3\n        /* \"#utility.yul\":8314:8317   */\n      dup3\n        /* \"#utility.yul\":8307:8326   */\n      mstore\n        /* \"#utility.yul\":8359:8363   */\n      0x20\n        /* \"#utility.yul\":8354:8357   */\n      dup3\n        /* \"#utility.yul\":8350:8364   */\n      add\n        /* \"#utility.yul\":8335:8364   */\n      swap1\n      pop\n        /* \"#utility.yul\":8186:8370   */\n      swap3\n      swap2\n      pop\n      pop\n      jump\t// out\n        /* \"#utility.yul\":8376:8508   */\n    tag_118:\n        /* \"#utility.yul\":8443:8447   */\n      0x00\n        /* \"#utility.yul\":8466:8469   */\n      dup2\n        /* \"#utility.yul\":8458:8469   */\n      swap1\n      pop\n        /* \"#utility.yul\":8496:8500   */\n      0x20\n        /* \"#utility.yul\":8491:8494   */\n      dup3\n        /* \"#utility.yul\":8487:8501   */\n      add\n        /* \"#utility.yul\":8479:8501   */\n      swap1\n      pop\n        /* \"#utility.yul\":8376:8508   */\n      swap2\n      swap1\n      pop\n      jump\t// out\n        /* \"#utility.yul\":8514:8622   */\n    tag_119:\n        /* \"#utility.yul\":8591:8615   */\n      tag_225\n        /* \"#utility.yul\":8609:8614   */\n      dup2\n        /* \"#utility.yul\":8591:8615   */\n      tag_90\n      jump\t// in\n    tag_225:\n        /* \"#utility.yul\":8586:8589   */\n      dup3\n        /* \"#utility.yul\":8579:8616   */\n      mstore\n        /* \"#utility.yul\":8514:8622   */\n      pop\n      pop\n      jump\t// out\n        /* \"#utility.yul\":8628:8807   */\n    tag_120:\n        /* \"#utility.yul\":8697:8707   */\n      0x00\n        /* \"#utility.yul\":8718:8764   */\n      tag_227\n        /* \"#utility.yul\":8760:8763   */\n      dup4\n        /* \"#utility.yul\":8752:8758   */\n      dup4\n        /* \"#utility.yul\":8718:8764   */\n      tag_119\n      jump\t// in\n    tag_227:\n        /* \"#utility.yul\":8796:8800   */\n      0x20\n        /* \"#utility.yul\":8791:8794   */\n      dup4\n        /* \"#utility.yul\":8787:8801   */\n      add\n        /* \"#utility.yul\":8773:8801   */\n      swap1\n      pop\n        /* \"#utility.yul\":8628:8807   */\n      swap3\n      swap2\n      pop\n      pop\n      jump\t// out\n        /* \"#utility.yul\":8813:8926   */\n    tag_121:\n        /* \"#utility.yul\":8883:8887   */\n      0x00\n        /* \"#utility.yul\":8915:8919   */\n      0x20\n        /* \"#utility.yul\":8910:8913   */\n      dup3\n        /* \"#utility.yul\":8906:8920   */\n      add\n        /* \"#utility.yul\":8898:8920   */\n      swap1\n      pop\n        /* \"#utility.yul\":8813:8926   */\n      swap2\n      swap1\n      pop\n      jump\t// out\n        /* \"#utility.yul\":8962:9694   */\n    tag_122:\n        /* \"#utility.yul\":9081:9084   */\n      0x00\n        /* \"#utility.yul\":9110:9164   */\n      tag_230\n        /* \"#utility.yul\":9158:9163   */\n      dup3\n        /* \"#utility.yul\":9110:9164   */\n      tag_116\n      jump\t// in\n    tag_230:\n        /* \"#utility.yul\":9180:9266   */\n      tag_231\n        /* \"#utility.yul\":9259:9265   */\n      dup2\n        /* \"#utility.yul\":9254:9257   */\n      dup6\n        /* \"#utility.yul\":9180:9266   */\n      tag_117\n      jump\t// in\n    tag_231:\n        /* \"#utility.yul\":9173:9266   */\n      swap4\n      pop\n        /* \"#utility.yul\":9290:9346   */\n      tag_232\n        /* \"#utility.yul\":9340:9345   */\n      dup4\n        /* \"#utility.yul\":9290:9346   */\n      tag_118\n      jump\t// in\n    tag_232:\n        /* \"#utility.yul\":9369:9376   */\n      dup1\n        /* \"#utility.yul\":9400:9401   */\n      0x00\n        /* \"#utility.yul\":9385:9669   */\n    tag_233:\n        /* \"#utility.yul\":9410:9416   */\n      dup4\n        /* \"#utility.yul\":9407:9408   */\n      dup2\n        /* \"#utility.yul\":9404:9417   */\n      lt\n        /* \"#utility.yul\":9385:9669   */\n      iszero\n      tag_235\n      jumpi\n        /* \"#utility.yul\":9486:9492   */\n      dup2\n        /* \"#utility.yul\":9480:9493   */\n      mload\n        /* \"#utility.yul\":9513:9576   */\n      tag_236\n        /* \"#utility.yul\":9572:9575   */\n      dup9\n        /* \"#utility.yul\":9557:9570   */\n      dup3\n        /* \"#utility.yul\":9513:9576   */\n      tag_120\n      jump\t// in\n    tag_236:\n        /* \"#utility.yul\":9506:9576   */\n      swap8\n      pop\n        /* \"#utility.yul\":9599:9659   */\n      tag_237\n        /* \"#utility.yul\":9652:9658   */\n      dup4\n        /* \"#utility.yul\":9599:9659   */\n      tag_121\n      jump\t// in\n    tag_237:\n        /* \"#utility.yul\":9589:9659   */\n      swap3\n      pop\n        /* \"#utility.yul\":9445:9669   */\n      pop\n        /* \"#utility.yul\":9432:9433   */\n      0x01\n        /* \"#utility.yul\":9429:9430   */\n      dup2\n        /* \"#utility.yul\":9425:9434   */\n      add\n        /* \"#utility.yul\":9420:9434   */\n      swap1\n      pop\n        /* \"#utility.yul\":9385:9669   */\n      jump(tag_233)\n    tag_235:\n        /* \"#utility.yul\":9389:9403   */\n      pop\n        /* \"#utility.yul\":9685:9688   */\n      dup6\n        /* \"#utility.yul\":9678:9688   */\n      swap4\n      pop\n        /* \"#utility.yul\":9086:9694   */\n      pop\n      pop\n      pop\n        /* \"#utility.yul\":8962:9694   */\n      swap3\n      swap2\n      pop\n      pop\n      jump\t// out\n        /* \"#utility.yul\":9700:10073   */\n    tag_74:\n        /* \"#utility.yul\":9843:9847   */\n      0x00\n        /* \"#utility.yul\":9881:9883   */\n      0x20\n        /* \"#utility.yul\":9870:9879   */\n      dup3\n        /* \"#utility.yul\":9866:9884   */\n      add\n        /* \"#utility.yul\":9858:9884   */\n      swap1\n      pop\n        /* \"#utility.yul\":9930:9939   */\n      dup2\n        /* \"#utility.yul\":9924:9928   */\n      dup2\n        /* \"#utility.yul\":9920:9940   */\n      sub\n        /* \"#utility.yul\":9916:9917   */\n      0x00\n        /* \"#utility.yul\":9905:9914   */\n      dup4\n        /* \"#utility.yul\":9901:9918   */\n      add\n        /* \"#utility.yul\":9894:9941   */\n      mstore\n        /* \"#utility.yul\":9958:10066   */\n      tag_239\n        /* \"#utility.yul\":10061:10065   */\n      dup2\n        /* \"#utility.yul\":10052:10058   */\n      dup5\n        /* \"#utility.yul\":9958:10066   */\n      tag_122\n      jump\t// in\n    tag_239:\n        /* \"#utility.yul\":9950:10066   */\n      swap1\n      pop\n        /* \"#utility.yul\":9700:10073   */\n      swap3\n      swap2\n      pop\n      pop\n      jump\t// out\n\n    auxdata: 0xa264697066735822122070f69e5ed26deba5b2e7fe9ec104b70931b530f26b4f06bdd8bc0211ceece9f164736f6c634300081e0033\n}\n",
				"bytecode": {
					"linkReferences": {},
					"object": "60a060405234801561000f575f5ffd5b50604051610ff8380380610ff8833981810160405281019061003191906100c9565b8073ffffffffffffffffffffffffffffffffffffffff1660808173ffffffffffffffffffffffffffffffffffffffff1681525050506100f4565b5f5ffd5b5f73ffffffffffffffffffffffffffffffffffffffff82169050919050565b5f6100988261006f565b9050919050565b6100a88161008e565b81146100b2575f5ffd5b50565b5f815190506100c38161009f565b92915050565b5f602082840312156100de576100dd61006b565b5b5f6100eb848285016100b5565b91505092915050565b608051610ed76101215f395f8181610117015281816101b30152818161059401526107ce0152610ed75ff3fe608060405234801561000f575f5ffd5b5060043610610060575f3560e01c8063150b7a02146100645780631d88c8be146100945780631e83409a146100b25780635c36b186146100ce578063d41af720146100d8578063e3187b30146100f6575b5f5ffd5b61007e60048036038101906100799190610a7f565b610114565b60405161008b9190610b3d565b60405180910390f35b61009c61032c565b6040516100a99190610b65565b60405180910390f35b6100cc60048036038101906100c79190610b7e565b610370565b005b6100d6610780565b005b6100e06107c4565b6040516100ed9190610bc7565b60405180910390f35b6100fe6107cc565b60405161010b9190610c3b565b60405180910390f35b5f7f000000000000000000000000000000000000000000000000000000000000000073ffffffffffffffffffffffffffffffffffffffff163373ffffffffffffffffffffffffffffffffffffffff161461019a576040517fc7ede59d00000000000000000000000000000000000000000000000000000000815260040160405180910390fd5b8473ffffffffffffffffffffffffffffffffffffffff167f000000000000000000000000000000000000000000000000000000000000000073ffffffffffffffffffffffffffffffffffffffff16635b7121f8866040518263ffffffff1660e01b815260040161020a9190610b65565b602060405180830381865afa158015610225573d5f5f3e3d5ffd5b505050506040513d601f19601f820116820180604052508101906102499190610c68565b73ffffffffffffffffffffffffffffffffffffffff1614610296576040517f3fc4526100000000000000000000000000000000000000000000000000000000815260040160405180910390fd5b5f83838101906102a69190610cce565b90505f73ffffffffffffffffffffffffffffffffffffffff168173ffffffffffffffffffffffffffffffffffffffff160361030d576040517f2b4a826a00000000000000000000000000000000000000000000000000000000815260040160405180910390fd5b6103188686836107f0565b63150b7a0260e01b91505095945050505050565b5f60025f3373ffffffffffffffffffffffffffffffffffffffff1673ffffffffffffffffffffffffffffffffffffffff1681526020019081526020015f2054905090565b6301e16bc063ffffffff1660025f8373ffffffffffffffffffffffffffffffffffffffff1673ffffffffffffffffffffffffffffffffffffffff1681526020019081526020015f2054426103c49190610d26565b10156103fc576040517f6cd3ceb600000000000000000000000000000000000000000000000000000000815260040160405180910390fd5b5f60015f8373ffffffffffffffffffffffffffffffffffffffff1673ffffffffffffffffffffffffffffffffffffffff1681526020019081526020015f2080548060200260200160405190810160405280929190818152602001828054801561048257602002820191905f5260205f20905b81548152602001906001019080831161046e575b505050505090505f8151036104c3576040517f2375694800000000000000000000000000000000000000000000000000000000815260040160405180910390fd5b5f5f5f8473ffffffffffffffffffffffffffffffffffffffff1673ffffffffffffffffffffffffffffffffffffffff1681526020019081526020015f2080548060200260200160405190810160405280929190818152602001828054801561057d57602002820191905f5260205f20905b815f9054906101000a900473ffffffffffffffffffffffffffffffffffffffff1673ffffffffffffffffffffffffffffffffffffffff1681526020019060010190808311610534575b505050505090505f5f90505b825181101561065d577f000000000000000000000000000000000000000000000000000000000000000073ffffffffffffffffffffffffffffffffffffffff166342842e0e308484815181106105e2576105e1610d59565b5b60200260200101518685815181106105fd576105fc610d59565b5b60200260200101516040518463ffffffff1660e01b815260040161062393929190610d95565b5f604051808303815f87803b15801561063a575f5ffd5b505af115801561064c573d5f5f3e3d5ffd5b505050508080600101915050610589565b505f5f8473ffffffffffffffffffffffffffffffffffffffff1673ffffffffffffffffffffffffffffffffffffffff1681526020019081526020015f205f6106a59190610932565b60015f8473ffffffffffffffffffffffffffffffffffffffff1673ffffffffffffffffffffffffffffffffffffffff1681526020019081526020015f205f6106ed9190610950565b60025f8473ffffffffffffffffffffffffffffffffffffffff1673ffffffffffffffffffffffffffffffffffffffff1681526020019081526020015f205f90558273ffffffffffffffffffffffffffffffffffffffff167f1c3938175cae854e0d6cf1063f86f274e6c61e013bb38a9e73268defa5d0b34b826040516107739190610e81565b60405180910390a2505050565b4260025f3373ffffffffffffffffffffffffffffffffffffffff1673ffffffffffffffffffffffffffffffffffffffff1681526020019081526020015f2081905550565b6301e16bc081565b7f000000000000000000000000000000000000000000000000000000000000000081565b60015f8473ffffffffffffffffffffffffffffffffffffffff1673ffffffffffffffffffffffffffffffffffffffff1681526020019081526020015f2082908060018154018082558091505060019003905f5260205f20015f90919091909150555f5f8473ffffffffffffffffffffffffffffffffffffffff1673ffffffffffffffffffffffffffffffffffffffff1681526020019081526020015f2081908060018154018082558091505060019003905f5260205f20015f9091909190916101000a81548173ffffffffffffffffffffffffffffffffffffffff021916908373ffffffffffffffffffffffffffffffffffffffff1602179055504260025f8573ffffffffffffffffffffffffffffffffffffffff1673ffffffffffffffffffffffffffffffffffffffff1681526020019081526020015f2081905550505050565b5080545f8255905f5260205f209081019061094d919061096e565b50565b5080545f8255905f5260205f209081019061096b919061096e565b50565b5b80821115610985575f815f90555060010161096f565b5090565b5f5ffd5b5f5ffd5b5f73ffffffffffffffffffffffffffffffffffffffff82169050919050565b5f6109ba82610991565b9050919050565b6109ca816109b0565b81146109d4575f5ffd5b50565b5f813590506109e5816109c1565b92915050565b5f819050919050565b6109fd816109eb565b8114610a07575f5ffd5b50565b5f81359050610a18816109f4565b92915050565b5f5ffd5b5f5ffd5b5f5ffd5b5f5f83601f840112610a3f57610a3e610a1e565b5b8235905067ffffffffffffffff811115610a5c57610a5b610a22565b5b602083019150836001820283011115610a7857610a77610a26565b5b9250929050565b5f5f5f5f5f60808688031215610a9857610a97610989565b5b5f610aa5888289016109d7565b9550506020610ab6888289016109d7565b9450506040610ac788828901610a0a565b935050606086013567ffffffffffffffff811115610ae857610ae761098d565b5b610af488828901610a2a565b92509250509295509295909350565b5f7fffffffff0000000000000000000000000000000000000000000000000000000082169050919050565b610b3781610b03565b82525050565b5f602082019050610b505f830184610b2e565b92915050565b610b5f816109eb565b82525050565b5f602082019050610b785f830184610b56565b92915050565b5f60208284031215610b9357610b92610989565b5b5f610ba0848285016109d7565b91505092915050565b5f63ffffffff82169050919050565b610bc181610ba9565b82525050565b5f602082019050610bda5f830184610bb8565b92915050565b5f819050919050565b5f610c03610bfe610bf984610991565b610be0565b610991565b9050919050565b5f610c1482610be9565b9050919050565b5f610c2582610c0a565b9050919050565b610c3581610c1b565b82525050565b5f602082019050610c4e5f830184610c2c565b92915050565b5f81519050610c62816109c1565b92915050565b5f60208284031215610c7d57610c7c610989565b5b5f610c8a84828501610c54565b91505092915050565b5f610c9d82610991565b9050919050565b610cad81610c93565b8114610cb7575f5ffd5b50565b5f81359050610cc881610ca4565b92915050565b5f60208284031215610ce357610ce2610989565b5b5f610cf084828501610cba565b91505092915050565b7f4e487b71000000000000000000000000000000000000000000000000000000005f52601160045260245ffd5b5f610d30826109eb565b9150610d3b836109eb565b9250828203905081811115610d5357610d52610cf9565b5b92915050565b7f4e487b71000000000000000000000000000000000000000000000000000000005f52603260045260245ffd5b610d8f816109b0565b82525050565b5f606082019050610da85f830186610d86565b610db56020830185610d86565b610dc26040830184610b56565b949350505050565b5f81519050919050565b5f82825260208201905092915050565b5f819050602082019050919050565b610dfc816109b0565b82525050565b5f610e0d8383610df3565b60208301905092915050565b5f602082019050919050565b5f610e2f82610dca565b610e398185610dd4565b9350610e4483610de4565b805f5b83811015610e74578151610e5b8882610e02565b9750610e6683610e19565b925050600181019050610e47565b5085935050505092915050565b5f6020820190508181035f830152610e998184610e25565b90509291505056fea264697066735822122070f69e5ed26deba5b2e7fe9ec104b70931b530f26b4f06bdd8bc0211ceece9f164736f6c634300081e0033",
					"opcodes": "PUSH1 0xA0 PUSH1 0x40 MSTORE CALLVALUE DUP1 ISZERO PUSH2 0xF JUMPI PUSH0 PUSH0 REVERT JUMPDEST POP PUSH1 0x40 MLOAD PUSH2 0xFF8 CODESIZE SUB DUP1 PUSH2 0xFF8 DUP4 CODECOPY DUP2 DUP2 ADD PUSH1 0x40 MSTORE DUP2 ADD SWAP1 PUSH2 0x31 SWAP2 SWAP1 PUSH2 0xC9 JUMP JUMPDEST DUP1 PUSH20 0xFFFFFFFFFFFFFFFFFFFFFFFFFFFFFFFFFFFFFFFF AND PUSH1 0x80 DUP2 PUSH20 0xFFFFFFFFFFFFFFFFFFFFFFFFFFFFFFFFFFFFFFFF AND DUP2 MSTORE POP POP POP PUSH2 0xF4 JUMP JUMPDEST PUSH0 PUSH0 REVERT JUMPDEST PUSH0 PUSH20 0xFFFFFFFFFFFFFFFFFFFFFFFFFFFFFFFFFFFFFFFF DUP3 AND SWAP1 POP SWAP2 SWAP1 POP JUMP JUMPDEST PUSH0 PUSH2 0x98 DUP3 PUSH2 0x6F JUMP JUMPDEST SWAP1 POP SWAP2 SWAP1 POP JUMP JUMPDEST PUSH2 0xA8 DUP2 PUSH2 0x8E JUMP JUMPDEST DUP2 EQ PUSH2 0xB2 JUMPI PUSH0 PUSH0 REVERT JUMPDEST POP JUMP JUMPDEST PUSH0 DUP2 MLOAD SWAP1 POP PUSH2 0xC3 DUP2 PUSH2 0x9F JUMP JUMPDEST SWAP3 SWAP2 POP POP JUMP JUMPDEST PUSH0 PUSH1 0x20 DUP3 DUP5 SUB SLT ISZERO PUSH2 0xDE JUMPI PUSH2 0xDD PUSH2 0x6B JUMP JUMPDEST JUMPDEST PUSH0 PUSH2 0xEB DUP5 DUP3 DUP6 ADD PUSH2 0xB5 JUMP JUMPDEST SWAP2 POP POP SWAP3 SWAP2 POP POP JUMP JUMPDEST PUSH1 0x80 MLOAD PUSH2 0xED7 PUSH2 0x121 PUSH0 CODECOPY PUSH0 DUP2 DUP2 PUSH2 0x117 ADD MSTORE DUP2 DUP2 PUSH2 0x1B3 ADD MSTORE DUP2 DUP2 PUSH2 0x594 ADD MSTORE PUSH2 0x7CE ADD MSTORE PUSH2 0xED7 PUSH0 RETURN INVALID PUSH1 0x80 PUSH1 0x40 MSTORE CALLVALUE DUP1 ISZERO PUSH2 0xF JUMPI PUSH0 PUSH0 REVERT JUMPDEST POP PUSH1 0x4 CALLDATASIZE LT PUSH2 0x60 JUMPI PUSH0 CALLDATALOAD PUSH1 0xE0 SHR DUP1 PUSH4 0x150B7A02 EQ PUSH2 0x64 JUMPI DUP1 PUSH4 0x1D88C8BE EQ PUSH2 0x94 JUMPI DUP1 PUSH4 0x1E83409A EQ PUSH2 0xB2 JUMPI DUP1 PUSH4 0x5C36B186 EQ PUSH2 0xCE JUMPI DUP1 PUSH4 0xD41AF720 EQ PUSH2 0xD8 JUMPI DUP1 PUSH4 0xE3187B30 EQ PUSH2 0xF6 JUMPI JUMPDEST PUSH0 PUSH0 REVERT JUMPDEST PUSH2 0x7E PUSH1 0x4 DUP1 CALLDATASIZE SUB DUP2 ADD SWAP1 PUSH2 0x79 SWAP2 SWAP1 PUSH2 0xA7F JUMP JUMPDEST PUSH2 0x114 JUMP JUMPDEST PUSH1 0x40 MLOAD PUSH2 0x8B SWAP2 SWAP1 PUSH2 0xB3D JUMP JUMPDEST PUSH1 0x40 MLOAD DUP1 SWAP2 SUB SWAP1 RETURN JUMPDEST PUSH2 0x9C PUSH2 0x32C JUMP JUMPDEST PUSH1 0x40 MLOAD PUSH2 0xA9 SWAP2 SWAP1 PUSH2 0xB65 JUMP JUMPDEST PUSH1 0x40 MLOAD DUP1 SWAP2 SUB SWAP1 RETURN JUMPDEST PUSH2 0xCC PUSH1 0x4 DUP1 CALLDATASIZE SUB DUP2 ADD SWAP1 PUSH2 0xC7 SWAP2 SWAP1 PUSH2 0xB7E JUMP JUMPDEST PUSH2 0x370 JUMP JUMPDEST STOP JUMPDEST PUSH2 0xD6 PUSH2 0x780 JUMP JUMPDEST STOP JUMPDEST PUSH2 0xE0 PUSH2 0x7C4 JUMP JUMPDEST PUSH1 0x40 MLOAD PUSH2 0xED SWAP2 SWAP1 PUSH2 0xBC7 JUMP JUMPDEST PUSH1 0x40 MLOAD DUP1 SWAP2 SUB SWAP1 RETURN JUMPDEST PUSH2 0xFE PUSH2 0x7CC JUMP JUMPDEST PUSH1 0x40 MLOAD PUSH2 0x10B SWAP2 SWAP1 PUSH2 0xC3B JUMP JUMPDEST PUSH1 0x40 MLOAD DUP1 SWAP2 SUB SWAP1 RETURN JUMPDEST PUSH0 PUSH32 0x0 PUSH20 0xFFFFFFFFFFFFFFFFFFFFFFFFFFFFFFFFFFFFFFFF AND CALLER PUSH20 0xFFFFFFFFFFFFFFFFFFFFFFFFFFFFFFFFFFFFFFFF AND EQ PUSH2 0x19A JUMPI PUSH1 0x40 MLOAD PUSH32 0xC7EDE59D00000000000000000000000000000000000000000000000000000000 DUP2 MSTORE PUSH1 0x4 ADD PUSH1 0x40 MLOAD DUP1 SWAP2 SUB SWAP1 REVERT JUMPDEST DUP5 PUSH20 0xFFFFFFFFFFFFFFFFFFFFFFFFFFFFFFFFFFFFFFFF AND PUSH32 0x0 PUSH20 0xFFFFFFFFFFFFFFFFFFFFFFFFFFFFFFFFFFFFFFFF AND PUSH4 0x5B7121F8 DUP7 PUSH1 0x40 MLOAD DUP3 PUSH4 0xFFFFFFFF AND PUSH1 0xE0 SHL DUP2 MSTORE PUSH1 0x4 ADD PUSH2 0x20A SWAP2 SWAP1 PUSH2 0xB65 JUMP JUMPDEST PUSH1 0x20 PUSH1 0x40 MLOAD DUP1 DUP4 SUB DUP2 DUP7 GAS STATICCALL ISZERO DUP1 ISZERO PUSH2 0x225 JUMPI RETURNDATASIZE PUSH0 PUSH0 RETURNDATACOPY RETURNDATASIZE PUSH0 REVERT JUMPDEST POP POP POP POP PUSH1 0x40 MLOAD RETURNDATASIZE PUSH1 0x1F NOT PUSH1 0x1F DUP3 ADD AND DUP3 ADD DUP1 PUSH1 0x40 MSTORE POP DUP2 ADD SWAP1 PUSH2 0x249 SWAP2 SWAP1 PUSH2 0xC68 JUMP JUMPDEST PUSH20 0xFFFFFFFFFFFFFFFFFFFFFFFFFFFFFFFFFFFFFFFF AND EQ PUSH2 0x296 JUMPI PUSH1 0x40 MLOAD PUSH32 0x3FC4526100000000000000000000000000000000000000000000000000000000 DUP2 MSTORE PUSH1 0x4 ADD PUSH1 0x40 MLOAD DUP1 SWAP2 SUB SWAP1 REVERT JUMPDEST PUSH0 DUP4 DUP4 DUP2 ADD SWAP1 PUSH2 0x2A6 SWAP2 SWAP1 PUSH2 0xCCE JUMP JUMPDEST SWAP1 POP PUSH0 PUSH20 0xFFFFFFFFFFFFFFFFFFFFFFFFFFFFFFFFFFFFFFFF AND DUP2 PUSH20 0xFFFFFFFFFFFFFFFFFFFFFFFFFFFFFFFFFFFFFFFF AND SUB PUSH2 0x30D JUMPI PUSH1 0x40 MLOAD PUSH32 0x2B4A826A00000000000000000000000000000000000000000000000000000000 DUP2 MSTORE PUSH1 0x4 ADD PUSH1 0x40 MLOAD DUP1 SWAP2 SUB SWAP1 REVERT JUMPDEST PUSH2 0x318 DUP7 DUP7 DUP4 PUSH2 0x7F0 JUMP JUMPDEST PUSH4 0x150B7A02 PUSH1 0xE0 SHL SWAP2 POP POP SWAP6 SWAP5 POP POP POP POP POP JUMP JUMPDEST PUSH0 PUSH1 0x2 PUSH0 CALLER PUSH20 0xFFFFFFFFFFFFFFFFFFFFFFFFFFFFFFFFFFFFFFFF AND PUSH20 0xFFFFFFFFFFFFFFFFFFFFFFFFFFFFFFFFFFFFFFFF AND DUP2 MSTORE PUSH1 0x20 ADD SWAP1 DUP2 MSTORE PUSH1 0x20 ADD PUSH0 KECCAK256 SLOAD SWAP1 POP SWAP1 JUMP JUMPDEST PUSH4 0x1E16BC0 PUSH4 0xFFFFFFFF AND PUSH1 0x2 PUSH0 DUP4 PUSH20 0xFFFFFFFFFFFFFFFFFFFFFFFFFFFFFFFFFFFFFFFF AND PUSH20 0xFFFFFFFFFFFFFFFFFFFFFFFFFFFFFFFFFFFFFFFF AND DUP2 MSTORE PUSH1 0x20 ADD SWAP1 DUP2 MSTORE PUSH1 0x20 ADD PUSH0 KECCAK256 SLOAD TIMESTAMP PUSH2 0x3C4 SWAP2 SWAP1 PUSH2 0xD26 JUMP JUMPDEST LT ISZERO PUSH2 0x3FC JUMPI PUSH1 0x40 MLOAD PUSH32 0x6CD3CEB600000000000000000000000000000000000000000000000000000000 DUP2 MSTORE PUSH1 0x4 ADD PUSH1 0x40 MLOAD DUP1 SWAP2 SUB SWAP1 REVERT JUMPDEST PUSH0 PUSH1 0x1 PUSH0 DUP4 PUSH20 0xFFFFFFFFFFFFFFFFFFFFFFFFFFFFFFFFFFFFFFFF AND PUSH20 0xFFFFFFFFFFFFFFFFFFFFFFFFFFFFFFFFFFFFFFFF AND DUP2 MSTORE PUSH1 0x20 ADD SWAP1 DUP2 MSTORE PUSH1 0x20 ADD PUSH0 KECCAK256 DUP1 SLOAD DUP1 PUSH1 0x20 MUL PUSH1 0x20 ADD PUSH1 0x40 MLOAD SWAP1 DUP2 ADD PUSH1 0x40 MSTORE DUP1 SWAP3 SWAP2 SWAP1 DUP2 DUP2 MSTORE PUSH1 0x20 ADD DUP3 DUP1 SLOAD DUP1 ISZERO PUSH2 0x482 JUMPI PUSH1 0x20 MUL DUP3 ADD SWAP2 SWAP1 PUSH0 MSTORE PUSH1 0x20 PUSH0 KECCAK256 SWAP1 JUMPDEST DUP2 SLOAD DUP2 MSTORE PUSH1 0x20 ADD SWAP1 PUSH1 0x1 ADD SWAP1 DUP1 DUP4 GT PUSH2 0x46E JUMPI JUMPDEST POP POP POP POP POP SWAP1 POP PUSH0 DUP2 MLOAD SUB PUSH2 0x4C3 JUMPI PUSH1 0x40 MLOAD PUSH32 0x2375694800000000000000000000000000000000000000000000000000000000 DUP2 MSTORE PUSH1 0x4 ADD PUSH1 0x40 MLOAD DUP1 SWAP2 SUB SWAP1 REVERT JUMPDEST PUSH0 PUSH0 PUSH0 DUP5 PUSH20 0xFFFFFFFFFFFFFFFFFFFFFFFFFFFFFFFFFFFFFFFF AND PUSH20 0xFFFFFFFFFFFFFFFFFFFFFFFFFFFFFFFFFFFFFFFF AND DUP2 MSTORE PUSH1 0x20 ADD SWAP1 DUP2 MSTORE PUSH1 0x20 ADD PUSH0 KECCAK256 DUP1 SLOAD DUP1 PUSH1 0x20 MUL PUSH1 0x20 ADD PUSH1 0x40 MLOAD SWAP1 DUP2 ADD PUSH1 0x40 MSTORE DUP1 SWAP3 SWAP2 SWAP1 DUP2 DUP2 MSTORE PUSH1 0x20 ADD DUP3 DUP1 SLOAD DUP1 ISZERO PUSH2 0x57D JUMPI PUSH1 0x20 MUL DUP3 ADD SWAP2 SWAP1 PUSH0 MSTORE PUSH1 0x20 PUSH0 KECCAK256 SWAP1 JUMPDEST DUP2 PUSH0 SWAP1 SLOAD SWAP1 PUSH2 0x100 EXP SWAP1 DIV PUSH20 0xFFFFFFFFFFFFFFFFFFFFFFFFFFFFFFFFFFFFFFFF AND PUSH20 0xFFFFFFFFFFFFFFFFFFFFFFFFFFFFFFFFFFFFFFFF AND DUP2 MSTORE PUSH1 0x20 ADD SWAP1 PUSH1 0x1 ADD SWAP1 DUP1 DUP4 GT PUSH2 0x534 JUMPI JUMPDEST POP POP POP POP POP SWAP1 POP PUSH0 PUSH0 SWAP1 POP JUMPDEST DUP3 MLOAD DUP2 LT ISZERO PUSH2 0x65D JUMPI PUSH32 0x0 PUSH20 0xFFFFFFFFFFFFFFFFFFFFFFFFFFFFFFFFFFFFFFFF AND PUSH4 0x42842E0E ADDRESS DUP5 DUP5 DUP2 MLOAD DUP2 LT PUSH2 0x5E2 JUMPI PUSH2 0x5E1 PUSH2 0xD59 JUMP JUMPDEST JUMPDEST PUSH1 0x20 MUL PUSH1 0x20 ADD ADD MLOAD DUP7 DUP6 DUP2 MLOAD DUP2 LT PUSH2 0x5FD JUMPI PUSH2 0x5FC PUSH2 0xD59 JUMP JUMPDEST JUMPDEST PUSH1 0x20 MUL PUSH1 0x20 ADD ADD MLOAD PUSH1 0x40 MLOAD DUP5 PUSH4 0xFFFFFFFF AND PUSH1 0xE0 SHL DUP2 MSTORE PUSH1 0x4 ADD PUSH2 0x623 SWAP4 SWAP3 SWAP2 SWAP1 PUSH2 0xD95 JUMP JUMPDEST PUSH0 PUSH1 0x40 MLOAD DUP1 DUP4 SUB DUP2 PUSH0 DUP8 DUP1 EXTCODESIZE ISZERO DUP1 ISZERO PUSH2 0x63A JUMPI PUSH0 PUSH0 REVERT JUMPDEST POP GAS CALL ISZERO DUP1 ISZERO PUSH2 0x64C JUMPI RETURNDATASIZE PUSH0 PUSH0 RETURNDATACOPY RETURNDATASIZE PUSH0 REVERT JUMPDEST POP POP POP POP DUP1 DUP1 PUSH1 0x1 ADD SWAP2 POP POP PUSH2 0x589 JUMP JUMPDEST POP PUSH0 PUSH0 DUP5 PUSH20 0xFFFFFFFFFFFFFFFFFFFFFFFFFFFFFFFFFFFFFFFF AND PUSH20 0xFFFFFFFFFFFFFFFFFFFFFFFFFFFFFFFFFFFFFFFF AND DUP2 MSTORE PUSH1 0x20 ADD SWAP1 DUP2 MSTORE PUSH1 0x20 ADD PUSH0 KECCAK256 PUSH0 PUSH2 0x6A5 SWAP2 SWAP1 PUSH2 0x932 JUMP JUMPDEST PUSH1 0x1 PUSH0 DUP5 PUSH20 0xFFFFFFFFFFFFFFFFFFFFFFFFFFFFFFFFFFFFFFFF AND PUSH20 0xFFFFFFFFFFFFFFFFFFFFFFFFFFFFFFFFFFFFFFFF AND DUP2 MSTORE PUSH1 0x20 ADD SWAP1 DUP2 MSTORE PUSH1 0x20 ADD PUSH0 KECCAK256 PUSH0 PUSH2 0x6ED SWAP2 SWAP1 PUSH2 0x950 JUMP JUMPDEST PUSH1 0x2 PUSH0 DUP5 PUSH20 0xFFFFFFFFFFFFFFFFFFFFFFFFFFFFFFFFFFFFFFFF AND PUSH20 0xFFFFFFFFFFFFFFFFFFFFFFFFFFFFFFFFFFFFFFFF AND DUP2 MSTORE PUSH1 0x20 ADD SWAP1 DUP2 MSTORE PUSH1 0x20 ADD PUSH0 KECCAK256 PUSH0 SWAP1 SSTORE DUP3 PUSH20 0xFFFFFFFFFFFFFFFFFFFFFFFFFFFFFFFFFFFFFFFF AND PUSH32 0x1C3938175CAE854E0D6CF1063F86F274E6C61E013BB38A9E73268DEFA5D0B34B DUP3 PUSH1 0x40 MLOAD PUSH2 0x773 SWAP2 SWAP1 PUSH2 0xE81 JUMP JUMPDEST PUSH1 0x40 MLOAD DUP1 SWAP2 SUB SWAP1 LOG2 POP POP POP JUMP JUMPDEST TIMESTAMP PUSH1 0x2 PUSH0 CALLER PUSH20 0xFFFFFFFFFFFFFFFFFFFFFFFFFFFFFFFFFFFFFFFF AND PUSH20 0xFFFFFFFFFFFFFFFFFFFFFFFFFFFFFFFFFFFFFFFF AND DUP2 MSTORE PUSH1 0x20 ADD SWAP1 DUP2 MSTORE PUSH1 0x20 ADD PUSH0 KECCAK256 DUP2 SWAP1 SSTORE POP JUMP JUMPDEST PUSH4 0x1E16BC0 DUP2 JUMP JUMPDEST PUSH32 0x0 DUP2 JUMP JUMPDEST PUSH1 0x1 PUSH0 DUP5 PUSH20 0xFFFFFFFFFFFFFFFFFFFFFFFFFFFFFFFFFFFFFFFF AND PUSH20 0xFFFFFFFFFFFFFFFFFFFFFFFFFFFFFFFFFFFFFFFF AND DUP2 MSTORE PUSH1 0x20 ADD SWAP1 DUP2 MSTORE PUSH1 0x20 ADD PUSH0 KECCAK256 DUP3 SWAP1 DUP1 PUSH1 0x1 DUP2 SLOAD ADD DUP1 DUP3 SSTORE DUP1 SWAP2 POP POP PUSH1 0x1 SWAP1 SUB SWAP1 PUSH0 MSTORE PUSH1 0x20 PUSH0 KECCAK256 ADD PUSH0 SWAP1 SWAP2 SWAP1 SWAP2 SWAP1 SWAP2 POP SSTORE PUSH0 PUSH0 DUP5 PUSH20 0xFFFFFFFFFFFFFFFFFFFFFFFFFFFFFFFFFFFFFFFF AND PUSH20 0xFFFFFFFFFFFFFFFFFFFFFFFFFFFFFFFFFFFFFFFF AND DUP2 MSTORE PUSH1 0x20 ADD SWAP1 DUP2 MSTORE PUSH1 0x20 ADD PUSH0 KECCAK256 DUP2 SWAP1 DUP1 PUSH1 0x1 DUP2 SLOAD ADD DUP1 DUP3 SSTORE DUP1 SWAP2 POP POP PUSH1 0x1 SWAP1 SUB SWAP1 PUSH0 MSTORE PUSH1 0x20 PUSH0 KECCAK256 ADD PUSH0 SWAP1 SWAP2 SWAP1 SWAP2 SWAP1 SWAP2 PUSH2 0x100 EXP DUP2 SLOAD DUP2 PUSH20 0xFFFFFFFFFFFFFFFFFFFFFFFFFFFFFFFFFFFFFFFF MUL NOT AND SWAP1 DUP4 PUSH20 0xFFFFFFFFFFFFFFFFFFFFFFFFFFFFFFFFFFFFFFFF AND MUL OR SWAP1 SSTORE POP TIMESTAMP PUSH1 0x2 PUSH0 DUP6 PUSH20 0xFFFFFFFFFFFFFFFFFFFFFFFFFFFFFFFFFFFFFFFF AND PUSH20 0xFFFFFFFFFFFFFFFFFFFFFFFFFFFFFFFFFFFFFFFF AND DUP2 MSTORE PUSH1 0x20 ADD SWAP1 DUP2 MSTORE PUSH1 0x20 ADD PUSH0 KECCAK256 DUP2 SWAP1 SSTORE POP POP POP POP JUMP JUMPDEST POP DUP1 SLOAD PUSH0 DUP3 SSTORE SWAP1 PUSH0 MSTORE PUSH1 0x20 PUSH0 KECCAK256 SWAP1 DUP2 ADD SWAP1 PUSH2 0x94D SWAP2 SWAP1 PUSH2 0x96E JUMP JUMPDEST POP JUMP JUMPDEST POP DUP1 SLOAD PUSH0 DUP3 SSTORE SWAP1 PUSH0 MSTORE PUSH1 0x20 PUSH0 KECCAK256 SWAP1 DUP2 ADD SWAP1 PUSH2 0x96B SWAP2 SWAP1 PUSH2 0x96E JUMP JUMPDEST POP JUMP JUMPDEST JUMPDEST DUP1 DUP3 GT ISZERO PUSH2 0x985 JUMPI PUSH0 DUP2 PUSH0 SWAP1 SSTORE POP PUSH1 0x1 ADD PUSH2 0x96F JUMP JUMPDEST POP SWAP1 JUMP JUMPDEST PUSH0 PUSH0 REVERT JUMPDEST PUSH0 PUSH0 REVERT JUMPDEST PUSH0 PUSH20 0xFFFFFFFFFFFFFFFFFFFFFFFFFFFFFFFFFFFFFFFF DUP3 AND SWAP1 POP SWAP2 SWAP1 POP JUMP JUMPDEST PUSH0 PUSH2 0x9BA DUP3 PUSH2 0x991 JUMP JUMPDEST SWAP1 POP SWAP2 SWAP1 POP JUMP JUMPDEST PUSH2 0x9CA DUP2 PUSH2 0x9B0 JUMP JUMPDEST DUP2 EQ PUSH2 0x9D4 JUMPI PUSH0 PUSH0 REVERT JUMPDEST POP JUMP JUMPDEST PUSH0 DUP2 CALLDATALOAD SWAP1 POP PUSH2 0x9E5 DUP2 PUSH2 0x9C1 JUMP JUMPDEST SWAP3 SWAP2 POP POP JUMP JUMPDEST PUSH0 DUP2 SWAP1 POP SWAP2 SWAP1 POP JUMP JUMPDEST PUSH2 0x9FD DUP2 PUSH2 0x9EB JUMP JUMPDEST DUP2 EQ PUSH2 0xA07 JUMPI PUSH0 PUSH0 REVERT JUMPDEST POP JUMP JUMPDEST PUSH0 DUP2 CALLDATALOAD SWAP1 POP PUSH2 0xA18 DUP2 PUSH2 0x9F4 JUMP JUMPDEST SWAP3 SWAP2 POP POP JUMP JUMPDEST PUSH0 PUSH0 REVERT JUMPDEST PUSH0 PUSH0 REVERT JUMPDEST PUSH0 PUSH0 REVERT JUMPDEST PUSH0 PUSH0 DUP4 PUSH1 0x1F DUP5 ADD SLT PUSH2 0xA3F JUMPI PUSH2 0xA3E PUSH2 0xA1E JUMP JUMPDEST JUMPDEST DUP3 CALLDATALOAD SWAP1 POP PUSH8 0xFFFFFFFFFFFFFFFF DUP2 GT ISZERO PUSH2 0xA5C JUMPI PUSH2 0xA5B PUSH2 0xA22 JUMP JUMPDEST JUMPDEST PUSH1 0x20 DUP4 ADD SWAP2 POP DUP4 PUSH1 0x1 DUP3 MUL DUP4 ADD GT ISZERO PUSH2 0xA78 JUMPI PUSH2 0xA77 PUSH2 0xA26 JUMP JUMPDEST JUMPDEST SWAP3 POP SWAP3 SWAP1 POP JUMP JUMPDEST PUSH0 PUSH0 PUSH0 PUSH0 PUSH0 PUSH1 0x80 DUP7 DUP9 SUB SLT ISZERO PUSH2 0xA98 JUMPI PUSH2 0xA97 PUSH2 0x989 JUMP JUMPDEST JUMPDEST PUSH0 PUSH2 0xAA5 DUP9 DUP3 DUP10 ADD PUSH2 0x9D7 JUMP JUMPDEST SWAP6 POP POP PUSH1 0x20 PUSH2 0xAB6 DUP9 DUP3 DUP10 ADD PUSH2 0x9D7 JUMP JUMPDEST SWAP5 POP POP PUSH1 0x40 PUSH2 0xAC7 DUP9 DUP3 DUP10 ADD PUSH2 0xA0A JUMP JUMPDEST SWAP4 POP POP PUSH1 0x60 DUP7 ADD CALLDATALOAD PUSH8 0xFFFFFFFFFFFFFFFF DUP2 GT ISZERO PUSH2 0xAE8 JUMPI PUSH2 0xAE7 PUSH2 0x98D JUMP JUMPDEST JUMPDEST PUSH2 0xAF4 DUP9 DUP3 DUP10 ADD PUSH2 0xA2A JUMP JUMPDEST SWAP3 POP SWAP3 POP POP SWAP3 SWAP6 POP SWAP3 SWAP6 SWAP1 SWAP4 POP JUMP JUMPDEST PUSH0 PUSH32 0xFFFFFFFF00000000000000000000000000000000000000000000000000000000 DUP3 AND SWAP1 POP SWAP2 SWAP1 POP JUMP JUMPDEST PUSH2 0xB37 DUP2 PUSH2 0xB03 JUMP JUMPDEST DUP3 MSTORE POP POP JUMP JUMPDEST PUSH0 PUSH1 0x20 DUP3 ADD SWAP1 POP PUSH2 0xB50 PUSH0 DUP4 ADD DUP5 PUSH2 0xB2E JUMP JUMPDEST SWAP3 SWAP2 POP POP JUMP JUMPDEST PUSH2 0xB5F DUP2 PUSH2 0x9EB JUMP JUMPDEST DUP3 MSTORE POP POP JUMP JUMPDEST PUSH0 PUSH1 0x20 DUP3 ADD SWAP1 POP PUSH2 0xB78 PUSH0 DUP4 ADD DUP5 PUSH2 0xB56 JUMP JUMPDEST SWAP3 SWAP2 POP POP JUMP JUMPDEST PUSH0 PUSH1 0x20 DUP3 DUP5 SUB SLT ISZERO PUSH2 0xB93 JUMPI PUSH2 0xB92 PUSH2 0x989 JUMP JUMPDEST JUMPDEST PUSH0 PUSH2 0xBA0 DUP5 DUP3 DUP6 ADD PUSH2 0x9D7 JUMP JUMPDEST SWAP2 POP POP SWAP3 SWAP2 POP POP JUMP JUMPDEST PUSH0 PUSH4 0xFFFFFFFF DUP3 AND SWAP1 POP SWAP2 SWAP1 POP JUMP JUMPDEST PUSH2 0xBC1 DUP2 PUSH2 0xBA9 JUMP JUMPDEST DUP3 MSTORE POP POP JUMP JUMPDEST PUSH0 PUSH1 0x20 DUP3 ADD SWAP1 POP PUSH2 0xBDA PUSH0 DUP4 ADD DUP5 PUSH2 0xBB8 JUMP JUMPDEST SWAP3 SWAP2 POP POP JUMP JUMPDEST PUSH0 DUP2 SWAP1 POP SWAP2 SWAP1 POP JUMP JUMPDEST PUSH0 PUSH2 0xC03 PUSH2 0xBFE PUSH2 0xBF9 DUP5 PUSH2 0x991 JUMP JUMPDEST PUSH2 0xBE0 JUMP JUMPDEST PUSH2 0x991 JUMP JUMPDEST SWAP1 POP SWAP2 SWAP1 POP JUMP JUMPDEST PUSH0 PUSH2 0xC14 DUP3 PUSH2 0xBE9 JUMP JUMPDEST SWAP1 POP SWAP2 SWAP1 POP JUMP JUMPDEST PUSH0 PUSH2 0xC25 DUP3 PUSH2 0xC0A JUMP JUMPDEST SWAP1 POP SWAP2 SWAP1 POP JUMP JUMPDEST PUSH2 0xC35 DUP2 PUSH2 0xC1B JUMP JUMPDEST DUP3 MSTORE POP POP JUMP JUMPDEST PUSH0 PUSH1 0x20 DUP3 ADD SWAP1 POP PUSH2 0xC4E PUSH0 DUP4 ADD DUP5 PUSH2 0xC2C JUMP JUMPDEST SWAP3 SWAP2 POP POP JUMP JUMPDEST PUSH0 DUP2 MLOAD SWAP1 POP PUSH2 0xC62 DUP2 PUSH2 0x9C1 JUMP JUMPDEST SWAP3 SWAP2 POP POP JUMP JUMPDEST PUSH0 PUSH1 0x20 DUP3 DUP5 SUB SLT ISZERO PUSH2 0xC7D JUMPI PUSH2 0xC7C PUSH2 0x989 JUMP JUMPDEST JUMPDEST PUSH0 PUSH2 0xC8A DUP5 DUP3 DUP6 ADD PUSH2 0xC54 JUMP JUMPDEST SWAP2 POP POP SWAP3 SWAP2 POP POP JUMP JUMPDEST PUSH0 PUSH2 0xC9D DUP3 PUSH2 0x991 JUMP JUMPDEST SWAP1 POP SWAP2 SWAP1 POP JUMP JUMPDEST PUSH2 0xCAD DUP2 PUSH2 0xC93 JUMP JUMPDEST DUP2 EQ PUSH2 0xCB7 JUMPI PUSH0 PUSH0 REVERT JUMPDEST POP JUMP JUMPDEST PUSH0 DUP2 CALLDATALOAD SWAP1 POP PUSH2 0xCC8 DUP2 PUSH2 0xCA4 JUMP JUMPDEST SWAP3 SWAP2 POP POP JUMP JUMPDEST PUSH0 PUSH1 0x20 DUP3 DUP5 SUB SLT ISZERO PUSH2 0xCE3 JUMPI PUSH2 0xCE2 PUSH2 0x989 JUMP JUMPDEST JUMPDEST PUSH0 PUSH2 0xCF0 DUP5 DUP3 DUP6 ADD PUSH2 0xCBA JUMP JUMPDEST SWAP2 POP POP SWAP3 SWAP2 POP POP JUMP JUMPDEST PUSH32 0x4E487B7100000000000000000000000000000000000000000000000000000000 PUSH0 MSTORE PUSH1 0x11 PUSH1 0x4 MSTORE PUSH1 0x24 PUSH0 REVERT JUMPDEST PUSH0 PUSH2 0xD30 DUP3 PUSH2 0x9EB JUMP JUMPDEST SWAP2 POP PUSH2 0xD3B DUP4 PUSH2 0x9EB JUMP JUMPDEST SWAP3 POP DUP3 DUP3 SUB SWAP1 POP DUP2 DUP2 GT ISZERO PUSH2 0xD53 JUMPI PUSH2 0xD52 PUSH2 0xCF9 JUMP JUMPDEST JUMPDEST SWAP3 SWAP2 POP POP JUMP JUMPDEST PUSH32 0x4E487B7100000000000000000000000000000000000000000000000000000000 PUSH0 MSTORE PUSH1 0x32 PUSH1 0x4 MSTORE PUSH1 0x24 PUSH0 REVERT JUMPDEST PUSH2 0xD8F DUP2 PUSH2 0x9B0 JUMP JUMPDEST DUP3 MSTORE POP POP JUMP JUMPDEST PUSH0 PUSH1 0x60 DUP3 ADD SWAP1 POP PUSH2 0xDA8 PUSH0 DUP4 ADD DUP7 PUSH2 0xD86 JUMP JUMPDEST PUSH2 0xDB5 PUSH1 0x20 DUP4 ADD DUP6 PUSH2 0xD86 JUMP JUMPDEST PUSH2 0xDC2 PUSH1 0x40 DUP4 ADD DUP5 PUSH2 0xB56 JUMP JUMPDEST SWAP5 SWAP4 POP POP POP POP JUMP JUMPDEST PUSH0 DUP2 MLOAD SWAP1 POP SWAP2 SWAP1 POP JUMP JUMPDEST PUSH0 DUP3 DUP3 MSTORE PUSH1 0x20 DUP3 ADD SWAP1 POP SWAP3 SWAP2 POP POP JUMP JUMPDEST PUSH0 DUP2 SWAP1 POP PUSH1 0x20 DUP3 ADD SWAP1 POP SWAP2 SWAP1 POP JUMP JUMPDEST PUSH2 0xDFC DUP2 PUSH2 0x9B0 JUMP JUMPDEST DUP3 MSTORE POP POP JUMP JUMPDEST PUSH0 PUSH2 0xE0D DUP4 DUP4 PUSH2 0xDF3 JUMP JUMPDEST PUSH1 0x20 DUP4 ADD SWAP1 POP SWAP3 SWAP2 POP POP JUMP JUMPDEST PUSH0 PUSH1 0x20 DUP3 ADD SWAP1 POP SWAP2 SWAP1 POP JUMP JUMPDEST PUSH0 PUSH2 0xE2F DUP3 PUSH2 0xDCA JUMP JUMPDEST PUSH2 0xE39 DUP2 DUP6 PUSH2 0xDD4 JUMP JUMPDEST SWAP4 POP PUSH2 0xE44 DUP4 PUSH2 0xDE4 JUMP JUMPDEST DUP1 PUSH0 JUMPDEST DUP4 DUP2 LT ISZERO PUSH2 0xE74 JUMPI DUP2 MLOAD PUSH2 0xE5B DUP9 DUP3 PUSH2 0xE02 JUMP JUMPDEST SWAP8 POP PUSH2 0xE66 DUP4 PUSH2 0xE19 JUMP JUMPDEST SWAP3 POP POP PUSH1 0x1 DUP2 ADD SWAP1 POP PUSH2 0xE47 JUMP JUMPDEST POP DUP6 SWAP4 POP POP POP POP SWAP3 SWAP2 POP POP JUMP JUMPDEST PUSH0 PUSH1 0x20 DUP3 ADD SWAP1 POP DUP2 DUP2 SUB PUSH0 DUP4 ADD MSTORE PUSH2 0xE99 DUP2 DUP5 PUSH2 0xE25 JUMP JUMPDEST SWAP1 POP SWAP3 SWAP2 POP POP JUMP INVALID LOG2 PUSH5 0x6970667358 0x22 SLT KECCAK256 PUSH17 0xF69E5ED26DEBA5B2E7FE9EC104B70931B5 ADDRESS CALLCODE PUSH12 0x4F06BDD8BC0211CEECE9F164 PUSH20 0x6F6C634300081E00330000000000000000000000 "
				},
				"gasEstimates": {
					"creation": {
						"codeDepositCost": "759800",
						"executionCost": "infinite",
						"totalCost": "infinite"
					},
					"external": {
						"REFRESH_TIME()": "397",
						"claim(address)": "infinite",
						"getLastPingedTimeStamp()": "2519",
						"i_cinft()": "infinite",
						"onERC721Received(address,address,uint256,bytes)": "infinite",
						"ping()": "22387"
					},
					"internal": {
						"_addNominee(address,uint256,address)": "117393"
					}
				},
				"methodIdentifiers": {
					"REFRESH_TIME()": "d41af720",
					"claim(address)": "1e83409a",
					"getLastPingedTimeStamp()": "1d88c8be",
					"i_cinft()": "e3187b30",
					"onERC721Received(address,address,uint256,bytes)": "150b7a02",
					"ping()": "5c36b186"
				}
			},
			"storageLayout": {
				"storage": [
					{
						"astId": 322,
						"contract": "Legacy.sol:Legacy",
						"label": "s_subscribersToNominees",
						"offset": 0,
						"slot": "0",
						"type": "t_mapping(t_address,t_array(t_address)dyn_storage)"
					},
					{
						"astId": 327,
						"contract": "Legacy.sol:Legacy",
						"label": "s_subscribersToTokenIds",
						"offset": 0,
						"slot": "1",
						"type": "t_mapping(t_address,t_array(t_uint256)dyn_storage)"
					},
					{
						"astId": 331,
						"contract": "Legacy.sol:Legacy",
						"label": "s_lastPingedTime",
						"offset": 0,
						"slot": "2",
						"type": "t_mapping(t_address,t_uint256)"
					}
				],
				"types": {
					"t_address": {
						"encoding": "inplace",
						"label": "address",
						"numberOfBytes": "20"
					},
					"t_array(t_address)dyn_storage": {
						"base": "t_address",
						"encoding": "dynamic_array",
						"label": "address[]",
						"numberOfBytes": "32"
					},
					"t_array(t_uint256)dyn_storage": {
						"base": "t_uint256",
						"encoding": "dynamic_array",
						"label": "uint256[]",
						"numberOfBytes": "32"
					},
					"t_mapping(t_address,t_array(t_address)dyn_storage)": {
						"encoding": "mapping",
						"key": "t_address",
						"label": "mapping(address => address[])",
						"numberOfBytes": "32",
						"value": "t_array(t_address)dyn_storage"
					},
					"t_mapping(t_address,t_array(t_uint256)dyn_storage)": {
						"encoding": "mapping",
						"key": "t_address",
						"label": "mapping(address => uint256[])",
						"numberOfBytes": "32",
						"value": "t_array(t_uint256)dyn_storage"
					},
					"t_mapping(t_address,t_uint256)": {
						"encoding": "mapping",
						"key": "t_address",
						"label": "mapping(address => uint256)",
						"numberOfBytes": "32",
						"value": "t_uint256"
					},
					"t_uint256": {
						"encoding": "inplace",
						"label": "uint256",
						"numberOfBytes": "32"
					}
				}
			},
			"userdoc": {
				"kind": "user",
				"methods": {},
				"version": 1
			}
		}
	}
}