{
	"Legacy.sol": {
		"Legacy": {
			"abi": [
				{
					"inputs": [
						{
							"internalType": "address",
							"name": "_cinftContractAddress",
							"type": "address"
						}
					],
					"stateMutability": "nonpayable",
					"type": "constructor"
				},
				{
					"inputs": [],
					"name": "Legacy__NoNFTsToClaim",
					"type": "error"
				},
				{
					"inputs": [],
					"name": "Legacy__TheNFTReceivedIsNotFromTheDesiredCollection",
					"type": "error"
				},
				{
					"inputs": [],
					"name": "Legacy__TheNFTReceivedIsNotFromTheMinter",
					"type": "error"
				},
				{
					"inputs": [],
					"name": "Legacy__TheRefreshTimeHasNotPassed",
					"type": "error"
				},
				{
					"anonymous": false,
					"inputs": [
						{
							"indexed": true,
							"internalType": "address",
							"name": "subscriber",
							"type": "address"
						},
						{
							"indexed": false,
							"internalType": "address[]",
							"name": "nominees",
							"type": "address[]"
						}
					],
					"name": "Claimed",
					"type": "event"
				},
				{
					"inputs": [],
					"name": "REFRESH_TIME",
					"outputs": [
						{
							"internalType": "uint32",
							"name": "",
							"type": "uint32"
						}
					],
					"stateMutability": "view",
					"type": "function"
				},
				{
					"inputs": [
						{
							"internalType": "address",
							"name": "_subscriber",
							"type": "address"
						}
					],
					"name": "claim",
					"outputs": [],
					"stateMutability": "nonpayable",
					"type": "function"
				},
				{
					"inputs": [],
					"name": "getLastPingedTimeStamp",
					"outputs": [
						{
							"internalType": "uint256",
							"name": "",
							"type": "uint256"
						}
					],
					"stateMutability": "view",
					"type": "function"
				},
				{
					"inputs": [],
					"name": "i_cinft",
					"outputs": [
						{
							"internalType": "contract ICINFT",
							"name": "",
							"type": "address"
						}
					],
					"stateMutability": "view",
					"type": "function"
				},
				{
					"inputs": [
						{
							"internalType": "address",
							"name": "",
							"type": "address"
						},
						{
							"internalType": "address",
							"name": "from",
							"type": "address"
						},
						{
							"internalType": "uint256",
							"name": "tokenId",
							"type": "uint256"
						},
						{
							"internalType": "bytes",
							"name": "data",
							"type": "bytes"
						}
					],
					"name": "onERC721Received",
					"outputs": [
						{
							"internalType": "bytes4",
							"name": "",
							"type": "bytes4"
						}
					],
					"stateMutability": "nonpayable",
					"type": "function"
				},
				{
					"inputs": [],
					"name": "ping",
					"outputs": [],
					"stateMutability": "nonpayable",
					"type": "function"
				}
			],
			"devdoc": {
				"kind": "dev",
				"methods": {},
				"version": 1
			},
			"evm": {
				"assembly": "    /* \"Legacy.sol\":207:2886  contract Legacy is IERC721Receiver {... */\n  mstore(0x40, 0xa0)\n    /* \"Legacy.sol\":812:911  constructor(address _cinftContractAddress) {... */\n  callvalue\n  dup1\n  iszero\n  tag_1\n  jumpi\n  revert(0x00, 0x00)\ntag_1:\n  pop\n  mload(0x40)\n  sub(codesize, bytecodeSize)\n  dup1\n  bytecodeSize\n  dup4\n  codecopy\n  dup2\n  dup2\n  add\n  0x40\n  mstore\n  dup2\n  add\n  swap1\n  tag_2\n  swap2\n  swap1\n  tag_3\n  jump\t// in\ntag_2:\n    /* \"Legacy.sol\":882:903  _cinftContractAddress */\n  dup1\n    /* \"Legacy.sol\":865:904  i_cinft = ICINFT(_cinftContractAddress) */\n  0xffffffffffffffffffffffffffffffffffffffff\n  and\n  0x80\n  dup2\n  0xffffffffffffffffffffffffffffffffffffffff\n  and\n  dup2\n  mstore\n  pop\n  pop\n    /* \"Legacy.sol\":812:911  constructor(address _cinftContractAddress) {... */\n  pop\n    /* \"Legacy.sol\":207:2886  contract Legacy is IERC721Receiver {... */\n  jump(tag_6)\n    /* \"#utility.yul\":88:205   */\ntag_8:\n    /* \"#utility.yul\":197:198   */\n  0x00\n    /* \"#utility.yul\":194:195   */\n  0x00\n    /* \"#utility.yul\":187:199   */\n  revert\n    /* \"#utility.yul\":334:460   */\ntag_10:\n    /* \"#utility.yul\":371:378   */\n  0x00\n    /* \"#utility.yul\":411:453   */\n  0xffffffffffffffffffffffffffffffffffffffff\n    /* \"#utility.yul\":404:409   */\n  dup3\n    /* \"#utility.yul\":400:454   */\n  and\n    /* \"#utility.yul\":389:454   */\n  swap1\n  pop\n    /* \"#utility.yul\":334:460   */\n  swap2\n  swap1\n  pop\n  jump\t// out\n    /* \"#utility.yul\":466:562   */\ntag_11:\n    /* \"#utility.yul\":503:510   */\n  0x00\n    /* \"#utility.yul\":532:556   */\n  tag_20\n    /* \"#utility.yul\":550:555   */\n  dup3\n    /* \"#utility.yul\":532:556   */\n  tag_10\n  jump\t// in\ntag_20:\n    /* \"#utility.yul\":521:556   */\n  swap1\n  pop\n    /* \"#utility.yul\":466:562   */\n  swap2\n  swap1\n  pop\n  jump\t// out\n    /* \"#utility.yul\":568:690   */\ntag_12:\n    /* \"#utility.yul\":641:665   */\n  tag_22\n    /* \"#utility.yul\":659:664   */\n  dup2\n    /* \"#utility.yul\":641:665   */\n  tag_11\n  jump\t// in\ntag_22:\n    /* \"#utility.yul\":634:639   */\n  dup2\n    /* \"#utility.yul\":631:666   */\n  eq\n    /* \"#utility.yul\":621:684   */\n  tag_23\n  jumpi\n    /* \"#utility.yul\":680:681   */\n  0x00\n    /* \"#utility.yul\":677:678   */\n  0x00\n    /* \"#utility.yul\":670:682   */\n  revert\n    /* \"#utility.yul\":621:684   */\ntag_23:\n    /* \"#utility.yul\":568:690   */\n  pop\n  jump\t// out\n    /* \"#utility.yul\":696:839   */\ntag_13:\n    /* \"#utility.yul\":753:758   */\n  0x00\n    /* \"#utility.yul\":784:790   */\n  dup2\n    /* \"#utility.yul\":778:791   */\n  mload\n    /* \"#utility.yul\":769:791   */\n  swap1\n  pop\n    /* \"#utility.yul\":800:833   */\n  tag_25\n    /* \"#utility.yul\":827:832   */\n  dup2\n    /* \"#utility.yul\":800:833   */\n  tag_12\n  jump\t// in\ntag_25:\n    /* \"#utility.yul\":696:839   */\n  swap3\n  swap2\n  pop\n  pop\n  jump\t// out\n    /* \"#utility.yul\":845:1196   */\ntag_3:\n    /* \"#utility.yul\":915:921   */\n  0x00\n    /* \"#utility.yul\":964:966   */\n  0x20\n    /* \"#utility.yul\":952:961   */\n  dup3\n    /* \"#utility.yul\":943:950   */\n  dup5\n    /* \"#utility.yul\":939:962   */\n  sub\n    /* \"#utility.yul\":935:967   */\n  slt\n    /* \"#utility.yul\":932:1051   */\n  iszero\n  tag_27\n  jumpi\n    /* \"#utility.yul\":970:1049   */\n  tag_28\n  tag_8\n  jump\t// in\ntag_28:\n    /* \"#utility.yul\":932:1051   */\ntag_27:\n    /* \"#utility.yul\":1090:1091   */\n  0x00\n    /* \"#utility.yul\":1115:1179   */\n  tag_29\n    /* \"#utility.yul\":1171:1178   */\n  dup5\n    /* \"#utility.yul\":1162:1168   */\n  dup3\n    /* \"#utility.yul\":1151:1160   */\n  dup6\n    /* \"#utility.yul\":1147:1169   */\n  add\n    /* \"#utility.yul\":1115:1179   */\n  tag_13\n  jump\t// in\ntag_29:\n    /* \"#utility.yul\":1105:1179   */\n  swap2\n  pop\n    /* \"#utility.yul\":1061:1189   */\n  pop\n    /* \"#utility.yul\":845:1196   */\n  swap3\n  swap2\n  pop\n  pop\n  jump\t// out\n    /* \"Legacy.sol\":207:2886  contract Legacy is IERC721Receiver {... */\ntag_6:\n  mload(0x80)\n  codecopy(0x00, dataOffset(sub_0), dataSize(sub_0))\n  0x00\n  assignImmutable(\"0x064695b146a044c9c110055b7d61d48dacfcf52711cc861195c53207405bbba0\")\n  return(0x00, dataSize(sub_0))\nstop\n\nsub_0: assembly {\n        /* \"Legacy.sol\":207:2886  contract Legacy is IERC721Receiver {... */\n      mstore(0x40, 0x80)\n      callvalue\n      dup1\n      iszero\n      tag_1\n      jumpi\n      revert(0x00, 0x00)\n    tag_1:\n      pop\n      jumpi(tag_2, lt(calldatasize, 0x04))\n      shr(0xe0, calldataload(0x00))\n      dup1\n      0x150b7a02\n      eq\n      tag_3\n      jumpi\n      dup1\n      0x1d88c8be\n      eq\n      tag_4\n      jumpi\n      dup1\n      0x1e83409a\n      eq\n      tag_5\n      jumpi\n      dup1\n      0x5c36b186\n      eq\n      tag_6\n      jumpi\n      dup1\n      0xd41af720\n      eq\n      tag_7\n      jumpi\n      dup1\n      0xe3187b30\n      eq\n      tag_8\n      jumpi\n    tag_2:\n      revert(0x00, 0x00)\n        /* \"Legacy.sol\":917:1591  function onERC721Received(... */\n    tag_3:\n      tag_9\n      0x04\n      dup1\n      calldatasize\n      sub\n      dup2\n      add\n      swap1\n      tag_10\n      swap2\n      swap1\n      tag_11\n      jump\t// in\n    tag_10:\n      tag_12\n      jump\t// in\n    tag_9:\n      mload(0x40)\n      tag_13\n      swap2\n      swap1\n      tag_14\n      jump\t// in\n    tag_13:\n      mload(0x40)\n      dup1\n      swap2\n      sub\n      swap1\n      return\n        /* \"Legacy.sol\":2762:2879  function getLastPingedTimeStamp() external view returns(uint256) {... */\n    tag_4:\n      tag_15\n      tag_16\n      jump\t// in\n    tag_15:\n      mload(0x40)\n      tag_17\n      swap2\n      swap1\n      tag_18\n      jump\t// in\n    tag_17:\n      mload(0x40)\n      dup1\n      swap2\n      sub\n      swap1\n      return\n        /* \"Legacy.sol\":1689:2476  function claim(address _subscriber) public {... */\n    tag_5:\n      tag_19\n      0x04\n      dup1\n      calldatasize\n      sub\n      dup2\n      add\n      swap1\n      tag_20\n      swap2\n      swap1\n      tag_21\n      jump\t// in\n    tag_20:\n      tag_22\n      jump\t// in\n    tag_19:\n      stop\n        /* \"Legacy.sol\":1597:1683  function ping() public {... */\n    tag_6:\n      tag_23\n      tag_24\n      jump\t// in\n    tag_23:\n      stop\n        /* \"Legacy.sol\":643:699  uint32 constant public REFRESH_TIME = 365 days + 4 hours */\n    tag_7:\n      tag_25\n      tag_26\n      jump\t// in\n    tag_25:\n      mload(0x40)\n      tag_27\n      swap2\n      swap1\n      tag_28\n      jump\t// in\n    tag_27:\n      mload(0x40)\n      dup1\n      swap2\n      sub\n      swap1\n      return\n        /* \"Legacy.sol\":705:736  ICINFT public immutable i_cinft */\n    tag_8:\n      tag_29\n      tag_30\n      jump\t// in\n    tag_29:\n      mload(0x40)\n      tag_31\n      swap2\n      swap1\n      tag_32\n      jump\t// in\n    tag_31:\n      mload(0x40)\n      dup1\n      swap2\n      sub\n      swap1\n      return\n        /* \"Legacy.sol\":917:1591  function onERC721Received(... */\n    tag_12:\n        /* \"Legacy.sol\":1085:1091  bytes4 */\n      0x00\n        /* \"Legacy.sol\":1168:1175  i_cinft */\n      immutable(\"0x064695b146a044c9c110055b7d61d48dacfcf52711cc861195c53207405bbba0\")\n        /* \"Legacy.sol\":1146:1176  msg.sender != address(i_cinft) */\n      0xffffffffffffffffffffffffffffffffffffffff\n      and\n        /* \"Legacy.sol\":1146:1156  msg.sender */\n      caller\n        /* \"Legacy.sol\":1146:1176  msg.sender != address(i_cinft) */\n      0xffffffffffffffffffffffffffffffffffffffff\n      and\n      eq\n        /* \"Legacy.sol\":1143:1238  if(msg.sender != address(i_cinft)) revert Legacy__TheNFTReceivedIsNotFromTheDesiredCollection() */\n      tag_34\n      jumpi\n        /* \"Legacy.sol\":1185:1238  Legacy__TheNFTReceivedIsNotFromTheDesiredCollection() */\n      mload(0x40)\n      0xc7ede59d00000000000000000000000000000000000000000000000000000000\n      dup2\n      mstore\n      0x04\n      add\n      mload(0x40)\n      dup1\n      swap2\n      sub\n      swap1\n      revert\n        /* \"Legacy.sol\":1143:1238  if(msg.sender != address(i_cinft)) revert Legacy__TheNFTReceivedIsNotFromTheDesiredCollection() */\n    tag_34:\n        /* \"Legacy.sol\":1281:1285  from */\n      dup5\n        /* \"Legacy.sol\":1251:1285  i_cinft.getMinter(tokenId) != from */\n      0xffffffffffffffffffffffffffffffffffffffff\n      and\n        /* \"Legacy.sol\":1251:1258  i_cinft */\n      immutable(\"0x064695b146a044c9c110055b7d61d48dacfcf52711cc861195c53207405bbba0\")\n        /* \"Legacy.sol\":1251:1268  i_cinft.getMinter */\n      0xffffffffffffffffffffffffffffffffffffffff\n      and\n      0x5b7121f8\n        /* \"Legacy.sol\":1269:1276  tokenId */\n      dup7\n        /* \"Legacy.sol\":1251:1277  i_cinft.getMinter(tokenId) */\n      mload(0x40)\n      dup3\n      0xffffffff\n      and\n      0xe0\n      shl\n      dup2\n      mstore\n      0x04\n      add\n      tag_35\n      swap2\n      swap1\n      tag_18\n      jump\t// in\n    tag_35:\n      0x20\n      mload(0x40)\n      dup1\n      dup4\n      sub\n      dup2\n      dup7\n      gas\n      staticcall\n      iszero\n      dup1\n      iszero\n      tag_37\n      jumpi\n      returndatacopy(0x00, 0x00, returndatasize)\n      revert(0x00, returndatasize)\n    tag_37:\n      pop\n      pop\n      pop\n      pop\n      mload(0x40)\n      returndatasize\n      not(0x1f)\n      0x1f\n      dup3\n      add\n      and\n      dup3\n      add\n      dup1\n      0x40\n      mstore\n      pop\n      dup2\n      add\n      swap1\n      tag_38\n      swap2\n      swap1\n      tag_39\n      jump\t// in\n    tag_38:\n        /* \"Legacy.sol\":1251:1285  i_cinft.getMinter(tokenId) != from */\n      0xffffffffffffffffffffffffffffffffffffffff\n      and\n      eq\n        /* \"Legacy.sol\":1248:1336  if(i_cinft.getMinter(tokenId) != from) revert Legacy__TheNFTReceivedIsNotFromTheMinter() */\n      tag_40\n      jumpi\n        /* \"Legacy.sol\":1294:1336  Legacy__TheNFTReceivedIsNotFromTheMinter() */\n      mload(0x40)\n      0x3fc4526100000000000000000000000000000000000000000000000000000000\n      dup2\n      mstore\n      0x04\n      add\n      mload(0x40)\n      dup1\n      swap2\n      sub\n      swap1\n      revert\n        /* \"Legacy.sol\":1248:1336  if(i_cinft.getMinter(tokenId) != from) revert Legacy__TheNFTReceivedIsNotFromTheMinter() */\n    tag_40:\n        /* \"Legacy.sol\":1347:1369  address nomineeAddress */\n      0x00\n        /* \"Legacy.sol\":1383:1387  data */\n      dup4\n      dup4\n        /* \"Legacy.sol\":1372:1399  abi.decode(data, (address)) */\n      dup2\n      add\n      swap1\n      tag_41\n      swap2\n      swap1\n      tag_42\n      jump\t// in\n    tag_41:\n        /* \"Legacy.sol\":1347:1399  address nomineeAddress = abi.decode(data, (address)) */\n      swap1\n      pop\n        /* \"Legacy.sol\":1409:1451  _addNominee(from, tokenId, nomineeAddress) */\n      tag_43\n        /* \"Legacy.sol\":1421:1425  from */\n      dup7\n        /* \"Legacy.sol\":1427:1434  tokenId */\n      dup7\n        /* \"Legacy.sol\":1436:1450  nomineeAddress */\n      dup4\n        /* \"Legacy.sol\":1409:1420  _addNominee */\n      tag_44\n        /* \"Legacy.sol\":1409:1451  _addNominee(from, tokenId, nomineeAddress) */\n      jump\t// in\n    tag_43:\n        /* \"Legacy.sol\":1543:1584  IERC721Receiver.onERC721Received.selector */\n      shl(0xe0, 0x150b7a02)\n        /* \"Legacy.sol\":1536:1584  return IERC721Receiver.onERC721Received.selector */\n      swap2\n      pop\n      pop\n        /* \"Legacy.sol\":917:1591  function onERC721Received(... */\n      swap6\n      swap5\n      pop\n      pop\n      pop\n      pop\n      pop\n      jump\t// out\n        /* \"Legacy.sol\":2762:2879  function getLastPingedTimeStamp() external view returns(uint256) {... */\n    tag_16:\n        /* \"Legacy.sol\":2818:2825  uint256 */\n      0x00\n        /* \"Legacy.sol\":2844:2860  s_lastPingedTime */\n      0x02\n        /* \"Legacy.sol\":2844:2872  s_lastPingedTime[msg.sender] */\n      0x00\n        /* \"Legacy.sol\":2861:2871  msg.sender */\n      caller\n        /* \"Legacy.sol\":2844:2872  s_lastPingedTime[msg.sender] */\n      0xffffffffffffffffffffffffffffffffffffffff\n      and\n      0xffffffffffffffffffffffffffffffffffffffff\n      and\n      dup2\n      mstore\n      0x20\n      add\n      swap1\n      dup2\n      mstore\n      0x20\n      add\n      0x00\n      keccak256\n      sload\n        /* \"Legacy.sol\":2837:2872  return s_lastPingedTime[msg.sender] */\n      swap1\n      pop\n        /* \"Legacy.sol\":2762:2879  function getLastPingedTimeStamp() external view returns(uint256) {... */\n      swap1\n      jump\t// out\n        /* \"Legacy.sol\":1689:2476  function claim(address _subscriber) public {... */\n    tag_22:\n        /* \"Legacy.sol\":681:699  365 days + 4 hours */\n      0x01e16bc0\n        /* \"Legacy.sol\":1745:1807  block.timestamp - s_lastPingedTime[_subscriber] < REFRESH_TIME */\n      0xffffffff\n      and\n        /* \"Legacy.sol\":1763:1779  s_lastPingedTime */\n      0x02\n        /* \"Legacy.sol\":1763:1792  s_lastPingedTime[_subscriber] */\n      0x00\n        /* \"Legacy.sol\":1780:1791  _subscriber */\n      dup4\n        /* \"Legacy.sol\":1763:1792  s_lastPingedTime[_subscriber] */\n      0xffffffffffffffffffffffffffffffffffffffff\n      and\n      0xffffffffffffffffffffffffffffffffffffffff\n      and\n      dup2\n      mstore\n      0x20\n      add\n      swap1\n      dup2\n      mstore\n      0x20\n      add\n      0x00\n      keccak256\n      sload\n        /* \"Legacy.sol\":1745:1760  block.timestamp */\n      timestamp\n        /* \"Legacy.sol\":1745:1792  block.timestamp - s_lastPingedTime[_subscriber] */\n      tag_47\n      swap2\n      swap1\n      tag_48\n      jump\t// in\n    tag_47:\n        /* \"Legacy.sol\":1745:1807  block.timestamp - s_lastPingedTime[_subscriber] < REFRESH_TIME */\n      lt\n        /* \"Legacy.sol\":1742:1852  if(block.timestamp - s_lastPingedTime[_subscriber] < REFRESH_TIME) revert Legacy__TheRefreshTimeHasNotPassed() */\n      iszero\n      tag_49\n      jumpi\n        /* \"Legacy.sol\":1816:1852  Legacy__TheRefreshTimeHasNotPassed() */\n      mload(0x40)\n      0x6cd3ceb600000000000000000000000000000000000000000000000000000000\n      dup2\n      mstore\n      0x04\n      add\n      mload(0x40)\n      dup1\n      swap2\n      sub\n      swap1\n      revert\n        /* \"Legacy.sol\":1742:1852  if(block.timestamp - s_lastPingedTime[_subscriber] < REFRESH_TIME) revert Legacy__TheRefreshTimeHasNotPassed() */\n    tag_49:\n        /* \"Legacy.sol\":1863:1888  uint256[] memory tokenIds */\n      0x00\n        /* \"Legacy.sol\":1891:1914  s_subscribersToTokenIds */\n      0x01\n        /* \"Legacy.sol\":1891:1927  s_subscribersToTokenIds[_subscriber] */\n      0x00\n        /* \"Legacy.sol\":1915:1926  _subscriber */\n      dup4\n        /* \"Legacy.sol\":1891:1927  s_subscribersToTokenIds[_subscriber] */\n      0xffffffffffffffffffffffffffffffffffffffff\n      and\n      0xffffffffffffffffffffffffffffffffffffffff\n      and\n      dup2\n      mstore\n      0x20\n      add\n      swap1\n      dup2\n      mstore\n      0x20\n      add\n      0x00\n      keccak256\n        /* \"Legacy.sol\":1863:1927  uint256[] memory tokenIds = s_subscribersToTokenIds[_subscriber] */\n      dup1\n      sload\n      dup1\n      0x20\n      mul\n      0x20\n      add\n      mload(0x40)\n      swap1\n      dup2\n      add\n      0x40\n      mstore\n      dup1\n      swap3\n      swap2\n      swap1\n      dup2\n      dup2\n      mstore\n      0x20\n      add\n      dup3\n      dup1\n      sload\n      dup1\n      iszero\n      tag_50\n      jumpi\n      0x20\n      mul\n      dup3\n      add\n      swap2\n      swap1\n      0x00\n      mstore\n      keccak256(0x00, 0x20)\n      swap1\n    tag_51:\n      dup2\n      sload\n      dup2\n      mstore\n      0x20\n      add\n      swap1\n      0x01\n      add\n      swap1\n      dup1\n      dup4\n      gt\n      tag_51\n      jumpi\n    tag_50:\n      pop\n      pop\n      pop\n      pop\n      pop\n      swap1\n      pop\n        /* \"Legacy.sol\":1960:1961  0 */\n      0x00\n        /* \"Legacy.sol\":1941:1949  tokenIds */\n      dup2\n        /* \"Legacy.sol\":1941:1956  tokenIds.length */\n      mload\n        /* \"Legacy.sol\":1941:1961  tokenIds.length == 0 */\n      sub\n        /* \"Legacy.sol\":1938:1993  if(tokenIds.length == 0) revert Legacy__NoNFTsToClaim() */\n      tag_52\n      jumpi\n        /* \"Legacy.sol\":1970:1993  Legacy__NoNFTsToClaim() */\n      mload(0x40)\n      0x2375694800000000000000000000000000000000000000000000000000000000\n      dup2\n      mstore\n      0x04\n      add\n      mload(0x40)\n      dup1\n      swap2\n      sub\n      swap1\n      revert\n        /* \"Legacy.sol\":1938:1993  if(tokenIds.length == 0) revert Legacy__NoNFTsToClaim() */\n    tag_52:\n        /* \"Legacy.sol\":2008:2017  uint256 i */\n      0x00\n        /* \"Legacy.sol\":2020:2021  0 */\n      0x00\n        /* \"Legacy.sol\":2008:2021  uint256 i = 0 */\n      swap1\n      pop\n        /* \"Legacy.sol\":2004:2344  for(uint256 i = 0; i < tokenIds.length; i++) {... */\n    tag_53:\n        /* \"Legacy.sol\":2027:2035  tokenIds */\n      dup2\n        /* \"Legacy.sol\":2027:2042  tokenIds.length */\n      mload\n        /* \"Legacy.sol\":2023:2024  i */\n      dup2\n        /* \"Legacy.sol\":2023:2042  i < tokenIds.length */\n      lt\n        /* \"Legacy.sol\":2004:2344  for(uint256 i = 0; i < tokenIds.length; i++) {... */\n      iszero\n      tag_54\n      jumpi\n        /* \"Legacy.sol\":2063:2078  address nominee */\n      0x00\n        /* \"Legacy.sol\":2081:2104  s_subscribersToNominees */\n      0x00\n        /* \"Legacy.sol\":2081:2117  s_subscribersToNominees[_subscriber] */\n      0x00\n        /* \"Legacy.sol\":2105:2116  _subscriber */\n      dup6\n        /* \"Legacy.sol\":2081:2117  s_subscribersToNominees[_subscriber] */\n      0xffffffffffffffffffffffffffffffffffffffff\n      and\n      0xffffffffffffffffffffffffffffffffffffffff\n      and\n      dup2\n      mstore\n      0x20\n      add\n      swap1\n      dup2\n      mstore\n      0x20\n      add\n      0x00\n      keccak256\n        /* \"Legacy.sol\":2118:2119  i */\n      dup3\n        /* \"Legacy.sol\":2081:2120  s_subscribersToNominees[_subscriber][i] */\n      dup2\n      sload\n      dup2\n      lt\n      tag_56\n      jumpi\n      tag_57\n      tag_58\n      jump\t// in\n    tag_57:\n    tag_56:\n      swap1\n      0x00\n      mstore\n      keccak256(0x00, 0x20)\n      add\n      0x00\n      swap1\n      sload\n      swap1\n      0x0100\n      exp\n      swap1\n      div\n      0xffffffffffffffffffffffffffffffffffffffff\n      and\n        /* \"Legacy.sol\":2063:2120  address nominee = s_subscribersToNominees[_subscriber][i] */\n      swap1\n      pop\n        /* \"Legacy.sol\":2150:2157  i_cinft */\n      immutable(\"0x064695b146a044c9c110055b7d61d48dacfcf52711cc861195c53207405bbba0\")\n        /* \"Legacy.sol\":2134:2176  IERC721(address(i_cinft)).safeTransferFrom */\n      0xffffffffffffffffffffffffffffffffffffffff\n      and\n      0x42842e0e\n        /* \"Legacy.sol\":2185:2189  this */\n      address\n        /* \"Legacy.sol\":2192:2199  nominee */\n      dup4\n        /* \"Legacy.sol\":2201:2209  tokenIds */\n      dup7\n        /* \"Legacy.sol\":2210:2211  i */\n      dup7\n        /* \"Legacy.sol\":2201:2212  tokenIds[i] */\n      dup2\n      mload\n      dup2\n      lt\n      tag_60\n      jumpi\n      tag_61\n      tag_58\n      jump\t// in\n    tag_61:\n    tag_60:\n      0x20\n      mul\n      0x20\n      add\n      add\n      mload\n        /* \"Legacy.sol\":2134:2213  IERC721(address(i_cinft)).safeTransferFrom(address(this), nominee, tokenIds[i]) */\n      mload(0x40)\n      dup5\n      0xffffffff\n      and\n      0xe0\n      shl\n      dup2\n      mstore\n      0x04\n      add\n      tag_62\n      swap4\n      swap3\n      swap2\n      swap1\n      tag_63\n      jump\t// in\n    tag_62:\n      0x00\n      mload(0x40)\n      dup1\n      dup4\n      sub\n      dup2\n      0x00\n      dup8\n      dup1\n      extcodesize\n      iszero\n      dup1\n      iszero\n      tag_64\n      jumpi\n      revert(0x00, 0x00)\n    tag_64:\n      pop\n      gas\n      call\n      iszero\n      dup1\n      iszero\n      tag_66\n      jumpi\n      returndatacopy(0x00, 0x00, returndatasize)\n      revert(0x00, returndatasize)\n    tag_66:\n      pop\n      pop\n      pop\n      pop\n        /* \"Legacy.sol\":2234:2257  s_subscribersToNominees */\n      0x00\n        /* \"Legacy.sol\":2234:2270  s_subscribersToNominees[_subscriber] */\n      0x00\n        /* \"Legacy.sol\":2258:2269  _subscriber */\n      dup6\n        /* \"Legacy.sol\":2234:2270  s_subscribersToNominees[_subscriber] */\n      0xffffffffffffffffffffffffffffffffffffffff\n      and\n      0xffffffffffffffffffffffffffffffffffffffff\n      and\n      dup2\n      mstore\n      0x20\n      add\n      swap1\n      dup2\n      mstore\n      0x20\n      add\n      0x00\n      keccak256\n        /* \"Legacy.sol\":2271:2272  i */\n      dup3\n        /* \"Legacy.sol\":2234:2273  s_subscribersToNominees[_subscriber][i] */\n      dup2\n      sload\n      dup2\n      lt\n      tag_67\n      jumpi\n      tag_68\n      tag_58\n      jump\t// in\n    tag_68:\n    tag_67:\n      swap1\n      0x00\n      mstore\n      keccak256(0x00, 0x20)\n      add\n      0x00\n        /* \"Legacy.sol\":2227:2273  delete s_subscribersToNominees[_subscriber][i] */\n      0x0100\n      exp\n      dup2\n      sload\n      swap1\n      0xffffffffffffffffffffffffffffffffffffffff\n      mul\n      not\n      and\n      swap1\n      sstore\n        /* \"Legacy.sol\":2294:2317  s_subscribersToTokenIds */\n      0x01\n        /* \"Legacy.sol\":2294:2330  s_subscribersToTokenIds[_subscriber] */\n      0x00\n        /* \"Legacy.sol\":2318:2329  _subscriber */\n      dup6\n        /* \"Legacy.sol\":2294:2330  s_subscribersToTokenIds[_subscriber] */\n      0xffffffffffffffffffffffffffffffffffffffff\n      and\n      0xffffffffffffffffffffffffffffffffffffffff\n      and\n      dup2\n      mstore\n      0x20\n      add\n      swap1\n      dup2\n      mstore\n      0x20\n      add\n      0x00\n      keccak256\n        /* \"Legacy.sol\":2331:2332  i */\n      dup3\n        /* \"Legacy.sol\":2294:2333  s_subscribersToTokenIds[_subscriber][i] */\n      dup2\n      sload\n      dup2\n      lt\n      tag_70\n      jumpi\n      tag_71\n      tag_58\n      jump\t// in\n    tag_71:\n    tag_70:\n      swap1\n      0x00\n      mstore\n      keccak256(0x00, 0x20)\n      add\n        /* \"Legacy.sol\":2287:2333  delete s_subscribersToTokenIds[_subscriber][i] */\n      0x00\n      swap1\n      sstore\n        /* \"Legacy.sol\":2049:2344  {... */\n      pop\n        /* \"Legacy.sol\":2044:2047  i++ */\n      dup1\n      dup1\n      0x01\n      add\n      swap2\n      pop\n      pop\n        /* \"Legacy.sol\":2004:2344  for(uint256 i = 0; i < tokenIds.length; i++) {... */\n      jump(tag_53)\n    tag_54:\n      pop\n        /* \"Legacy.sol\":2386:2387  0 */\n      0x00\n        /* \"Legacy.sol\":2354:2370  s_lastPingedTime */\n      0x02\n        /* \"Legacy.sol\":2354:2383  s_lastPingedTime[_subscriber] */\n      0x00\n        /* \"Legacy.sol\":2371:2382  _subscriber */\n      dup5\n        /* \"Legacy.sol\":2354:2383  s_lastPingedTime[_subscriber] */\n      0xffffffffffffffffffffffffffffffffffffffff\n      and\n      0xffffffffffffffffffffffffffffffffffffffff\n      and\n      dup2\n      mstore\n      0x20\n      add\n      swap1\n      dup2\n      mstore\n      0x20\n      add\n      0x00\n      keccak256\n        /* \"Legacy.sol\":2354:2387  s_lastPingedTime[_subscriber] = 0 */\n      dup2\n      swap1\n      sstore\n      pop\n        /* \"Legacy.sol\":2419:2430  _subscriber */\n      dup2\n        /* \"Legacy.sol\":2411:2469  Claimed(_subscriber, s_subscribersToNominees[_subscriber]) */\n      0xffffffffffffffffffffffffffffffffffffffff\n      and\n      0x1c3938175cae854e0d6cf1063f86f274e6c61e013bb38a9e73268defa5d0b34b\n        /* \"Legacy.sol\":2432:2455  s_subscribersToNominees */\n      0x00\n        /* \"Legacy.sol\":2432:2468  s_subscribersToNominees[_subscriber] */\n      0x00\n        /* \"Legacy.sol\":2456:2467  _subscriber */\n      dup6\n        /* \"Legacy.sol\":2432:2468  s_subscribersToNominees[_subscriber] */\n      0xffffffffffffffffffffffffffffffffffffffff\n      and\n      0xffffffffffffffffffffffffffffffffffffffff\n      and\n      dup2\n      mstore\n      0x20\n      add\n      swap1\n      dup2\n      mstore\n      0x20\n      add\n      0x00\n      keccak256\n        /* \"Legacy.sol\":2411:2469  Claimed(_subscriber, s_subscribersToNominees[_subscriber]) */\n      mload(0x40)\n      tag_73\n      swap2\n      swap1\n      tag_74\n      jump\t// in\n    tag_73:\n      mload(0x40)\n      dup1\n      swap2\n      sub\n      swap1\n      log2\n        /* \"Legacy.sol\":1732:2476  {... */\n      pop\n        /* \"Legacy.sol\":1689:2476  function claim(address _subscriber) public {... */\n      pop\n      jump\t// out\n        /* \"Legacy.sol\":1597:1683  function ping() public {... */\n    tag_24:\n        /* \"Legacy.sol\":1661:1676  block.timestamp */\n      timestamp\n        /* \"Legacy.sol\":1630:1646  s_lastPingedTime */\n      0x02\n        /* \"Legacy.sol\":1630:1658  s_lastPingedTime[msg.sender] */\n      0x00\n        /* \"Legacy.sol\":1647:1657  msg.sender */\n      caller\n        /* \"Legacy.sol\":1630:1658  s_lastPingedTime[msg.sender] */\n      0xffffffffffffffffffffffffffffffffffffffff\n      and\n      0xffffffffffffffffffffffffffffffffffffffff\n      and\n      dup2\n      mstore\n      0x20\n      add\n      swap1\n      dup2\n      mstore\n      0x20\n      add\n      0x00\n      keccak256\n        /* \"Legacy.sol\":1630:1676  s_lastPingedTime[msg.sender] = block.timestamp */\n      dup2\n      swap1\n      sstore\n      pop\n        /* \"Legacy.sol\":1597:1683  function ping() public {... */\n      jump\t// out\n        /* \"Legacy.sol\":643:699  uint32 constant public REFRESH_TIME = 365 days + 4 hours */\n    tag_26:\n        /* \"Legacy.sol\":681:699  365 days + 4 hours */\n      0x01e16bc0\n        /* \"Legacy.sol\":643:699  uint32 constant public REFRESH_TIME = 365 days + 4 hours */\n      dup2\n      jump\t// out\n        /* \"Legacy.sol\":705:736  ICINFT public immutable i_cinft */\n    tag_30:\n      immutable(\"0x064695b146a044c9c110055b7d61d48dacfcf52711cc861195c53207405bbba0\")\n      dup2\n      jump\t// out\n        /* \"Legacy.sol\":2482:2756  function _addNominee(address _minter, uint256 _tokenId, address _nomineeAddress) internal {... */\n    tag_44:\n        /* \"Legacy.sol\":2582:2605  s_subscribersToTokenIds */\n      0x01\n        /* \"Legacy.sol\":2582:2614  s_subscribersToTokenIds[_minter] */\n      0x00\n        /* \"Legacy.sol\":2606:2613  _minter */\n      dup5\n        /* \"Legacy.sol\":2582:2614  s_subscribersToTokenIds[_minter] */\n      0xffffffffffffffffffffffffffffffffffffffff\n      and\n      0xffffffffffffffffffffffffffffffffffffffff\n      and\n      dup2\n      mstore\n      0x20\n      add\n      swap1\n      dup2\n      mstore\n      0x20\n      add\n      0x00\n      keccak256\n        /* \"Legacy.sol\":2620:2628  _tokenId */\n      dup3\n        /* \"Legacy.sol\":2582:2629  s_subscribersToTokenIds[_minter].push(_tokenId) */\n      swap1\n      dup1\n      0x01\n      dup2\n      sload\n      add\n      dup1\n      dup3\n      sstore\n      dup1\n      swap2\n      pop\n      pop\n      0x01\n      swap1\n      sub\n      swap1\n      0x00\n      mstore\n      keccak256(0x00, 0x20)\n      add\n      0x00\n      swap1\n      swap2\n      swap1\n      swap2\n      swap1\n      swap2\n      pop\n      sstore\n        /* \"Legacy.sol\":2639:2662  s_subscribersToNominees */\n      0x00\n        /* \"Legacy.sol\":2639:2671  s_subscribersToNominees[_minter] */\n      0x00\n        /* \"Legacy.sol\":2663:2670  _minter */\n      dup5\n        /* \"Legacy.sol\":2639:2671  s_subscribersToNominees[_minter] */\n      0xffffffffffffffffffffffffffffffffffffffff\n      and\n      0xffffffffffffffffffffffffffffffffffffffff\n      and\n      dup2\n      mstore\n      0x20\n      add\n      swap1\n      dup2\n      mstore\n      0x20\n      add\n      0x00\n      keccak256\n        /* \"Legacy.sol\":2677:2692  _nomineeAddress */\n      dup2\n        /* \"Legacy.sol\":2639:2693  s_subscribersToNominees[_minter].push(_nomineeAddress) */\n      swap1\n      dup1\n      0x01\n      dup2\n      sload\n      add\n      dup1\n      dup3\n      sstore\n      dup1\n      swap2\n      pop\n      pop\n      0x01\n      swap1\n      sub\n      swap1\n      0x00\n      mstore\n      keccak256(0x00, 0x20)\n      add\n      0x00\n      swap1\n      swap2\n      swap1\n      swap2\n      swap1\n      swap2\n      0x0100\n      exp\n      dup2\n      sload\n      dup2\n      0xffffffffffffffffffffffffffffffffffffffff\n      mul\n      not\n      and\n      swap1\n      dup4\n      0xffffffffffffffffffffffffffffffffffffffff\n      and\n      mul\n      or\n      swap1\n      sstore\n      pop\n        /* \"Legacy.sol\":2734:2749  block.timestamp */\n      timestamp\n        /* \"Legacy.sol\":2703:2719  s_lastPingedTime */\n      0x02\n        /* \"Legacy.sol\":2703:2731  s_lastPingedTime[msg.sender] */\n      0x00\n        /* \"Legacy.sol\":2720:2730  msg.sender */\n      caller\n        /* \"Legacy.sol\":2703:2731  s_lastPingedTime[msg.sender] */\n      0xffffffffffffffffffffffffffffffffffffffff\n      and\n      0xffffffffffffffffffffffffffffffffffffffff\n      and\n      dup2\n      mstore\n      0x20\n      add\n      swap1\n      dup2\n      mstore\n      0x20\n      add\n      0x00\n      keccak256\n        /* \"Legacy.sol\":2703:2749  s_lastPingedTime[msg.sender] = block.timestamp */\n      dup2\n      swap1\n      sstore\n      pop\n        /* \"Legacy.sol\":2482:2756  function _addNominee(address _minter, uint256 _tokenId, address _nomineeAddress) internal {... */\n      pop\n      pop\n      pop\n      jump\t// out\n        /* \"#utility.yul\":88:205   */\n    tag_80:\n        /* \"#utility.yul\":197:198   */\n      0x00\n        /* \"#utility.yul\":194:195   */\n      0x00\n        /* \"#utility.yul\":187:199   */\n      revert\n        /* \"#utility.yul\":211:328   */\n    tag_81:\n        /* \"#utility.yul\":320:321   */\n      0x00\n        /* \"#utility.yul\":317:318   */\n      0x00\n        /* \"#utility.yul\":310:322   */\n      revert\n        /* \"#utility.yul\":334:460   */\n    tag_82:\n        /* \"#utility.yul\":371:378   */\n      0x00\n        /* \"#utility.yul\":411:453   */\n      0xffffffffffffffffffffffffffffffffffffffff\n        /* \"#utility.yul\":404:409   */\n      dup3\n        /* \"#utility.yul\":400:454   */\n      and\n        /* \"#utility.yul\":389:454   */\n      swap1\n      pop\n        /* \"#utility.yul\":334:460   */\n      swap2\n      swap1\n      pop\n      jump\t// out\n        /* \"#utility.yul\":466:562   */\n    tag_83:\n        /* \"#utility.yul\":503:510   */\n      0x00\n        /* \"#utility.yul\":532:556   */\n      tag_126\n        /* \"#utility.yul\":550:555   */\n      dup3\n        /* \"#utility.yul\":532:556   */\n      tag_82\n      jump\t// in\n    tag_126:\n        /* \"#utility.yul\":521:556   */\n      swap1\n      pop\n        /* \"#utility.yul\":466:562   */\n      swap2\n      swap1\n      pop\n      jump\t// out\n        /* \"#utility.yul\":568:690   */\n    tag_84:\n        /* \"#utility.yul\":641:665   */\n      tag_128\n        /* \"#utility.yul\":659:664   */\n      dup2\n        /* \"#utility.yul\":641:665   */\n      tag_83\n      jump\t// in\n    tag_128:\n        /* \"#utility.yul\":634:639   */\n      dup2\n        /* \"#utility.yul\":631:666   */\n      eq\n        /* \"#utility.yul\":621:684   */\n      tag_129\n      jumpi\n        /* \"#utility.yul\":680:681   */\n      0x00\n        /* \"#utility.yul\":677:678   */\n      0x00\n        /* \"#utility.yul\":670:682   */\n      revert\n        /* \"#utility.yul\":621:684   */\n    tag_129:\n        /* \"#utility.yul\":568:690   */\n      pop\n      jump\t// out\n        /* \"#utility.yul\":696:835   */\n    tag_85:\n        /* \"#utility.yul\":742:747   */\n      0x00\n        /* \"#utility.yul\":780:786   */\n      dup2\n        /* \"#utility.yul\":767:787   */\n      calldataload\n        /* \"#utility.yul\":758:787   */\n      swap1\n      pop\n        /* \"#utility.yul\":796:829   */\n      tag_131\n        /* \"#utility.yul\":823:828   */\n      dup2\n        /* \"#utility.yul\":796:829   */\n      tag_84\n      jump\t// in\n    tag_131:\n        /* \"#utility.yul\":696:835   */\n      swap3\n      swap2\n      pop\n      pop\n      jump\t// out\n        /* \"#utility.yul\":841:918   */\n    tag_86:\n        /* \"#utility.yul\":878:885   */\n      0x00\n        /* \"#utility.yul\":907:912   */\n      dup2\n        /* \"#utility.yul\":896:912   */\n      swap1\n      pop\n        /* \"#utility.yul\":841:918   */\n      swap2\n      swap1\n      pop\n      jump\t// out\n        /* \"#utility.yul\":924:1046   */\n    tag_87:\n        /* \"#utility.yul\":997:1021   */\n      tag_134\n        /* \"#utility.yul\":1015:1020   */\n      dup2\n        /* \"#utility.yul\":997:1021   */\n      tag_86\n      jump\t// in\n    tag_134:\n        /* \"#utility.yul\":990:995   */\n      dup2\n        /* \"#utility.yul\":987:1022   */\n      eq\n        /* \"#utility.yul\":977:1040   */\n      tag_135\n      jumpi\n        /* \"#utility.yul\":1036:1037   */\n      0x00\n        /* \"#utility.yul\":1033:1034   */\n      0x00\n        /* \"#utility.yul\":1026:1038   */\n      revert\n        /* \"#utility.yul\":977:1040   */\n    tag_135:\n        /* \"#utility.yul\":924:1046   */\n      pop\n      jump\t// out\n        /* \"#utility.yul\":1052:1191   */\n    tag_88:\n        /* \"#utility.yul\":1098:1103   */\n      0x00\n        /* \"#utility.yul\":1136:1142   */\n      dup2\n        /* \"#utility.yul\":1123:1143   */\n      calldataload\n        /* \"#utility.yul\":1114:1143   */\n      swap1\n      pop\n        /* \"#utility.yul\":1152:1185   */\n      tag_137\n        /* \"#utility.yul\":1179:1184   */\n      dup2\n        /* \"#utility.yul\":1152:1185   */\n      tag_87\n      jump\t// in\n    tag_137:\n        /* \"#utility.yul\":1052:1191   */\n      swap3\n      swap2\n      pop\n      pop\n      jump\t// out\n        /* \"#utility.yul\":1197:1314   */\n    tag_89:\n        /* \"#utility.yul\":1306:1307   */\n      0x00\n        /* \"#utility.yul\":1303:1304   */\n      0x00\n        /* \"#utility.yul\":1296:1308   */\n      revert\n        /* \"#utility.yul\":1320:1437   */\n    tag_90:\n        /* \"#utility.yul\":1429:1430   */\n      0x00\n        /* \"#utility.yul\":1426:1427   */\n      0x00\n        /* \"#utility.yul\":1419:1431   */\n      revert\n        /* \"#utility.yul\":1443:1560   */\n    tag_91:\n        /* \"#utility.yul\":1552:1553   */\n      0x00\n        /* \"#utility.yul\":1549:1550   */\n      0x00\n        /* \"#utility.yul\":1542:1554   */\n      revert\n        /* \"#utility.yul\":1579:2131   */\n    tag_92:\n        /* \"#utility.yul\":1636:1644   */\n      0x00\n        /* \"#utility.yul\":1646:1652   */\n      0x00\n        /* \"#utility.yul\":1696:1699   */\n      dup4\n        /* \"#utility.yul\":1689:1693   */\n      0x1f\n        /* \"#utility.yul\":1681:1687   */\n      dup5\n        /* \"#utility.yul\":1677:1694   */\n      add\n        /* \"#utility.yul\":1673:1700   */\n      slt\n        /* \"#utility.yul\":1663:1785   */\n      tag_142\n      jumpi\n        /* \"#utility.yul\":1704:1783   */\n      tag_143\n      tag_89\n      jump\t// in\n    tag_143:\n        /* \"#utility.yul\":1663:1785   */\n    tag_142:\n        /* \"#utility.yul\":1817:1823   */\n      dup3\n        /* \"#utility.yul\":1804:1824   */\n      calldataload\n        /* \"#utility.yul\":1794:1824   */\n      swap1\n      pop\n        /* \"#utility.yul\":1847:1865   */\n      0xffffffffffffffff\n        /* \"#utility.yul\":1839:1845   */\n      dup2\n        /* \"#utility.yul\":1836:1866   */\n      gt\n        /* \"#utility.yul\":1833:1950   */\n      iszero\n      tag_144\n      jumpi\n        /* \"#utility.yul\":1869:1948   */\n      tag_145\n      tag_90\n      jump\t// in\n    tag_145:\n        /* \"#utility.yul\":1833:1950   */\n    tag_144:\n        /* \"#utility.yul\":1983:1987   */\n      0x20\n        /* \"#utility.yul\":1975:1981   */\n      dup4\n        /* \"#utility.yul\":1971:1988   */\n      add\n        /* \"#utility.yul\":1959:1988   */\n      swap2\n      pop\n        /* \"#utility.yul\":2037:2040   */\n      dup4\n        /* \"#utility.yul\":2029:2033   */\n      0x01\n        /* \"#utility.yul\":2021:2027   */\n      dup3\n        /* \"#utility.yul\":2017:2034   */\n      mul\n        /* \"#utility.yul\":2007:2015   */\n      dup4\n        /* \"#utility.yul\":2003:2035   */\n      add\n        /* \"#utility.yul\":2000:2041   */\n      gt\n        /* \"#utility.yul\":1997:2125   */\n      iszero\n      tag_146\n      jumpi\n        /* \"#utility.yul\":2044:2123   */\n      tag_147\n      tag_91\n      jump\t// in\n    tag_147:\n        /* \"#utility.yul\":1997:2125   */\n    tag_146:\n        /* \"#utility.yul\":1579:2131   */\n      swap3\n      pop\n      swap3\n      swap1\n      pop\n      jump\t// out\n        /* \"#utility.yul\":2137:3100   */\n    tag_11:\n        /* \"#utility.yul\":2234:2240   */\n      0x00\n        /* \"#utility.yul\":2242:2248   */\n      0x00\n        /* \"#utility.yul\":2250:2256   */\n      0x00\n        /* \"#utility.yul\":2258:2264   */\n      0x00\n        /* \"#utility.yul\":2266:2272   */\n      0x00\n        /* \"#utility.yul\":2315:2318   */\n      0x80\n        /* \"#utility.yul\":2303:2312   */\n      dup7\n        /* \"#utility.yul\":2294:2301   */\n      dup9\n        /* \"#utility.yul\":2290:2313   */\n      sub\n        /* \"#utility.yul\":2286:2319   */\n      slt\n        /* \"#utility.yul\":2283:2403   */\n      iszero\n      tag_149\n      jumpi\n        /* \"#utility.yul\":2322:2401   */\n      tag_150\n      tag_80\n      jump\t// in\n    tag_150:\n        /* \"#utility.yul\":2283:2403   */\n    tag_149:\n        /* \"#utility.yul\":2442:2443   */\n      0x00\n        /* \"#utility.yul\":2467:2520   */\n      tag_151\n        /* \"#utility.yul\":2512:2519   */\n      dup9\n        /* \"#utility.yul\":2503:2509   */\n      dup3\n        /* \"#utility.yul\":2492:2501   */\n      dup10\n        /* \"#utility.yul\":2488:2510   */\n      add\n        /* \"#utility.yul\":2467:2520   */\n      tag_85\n      jump\t// in\n    tag_151:\n        /* \"#utility.yul\":2457:2520   */\n      swap6\n      pop\n        /* \"#utility.yul\":2413:2530   */\n      pop\n        /* \"#utility.yul\":2569:2571   */\n      0x20\n        /* \"#utility.yul\":2595:2648   */\n      tag_152\n        /* \"#utility.yul\":2640:2647   */\n      dup9\n        /* \"#utility.yul\":2631:2637   */\n      dup3\n        /* \"#utility.yul\":2620:2629   */\n      dup10\n        /* \"#utility.yul\":2616:2638   */\n      add\n        /* \"#utility.yul\":2595:2648   */\n      tag_85\n      jump\t// in\n    tag_152:\n        /* \"#utility.yul\":2585:2648   */\n      swap5\n      pop\n        /* \"#utility.yul\":2540:2658   */\n      pop\n        /* \"#utility.yul\":2697:2699   */\n      0x40\n        /* \"#utility.yul\":2723:2776   */\n      tag_153\n        /* \"#utility.yul\":2768:2775   */\n      dup9\n        /* \"#utility.yul\":2759:2765   */\n      dup3\n        /* \"#utility.yul\":2748:2757   */\n      dup10\n        /* \"#utility.yul\":2744:2766   */\n      add\n        /* \"#utility.yul\":2723:2776   */\n      tag_88\n      jump\t// in\n    tag_153:\n        /* \"#utility.yul\":2713:2776   */\n      swap4\n      pop\n        /* \"#utility.yul\":2668:2786   */\n      pop\n        /* \"#utility.yul\":2853:2855   */\n      0x60\n        /* \"#utility.yul\":2842:2851   */\n      dup7\n        /* \"#utility.yul\":2838:2856   */\n      add\n        /* \"#utility.yul\":2825:2857   */\n      calldataload\n        /* \"#utility.yul\":2884:2902   */\n      0xffffffffffffffff\n        /* \"#utility.yul\":2876:2882   */\n      dup2\n        /* \"#utility.yul\":2873:2903   */\n      gt\n        /* \"#utility.yul\":2870:2987   */\n      iszero\n      tag_154\n      jumpi\n        /* \"#utility.yul\":2906:2985   */\n      tag_155\n      tag_81\n      jump\t// in\n    tag_155:\n        /* \"#utility.yul\":2870:2987   */\n    tag_154:\n        /* \"#utility.yul\":3019:3083   */\n      tag_156\n        /* \"#utility.yul\":3075:3082   */\n      dup9\n        /* \"#utility.yul\":3066:3072   */\n      dup3\n        /* \"#utility.yul\":3055:3064   */\n      dup10\n        /* \"#utility.yul\":3051:3073   */\n      add\n        /* \"#utility.yul\":3019:3083   */\n      tag_92\n      jump\t// in\n    tag_156:\n        /* \"#utility.yul\":3001:3083   */\n      swap3\n      pop\n      swap3\n      pop\n        /* \"#utility.yul\":2796:3093   */\n      pop\n        /* \"#utility.yul\":2137:3100   */\n      swap3\n      swap6\n      pop\n      swap3\n      swap6\n      swap1\n      swap4\n      pop\n      jump\t// out\n        /* \"#utility.yul\":3106:3255   */\n    tag_93:\n        /* \"#utility.yul\":3142:3149   */\n      0x00\n        /* \"#utility.yul\":3182:3248   */\n      0xffffffff00000000000000000000000000000000000000000000000000000000\n        /* \"#utility.yul\":3175:3180   */\n      dup3\n        /* \"#utility.yul\":3171:3249   */\n      and\n        /* \"#utility.yul\":3160:3249   */\n      swap1\n      pop\n        /* \"#utility.yul\":3106:3255   */\n      swap2\n      swap1\n      pop\n      jump\t// out\n        /* \"#utility.yul\":3261:3376   */\n    tag_94:\n        /* \"#utility.yul\":3346:3369   */\n      tag_159\n        /* \"#utility.yul\":3363:3368   */\n      dup2\n        /* \"#utility.yul\":3346:3369   */\n      tag_93\n      jump\t// in\n    tag_159:\n        /* \"#utility.yul\":3341:3344   */\n      dup3\n        /* \"#utility.yul\":3334:3370   */\n      mstore\n        /* \"#utility.yul\":3261:3376   */\n      pop\n      pop\n      jump\t// out\n        /* \"#utility.yul\":3382:3600   */\n    tag_14:\n        /* \"#utility.yul\":3473:3477   */\n      0x00\n        /* \"#utility.yul\":3511:3513   */\n      0x20\n        /* \"#utility.yul\":3500:3509   */\n      dup3\n        /* \"#utility.yul\":3496:3514   */\n      add\n        /* \"#utility.yul\":3488:3514   */\n      swap1\n      pop\n        /* \"#utility.yul\":3524:3593   */\n      tag_161\n        /* \"#utility.yul\":3590:3591   */\n      0x00\n        /* \"#utility.yul\":3579:3588   */\n      dup4\n        /* \"#utility.yul\":3575:3592   */\n      add\n        /* \"#utility.yul\":3566:3572   */\n      dup5\n        /* \"#utility.yul\":3524:3593   */\n      tag_94\n      jump\t// in\n    tag_161:\n        /* \"#utility.yul\":3382:3600   */\n      swap3\n      swap2\n      pop\n      pop\n      jump\t// out\n        /* \"#utility.yul\":3606:3724   */\n    tag_95:\n        /* \"#utility.yul\":3693:3717   */\n      tag_163\n        /* \"#utility.yul\":3711:3716   */\n      dup2\n        /* \"#utility.yul\":3693:3717   */\n      tag_86\n      jump\t// in\n    tag_163:\n        /* \"#utility.yul\":3688:3691   */\n      dup3\n        /* \"#utility.yul\":3681:3718   */\n      mstore\n        /* \"#utility.yul\":3606:3724   */\n      pop\n      pop\n      jump\t// out\n        /* \"#utility.yul\":3730:3952   */\n    tag_18:\n        /* \"#utility.yul\":3823:3827   */\n      0x00\n        /* \"#utility.yul\":3861:3863   */\n      0x20\n        /* \"#utility.yul\":3850:3859   */\n      dup3\n        /* \"#utility.yul\":3846:3864   */\n      add\n        /* \"#utility.yul\":3838:3864   */\n      swap1\n      pop\n        /* \"#utility.yul\":3874:3945   */\n      tag_165\n        /* \"#utility.yul\":3942:3943   */\n      0x00\n        /* \"#utility.yul\":3931:3940   */\n      dup4\n        /* \"#utility.yul\":3927:3944   */\n      add\n        /* \"#utility.yul\":3918:3924   */\n      dup5\n        /* \"#utility.yul\":3874:3945   */\n      tag_95\n      jump\t// in\n    tag_165:\n        /* \"#utility.yul\":3730:3952   */\n      swap3\n      swap2\n      pop\n      pop\n      jump\t// out\n        /* \"#utility.yul\":3958:4287   */\n    tag_21:\n        /* \"#utility.yul\":4017:4023   */\n      0x00\n        /* \"#utility.yul\":4066:4068   */\n      0x20\n        /* \"#utility.yul\":4054:4063   */\n      dup3\n        /* \"#utility.yul\":4045:4052   */\n      dup5\n        /* \"#utility.yul\":4041:4064   */\n      sub\n        /* \"#utility.yul\":4037:4069   */\n      slt\n        /* \"#utility.yul\":4034:4153   */\n      iszero\n      tag_167\n      jumpi\n        /* \"#utility.yul\":4072:4151   */\n      tag_168\n      tag_80\n      jump\t// in\n    tag_168:\n        /* \"#utility.yul\":4034:4153   */\n    tag_167:\n        /* \"#utility.yul\":4192:4193   */\n      0x00\n        /* \"#utility.yul\":4217:4270   */\n      tag_169\n        /* \"#utility.yul\":4262:4269   */\n      dup5\n        /* \"#utility.yul\":4253:4259   */\n      dup3\n        /* \"#utility.yul\":4242:4251   */\n      dup6\n        /* \"#utility.yul\":4238:4260   */\n      add\n        /* \"#utility.yul\":4217:4270   */\n      tag_85\n      jump\t// in\n    tag_169:\n        /* \"#utility.yul\":4207:4270   */\n      swap2\n      pop\n        /* \"#utility.yul\":4163:4280   */\n      pop\n        /* \"#utility.yul\":3958:4287   */\n      swap3\n      swap2\n      pop\n      pop\n      jump\t// out\n        /* \"#utility.yul\":4293:4386   */\n    tag_96:\n        /* \"#utility.yul\":4329:4336   */\n      0x00\n        /* \"#utility.yul\":4369:4379   */\n      0xffffffff\n        /* \"#utility.yul\":4362:4367   */\n      dup3\n        /* \"#utility.yul\":4358:4380   */\n      and\n        /* \"#utility.yul\":4347:4380   */\n      swap1\n      pop\n        /* \"#utility.yul\":4293:4386   */\n      swap2\n      swap1\n      pop\n      jump\t// out\n        /* \"#utility.yul\":4392:4507   */\n    tag_97:\n        /* \"#utility.yul\":4477:4500   */\n      tag_172\n        /* \"#utility.yul\":4494:4499   */\n      dup2\n        /* \"#utility.yul\":4477:4500   */\n      tag_96\n      jump\t// in\n    tag_172:\n        /* \"#utility.yul\":4472:4475   */\n      dup3\n        /* \"#utility.yul\":4465:4501   */\n      mstore\n        /* \"#utility.yul\":4392:4507   */\n      pop\n      pop\n      jump\t// out\n        /* \"#utility.yul\":4513:4731   */\n    tag_28:\n        /* \"#utility.yul\":4604:4608   */\n      0x00\n        /* \"#utility.yul\":4642:4644   */\n      0x20\n        /* \"#utility.yul\":4631:4640   */\n      dup3\n        /* \"#utility.yul\":4627:4645   */\n      add\n        /* \"#utility.yul\":4619:4645   */\n      swap1\n      pop\n        /* \"#utility.yul\":4655:4724   */\n      tag_174\n        /* \"#utility.yul\":4721:4722   */\n      0x00\n        /* \"#utility.yul\":4710:4719   */\n      dup4\n        /* \"#utility.yul\":4706:4723   */\n      add\n        /* \"#utility.yul\":4697:4703   */\n      dup5\n        /* \"#utility.yul\":4655:4724   */\n      tag_97\n      jump\t// in\n    tag_174:\n        /* \"#utility.yul\":4513:4731   */\n      swap3\n      swap2\n      pop\n      pop\n      jump\t// out\n        /* \"#utility.yul\":4737:4797   */\n    tag_98:\n        /* \"#utility.yul\":4765:4768   */\n      0x00\n        /* \"#utility.yul\":4786:4791   */\n      dup2\n        /* \"#utility.yul\":4779:4791   */\n      swap1\n      pop\n        /* \"#utility.yul\":4737:4797   */\n      swap2\n      swap1\n      pop\n      jump\t// out\n        /* \"#utility.yul\":4803:4945   */\n    tag_99:\n        /* \"#utility.yul\":4853:4862   */\n      0x00\n        /* \"#utility.yul\":4886:4939   */\n      tag_177\n        /* \"#utility.yul\":4904:4938   */\n      tag_178\n        /* \"#utility.yul\":4913:4937   */\n      tag_179\n        /* \"#utility.yul\":4931:4936   */\n      dup5\n        /* \"#utility.yul\":4913:4937   */\n      tag_82\n      jump\t// in\n    tag_179:\n        /* \"#utility.yul\":4904:4938   */\n      tag_98\n      jump\t// in\n    tag_178:\n        /* \"#utility.yul\":4886:4939   */\n      tag_82\n      jump\t// in\n    tag_177:\n        /* \"#utility.yul\":4873:4939   */\n      swap1\n      pop\n        /* \"#utility.yul\":4803:4945   */\n      swap2\n      swap1\n      pop\n      jump\t// out\n        /* \"#utility.yul\":4951:5077   */\n    tag_100:\n        /* \"#utility.yul\":5001:5010   */\n      0x00\n        /* \"#utility.yul\":5034:5071   */\n      tag_181\n        /* \"#utility.yul\":5065:5070   */\n      dup3\n        /* \"#utility.yul\":5034:5071   */\n      tag_99\n      jump\t// in\n    tag_181:\n        /* \"#utility.yul\":5021:5071   */\n      swap1\n      pop\n        /* \"#utility.yul\":4951:5077   */\n      swap2\n      swap1\n      pop\n      jump\t// out\n        /* \"#utility.yul\":5083:5223   */\n    tag_101:\n        /* \"#utility.yul\":5147:5156   */\n      0x00\n        /* \"#utility.yul\":5180:5217   */\n      tag_183\n        /* \"#utility.yul\":5211:5216   */\n      dup3\n        /* \"#utility.yul\":5180:5217   */\n      tag_100\n      jump\t// in\n    tag_183:\n        /* \"#utility.yul\":5167:5217   */\n      swap1\n      pop\n        /* \"#utility.yul\":5083:5223   */\n      swap2\n      swap1\n      pop\n      jump\t// out\n        /* \"#utility.yul\":5229:5388   */\n    tag_102:\n        /* \"#utility.yul\":5330:5381   */\n      tag_185\n        /* \"#utility.yul\":5375:5380   */\n      dup2\n        /* \"#utility.yul\":5330:5381   */\n      tag_101\n      jump\t// in\n    tag_185:\n        /* \"#utility.yul\":5325:5328   */\n      dup3\n        /* \"#utility.yul\":5318:5382   */\n      mstore\n        /* \"#utility.yul\":5229:5388   */\n      pop\n      pop\n      jump\t// out\n        /* \"#utility.yul\":5394:5644   */\n    tag_32:\n        /* \"#utility.yul\":5501:5505   */\n      0x00\n        /* \"#utility.yul\":5539:5541   */\n      0x20\n        /* \"#utility.yul\":5528:5537   */\n      dup3\n        /* \"#utility.yul\":5524:5542   */\n      add\n        /* \"#utility.yul\":5516:5542   */\n      swap1\n      pop\n        /* \"#utility.yul\":5552:5637   */\n      tag_187\n        /* \"#utility.yul\":5634:5635   */\n      0x00\n        /* \"#utility.yul\":5623:5632   */\n      dup4\n        /* \"#utility.yul\":5619:5636   */\n      add\n        /* \"#utility.yul\":5610:5616   */\n      dup5\n        /* \"#utility.yul\":5552:5637   */\n      tag_102\n      jump\t// in\n    tag_187:\n        /* \"#utility.yul\":5394:5644   */\n      swap3\n      swap2\n      pop\n      pop\n      jump\t// out\n        /* \"#utility.yul\":5650:5793   */\n    tag_103:\n        /* \"#utility.yul\":5707:5712   */\n      0x00\n        /* \"#utility.yul\":5738:5744   */\n      dup2\n        /* \"#utility.yul\":5732:5745   */\n      mload\n        /* \"#utility.yul\":5723:5745   */\n      swap1\n      pop\n        /* \"#utility.yul\":5754:5787   */\n      tag_189\n        /* \"#utility.yul\":5781:5786   */\n      dup2\n        /* \"#utility.yul\":5754:5787   */\n      tag_84\n      jump\t// in\n    tag_189:\n        /* \"#utility.yul\":5650:5793   */\n      swap3\n      swap2\n      pop\n      pop\n      jump\t// out\n        /* \"#utility.yul\":5799:6150   */\n    tag_39:\n        /* \"#utility.yul\":5869:5875   */\n      0x00\n        /* \"#utility.yul\":5918:5920   */\n      0x20\n        /* \"#utility.yul\":5906:5915   */\n      dup3\n        /* \"#utility.yul\":5897:5904   */\n      dup5\n        /* \"#utility.yul\":5893:5916   */\n      sub\n        /* \"#utility.yul\":5889:5921   */\n      slt\n        /* \"#utility.yul\":5886:6005   */\n      iszero\n      tag_191\n      jumpi\n        /* \"#utility.yul\":5924:6003   */\n      tag_192\n      tag_80\n      jump\t// in\n    tag_192:\n        /* \"#utility.yul\":5886:6005   */\n    tag_191:\n        /* \"#utility.yul\":6044:6045   */\n      0x00\n        /* \"#utility.yul\":6069:6133   */\n      tag_193\n        /* \"#utility.yul\":6125:6132   */\n      dup5\n        /* \"#utility.yul\":6116:6122   */\n      dup3\n        /* \"#utility.yul\":6105:6114   */\n      dup6\n        /* \"#utility.yul\":6101:6123   */\n      add\n        /* \"#utility.yul\":6069:6133   */\n      tag_103\n      jump\t// in\n    tag_193:\n        /* \"#utility.yul\":6059:6133   */\n      swap2\n      pop\n        /* \"#utility.yul\":6015:6143   */\n      pop\n        /* \"#utility.yul\":5799:6150   */\n      swap3\n      swap2\n      pop\n      pop\n      jump\t// out\n        /* \"#utility.yul\":6156:6260   */\n    tag_104:\n        /* \"#utility.yul\":6201:6208   */\n      0x00\n        /* \"#utility.yul\":6230:6254   */\n      tag_195\n        /* \"#utility.yul\":6248:6253   */\n      dup3\n        /* \"#utility.yul\":6230:6254   */\n      tag_82\n      jump\t// in\n    tag_195:\n        /* \"#utility.yul\":6219:6254   */\n      swap1\n      pop\n        /* \"#utility.yul\":6156:6260   */\n      swap2\n      swap1\n      pop\n      jump\t// out\n        /* \"#utility.yul\":6266:6404   */\n    tag_105:\n        /* \"#utility.yul\":6347:6379   */\n      tag_197\n        /* \"#utility.yul\":6373:6378   */\n      dup2\n        /* \"#utility.yul\":6347:6379   */\n      tag_104\n      jump\t// in\n    tag_197:\n        /* \"#utility.yul\":6340:6345   */\n      dup2\n        /* \"#utility.yul\":6337:6380   */\n      eq\n        /* \"#utility.yul\":6327:6398   */\n      tag_198\n      jumpi\n        /* \"#utility.yul\":6394:6395   */\n      0x00\n        /* \"#utility.yul\":6391:6392   */\n      0x00\n        /* \"#utility.yul\":6384:6396   */\n      revert\n        /* \"#utility.yul\":6327:6398   */\n    tag_198:\n        /* \"#utility.yul\":6266:6404   */\n      pop\n      jump\t// out\n        /* \"#utility.yul\":6410:6565   */\n    tag_106:\n        /* \"#utility.yul\":6464:6469   */\n      0x00\n        /* \"#utility.yul\":6502:6508   */\n      dup2\n        /* \"#utility.yul\":6489:6509   */\n      calldataload\n        /* \"#utility.yul\":6480:6509   */\n      swap1\n      pop\n        /* \"#utility.yul\":6518:6559   */\n      tag_200\n        /* \"#utility.yul\":6553:6558   */\n      dup2\n        /* \"#utility.yul\":6518:6559   */\n      tag_105\n      jump\t// in\n    tag_200:\n        /* \"#utility.yul\":6410:6565   */\n      swap3\n      swap2\n      pop\n      pop\n      jump\t// out\n        /* \"#utility.yul\":6571:6916   */\n    tag_42:\n        /* \"#utility.yul\":6638:6644   */\n      0x00\n        /* \"#utility.yul\":6687:6689   */\n      0x20\n        /* \"#utility.yul\":6675:6684   */\n      dup3\n        /* \"#utility.yul\":6666:6673   */\n      dup5\n        /* \"#utility.yul\":6662:6685   */\n      sub\n        /* \"#utility.yul\":6658:6690   */\n      slt\n        /* \"#utility.yul\":6655:6774   */\n      iszero\n      tag_202\n      jumpi\n        /* \"#utility.yul\":6693:6772   */\n      tag_203\n      tag_80\n      jump\t// in\n    tag_203:\n        /* \"#utility.yul\":6655:6774   */\n    tag_202:\n        /* \"#utility.yul\":6813:6814   */\n      0x00\n        /* \"#utility.yul\":6838:6899   */\n      tag_204\n        /* \"#utility.yul\":6891:6898   */\n      dup5\n        /* \"#utility.yul\":6882:6888   */\n      dup3\n        /* \"#utility.yul\":6871:6880   */\n      dup6\n        /* \"#utility.yul\":6867:6889   */\n      add\n        /* \"#utility.yul\":6838:6899   */\n      tag_106\n      jump\t// in\n    tag_204:\n        /* \"#utility.yul\":6828:6899   */\n      swap2\n      pop\n        /* \"#utility.yul\":6784:6909   */\n      pop\n        /* \"#utility.yul\":6571:6916   */\n      swap3\n      swap2\n      pop\n      pop\n      jump\t// out\n        /* \"#utility.yul\":6922:7102   */\n    tag_107:\n        /* \"#utility.yul\":6970:7047   */\n      0x4e487b7100000000000000000000000000000000000000000000000000000000\n        /* \"#utility.yul\":6967:6968   */\n      0x00\n        /* \"#utility.yul\":6960:7048   */\n      mstore\n        /* \"#utility.yul\":7067:7071   */\n      0x11\n        /* \"#utility.yul\":7064:7065   */\n      0x04\n        /* \"#utility.yul\":7057:7072   */\n      mstore\n        /* \"#utility.yul\":7091:7095   */\n      0x24\n        /* \"#utility.yul\":7088:7089   */\n      0x00\n        /* \"#utility.yul\":7081:7096   */\n      revert\n        /* \"#utility.yul\":7108:7302   */\n    tag_48:\n        /* \"#utility.yul\":7148:7152   */\n      0x00\n        /* \"#utility.yul\":7168:7188   */\n      tag_207\n        /* \"#utility.yul\":7186:7187   */\n      dup3\n        /* \"#utility.yul\":7168:7188   */\n      tag_86\n      jump\t// in\n    tag_207:\n        /* \"#utility.yul\":7163:7188   */\n      swap2\n      pop\n        /* \"#utility.yul\":7202:7222   */\n      tag_208\n        /* \"#utility.yul\":7220:7221   */\n      dup4\n        /* \"#utility.yul\":7202:7222   */\n      tag_86\n      jump\t// in\n    tag_208:\n        /* \"#utility.yul\":7197:7222   */\n      swap3\n      pop\n        /* \"#utility.yul\":7246:7247   */\n      dup3\n        /* \"#utility.yul\":7243:7244   */\n      dup3\n        /* \"#utility.yul\":7239:7248   */\n      sub\n        /* \"#utility.yul\":7231:7248   */\n      swap1\n      pop\n        /* \"#utility.yul\":7270:7271   */\n      dup2\n        /* \"#utility.yul\":7264:7268   */\n      dup2\n        /* \"#utility.yul\":7261:7272   */\n      gt\n        /* \"#utility.yul\":7258:7295   */\n      iszero\n      tag_209\n      jumpi\n        /* \"#utility.yul\":7275:7293   */\n      tag_210\n      tag_107\n      jump\t// in\n    tag_210:\n        /* \"#utility.yul\":7258:7295   */\n    tag_209:\n        /* \"#utility.yul\":7108:7302   */\n      swap3\n      swap2\n      pop\n      pop\n      jump\t// out\n        /* \"#utility.yul\":7308:7488   */\n    tag_58:\n        /* \"#utility.yul\":7356:7433   */\n      0x4e487b7100000000000000000000000000000000000000000000000000000000\n        /* \"#utility.yul\":7353:7354   */\n      0x00\n        /* \"#utility.yul\":7346:7434   */\n      mstore\n        /* \"#utility.yul\":7453:7457   */\n      0x32\n        /* \"#utility.yul\":7450:7451   */\n      0x04\n        /* \"#utility.yul\":7443:7458   */\n      mstore\n        /* \"#utility.yul\":7477:7481   */\n      0x24\n        /* \"#utility.yul\":7474:7475   */\n      0x00\n        /* \"#utility.yul\":7467:7482   */\n      revert\n        /* \"#utility.yul\":7494:7612   */\n    tag_108:\n        /* \"#utility.yul\":7581:7605   */\n      tag_213\n        /* \"#utility.yul\":7599:7604   */\n      dup2\n        /* \"#utility.yul\":7581:7605   */\n      tag_83\n      jump\t// in\n    tag_213:\n        /* \"#utility.yul\":7576:7579   */\n      dup3\n        /* \"#utility.yul\":7569:7606   */\n      mstore\n        /* \"#utility.yul\":7494:7612   */\n      pop\n      pop\n      jump\t// out\n        /* \"#utility.yul\":7618:8060   */\n    tag_63:\n        /* \"#utility.yul\":7767:7771   */\n      0x00\n        /* \"#utility.yul\":7805:7807   */\n      0x60\n        /* \"#utility.yul\":7794:7803   */\n      dup3\n        /* \"#utility.yul\":7790:7808   */\n      add\n        /* \"#utility.yul\":7782:7808   */\n      swap1\n      pop\n        /* \"#utility.yul\":7818:7889   */\n      tag_215\n        /* \"#utility.yul\":7886:7887   */\n      0x00\n        /* \"#utility.yul\":7875:7884   */\n      dup4\n        /* \"#utility.yul\":7871:7888   */\n      add\n        /* \"#utility.yul\":7862:7868   */\n      dup7\n        /* \"#utility.yul\":7818:7889   */\n      tag_108\n      jump\t// in\n    tag_215:\n        /* \"#utility.yul\":7899:7971   */\n      tag_216\n        /* \"#utility.yul\":7967:7969   */\n      0x20\n        /* \"#utility.yul\":7956:7965   */\n      dup4\n        /* \"#utility.yul\":7952:7970   */\n      add\n        /* \"#utility.yul\":7943:7949   */\n      dup6\n        /* \"#utility.yul\":7899:7971   */\n      tag_108\n      jump\t// in\n    tag_216:\n        /* \"#utility.yul\":7981:8053   */\n      tag_217\n        /* \"#utility.yul\":8049:8051   */\n      0x40\n        /* \"#utility.yul\":8038:8047   */\n      dup4\n        /* \"#utility.yul\":8034:8052   */\n      add\n        /* \"#utility.yul\":8025:8031   */\n      dup5\n        /* \"#utility.yul\":7981:8053   */\n      tag_95\n      jump\t// in\n    tag_217:\n        /* \"#utility.yul\":7618:8060   */\n      swap5\n      swap4\n      pop\n      pop\n      pop\n      pop\n      jump\t// out\n        /* \"#utility.yul\":8066:8177   */\n    tag_109:\n        /* \"#utility.yul\":8130:8136   */\n      0x00\n        /* \"#utility.yul\":8164:8169   */\n      dup2\n        /* \"#utility.yul\":8158:8170   */\n      sload\n        /* \"#utility.yul\":8148:8170   */\n      swap1\n      pop\n        /* \"#utility.yul\":8066:8177   */\n      swap2\n      swap1\n      pop\n      jump\t// out\n        /* \"#utility.yul\":8183:8367   */\n    tag_110:\n        /* \"#utility.yul\":8282:8293   */\n      0x00\n        /* \"#utility.yul\":8316:8322   */\n      dup3\n        /* \"#utility.yul\":8311:8314   */\n      dup3\n        /* \"#utility.yul\":8304:8323   */\n      mstore\n        /* \"#utility.yul\":8356:8360   */\n      0x20\n        /* \"#utility.yul\":8351:8354   */\n      dup3\n        /* \"#utility.yul\":8347:8361   */\n      add\n        /* \"#utility.yul\":8332:8361   */\n      swap1\n      pop\n        /* \"#utility.yul\":8183:8367   */\n      swap3\n      swap2\n      pop\n      pop\n      jump\t// out\n        /* \"#utility.yul\":8373:8529   */\n    tag_111:\n        /* \"#utility.yul\":8437:8441   */\n      0x00\n        /* \"#utility.yul\":8460:8463   */\n      dup2\n        /* \"#utility.yul\":8452:8463   */\n      swap1\n      pop\n        /* \"#utility.yul\":8483:8486   */\n      dup2\n        /* \"#utility.yul\":8480:8481   */\n      0x00\n        /* \"#utility.yul\":8473:8487   */\n      mstore\n        /* \"#utility.yul\":8517:8521   */\n      0x20\n        /* \"#utility.yul\":8514:8515   */\n      0x00\n        /* \"#utility.yul\":8504:8522   */\n      keccak256\n        /* \"#utility.yul\":8496:8522   */\n      swap1\n      pop\n        /* \"#utility.yul\":8373:8529   */\n      swap2\n      swap1\n      pop\n      jump\t// out\n        /* \"#utility.yul\":8535:8643   */\n    tag_112:\n        /* \"#utility.yul\":8612:8636   */\n      tag_222\n        /* \"#utility.yul\":8630:8635   */\n      dup2\n        /* \"#utility.yul\":8612:8636   */\n      tag_83\n      jump\t// in\n    tag_222:\n        /* \"#utility.yul\":8607:8610   */\n      dup3\n        /* \"#utility.yul\":8600:8637   */\n      mstore\n        /* \"#utility.yul\":8535:8643   */\n      pop\n      pop\n      jump\t// out\n        /* \"#utility.yul\":8649:8828   */\n    tag_113:\n        /* \"#utility.yul\":8718:8728   */\n      0x00\n        /* \"#utility.yul\":8739:8785   */\n      tag_224\n        /* \"#utility.yul\":8781:8784   */\n      dup4\n        /* \"#utility.yul\":8773:8779   */\n      dup4\n        /* \"#utility.yul\":8739:8785   */\n      tag_112\n      jump\t// in\n    tag_224:\n        /* \"#utility.yul\":8817:8821   */\n      0x20\n        /* \"#utility.yul\":8812:8815   */\n      dup4\n        /* \"#utility.yul\":8808:8822   */\n      add\n        /* \"#utility.yul\":8794:8822   */\n      swap1\n      pop\n        /* \"#utility.yul\":8649:8828   */\n      swap3\n      swap2\n      pop\n      pop\n      jump\t// out\n        /* \"#utility.yul\":8834:8936   */\n    tag_114:\n        /* \"#utility.yul\":8876:8884   */\n      0x00\n        /* \"#utility.yul\":8923:8928   */\n      dup2\n        /* \"#utility.yul\":8920:8921   */\n      0x00\n        /* \"#utility.yul\":8916:8929   */\n      shr\n        /* \"#utility.yul\":8895:8929   */\n      swap1\n      pop\n        /* \"#utility.yul\":8834:8936   */\n      swap2\n      swap1\n      pop\n      jump\t// out\n        /* \"#utility.yul\":8942:9081   */\n    tag_115:\n        /* \"#utility.yul\":8992:8999   */\n      0x00\n        /* \"#utility.yul\":9032:9074   */\n      0xffffffffffffffffffffffffffffffffffffffff\n        /* \"#utility.yul\":9025:9030   */\n      dup3\n        /* \"#utility.yul\":9021:9075   */\n      and\n        /* \"#utility.yul\":9010:9075   */\n      swap1\n      pop\n        /* \"#utility.yul\":8942:9081   */\n      swap2\n      swap1\n      pop\n      jump\t// out\n        /* \"#utility.yul\":9087:9254   */\n    tag_116:\n        /* \"#utility.yul\":9157:9162   */\n      0x00\n        /* \"#utility.yul\":9182:9248   */\n      tag_228\n        /* \"#utility.yul\":9213:9247   */\n      tag_229\n        /* \"#utility.yul\":9236:9246   */\n      dup4\n        /* \"#utility.yul\":9213:9247   */\n      tag_114\n      jump\t// in\n    tag_229:\n        /* \"#utility.yul\":9182:9248   */\n      tag_115\n      jump\t// in\n    tag_228:\n        /* \"#utility.yul\":9173:9248   */\n      swap1\n      pop\n        /* \"#utility.yul\":9087:9254   */\n      swap2\n      swap1\n      pop\n      jump\t// out\n        /* \"#utility.yul\":9260:9405   */\n    tag_117:\n        /* \"#utility.yul\":9315:9320   */\n      0x00\n        /* \"#utility.yul\":9340:9398   */\n      tag_231\n        /* \"#utility.yul\":9392:9396   */\n      dup3\n        /* \"#utility.yul\":9386:9397   */\n      sload\n        /* \"#utility.yul\":9340:9398   */\n      tag_116\n      jump\t// in\n    tag_231:\n        /* \"#utility.yul\":9331:9398   */\n      swap1\n      pop\n        /* \"#utility.yul\":9260:9405   */\n      swap2\n      swap1\n      pop\n      jump\t// out\n        /* \"#utility.yul\":9411:9521   */\n    tag_118:\n        /* \"#utility.yul\":9478:9482   */\n      0x00\n        /* \"#utility.yul\":9510:9514   */\n      0x01\n        /* \"#utility.yul\":9505:9508   */\n      dup3\n        /* \"#utility.yul\":9501:9515   */\n      add\n        /* \"#utility.yul\":9493:9515   */\n      swap1\n      pop\n        /* \"#utility.yul\":9411:9521   */\n      swap2\n      swap1\n      pop\n      jump\t// out\n        /* \"#utility.yul\":9557:10308   */\n    tag_119:\n        /* \"#utility.yul\":9673:9676   */\n      0x00\n        /* \"#utility.yul\":9702:9753   */\n      tag_234\n        /* \"#utility.yul\":9747:9752   */\n      dup3\n        /* \"#utility.yul\":9702:9753   */\n      tag_109\n      jump\t// in\n    tag_234:\n        /* \"#utility.yul\":9769:9855   */\n      tag_235\n        /* \"#utility.yul\":9848:9854   */\n      dup2\n        /* \"#utility.yul\":9843:9846   */\n      dup6\n        /* \"#utility.yul\":9769:9855   */\n      tag_110\n      jump\t// in\n    tag_235:\n        /* \"#utility.yul\":9762:9855   */\n      swap4\n      pop\n        /* \"#utility.yul\":9879:9932   */\n      tag_236\n        /* \"#utility.yul\":9926:9931   */\n      dup4\n        /* \"#utility.yul\":9879:9932   */\n      tag_111\n      jump\t// in\n    tag_236:\n        /* \"#utility.yul\":9955:9962   */\n      dup1\n        /* \"#utility.yul\":9986:9987   */\n      0x00\n        /* \"#utility.yul\":9971:10283   */\n    tag_237:\n        /* \"#utility.yul\":9996:10002   */\n      dup4\n        /* \"#utility.yul\":9993:9994   */\n      dup2\n        /* \"#utility.yul\":9990:10003   */\n      lt\n        /* \"#utility.yul\":9971:10283   */\n      iszero\n      tag_239\n      jumpi\n        /* \"#utility.yul\":10066:10110   */\n      tag_240\n        /* \"#utility.yul\":10103:10109   */\n      dup3\n        /* \"#utility.yul\":10066:10110   */\n      tag_117\n      jump\t// in\n    tag_240:\n        /* \"#utility.yul\":10130:10193   */\n      tag_241\n        /* \"#utility.yul\":10189:10192   */\n      dup9\n        /* \"#utility.yul\":10174:10187   */\n      dup3\n        /* \"#utility.yul\":10130:10193   */\n      tag_113\n      jump\t// in\n    tag_241:\n        /* \"#utility.yul\":10123:10193   */\n      swap8\n      pop\n        /* \"#utility.yul\":10216:10273   */\n      tag_242\n        /* \"#utility.yul\":10266:10272   */\n      dup4\n        /* \"#utility.yul\":10216:10273   */\n      tag_118\n      jump\t// in\n    tag_242:\n        /* \"#utility.yul\":10206:10273   */\n      swap3\n      pop\n        /* \"#utility.yul\":10031:10283   */\n      pop\n        /* \"#utility.yul\":10018:10019   */\n      0x01\n        /* \"#utility.yul\":10015:10016   */\n      dup2\n        /* \"#utility.yul\":10011:10020   */\n      add\n        /* \"#utility.yul\":10006:10020   */\n      swap1\n      pop\n        /* \"#utility.yul\":9971:10283   */\n      jump(tag_237)\n    tag_239:\n        /* \"#utility.yul\":9975:9989   */\n      pop\n        /* \"#utility.yul\":10299:10302   */\n      dup6\n        /* \"#utility.yul\":10292:10302   */\n      swap4\n      pop\n        /* \"#utility.yul\":9678:10308   */\n      pop\n      pop\n      pop\n        /* \"#utility.yul\":9557:10308   */\n      swap3\n      swap2\n      pop\n      pop\n      jump\t// out\n        /* \"#utility.yul\":10314:10681   */\n    tag_74:\n        /* \"#utility.yul\":10454:10458   */\n      0x00\n        /* \"#utility.yul\":10492:10494   */\n      0x20\n        /* \"#utility.yul\":10481:10490   */\n      dup3\n        /* \"#utility.yul\":10477:10495   */\n      add\n        /* \"#utility.yul\":10469:10495   */\n      swap1\n      pop\n        /* \"#utility.yul\":10541:10550   */\n      dup2\n        /* \"#utility.yul\":10535:10539   */\n      dup2\n        /* \"#utility.yul\":10531:10551   */\n      sub\n        /* \"#utility.yul\":10527:10528   */\n      0x00\n        /* \"#utility.yul\":10516:10525   */\n      dup4\n        /* \"#utility.yul\":10512:10529   */\n      add\n        /* \"#utility.yul\":10505:10552   */\n      mstore\n        /* \"#utility.yul\":10569:10674   */\n      tag_244\n        /* \"#utility.yul\":10669:10673   */\n      dup2\n        /* \"#utility.yul\":10660:10666   */\n      dup5\n        /* \"#utility.yul\":10569:10674   */\n      tag_119\n      jump\t// in\n    tag_244:\n        /* \"#utility.yul\":10561:10674   */\n      swap1\n      pop\n        /* \"#utility.yul\":10314:10681   */\n      swap3\n      swap2\n      pop\n      pop\n      jump\t// out\n\n    auxdata: 0xa2646970667358221220611791b5cbffb548ed82809e8c4bc3fc996f1d10f708dd30bbb0cd28e98ba04964736f6c634300081e0033\n}\n",
				"bytecode": {
					"linkReferences": {},
					"object": "60a060405234801561000f575f5ffd5b50604051610fb9380380610fb9833981810160405281019061003191906100c9565b8073ffffffffffffffffffffffffffffffffffffffff1660808173ffffffffffffffffffffffffffffffffffffffff1681525050506100f4565b5f5ffd5b5f73ffffffffffffffffffffffffffffffffffffffff82169050919050565b5f6100988261006f565b9050919050565b6100a88161008e565b81146100b2575f5ffd5b50565b5f815190506100c38161009f565b92915050565b5f602082840312156100de576100dd61006b565b5b5f6100eb848285016100b5565b91505092915050565b608051610e986101215f395f8181610117015281816101b3015281816104e701526107870152610e985ff3fe608060405234801561000f575f5ffd5b5060043610610060575f3560e01c8063150b7a02146100645780631d88c8be146100945780631e83409a146100b25780635c36b186146100ce578063d41af720146100d8578063e3187b30146100f6575b5f5ffd5b61007e600480360381019061007991906109e1565b610114565b60405161008b9190610a9f565b60405180910390f35b61009c6102c7565b6040516100a99190610ac7565b60405180910390f35b6100cc60048036038101906100c79190610ae0565b61030b565b005b6100d6610739565b005b6100e061077d565b6040516100ed9190610b29565b60405180910390f35b6100fe610785565b60405161010b9190610b9d565b60405180910390f35b5f7f000000000000000000000000000000000000000000000000000000000000000073ffffffffffffffffffffffffffffffffffffffff163373ffffffffffffffffffffffffffffffffffffffff161461019a576040517fc7ede59d00000000000000000000000000000000000000000000000000000000815260040160405180910390fd5b8473ffffffffffffffffffffffffffffffffffffffff167f000000000000000000000000000000000000000000000000000000000000000073ffffffffffffffffffffffffffffffffffffffff16635b7121f8866040518263ffffffff1660e01b815260040161020a9190610ac7565b602060405180830381865afa158015610225573d5f5f3e3d5ffd5b505050506040513d601f19601f820116820180604052508101906102499190610bca565b73ffffffffffffffffffffffffffffffffffffffff1614610296576040517f3fc4526100000000000000000000000000000000000000000000000000000000815260040160405180910390fd5b5f83838101906102a69190610c30565b90506102b38686836107a9565b63150b7a0260e01b91505095945050505050565b5f60025f3373ffffffffffffffffffffffffffffffffffffffff1673ffffffffffffffffffffffffffffffffffffffff1681526020019081526020015f2054905090565b6301e16bc063ffffffff1660025f8373ffffffffffffffffffffffffffffffffffffffff1673ffffffffffffffffffffffffffffffffffffffff1681526020019081526020015f20544261035f9190610c88565b1015610397576040517f6cd3ceb600000000000000000000000000000000000000000000000000000000815260040160405180910390fd5b5f60015f8373ffffffffffffffffffffffffffffffffffffffff1673ffffffffffffffffffffffffffffffffffffffff1681526020019081526020015f2080548060200260200160405190810160405280929190818152602001828054801561041d57602002820191905f5260205f20905b815481526020019060010190808311610409575b505050505090505f81510361045e576040517f2375694800000000000000000000000000000000000000000000000000000000815260040160405180910390fd5b5f5f90505b8151811015610669575f5f5f8573ffffffffffffffffffffffffffffffffffffffff1673ffffffffffffffffffffffffffffffffffffffff1681526020019081526020015f2082815481106104bb576104ba610cbb565b5b905f5260205f20015f9054906101000a900473ffffffffffffffffffffffffffffffffffffffff1690507f000000000000000000000000000000000000000000000000000000000000000073ffffffffffffffffffffffffffffffffffffffff166342842e0e308386868151811061053657610535610cbb565b5b60200260200101516040518463ffffffff1660e01b815260040161055c93929190610cf7565b5f604051808303815f87803b158015610573575f5ffd5b505af1158015610585573d5f5f3e3d5ffd5b505050505f5f8573ffffffffffffffffffffffffffffffffffffffff1673ffffffffffffffffffffffffffffffffffffffff1681526020019081526020015f2082815481106105d7576105d6610cbb565b5b905f5260205f20015f6101000a81549073ffffffffffffffffffffffffffffffffffffffff021916905560015f8573ffffffffffffffffffffffffffffffffffffffff1673ffffffffffffffffffffffffffffffffffffffff1681526020019081526020015f2082815481106106505761064f610cbb565b5b905f5260205f20015f9055508080600101915050610463565b505f60025f8473ffffffffffffffffffffffffffffffffffffffff1673ffffffffffffffffffffffffffffffffffffffff1681526020019081526020015f20819055508173ffffffffffffffffffffffffffffffffffffffff167f1c3938175cae854e0d6cf1063f86f274e6c61e013bb38a9e73268defa5d0b34b5f5f8573ffffffffffffffffffffffffffffffffffffffff1673ffffffffffffffffffffffffffffffffffffffff1681526020019081526020015f2060405161072d9190610e42565b60405180910390a25050565b4260025f3373ffffffffffffffffffffffffffffffffffffffff1673ffffffffffffffffffffffffffffffffffffffff1681526020019081526020015f2081905550565b6301e16bc081565b7f000000000000000000000000000000000000000000000000000000000000000081565b60015f8473ffffffffffffffffffffffffffffffffffffffff1673ffffffffffffffffffffffffffffffffffffffff1681526020019081526020015f2082908060018154018082558091505060019003905f5260205f20015f90919091909150555f5f8473ffffffffffffffffffffffffffffffffffffffff1673ffffffffffffffffffffffffffffffffffffffff1681526020019081526020015f2081908060018154018082558091505060019003905f5260205f20015f9091909190916101000a81548173ffffffffffffffffffffffffffffffffffffffff021916908373ffffffffffffffffffffffffffffffffffffffff1602179055504260025f3373ffffffffffffffffffffffffffffffffffffffff1673ffffffffffffffffffffffffffffffffffffffff1681526020019081526020015f2081905550505050565b5f5ffd5b5f5ffd5b5f73ffffffffffffffffffffffffffffffffffffffff82169050919050565b5f61091c826108f3565b9050919050565b61092c81610912565b8114610936575f5ffd5b50565b5f8135905061094781610923565b92915050565b5f819050919050565b61095f8161094d565b8114610969575f5ffd5b50565b5f8135905061097a81610956565b92915050565b5f5ffd5b5f5ffd5b5f5ffd5b5f5f83601f8401126109a1576109a0610980565b5b8235905067ffffffffffffffff8111156109be576109bd610984565b5b6020830191508360018202830111156109da576109d9610988565b5b9250929050565b5f5f5f5f5f608086880312156109fa576109f96108eb565b5b5f610a0788828901610939565b9550506020610a1888828901610939565b9450506040610a298882890161096c565b935050606086013567ffffffffffffffff811115610a4a57610a496108ef565b5b610a568882890161098c565b92509250509295509295909350565b5f7fffffffff0000000000000000000000000000000000000000000000000000000082169050919050565b610a9981610a65565b82525050565b5f602082019050610ab25f830184610a90565b92915050565b610ac18161094d565b82525050565b5f602082019050610ada5f830184610ab8565b92915050565b5f60208284031215610af557610af46108eb565b5b5f610b0284828501610939565b91505092915050565b5f63ffffffff82169050919050565b610b2381610b0b565b82525050565b5f602082019050610b3c5f830184610b1a565b92915050565b5f819050919050565b5f610b65610b60610b5b846108f3565b610b42565b6108f3565b9050919050565b5f610b7682610b4b565b9050919050565b5f610b8782610b6c565b9050919050565b610b9781610b7d565b82525050565b5f602082019050610bb05f830184610b8e565b92915050565b5f81519050610bc481610923565b92915050565b5f60208284031215610bdf57610bde6108eb565b5b5f610bec84828501610bb6565b91505092915050565b5f610bff826108f3565b9050919050565b610c0f81610bf5565b8114610c19575f5ffd5b50565b5f81359050610c2a81610c06565b92915050565b5f60208284031215610c4557610c446108eb565b5b5f610c5284828501610c1c565b91505092915050565b7f4e487b71000000000000000000000000000000000000000000000000000000005f52601160045260245ffd5b5f610c928261094d565b9150610c9d8361094d565b9250828203905081811115610cb557610cb4610c5b565b5b92915050565b7f4e487b71000000000000000000000000000000000000000000000000000000005f52603260045260245ffd5b610cf181610912565b82525050565b5f606082019050610d0a5f830186610ce8565b610d176020830185610ce8565b610d246040830184610ab8565b949350505050565b5f81549050919050565b5f82825260208201905092915050565b5f819050815f5260205f209050919050565b610d6181610912565b82525050565b5f610d728383610d58565b60208301905092915050565b5f815f1c9050919050565b5f73ffffffffffffffffffffffffffffffffffffffff82169050919050565b5f610dba610db583610d7e565b610d89565b9050919050565b5f610dcc8254610da8565b9050919050565b5f600182019050919050565b5f610de982610d2c565b610df38185610d36565b9350610dfe83610d46565b805f5b83811015610e3557610e1282610dc1565b610e1c8882610d67565b9750610e2783610dd3565b925050600181019050610e01565b5085935050505092915050565b5f6020820190508181035f830152610e5a8184610ddf565b90509291505056fea2646970667358221220611791b5cbffb548ed82809e8c4bc3fc996f1d10f708dd30bbb0cd28e98ba04964736f6c634300081e0033",
					"opcodes": "PUSH1 0xA0 PUSH1 0x40 MSTORE CALLVALUE DUP1 ISZERO PUSH2 0xF JUMPI PUSH0 PUSH0 REVERT JUMPDEST POP PUSH1 0x40 MLOAD PUSH2 0xFB9 CODESIZE SUB DUP1 PUSH2 0xFB9 DUP4 CODECOPY DUP2 DUP2 ADD PUSH1 0x40 MSTORE DUP2 ADD SWAP1 PUSH2 0x31 SWAP2 SWAP1 PUSH2 0xC9 JUMP JUMPDEST DUP1 PUSH20 0xFFFFFFFFFFFFFFFFFFFFFFFFFFFFFFFFFFFFFFFF AND PUSH1 0x80 DUP2 PUSH20 0xFFFFFFFFFFFFFFFFFFFFFFFFFFFFFFFFFFFFFFFF AND DUP2 MSTORE POP POP POP PUSH2 0xF4 JUMP JUMPDEST PUSH0 PUSH0 REVERT JUMPDEST PUSH0 PUSH20 0xFFFFFFFFFFFFFFFFFFFFFFFFFFFFFFFFFFFFFFFF DUP3 AND SWAP1 POP SWAP2 SWAP1 POP JUMP JUMPDEST PUSH0 PUSH2 0x98 DUP3 PUSH2 0x6F JUMP JUMPDEST SWAP1 POP SWAP2 SWAP1 POP JUMP JUMPDEST PUSH2 0xA8 DUP2 PUSH2 0x8E JUMP JUMPDEST DUP2 EQ PUSH2 0xB2 JUMPI PUSH0 PUSH0 REVERT JUMPDEST POP JUMP JUMPDEST PUSH0 DUP2 MLOAD SWAP1 POP PUSH2 0xC3 DUP2 PUSH2 0x9F JUMP JUMPDEST SWAP3 SWAP2 POP POP JUMP JUMPDEST PUSH0 PUSH1 0x20 DUP3 DUP5 SUB SLT ISZERO PUSH2 0xDE JUMPI PUSH2 0xDD PUSH2 0x6B JUMP JUMPDEST JUMPDEST PUSH0 PUSH2 0xEB DUP5 DUP3 DUP6 ADD PUSH2 0xB5 JUMP JUMPDEST SWAP2 POP POP SWAP3 SWAP2 POP POP JUMP JUMPDEST PUSH1 0x80 MLOAD PUSH2 0xE98 PUSH2 0x121 PUSH0 CODECOPY PUSH0 DUP2 DUP2 PUSH2 0x117 ADD MSTORE DUP2 DUP2 PUSH2 0x1B3 ADD MSTORE DUP2 DUP2 PUSH2 0x4E7 ADD MSTORE PUSH2 0x787 ADD MSTORE PUSH2 0xE98 PUSH0 RETURN INVALID PUSH1 0x80 PUSH1 0x40 MSTORE CALLVALUE DUP1 ISZERO PUSH2 0xF JUMPI PUSH0 PUSH0 REVERT JUMPDEST POP PUSH1 0x4 CALLDATASIZE LT PUSH2 0x60 JUMPI PUSH0 CALLDATALOAD PUSH1 0xE0 SHR DUP1 PUSH4 0x150B7A02 EQ PUSH2 0x64 JUMPI DUP1 PUSH4 0x1D88C8BE EQ PUSH2 0x94 JUMPI DUP1 PUSH4 0x1E83409A EQ PUSH2 0xB2 JUMPI DUP1 PUSH4 0x5C36B186 EQ PUSH2 0xCE JUMPI DUP1 PUSH4 0xD41AF720 EQ PUSH2 0xD8 JUMPI DUP1 PUSH4 0xE3187B30 EQ PUSH2 0xF6 JUMPI JUMPDEST PUSH0 PUSH0 REVERT JUMPDEST PUSH2 0x7E PUSH1 0x4 DUP1 CALLDATASIZE SUB DUP2 ADD SWAP1 PUSH2 0x79 SWAP2 SWAP1 PUSH2 0x9E1 JUMP JUMPDEST PUSH2 0x114 JUMP JUMPDEST PUSH1 0x40 MLOAD PUSH2 0x8B SWAP2 SWAP1 PUSH2 0xA9F JUMP JUMPDEST PUSH1 0x40 MLOAD DUP1 SWAP2 SUB SWAP1 RETURN JUMPDEST PUSH2 0x9C PUSH2 0x2C7 JUMP JUMPDEST PUSH1 0x40 MLOAD PUSH2 0xA9 SWAP2 SWAP1 PUSH2 0xAC7 JUMP JUMPDEST PUSH1 0x40 MLOAD DUP1 SWAP2 SUB SWAP1 RETURN JUMPDEST PUSH2 0xCC PUSH1 0x4 DUP1 CALLDATASIZE SUB DUP2 ADD SWAP1 PUSH2 0xC7 SWAP2 SWAP1 PUSH2 0xAE0 JUMP JUMPDEST PUSH2 0x30B JUMP JUMPDEST STOP JUMPDEST PUSH2 0xD6 PUSH2 0x739 JUMP JUMPDEST STOP JUMPDEST PUSH2 0xE0 PUSH2 0x77D JUMP JUMPDEST PUSH1 0x40 MLOAD PUSH2 0xED SWAP2 SWAP1 PUSH2 0xB29 JUMP JUMPDEST PUSH1 0x40 MLOAD DUP1 SWAP2 SUB SWAP1 RETURN JUMPDEST PUSH2 0xFE PUSH2 0x785 JUMP JUMPDEST PUSH1 0x40 MLOAD PUSH2 0x10B SWAP2 SWAP1 PUSH2 0xB9D JUMP JUMPDEST PUSH1 0x40 MLOAD DUP1 SWAP2 SUB SWAP1 RETURN JUMPDEST PUSH0 PUSH32 0x0 PUSH20 0xFFFFFFFFFFFFFFFFFFFFFFFFFFFFFFFFFFFFFFFF AND CALLER PUSH20 0xFFFFFFFFFFFFFFFFFFFFFFFFFFFFFFFFFFFFFFFF AND EQ PUSH2 0x19A JUMPI PUSH1 0x40 MLOAD PUSH32 0xC7EDE59D00000000000000000000000000000000000000000000000000000000 DUP2 MSTORE PUSH1 0x4 ADD PUSH1 0x40 MLOAD DUP1 SWAP2 SUB SWAP1 REVERT JUMPDEST DUP5 PUSH20 0xFFFFFFFFFFFFFFFFFFFFFFFFFFFFFFFFFFFFFFFF AND PUSH32 0x0 PUSH20 0xFFFFFFFFFFFFFFFFFFFFFFFFFFFFFFFFFFFFFFFF AND PUSH4 0x5B7121F8 DUP7 PUSH1 0x40 MLOAD DUP3 PUSH4 0xFFFFFFFF AND PUSH1 0xE0 SHL DUP2 MSTORE PUSH1 0x4 ADD PUSH2 0x20A SWAP2 SWAP1 PUSH2 0xAC7 JUMP JUMPDEST PUSH1 0x20 PUSH1 0x40 MLOAD DUP1 DUP4 SUB DUP2 DUP7 GAS STATICCALL ISZERO DUP1 ISZERO PUSH2 0x225 JUMPI RETURNDATASIZE PUSH0 PUSH0 RETURNDATACOPY RETURNDATASIZE PUSH0 REVERT JUMPDEST POP POP POP POP PUSH1 0x40 MLOAD RETURNDATASIZE PUSH1 0x1F NOT PUSH1 0x1F DUP3 ADD AND DUP3 ADD DUP1 PUSH1 0x40 MSTORE POP DUP2 ADD SWAP1 PUSH2 0x249 SWAP2 SWAP1 PUSH2 0xBCA JUMP JUMPDEST PUSH20 0xFFFFFFFFFFFFFFFFFFFFFFFFFFFFFFFFFFFFFFFF AND EQ PUSH2 0x296 JUMPI PUSH1 0x40 MLOAD PUSH32 0x3FC4526100000000000000000000000000000000000000000000000000000000 DUP2 MSTORE PUSH1 0x4 ADD PUSH1 0x40 MLOAD DUP1 SWAP2 SUB SWAP1 REVERT JUMPDEST PUSH0 DUP4 DUP4 DUP2 ADD SWAP1 PUSH2 0x2A6 SWAP2 SWAP1 PUSH2 0xC30 JUMP JUMPDEST SWAP1 POP PUSH2 0x2B3 DUP7 DUP7 DUP4 PUSH2 0x7A9 JUMP JUMPDEST PUSH4 0x150B7A02 PUSH1 0xE0 SHL SWAP2 POP POP SWAP6 SWAP5 POP POP POP POP POP JUMP JUMPDEST PUSH0 PUSH1 0x2 PUSH0 CALLER PUSH20 0xFFFFFFFFFFFFFFFFFFFFFFFFFFFFFFFFFFFFFFFF AND PUSH20 0xFFFFFFFFFFFFFFFFFFFFFFFFFFFFFFFFFFFFFFFF AND DUP2 MSTORE PUSH1 0x20 ADD SWAP1 DUP2 MSTORE PUSH1 0x20 ADD PUSH0 KECCAK256 SLOAD SWAP1 POP SWAP1 JUMP JUMPDEST PUSH4 0x1E16BC0 PUSH4 0xFFFFFFFF AND PUSH1 0x2 PUSH0 DUP4 PUSH20 0xFFFFFFFFFFFFFFFFFFFFFFFFFFFFFFFFFFFFFFFF AND PUSH20 0xFFFFFFFFFFFFFFFFFFFFFFFFFFFFFFFFFFFFFFFF AND DUP2 MSTORE PUSH1 0x20 ADD SWAP1 DUP2 MSTORE PUSH1 0x20 ADD PUSH0 KECCAK256 SLOAD TIMESTAMP PUSH2 0x35F SWAP2 SWAP1 PUSH2 0xC88 JUMP JUMPDEST LT ISZERO PUSH2 0x397 JUMPI PUSH1 0x40 MLOAD PUSH32 0x6CD3CEB600000000000000000000000000000000000000000000000000000000 DUP2 MSTORE PUSH1 0x4 ADD PUSH1 0x40 MLOAD DUP1 SWAP2 SUB SWAP1 REVERT JUMPDEST PUSH0 PUSH1 0x1 PUSH0 DUP4 PUSH20 0xFFFFFFFFFFFFFFFFFFFFFFFFFFFFFFFFFFFFFFFF AND PUSH20 0xFFFFFFFFFFFFFFFFFFFFFFFFFFFFFFFFFFFFFFFF AND DUP2 MSTORE PUSH1 0x20 ADD SWAP1 DUP2 MSTORE PUSH1 0x20 ADD PUSH0 KECCAK256 DUP1 SLOAD DUP1 PUSH1 0x20 MUL PUSH1 0x20 ADD PUSH1 0x40 MLOAD SWAP1 DUP2 ADD PUSH1 0x40 MSTORE DUP1 SWAP3 SWAP2 SWAP1 DUP2 DUP2 MSTORE PUSH1 0x20 ADD DUP3 DUP1 SLOAD DUP1 ISZERO PUSH2 0x41D JUMPI PUSH1 0x20 MUL DUP3 ADD SWAP2 SWAP1 PUSH0 MSTORE PUSH1 0x20 PUSH0 KECCAK256 SWAP1 JUMPDEST DUP2 SLOAD DUP2 MSTORE PUSH1 0x20 ADD SWAP1 PUSH1 0x1 ADD SWAP1 DUP1 DUP4 GT PUSH2 0x409 JUMPI JUMPDEST POP POP POP POP POP SWAP1 POP PUSH0 DUP2 MLOAD SUB PUSH2 0x45E JUMPI PUSH1 0x40 MLOAD PUSH32 0x2375694800000000000000000000000000000000000000000000000000000000 DUP2 MSTORE PUSH1 0x4 ADD PUSH1 0x40 MLOAD DUP1 SWAP2 SUB SWAP1 REVERT JUMPDEST PUSH0 PUSH0 SWAP1 POP JUMPDEST DUP2 MLOAD DUP2 LT ISZERO PUSH2 0x669 JUMPI PUSH0 PUSH0 PUSH0 DUP6 PUSH20 0xFFFFFFFFFFFFFFFFFFFFFFFFFFFFFFFFFFFFFFFF AND PUSH20 0xFFFFFFFFFFFFFFFFFFFFFFFFFFFFFFFFFFFFFFFF AND DUP2 MSTORE PUSH1 0x20 ADD SWAP1 DUP2 MSTORE PUSH1 0x20 ADD PUSH0 KECCAK256 DUP3 DUP2 SLOAD DUP2 LT PUSH2 0x4BB JUMPI PUSH2 0x4BA PUSH2 0xCBB JUMP JUMPDEST JUMPDEST SWAP1 PUSH0 MSTORE PUSH1 0x20 PUSH0 KECCAK256 ADD PUSH0 SWAP1 SLOAD SWAP1 PUSH2 0x100 EXP SWAP1 DIV PUSH20 0xFFFFFFFFFFFFFFFFFFFFFFFFFFFFFFFFFFFFFFFF AND SWAP1 POP PUSH32 0x0 PUSH20 0xFFFFFFFFFFFFFFFFFFFFFFFFFFFFFFFFFFFFFFFF AND PUSH4 0x42842E0E ADDRESS DUP4 DUP7 DUP7 DUP2 MLOAD DUP2 LT PUSH2 0x536 JUMPI PUSH2 0x535 PUSH2 0xCBB JUMP JUMPDEST JUMPDEST PUSH1 0x20 MUL PUSH1 0x20 ADD ADD MLOAD PUSH1 0x40 MLOAD DUP5 PUSH4 0xFFFFFFFF AND PUSH1 0xE0 SHL DUP2 MSTORE PUSH1 0x4 ADD PUSH2 0x55C SWAP4 SWAP3 SWAP2 SWAP1 PUSH2 0xCF7 JUMP JUMPDEST PUSH0 PUSH1 0x40 MLOAD DUP1 DUP4 SUB DUP2 PUSH0 DUP8 DUP1 EXTCODESIZE ISZERO DUP1 ISZERO PUSH2 0x573 JUMPI PUSH0 PUSH0 REVERT JUMPDEST POP GAS CALL ISZERO DUP1 ISZERO PUSH2 0x585 JUMPI RETURNDATASIZE PUSH0 PUSH0 RETURNDATACOPY RETURNDATASIZE PUSH0 REVERT JUMPDEST POP POP POP POP PUSH0 PUSH0 DUP6 PUSH20 0xFFFFFFFFFFFFFFFFFFFFFFFFFFFFFFFFFFFFFFFF AND PUSH20 0xFFFFFFFFFFFFFFFFFFFFFFFFFFFFFFFFFFFFFFFF AND DUP2 MSTORE PUSH1 0x20 ADD SWAP1 DUP2 MSTORE PUSH1 0x20 ADD PUSH0 KECCAK256 DUP3 DUP2 SLOAD DUP2 LT PUSH2 0x5D7 JUMPI PUSH2 0x5D6 PUSH2 0xCBB JUMP JUMPDEST JUMPDEST SWAP1 PUSH0 MSTORE PUSH1 0x20 PUSH0 KECCAK256 ADD PUSH0 PUSH2 0x100 EXP DUP2 SLOAD SWAP1 PUSH20 0xFFFFFFFFFFFFFFFFFFFFFFFFFFFFFFFFFFFFFFFF MUL NOT AND SWAP1 SSTORE PUSH1 0x1 PUSH0 DUP6 PUSH20 0xFFFFFFFFFFFFFFFFFFFFFFFFFFFFFFFFFFFFFFFF AND PUSH20 0xFFFFFFFFFFFFFFFFFFFFFFFFFFFFFFFFFFFFFFFF AND DUP2 MSTORE PUSH1 0x20 ADD SWAP1 DUP2 MSTORE PUSH1 0x20 ADD PUSH0 KECCAK256 DUP3 DUP2 SLOAD DUP2 LT PUSH2 0x650 JUMPI PUSH2 0x64F PUSH2 0xCBB JUMP JUMPDEST JUMPDEST SWAP1 PUSH0 MSTORE PUSH1 0x20 PUSH0 KECCAK256 ADD PUSH0 SWAP1 SSTORE POP DUP1 DUP1 PUSH1 0x1 ADD SWAP2 POP POP PUSH2 0x463 JUMP JUMPDEST POP PUSH0 PUSH1 0x2 PUSH0 DUP5 PUSH20 0xFFFFFFFFFFFFFFFFFFFFFFFFFFFFFFFFFFFFFFFF AND PUSH20 0xFFFFFFFFFFFFFFFFFFFFFFFFFFFFFFFFFFFFFFFF AND DUP2 MSTORE PUSH1 0x20 ADD SWAP1 DUP2 MSTORE PUSH1 0x20 ADD PUSH0 KECCAK256 DUP2 SWAP1 SSTORE POP DUP2 PUSH20 0xFFFFFFFFFFFFFFFFFFFFFFFFFFFFFFFFFFFFFFFF AND PUSH32 0x1C3938175CAE854E0D6CF1063F86F274E6C61E013BB38A9E73268DEFA5D0B34B PUSH0 PUSH0 DUP6 PUSH20 0xFFFFFFFFFFFFFFFFFFFFFFFFFFFFFFFFFFFFFFFF AND PUSH20 0xFFFFFFFFFFFFFFFFFFFFFFFFFFFFFFFFFFFFFFFF AND DUP2 MSTORE PUSH1 0x20 ADD SWAP1 DUP2 MSTORE PUSH1 0x20 ADD PUSH0 KECCAK256 PUSH1 0x40 MLOAD PUSH2 0x72D SWAP2 SWAP1 PUSH2 0xE42 JUMP JUMPDEST PUSH1 0x40 MLOAD DUP1 SWAP2 SUB SWAP1 LOG2 POP POP JUMP JUMPDEST TIMESTAMP PUSH1 0x2 PUSH0 CALLER PUSH20 0xFFFFFFFFFFFFFFFFFFFFFFFFFFFFFFFFFFFFFFFF AND PUSH20 0xFFFFFFFFFFFFFFFFFFFFFFFFFFFFFFFFFFFFFFFF AND DUP2 MSTORE PUSH1 0x20 ADD SWAP1 DUP2 MSTORE PUSH1 0x20 ADD PUSH0 KECCAK256 DUP2 SWAP1 SSTORE POP JUMP JUMPDEST PUSH4 0x1E16BC0 DUP2 JUMP JUMPDEST PUSH32 0x0 DUP2 JUMP JUMPDEST PUSH1 0x1 PUSH0 DUP5 PUSH20 0xFFFFFFFFFFFFFFFFFFFFFFFFFFFFFFFFFFFFFFFF AND PUSH20 0xFFFFFFFFFFFFFFFFFFFFFFFFFFFFFFFFFFFFFFFF AND DUP2 MSTORE PUSH1 0x20 ADD SWAP1 DUP2 MSTORE PUSH1 0x20 ADD PUSH0 KECCAK256 DUP3 SWAP1 DUP1 PUSH1 0x1 DUP2 SLOAD ADD DUP1 DUP3 SSTORE DUP1 SWAP2 POP POP PUSH1 0x1 SWAP1 SUB SWAP1 PUSH0 MSTORE PUSH1 0x20 PUSH0 KECCAK256 ADD PUSH0 SWAP1 SWAP2 SWAP1 SWAP2 SWAP1 SWAP2 POP SSTORE PUSH0 PUSH0 DUP5 PUSH20 0xFFFFFFFFFFFFFFFFFFFFFFFFFFFFFFFFFFFFFFFF AND PUSH20 0xFFFFFFFFFFFFFFFFFFFFFFFFFFFFFFFFFFFFFFFF AND DUP2 MSTORE PUSH1 0x20 ADD SWAP1 DUP2 MSTORE PUSH1 0x20 ADD PUSH0 KECCAK256 DUP2 SWAP1 DUP1 PUSH1 0x1 DUP2 SLOAD ADD DUP1 DUP3 SSTORE DUP1 SWAP2 POP POP PUSH1 0x1 SWAP1 SUB SWAP1 PUSH0 MSTORE PUSH1 0x20 PUSH0 KECCAK256 ADD PUSH0 SWAP1 SWAP2 SWAP1 SWAP2 SWAP1 SWAP2 PUSH2 0x100 EXP DUP2 SLOAD DUP2 PUSH20 0xFFFFFFFFFFFFFFFFFFFFFFFFFFFFFFFFFFFFFFFF MUL NOT AND SWAP1 DUP4 PUSH20 0xFFFFFFFFFFFFFFFFFFFFFFFFFFFFFFFFFFFFFFFF AND MUL OR SWAP1 SSTORE POP TIMESTAMP PUSH1 0x2 PUSH0 CALLER PUSH20 0xFFFFFFFFFFFFFFFFFFFFFFFFFFFFFFFFFFFFFFFF AND PUSH20 0xFFFFFFFFFFFFFFFFFFFFFFFFFFFFFFFFFFFFFFFF AND DUP2 MSTORE PUSH1 0x20 ADD SWAP1 DUP2 MSTORE PUSH1 0x20 ADD PUSH0 KECCAK256 DUP2 SWAP1 SSTORE POP POP POP POP JUMP JUMPDEST PUSH0 PUSH0 REVERT JUMPDEST PUSH0 PUSH0 REVERT JUMPDEST PUSH0 PUSH20 0xFFFFFFFFFFFFFFFFFFFFFFFFFFFFFFFFFFFFFFFF DUP3 AND SWAP1 POP SWAP2 SWAP1 POP JUMP JUMPDEST PUSH0 PUSH2 0x91C DUP3 PUSH2 0x8F3 JUMP JUMPDEST SWAP1 POP SWAP2 SWAP1 POP JUMP JUMPDEST PUSH2 0x92C DUP2 PUSH2 0x912 JUMP JUMPDEST DUP2 EQ PUSH2 0x936 JUMPI PUSH0 PUSH0 REVERT JUMPDEST POP JUMP JUMPDEST PUSH0 DUP2 CALLDATALOAD SWAP1 POP PUSH2 0x947 DUP2 PUSH2 0x923 JUMP JUMPDEST SWAP3 SWAP2 POP POP JUMP JUMPDEST PUSH0 DUP2 SWAP1 POP SWAP2 SWAP1 POP JUMP JUMPDEST PUSH2 0x95F DUP2 PUSH2 0x94D JUMP JUMPDEST DUP2 EQ PUSH2 0x969 JUMPI PUSH0 PUSH0 REVERT JUMPDEST POP JUMP JUMPDEST PUSH0 DUP2 CALLDATALOAD SWAP1 POP PUSH2 0x97A DUP2 PUSH2 0x956 JUMP JUMPDEST SWAP3 SWAP2 POP POP JUMP JUMPDEST PUSH0 PUSH0 REVERT JUMPDEST PUSH0 PUSH0 REVERT JUMPDEST PUSH0 PUSH0 REVERT JUMPDEST PUSH0 PUSH0 DUP4 PUSH1 0x1F DUP5 ADD SLT PUSH2 0x9A1 JUMPI PUSH2 0x9A0 PUSH2 0x980 JUMP JUMPDEST JUMPDEST DUP3 CALLDATALOAD SWAP1 POP PUSH8 0xFFFFFFFFFFFFFFFF DUP2 GT ISZERO PUSH2 0x9BE JUMPI PUSH2 0x9BD PUSH2 0x984 JUMP JUMPDEST JUMPDEST PUSH1 0x20 DUP4 ADD SWAP2 POP DUP4 PUSH1 0x1 DUP3 MUL DUP4 ADD GT ISZERO PUSH2 0x9DA JUMPI PUSH2 0x9D9 PUSH2 0x988 JUMP JUMPDEST JUMPDEST SWAP3 POP SWAP3 SWAP1 POP JUMP JUMPDEST PUSH0 PUSH0 PUSH0 PUSH0 PUSH0 PUSH1 0x80 DUP7 DUP9 SUB SLT ISZERO PUSH2 0x9FA JUMPI PUSH2 0x9F9 PUSH2 0x8EB JUMP JUMPDEST JUMPDEST PUSH0 PUSH2 0xA07 DUP9 DUP3 DUP10 ADD PUSH2 0x939 JUMP JUMPDEST SWAP6 POP POP PUSH1 0x20 PUSH2 0xA18 DUP9 DUP3 DUP10 ADD PUSH2 0x939 JUMP JUMPDEST SWAP5 POP POP PUSH1 0x40 PUSH2 0xA29 DUP9 DUP3 DUP10 ADD PUSH2 0x96C JUMP JUMPDEST SWAP4 POP POP PUSH1 0x60 DUP7 ADD CALLDATALOAD PUSH8 0xFFFFFFFFFFFFFFFF DUP2 GT ISZERO PUSH2 0xA4A JUMPI PUSH2 0xA49 PUSH2 0x8EF JUMP JUMPDEST JUMPDEST PUSH2 0xA56 DUP9 DUP3 DUP10 ADD PUSH2 0x98C JUMP JUMPDEST SWAP3 POP SWAP3 POP POP SWAP3 SWAP6 POP SWAP3 SWAP6 SWAP1 SWAP4 POP JUMP JUMPDEST PUSH0 PUSH32 0xFFFFFFFF00000000000000000000000000000000000000000000000000000000 DUP3 AND SWAP1 POP SWAP2 SWAP1 POP JUMP JUMPDEST PUSH2 0xA99 DUP2 PUSH2 0xA65 JUMP JUMPDEST DUP3 MSTORE POP POP JUMP JUMPDEST PUSH0 PUSH1 0x20 DUP3 ADD SWAP1 POP PUSH2 0xAB2 PUSH0 DUP4 ADD DUP5 PUSH2 0xA90 JUMP JUMPDEST SWAP3 SWAP2 POP POP JUMP JUMPDEST PUSH2 0xAC1 DUP2 PUSH2 0x94D JUMP JUMPDEST DUP3 MSTORE POP POP JUMP JUMPDEST PUSH0 PUSH1 0x20 DUP3 ADD SWAP1 POP PUSH2 0xADA PUSH0 DUP4 ADD DUP5 PUSH2 0xAB8 JUMP JUMPDEST SWAP3 SWAP2 POP POP JUMP JUMPDEST PUSH0 PUSH1 0x20 DUP3 DUP5 SUB SLT ISZERO PUSH2 0xAF5 JUMPI PUSH2 0xAF4 PUSH2 0x8EB JUMP JUMPDEST JUMPDEST PUSH0 PUSH2 0xB02 DUP5 DUP3 DUP6 ADD PUSH2 0x939 JUMP JUMPDEST SWAP2 POP POP SWAP3 SWAP2 POP POP JUMP JUMPDEST PUSH0 PUSH4 0xFFFFFFFF DUP3 AND SWAP1 POP SWAP2 SWAP1 POP JUMP JUMPDEST PUSH2 0xB23 DUP2 PUSH2 0xB0B JUMP JUMPDEST DUP3 MSTORE POP POP JUMP JUMPDEST PUSH0 PUSH1 0x20 DUP3 ADD SWAP1 POP PUSH2 0xB3C PUSH0 DUP4 ADD DUP5 PUSH2 0xB1A JUMP JUMPDEST SWAP3 SWAP2 POP POP JUMP JUMPDEST PUSH0 DUP2 SWAP1 POP SWAP2 SWAP1 POP JUMP JUMPDEST PUSH0 PUSH2 0xB65 PUSH2 0xB60 PUSH2 0xB5B DUP5 PUSH2 0x8F3 JUMP JUMPDEST PUSH2 0xB42 JUMP JUMPDEST PUSH2 0x8F3 JUMP JUMPDEST SWAP1 POP SWAP2 SWAP1 POP JUMP JUMPDEST PUSH0 PUSH2 0xB76 DUP3 PUSH2 0xB4B JUMP JUMPDEST SWAP1 POP SWAP2 SWAP1 POP JUMP JUMPDEST PUSH0 PUSH2 0xB87 DUP3 PUSH2 0xB6C JUMP JUMPDEST SWAP1 POP SWAP2 SWAP1 POP JUMP JUMPDEST PUSH2 0xB97 DUP2 PUSH2 0xB7D JUMP JUMPDEST DUP3 MSTORE POP POP JUMP JUMPDEST PUSH0 PUSH1 0x20 DUP3 ADD SWAP1 POP PUSH2 0xBB0 PUSH0 DUP4 ADD DUP5 PUSH2 0xB8E JUMP JUMPDEST SWAP3 SWAP2 POP POP JUMP JUMPDEST PUSH0 DUP2 MLOAD SWAP1 POP PUSH2 0xBC4 DUP2 PUSH2 0x923 JUMP JUMPDEST SWAP3 SWAP2 POP POP JUMP JUMPDEST PUSH0 PUSH1 0x20 DUP3 DUP5 SUB SLT ISZERO PUSH2 0xBDF JUMPI PUSH2 0xBDE PUSH2 0x8EB JUMP JUMPDEST JUMPDEST PUSH0 PUSH2 0xBEC DUP5 DUP3 DUP6 ADD PUSH2 0xBB6 JUMP JUMPDEST SWAP2 POP POP SWAP3 SWAP2 POP POP JUMP JUMPDEST PUSH0 PUSH2 0xBFF DUP3 PUSH2 0x8F3 JUMP JUMPDEST SWAP1 POP SWAP2 SWAP1 POP JUMP JUMPDEST PUSH2 0xC0F DUP2 PUSH2 0xBF5 JUMP JUMPDEST DUP2 EQ PUSH2 0xC19 JUMPI PUSH0 PUSH0 REVERT JUMPDEST POP JUMP JUMPDEST PUSH0 DUP2 CALLDATALOAD SWAP1 POP PUSH2 0xC2A DUP2 PUSH2 0xC06 JUMP JUMPDEST SWAP3 SWAP2 POP POP JUMP JUMPDEST PUSH0 PUSH1 0x20 DUP3 DUP5 SUB SLT ISZERO PUSH2 0xC45 JUMPI PUSH2 0xC44 PUSH2 0x8EB JUMP JUMPDEST JUMPDEST PUSH0 PUSH2 0xC52 DUP5 DUP3 DUP6 ADD PUSH2 0xC1C JUMP JUMPDEST SWAP2 POP POP SWAP3 SWAP2 POP POP JUMP JUMPDEST PUSH32 0x4E487B7100000000000000000000000000000000000000000000000000000000 PUSH0 MSTORE PUSH1 0x11 PUSH1 0x4 MSTORE PUSH1 0x24 PUSH0 REVERT JUMPDEST PUSH0 PUSH2 0xC92 DUP3 PUSH2 0x94D JUMP JUMPDEST SWAP2 POP PUSH2 0xC9D DUP4 PUSH2 0x94D JUMP JUMPDEST SWAP3 POP DUP3 DUP3 SUB SWAP1 POP DUP2 DUP2 GT ISZERO PUSH2 0xCB5 JUMPI PUSH2 0xCB4 PUSH2 0xC5B JUMP JUMPDEST JUMPDEST SWAP3 SWAP2 POP POP JUMP JUMPDEST PUSH32 0x4E487B7100000000000000000000000000000000000000000000000000000000 PUSH0 MSTORE PUSH1 0x32 PUSH1 0x4 MSTORE PUSH1 0x24 PUSH0 REVERT JUMPDEST PUSH2 0xCF1 DUP2 PUSH2 0x912 JUMP JUMPDEST DUP3 MSTORE POP POP JUMP JUMPDEST PUSH0 PUSH1 0x60 DUP3 ADD SWAP1 POP PUSH2 0xD0A PUSH0 DUP4 ADD DUP7 PUSH2 0xCE8 JUMP JUMPDEST PUSH2 0xD17 PUSH1 0x20 DUP4 ADD DUP6 PUSH2 0xCE8 JUMP JUMPDEST PUSH2 0xD24 PUSH1 0x40 DUP4 ADD DUP5 PUSH2 0xAB8 JUMP JUMPDEST SWAP5 SWAP4 POP POP POP POP JUMP JUMPDEST PUSH0 DUP2 SLOAD SWAP1 POP SWAP2 SWAP1 POP JUMP JUMPDEST PUSH0 DUP3 DUP3 MSTORE PUSH1 0x20 DUP3 ADD SWAP1 POP SWAP3 SWAP2 POP POP JUMP JUMPDEST PUSH0 DUP2 SWAP1 POP DUP2 PUSH0 MSTORE PUSH1 0x20 PUSH0 KECCAK256 SWAP1 POP SWAP2 SWAP1 POP JUMP JUMPDEST PUSH2 0xD61 DUP2 PUSH2 0x912 JUMP JUMPDEST DUP3 MSTORE POP POP JUMP JUMPDEST PUSH0 PUSH2 0xD72 DUP4 DUP4 PUSH2 0xD58 JUMP JUMPDEST PUSH1 0x20 DUP4 ADD SWAP1 POP SWAP3 SWAP2 POP POP JUMP JUMPDEST PUSH0 DUP2 PUSH0 SHR SWAP1 POP SWAP2 SWAP1 POP JUMP JUMPDEST PUSH0 PUSH20 0xFFFFFFFFFFFFFFFFFFFFFFFFFFFFFFFFFFFFFFFF DUP3 AND SWAP1 POP SWAP2 SWAP1 POP JUMP JUMPDEST PUSH0 PUSH2 0xDBA PUSH2 0xDB5 DUP4 PUSH2 0xD7E JUMP JUMPDEST PUSH2 0xD89 JUMP JUMPDEST SWAP1 POP SWAP2 SWAP1 POP JUMP JUMPDEST PUSH0 PUSH2 0xDCC DUP3 SLOAD PUSH2 0xDA8 JUMP JUMPDEST SWAP1 POP SWAP2 SWAP1 POP JUMP JUMPDEST PUSH0 PUSH1 0x1 DUP3 ADD SWAP1 POP SWAP2 SWAP1 POP JUMP JUMPDEST PUSH0 PUSH2 0xDE9 DUP3 PUSH2 0xD2C JUMP JUMPDEST PUSH2 0xDF3 DUP2 DUP6 PUSH2 0xD36 JUMP JUMPDEST SWAP4 POP PUSH2 0xDFE DUP4 PUSH2 0xD46 JUMP JUMPDEST DUP1 PUSH0 JUMPDEST DUP4 DUP2 LT ISZERO PUSH2 0xE35 JUMPI PUSH2 0xE12 DUP3 PUSH2 0xDC1 JUMP JUMPDEST PUSH2 0xE1C DUP9 DUP3 PUSH2 0xD67 JUMP JUMPDEST SWAP8 POP PUSH2 0xE27 DUP4 PUSH2 0xDD3 JUMP JUMPDEST SWAP3 POP POP PUSH1 0x1 DUP2 ADD SWAP1 POP PUSH2 0xE01 JUMP JUMPDEST POP DUP6 SWAP4 POP POP POP POP SWAP3 SWAP2 POP POP JUMP JUMPDEST PUSH0 PUSH1 0x20 DUP3 ADD SWAP1 POP DUP2 DUP2 SUB PUSH0 DUP4 ADD MSTORE PUSH2 0xE5A DUP2 DUP5 PUSH2 0xDDF JUMP JUMPDEST SWAP1 POP SWAP3 SWAP2 POP POP JUMP INVALID LOG2 PUSH5 0x6970667358 0x22 SLT KECCAK256 PUSH2 0x1791 0xB5 0xCB SELFDESTRUCT 0xB5 BASEFEE 0xED DUP3 DUP1 SWAP15 DUP13 0x4B 0xC3 0xFC SWAP10 PUSH16 0x1D10F708DD30BBB0CD28E98BA0496473 PUSH16 0x6C634300081E00330000000000000000 "
				},
				"gasEstimates": {
					"creation": {
						"codeDepositCost": "747200",
						"executionCost": "infinite",
						"totalCost": "infinite"
					},
					"external": {
						"REFRESH_TIME()": "397",
						"claim(address)": "infinite",
						"getLastPingedTimeStamp()": "2519",
						"i_cinft()": "infinite",
						"onERC721Received(address,address,uint256,bytes)": "infinite",
						"ping()": "22387"
					},
					"internal": {
						"_addNominee(address,uint256,address)": "117392"
					}
				},
				"methodIdentifiers": {
					"REFRESH_TIME()": "d41af720",
					"claim(address)": "1e83409a",
					"getLastPingedTimeStamp()": "1d88c8be",
					"i_cinft()": "e3187b30",
					"onERC721Received(address,address,uint256,bytes)": "150b7a02",
					"ping()": "5c36b186"
				}
			},
			"storageLayout": {
				"storage": [
					{
						"astId": 319,
						"contract": "Legacy.sol:Legacy",
						"label": "s_subscribersToNominees",
						"offset": 0,
						"slot": "0",
						"type": "t_mapping(t_address,t_array(t_address)dyn_storage)"
					},
					{
						"astId": 324,
						"contract": "Legacy.sol:Legacy",
						"label": "s_subscribersToTokenIds",
						"offset": 0,
						"slot": "1",
						"type": "t_mapping(t_address,t_array(t_uint256)dyn_storage)"
					},
					{
						"astId": 328,
						"contract": "Legacy.sol:Legacy",
						"label": "s_lastPingedTime",
						"offset": 0,
						"slot": "2",
						"type": "t_mapping(t_address,t_uint256)"
					}
				],
				"types": {
					"t_address": {
						"encoding": "inplace",
						"label": "address",
						"numberOfBytes": "20"
					},
					"t_array(t_address)dyn_storage": {
						"base": "t_address",
						"encoding": "dynamic_array",
						"label": "address[]",
						"numberOfBytes": "32"
					},
					"t_array(t_uint256)dyn_storage": {
						"base": "t_uint256",
						"encoding": "dynamic_array",
						"label": "uint256[]",
						"numberOfBytes": "32"
					},
					"t_mapping(t_address,t_array(t_address)dyn_storage)": {
						"encoding": "mapping",
						"key": "t_address",
						"label": "mapping(address => address[])",
						"numberOfBytes": "32",
						"value": "t_array(t_address)dyn_storage"
					},
					"t_mapping(t_address,t_array(t_uint256)dyn_storage)": {
						"encoding": "mapping",
						"key": "t_address",
						"label": "mapping(address => uint256[])",
						"numberOfBytes": "32",
						"value": "t_array(t_uint256)dyn_storage"
					},
					"t_mapping(t_address,t_uint256)": {
						"encoding": "mapping",
						"key": "t_address",
						"label": "mapping(address => uint256)",
						"numberOfBytes": "32",
						"value": "t_uint256"
					},
					"t_uint256": {
						"encoding": "inplace",
						"label": "uint256",
						"numberOfBytes": "32"
					}
				}
			},
			"userdoc": {
				"kind": "user",
				"methods": {},
				"version": 1
			}
		}
	}
}